:100000000C9405120C94625D0C94375D0C940C5D9D
:100010000C94E15C0C94B65C0C948B5C0C94605C6E
:100020000C94355C0C9468A00C9441A00C941AA01C
:100030000C9436120C9436120C9436120C94361220
:100040000C9436120C94D2400C9436120C94361246
:100050000C9436120C9436120C94A94F0C94EB5B52
:100060000C9436120C94A38A0C9436120C9436120B
:100070000C9436120C9436120C9436120C943612E0
:100080000C94F0480C9436120C9436120C943612E0
:100090000C9436120C9436120C9436120C943612C0
:1000A0000C9436120C9436120C94C2480C943612EE
:1000B0000C9436120C9436120C9436120C9494480C
:1000C0000C9436120C9436120C9436120C94361290
:1000D0000C9436120C9436120C9436120C94361280
:1000E0000C943612E559E859D759DB59E1591F5A92
:1000F000EC59F059F659FA59FE59045A085A0C5A53
:100100001F5A125A165A1A5AE25AE75AEC5AF65A13
:10011000005B795B0A5B125B1A5B245B2E5B385BCE
:10012000475B515B795B5B5B655B6F5B5C706870C9
:100130006F7075707B70817087708D700A719370AD
:100140000A710A71A07067717C7192719671B171B8
:10015000C171DF71F6712D7313722D7329722D73B6
:1001600048724E72BA72D072E572EA7201731973F4
:10017000084AD73B3BCE016E84BCBFFDC12F3D6C0E
:1001800074319ABD56833DDA3D00C77F11BED9E474
:10019000BB4C3E916BAAAABE000000803F05A84C54
:1001A000CDB2D44EB93836A9020C50B99186880820
:1001B0003CA6AAAA2ABE000000803F004E414E493C
:1001C0004E495459494E46CDCCCC3D0AD7233C1715
:1001D000B7D13877CC2B329595E6241FB14F0A0062
:1001E0000020410000C84200401C4620BCBE4CCA52
:1001F0001B0E5AAEC59D7400407A10F35A00A072CF
:100200004E18090010A5D4E80000E8764817000051
:10021000E40B54020000CA9A3B000000E1F505001F
:100220000080969800000040420F000000A0860168
:10023000000000102700000000E803000000006438
:1002400000000000000A00000000000100000000A3
:10025000002C76D888DC674F0823DFC1DFAE59E178
:10026000B1B796E5E3E453C63AE651997696E8E6E7
:10027000C28426EB898C9B62ED407C6FFCEFBC9CBA
:100280009F40F2BAA56FA5F490055A2AF75C936BCC
:100290006CF9676DC11BFCE0E40D47FEF520E6B587
:1002A00000D0ED902E0300943577050080841E0861
:1002B0000000204E0A000000C80C333333330F987F
:1002C0006E12831141EF8D2114893BE65516CFFE46
:1002D000E6DB18D1844B381BF77C1D901DA4BBE4D2
:1002E00024203284725E228100C9F124ECA1E53D14
:1002F00027434F4D4D554E49434154494F4E0044BD
:10030000525952554E004552524F525300494E4693
:100310004F004543484F0020746F6F206C6F6E672D
:1003200020657874727573696F6E2070726576657A
:100330006E7465640A0020636F6C64206578747263
:100340007573696F6E2070726576656E7465640A88
:100350000047322F47332062616420706172616D03
:1003600065746572730A00486F6D65205859206680
:10037000697273740A00205A3A200020593A20000A
:1003800042656420583A200046696C616D656E7460
:1003900020757365643A200053746174733A2000C9
:1003A0002C204C6F6E67657374206A6F623A200070
:1003B000546F74616C2074696D653A2000537461E8
:1003C00074733A20002C204661696C65643A200001
:1003D0002C2046696E69736865643A200050726922
:1003E0006E74733A200053746174733A20001203E0
:1003F0000D030603FF02F1026F6666004445425595
:10040000473A004B494C4C45442E20004D31313386
:100410002053006F6B0020573A0020573A002054B9
:1004200000205200416363656C65726174696F6E90
:100430003A205000546F6F206661722066726F6DB3
:10044000207265666572656E636520706F696E7493
:100450000A00205A00205900580020204D61783AA7
:100460002000205A00205900580020204D696E3A83
:1004700020004F6E20004F666600536F6674206543
:100480006E6473746F70733A200020466C6F773A15
:100490002000000136372603FFFFFF353C3D380EB4
:1004A000FFFFFF312E303E1213FFFFFF28FF0C0825
:1004B00009FFFF051A1C18FFFF2A08440AFF432002
:1004C0006F7574206F662072616E67650A005365F0
:1004D00072766F20003A200020536572766F2000FC
:1004E00020643A0020693A0020703A00496E766133
:1004F0006C69642065787472756465720A004329BA
:100500000A0061626C656420286D696E2074656DF7
:10051000702000436F6C6420657874727564657335
:100520002061726520004E6F2063617365206C69E5
:100530006768740A00426564204C6576656C696E74
:100540006720004661696C656420746F20656E6188
:10055000626C6520426564204C6576656C696E67E7
:100560000A00426564204C6576656C20436F7272A8
:10057000656374696F6E204D61747269783A003AF0
:10058000200050726F6265205A204F666673657452
:10059000003F5A206F7574206F662072616E676528
:1005A00020282D323020746F203230290A006178E3
:1005B00069733A70776D5F7363616C65207C7374E7
:1005C000617475735F726573706F6E73657C0A001A
:1005D000473238205A000A486F6D696E67205A20EA
:1005E00064756520746F206C6F737420737465700C
:1005F000730A000A43616C6962726174696F6E20EC
:1006000063757272656E743A205A000A506C6561A7
:10061000736520686F6D65205A2061786973206664
:10062000697273740A004163746976652045787451
:1006300072756465723A2000496E76616C69642057
:1006400065787472756465720A004B494C4C454478
:100650002E2000202D20496E76616C69642065781B
:10066000747275646572206E756D62657220210A00
:10067000002020506C616E6E657242756666657210
:1006800042797465733A20002046726565204D6595
:100690006D6F72793A2000436F6D70696C65643AD2
:1006A000204F637420203820323031380A00207CFB
:1006B00020417574686F723A2028426175736932FF
:1006C0003031322C2064656661756C7420636F6E06
:1006D000666967290A00323031382D30382D3031C3
:1006E00000204C61737420557064617465643A2015
:1006F00000312E312E390A004D61726C696E002076
:10070000536F6674776172652052657365740A0071
:10071000205761746368646F672052657365740A5B
:10072000002042726F776E206F757420526573657A
:10073000740A002045787465726E616C205265738E
:1007400065740A00506F77657255700A00737461A2
:1007500072740A00205A3A0020593A0020583A0090
:10076000656E6473746F7073206869743A2000500A
:1007700072696E7465722073746F70706564206442
:10078000756520746F206572726F72732E204669D2
:100790007820746865206572726F7220616E6420C3
:1007A000757365204D39393920746F207265737403
:1007B0006172742E202854656D7065726174757253
:1007C000652069732072657365742E2053657420EB
:1007D00069742061667465722072657374617274E5
:1007E000696E67290A0053544F502063616C6C6531
:1007F000642062656361757365206F6620424C54A6
:100800006F756368206572726F72202D2072657338
:10081000746172742077697468204D3939390A001F
:10082000486F6D696E67206661696C6564000A0ACD
:10083000426564204C6576656C20436F7272656317
:1008400074696F6E204D61747269783A00202B00D4
:100850000A436F7272656374656420426564204860
:1008600065696768742076732E2042656420546F32
:10087000706F6C6F67793A0A00202B000A4265643A
:100880002048656967687420546F706F6772617083
:1008900068793A0A2020202B2D2D2D204241434BF0
:1008A000202D2D2B0A2020207C20202020202020DD
:1008B000202020207C0A204C207C20202020282B57
:1008C00029202020207C20520A2045207C20202026
:1008D00020202020202020207C20490A2046207C27
:1008E00020282D29204E20282B29207C20470A2033
:1008F00054207C20202020202020202020207C200C
:10090000480A2020207C20202020282D292020205B
:10091000207C20540A2020207C2020202020202001
:10092000202020207C0A2020204F2D2D2046524FB1
:100930004E54202D2D2B0A2028302C30290A004D12
:1009400065616E206F662073616D706C65642070E8
:100950006F696E74733A200020643A200020623A76
:10096000200045716E20636F656666696369656E18
:1009700074733A20613A2000202844525952554E4F
:100980002900473239204175746F20426564204C3C
:100990006576656C696E67003F20284C2C522C46AA
:1009A0002C4229206F7574206F6620626F756E640B
:1009B000732E0A003F50726F626520706F696E740B
:1009C000732028592920697320696D706C617573D3
:1009D00069626C652028322D32292E0A003F507240
:1009E0006F626520706F696E7473202858292069C2
:1009F0007320696D706C61757369626C6520283253
:100A00002D32292E0A003F2856296572626F7365C0
:100A1000206C6576656C20697320696D706C6175FA
:100A20007369626C652028302D34292E0A0024F465
:100A3000D43050C38E20C2A24017828B7011127A1C
:100A4000910D816CD90AA861E108C7586607615108
:100A500043061E4B5D05C145A7041A411104093D1B
:100A60009803713931034036DB0265339102D4308B
:100A70005402802E1D02632CEE01752AC501B02898
:100A8000A001102781018F2564012B244B01E02256
:100A90003401AC211F018D200D01801FFC00841E3C
:100AA000ED00971DDF00B81CD200E61BC600201B1E
:100AB000BC00641AB200B219A8000A19A0006A1892
:100AC0009900D117910040178B00B516840031169C
:100AD0007E00B31579003A157300C7146F005814DF
:100AE0006A00EE1366008813630025135E00C712C8
:100AF0005B006C12570015125400C11151007011A7
:100B00004F0021114B00D61049008D1047004610B0
:100B1000440002104200C00F4000800F3E00420F10
:100B20003C00060F3B00CB0E3800930E37005C0EE6
:100B30003500270E3400F30D3200C10D3100900D49
:100B40003000600D2E00320D2D00050D2C00D90C4B
:100B50002B00AE0C2900850C29005C0C2700350CFD
:100B600027000E0C2600E80B2400C40B2400A00B69
:100B700023007D0B23005A0B2100390B2100180B99
:100B80002000F80A1F00D90A1E00BB0A1E009D0A99
:100B90001D00800A1D00630A1C00470A1B002C0A66
:100BA0001B00110A1A00F7091A00DD091900C4090F
:100BB0001900AB091900920917007B091800630995
:100BC00017004C09160036091600200916000A09FC
:100BD0001500F5081500E0081400CC081400B8084A
:100BE0001400A4081400900813007D0812006B087C
:100BF0001300580812004608120034081100230898
:100C000011001208110001081100F0071000E007A0
:100C10001000D0071000C0071000B0070F00A10798
:100C2000100091070E0083070F0074070F0065077F
:100C30000E0057070E0049070E003B070D002E0758
:100C40000E0020070D0013070D0006070D00F90622
:100C50000C00ED060D00E0060C00D4060C00C806E2
:100C60000C00BC060C00B0060C00A4060B00990694
:100C70000C008D060B0082060B0077060B006C063D
:100C80000B0061060A0057060B004C060A004206DC
:100C90000A0038060A002E060A0024060A001A0670
:100CA0000A001006090007060A00FD050900F40500
:100CB0000900EB050900E2050900D9050900D00586
:100CC0000900C7050900BE050900B5050800AD0506
:100CD0000800A50509009C050800940508008C057E
:100CE0000800840508007C050800740508006C05F0
:100CF0000700650508005D050700560508004E055C
:100D000007004705070040050800380507003105C2
:100D100007002A050700230507001C050600160525
:100D200007000F0507000805060002050700FB0481
:100D30000600F5040700EE040600E8040600E204DD
:100D40000700DB040600D5040600CF040600C90432
:100D50000600C3040600BD040600B7040600B10483
:100D60000500AC040600A6040600A00405009B04D0
:100D7000060095040500900406008A040500850419
:100D80000500800406007A0405007504050070045F
:100D900005006B04050066040500610405005C04A1
:100DA000050057040500520405004D0405004804E1
:100DB0000500430405003E0404003A040500350420
:100DC0000500300404002C0405002704040023045B
:100DD00005001E0404001A04040016040500110492
:100DE00004000D04040009040500040404000004C8
:100DF0000400FC030400F8030400F4030400F003FF
:100E00000400EC030400E8030400E4030400E0032E
:100E10000400DC030400D8030400D4030400D0035E
:100E20000400CC030400C8030300C503030024F43A
:100E300004D9201BC40C5C0E9804C4095F0265072A
:100E40007101F405F900FB04B30048048700C103F5
:100E500069005803550003034500BE023A008402AE
:100E6000310053022A002902250004022000E40177
:100E70001C00C8011900AF0117009801140084017B
:100E80001300710110006101100051010E004301B7
:100E90000D0036010B002B010B0020010B0015018A
:100EA00009000C01090003010800FB000800F30021
:100EB0000800EB000700E4000600DE000600D80092
:100EC0000600D2000600CC000500C7000500C200E5
:100ED0000500BD000400B9000400B5000400B10025
:100EE0000400AD000400A9000400A5000300A20056
:100EF00003009F0004009B0003009800030095007E
:100F0000020093000300900003008D0002008B009C
:100F100003008800020086000200840003008100B4
:100F200002007F0002007D0002007B0002007900C9
:100F300002007700010076000200740002007200D7
:100F40000100710002006F0002006D0001006C00E2
:100F500002006A00010069000200670001006600EB
:100F600001006500010064000200620001006100F0
:100F70000100600001005F0002005D0001005C00F4
:100F800001005B0001005A000100590001005800F7
:100F900001005700010056000100550001005400F7
:100FA00001005300000053000100520001005100F5
:100FB0000100500001004F0001004E0000004E00F3
:100FC00001004D0001004C0001004B0000004B00EF
:100FD00001004A00010049000100480000004800EB
:100FE00001004700010046000000460001004500E6
:100FF00000004500010044000100430000004300E0
:1010000001004200000042000100410000004100D8
:101010000100400001003F0000003F0001003E00D1
:1010200000003E0001003D0000003D0001003C00CA
:1010300000003C0000003C0001003B0000003B00C1
:1010400001003A0000003A000100390000003900B8
:1010500001003800000038000000380001003700AF
:1010600000003700010036000000360000003600A6
:10107000010035000000350000003500010034009B
:101080000000340000003400010033000000330091
:101090000000330001003200000032000000320086
:1010A000010031000000310000003100010030007B
:1010B000000030000000300001002F0000002F0071
:1010C00000002F0000002F0001002E0000002E0065
:1010D00000002E0001002D0000002D0000002D005A
:1010E00000002D0001002C0000002C0000002C004E
:1010F00000002C0001002B0000002B0000002B0042
:1011000000002B0001002A0000002A0000002A0035
:1011100000002A0001002900000029000000290029
:10112000000029000000290001002800000028001C
:10113000000028000000280000002800010027000F
:101140000000270000002700000027000000270003
:1011500001002600000026000000260000002600F6
:1011600000002600010025000000250000002500E9
:1011700000002500000025000000250001002400DB
:1011800000002400000024000000240000002400CF
:1011900001002300000023000000230000002300C2
:1011A00000002300000023000000230001002200B3
:1011B00000002200000022000000220000002200A7
:1011C0000000220001002100000021000000210099
:1011D000000021000000210000002100000021008B
:1011E000010020000000200000002000000020007E
:1011F000000020000000200000002000000020006F
:1012000001001F0000001F0000001F0000001F0061
:1012100000001F0000001F0000001F0001001E0052
:1012200000001E0000001E0000001E000000043729
:1012300000001E290000511B00005810000010097A
:101240000000CC0400007802000041010000453499
:10125000004533004532004531004530005A320028
:101260005932005832005A00590058006265640A29
:10127000002C2073797374656D2073746F707065C2
:101280006421204865617465725F49443A200042D8
:1012900065642068656174696E67206661696C6564
:1012A000640048656174696E67206661696C656495
:1012B0000045312048656174696E67206661696C1C
:1012C00065640048656174696E67206661696C6574
:1012D000640070012C0190012701B0012201C001BE
:1012E0001D01F00118011002130130020E0160020D
:1012F000090190020401C002FF000003FA0040034C
:10130000F5008003F000D003EB002004E600700439
:10131000E100E004DC004005D700C005D200400633
:10132000CD00D006C8008007C3003008BE00F0081A
:10133000B900C009B400B00AAF00B00BAA00D00CCD
:10134000A500000EA000500F9B00C0109600501288
:10135000910000148C00C0158700B0178200B019EE
:101360007D00D01B7800001E730040206E0090228C
:101370006900F024640040275F0090295A00E02BA8
:101380005500102E500020304B0010324600E03344
:10139000410090353C001037370070383200A039DA
:1013A0002D00B03A2800A03B2300603C1E00103DF9
:1013B0001900903D1400103E0F00703E0A00C03E20
:1013C0000500003F0000403FFBFF803FF6FFC03FAD
:1013D000F1FF453120544845524D414C2052554E65
:1013E000415741590042454420544845524D414CD3
:1013F0002052554E4157415900546865726D616CD9
:101400002052756E61776179004531204572723ADC
:10141000204D415854454D50004572723A204D417F
:101420005854454D5020424544004D415854454D77
:1014300050207472696767657265640045312045A4
:1014400072723A204D494E54454D50004572723AE1
:10145000204D494E54454D5020424544004D494E83
:1014600054454D5020747269676765726564002049
:101470002F002042403A0020403A006A126812666B
:1014800012631260125D125A125712541251124E08
:1014900012747275650066616C7365002074656D09
:1014A0007065726174757265207072657761726EB5
:1014B000207472696767657265643A2000207072F3
:1014C000657761726E20666C616720636C6561721E
:1014D00065640A0020686F6D696E672073656E73BE
:1014E000697469766974793A20000000200023004D
:1014F000260029002C002F0032000001000003010B
:10150000060109014572726F723A00010210202033
:101510000808102040102040800201020108040247
:1015200001010204081020408080402010080402BD
:101530000180040201804020100804020108040216
:10154000010102040810204080010204081020401C
:101550008000002200250028002B002E00310034DE
:101560000002010000050108010B01050505050742
:101570000508080808020202020A0A08080404040E
:10158000040101010101010101030303030303033A
:1015900003040707070C0C0C0C0C0C0C0C020202C9
:1015A0000206060606060606060B0B0B0B0B0B0BBC
:1015B0000B00002100240027002A002D00300033FA
:1015C0000001010000040107010A0100000A0B02EA
:1015D000090C0D0E080703040100000000000000C4
:1015E00000000000000000000000000000000000FB
:1015F00000000000000000121110000000000000B8
:1016000000000000000000000000000000000000DA
:101610000020746F6F206C6F6E6720657874727530
:1016200073696F6E2070726576656E7465640A000A
:1016300020636F6C6420657874727573696F6E20B7
:1016400070726576656E7465640A00747275650003
:1016500066616C736500747275650066616C7365B4
:1016600000747275650066616C736500313D2E31E2
:101670003800303D2E333235002F3331002F3331D7
:10168000002F333100747275650066616C736500FC
:10169000203D203078004469666665723A20004635
:1016A000726F6D5374703A00537465707065723A5E
:1016B00000556E4C6576656C3A004C6576656C65D8
:1016C000643A005261773A20202020000A4C6F676C
:1016D0006963616C3A002C20002C20003A004361C1
:1016E000703A00544845524D414C5F50524F54455A
:1016F0004354494F4E004155544F5245504F525458
:101700005F53445F53544154555300454D45524730
:10171000454E43595F504152534552004341534552
:101720005F4C494748545F4252494748544E4553DD
:101730005300544F47474C455F4C4947485453006A
:10174000534F4654574152455F504F574552004200
:1017500055494C445F50455243454E54004C455604
:10176000454C494E475F44415441005A5F50524FE7
:101770004245004155544F4C4556454C0050524946
:101780004E545F4A4F420050524F47524553530008
:101790004155544F5245504F52545F54454D50009F
:1017A000564F4C554D455452494300454550524FB4
:1017B0004D0053455249414C5F584F4E5F584F467C
:1017C00046004649524D574152455F4E414D453ABC
:1017D0004D61726C696E20312E312E392028476997
:1017E000746875622920534F555243455F434F44F7
:1017F000455F55524C3A68747470733A2F2F67697D
:10180000746875622E636F6D2F4D61726C696E46E0
:1018100069726D776172652F4D61726C696E2050CF
:10182000524F544F434F4C5F56455253494F4E3AD7
:10183000312E30204D414348494E455F5459504563
:101840003A52616D70735F312E36204558545255AF
:101850004445525F434F554E543A31205555494403
:101860003A64656433303464392D343866612D341C
:101870006130622D623533392D343238666432611D
:1018800031376332330A002F2F200020643A0020C2
:10189000693A0020703A004B642000236465666951
:1018A0006E652044454641554C545F004B6920000D
:1018B00023646566696E652044454641554C545F16
:1018C000004B70200023646566696E6520444546C0
:1018D00041554C545F00504944204175746F7475F4
:1018E0006E652066696E6973686564212050757441
:1018F00020746865206C617374204B702C204B69D8
:1019000020616E64204B6420636F6E7374616E742B
:10191000732066726F6D2062656C6F7720696E74DC
:101920006F20436F6E66696775726174696F6E2EA2
:10193000680A00504944204175746F74756E6520C3
:101940006661696C6564212074696D656F75740AE0
:1019500000453120544845524D414C2052554E418E
:101960005741590042454420544845524D414C206E
:1019700052554E4157415900546865726D616C2053
:1019800052756E61776179004531204865617469EF
:101990006E67206661696C656400426564206865F5
:1019A0006174696E67206661696C65640048656191
:1019B00074696E67206661696C65640050494420F3
:1019C0004175746F74756E65206661696C6564211C
:1019D0002054656D706572617475726520746F6FE7
:1019E00020686967680A00204B643A2000204B6930
:1019F0003A2000204B703A20000A20436C61737338
:101A0000696320504944200A002054753A20002080
:101A10004B753A2000206D61783A2000206D696E88
:101A20003A200020643A200020626961733A200065
:101A3000504944204175746F74756E652066616904
:101A40006C656421204261642065787472756465F8
:101A500072206E756D6265720A00504944204175AE
:101A6000746F74756E652073746172740A004545F5
:101A700050524F4D204F4B0A0020647269766572B8
:101A80002063757272656E743A20000000000000D9
:101A90000050C10000000000004842000048420021
:101AA000008040000000005761726E696E673A2046
:101AB000486F6D696E672042756D70204469766964
:101AC000736F72203C20310A000202040000000003
:101AD00000000000000000400000AF430000AF43E2
:101AE00000009943FFFFFF4572726F7220777269A1
:101AF00074696E6720746F20454550524F4D210A1E
:101B000000454550524F4D206461746173697A6598
:101B1000206572726F722E0A00290A0020627974A1
:101B200065733B20637263200053657474696E674C
:101B3000732053746F726564202800256973002533
:101B4000696D20256973002569682025696D202548
:101B5000697300256964202569682025696D202541
:101B60006973002569792025696420256968202525
:101B7000696D2025697300656E7175657565696E9F
:101B8000672022004C696E65204E756D626572207B
:101B90006973206E6F74204C617374204C696E659C
:101BA000204E756D6265722B312C204C6173742050
:101BB0004C696E653A20004B494C4C45442E200040
:101BC0005072696E7465722073746F7070656420F2
:101BD00064756520746F206572726F72732E204673
:101BE000697820746865206572726F7220616E6416
:101BF00020757365204D39393920746F20726573F3
:101C0000746172742E202854656D706572617475EC
:101C100072652069732072657365742E2053657434
:101C200020697420616674657220726573746172D4
:101C300074696E67290A004E6F20436865636B7391
:101C4000756D2077697468206C696E65206E756D9E
:101C50006265722C204C617374204C696E653A2069
:101C600000636865636B73756D206D69736D617476
:101C700063682C204C617374204C696E653A2000B7
:101C80004D3131300020496E76616C696420657891
:101C9000747275646572200000000000000050C17D
:101CA000000000000000AF430080A84300009943FB
:101CB00048617264636F6465642044656661756C35
:101CC000742053657474696E6773204C6F6164652A
:101CD000640A00B80B0000B80B000064000000109C
:101CE00027000000009643000096430000A040003B
:101CF00000C841856BA0425C8FA0420000C84452DE
:101D000038DE4320204D393036003A0A0020286D55
:101D10006D290020204D3931340020590020580011
:101D200053656E736F726C65737320686F6D696E47
:101D300067207468726573686F6C643A0A00205497
:101D400030204500205A0020590020580053746567
:101D50007070657220647269766572206375727244
:101D6000656E743A0A0020204D383531205A005AE9
:101D70002D50726F6265204F666673657400204453
:101D80000020490020204D333034205000204400F2
:101D900020490020204D333031205000504944204C
:101DA00073657474696E67733A0A0020204D34328B
:101DB000302053004175746F20426564204C657675
:101DC000656C696E673A0A00205A0020590020208D
:101DD0004D323036205800486F6D65206F6666734F
:101DE00065743A0A00204500205A00205900205806
:101DF0000020540020530020204D32303520510067
:101E000020453C6D61785F655F6A65726B3E0020BE
:101E1000583C6D61785F785F6A65726B3E20593C13
:101E20006D61785F795F6A65726B3E205A3C6D61C7
:101E3000785F7A5F6A65726B3E00416476616E63BB
:101E400065643A20513C6D696E5F7365676D656EC0
:101E5000745F74696D655F75733E20533C6D696E88
:101E60005F66656564726174653E20543C6D696EA1
:101E70005F74726176656C5F6665656472617465D6
:101E80003E0020540020520020204D32303420509B
:101E900000416363656C65726174696F6E202875BB
:101EA0006E6974732F7332293A20503C7072696ED8
:101EB000745F616363656C3E20523C72657472614D
:101EC00063745F616363656C3E20543C7472617639
:101ED000656C5F616363656C3E0A00204500205AB3
:101EE0000020590020204D3230312058004D6178BB
:101EF000696D756D20416363656C65726174696FAE
:101F00006E2028756E6974732F7332293A0A002087
:101F10004500205A0020590020204D3230332058EF
:101F2000004D6178696D756D2066656564726174D8
:101F300065732028756E6974732F73293A0A00201F
:101F40004500205A0020590020204D3932205800E9
:101F500053746570732070657220756E69743A0AE7
:101F60000020204D3230302044300A0020204D32F5
:101F700030302044002044697361626C65640A005B
:101F800046696C616D656E742073657474696E6703
:101F9000733A002020473231202020203B00447239
:101FA00069766572207265676973746572733A0049
:101FB0006F7409006F7470770900733267610900EC
:101FC0007332676209006F6C6109006F6C6209000F
:101FD00073747374090066736163746976650900CC
:101FE00073675F726573756C7409007374616C6CF0
:101FF00067756172640900445256535441545553F5
:10200000005374616C6C67756172642074687273DC
:10201000002D737461727409006879737465726558
:102020007369730A2D656E640900626C616E6B20C2
:1020300074696D65006F66662074696D6509004F8F
:1020400054207072657761726E206861730A6265F0
:10205000656E20747269676765726564004F54200D
:102060007072657761726E005B6D6D2F735D090034
:1020700070776D0A7468726573686F6C64090074B8
:102080007374657009006D737465707309007374FF
:1020900065616C746843686F70007673656E736514
:1020A000090050574D207363616C6509004353204C
:1020B00061637475616C0900486F6C6420637572AC
:1020C00072656E740052756E2063757272656E74FF
:1020D000004D41582063757272656E7400524D5305
:1020E0002063757272656E74005365742063757237
:1020F00072656E7400456E61626C6564090009006A
:1021000025753A2530327500253032753A25303242
:10211000750025756420253032753A2530327500FA
:102120007C2000207C3062003A002063757272656A
:102130006E742064656372656173656420746F20DA
:10214000006D41290A0020647269766572206F76FD
:10215000657274656D706572617475726520776102
:10216000726E696E67212028003A200044726976F9
:102170006572206572726F720073686F727420747A
:102180006F2067726F756E642028636F696C2042E0
:10219000290A0073686F727420746F2067726F75FC
:1021A0006E642028636F696C2041290A006F766590
:1021B0007274656D70657261747572650A00206471
:1021C0007269766572206572726F722064657465DB
:1021D000637465643A0A00290A00206279746573A1
:1021E0003B2063726320002073746F7265642073F8
:1021F000657474696E67732072657472696576655B
:1022000064202800202863616C63756C61746564C8
:1022100029210A0020213D2000454550524F4D20E4
:10222000435243206D69736D61746368202D2028CB
:1022300073746F7265642920002053697A653A20AF
:1022400000496E6465783A2000204D61726C696EB9
:102250003D563535290A0028454550524F4D3D0021
:10226000454550524F4D2076657273696F6E206DF3
:1022700069736D6174636820005452494747455241
:102280004544006F70656E003A20007A5F6D61789A
:10229000007A5F6D696E00795F6D696E00785F6DC1
:1022A000696E005265706F7274696E6720656E6446
:1022B00073746F70207374617475730A0052657360
:1022C000656E643A20006F6B00627573793A207016
:1022D000617573656420666F7220696E7075740A2B
:1022E00000627573793A2070617573656420666F5A
:1022F0007220757365720A00627573793A20707284
:102300006F63657373696E670A004B494C4C4544B3
:102310002E20004B494C4C2063617573656420622C
:102320007920746F6F206D75636820696E616374C6
:102330006976652074696D65202D206375727265FC
:102340006E7420636F6D6D616E643A200050726927
:102350006E7465722068616C7465642E206B696CA4
:102360006C28292063616C6C6564210A00507269D5
:102370006E742074696D653A200050726F746563E5
:102380007465642050696E0A0050533A310A005057
:10239000533A300A00205A3A0020593A0020436F3D
:1023A000756E7420583A0020453A00205A3A0020B1
:1023B000593A00583A00556E6B6E6F776E20636F16
:1023C0006D6D616E643A20220050726F62696E67B3
:1023D000206661696C65640A00205A3A2000205921
:1023E0003A200042656420583A20002066697273E2
:1023F000740A005A0059005800486F6D6520006546
:1024000063686F3A00006FB118B311241FBECFEF9D
:10241000D1E2DEBFCDBF00E00CBF13E0A0E0B2E030
:10242000E0E5F6E801E00BBF02C007900D92A8318D
:10243000B107D9F72FE0A8E1B3E001C01D92AB3C92
:10244000B207E1F712E1C4E0D2E100E006C0219753
:102450000109802FFE010E94CEC2C330D10780E067
:102460000807A9F70E94BFAB0C9417C30C94000097
:102470002F923F924F925F926F927F928F929F9294
:10248000AF92BF92CF92DF92EF92FF920F931F9382
:10249000CF93DF93CDB7DEB7CB56D1090FB6F89403
:1024A000DEBF0FBECDBF11E010935C0F80917C03A7
:1024B0008D3411F40C94841A843511F40C94782A18
:1024C000873411F00C94C22A80917A0390917B0397
:1024D0008C31910509F41BC67CF4843091053CF4E1
:1024E000823091054CF597FF20C00C94801A049718
:1024F00009F4D8C50C94801A8A35910509F4F8C7F7
:1025000044F48D31910509F41AC74E9709F41BC79D
:10251000F7C78B35910509F4EFC78C35910509F0A4
:10252000EFC70E9470A70C94C42A809130028111D9
:102530000C94C92A0C94C42A20913002222311F44D
:102540000C94C42A11E0029709F010E00E945F2E5B
:1025500082E50E94E886882309F444C10E946A86C5
:102560006B017C014090B40F5090B50F6090B60F96
:102570007090B70F8091B80F9091B90FA091BA0FDA
:10258000B091BB0F8AAB9BABACABBDAB2091460E01
:102590003091470E4091480E5091490E2EAB3FAB03
:1025A00048AF59AF80914A0E90914B0EA0914C0EBE
:1025B000B0914D0E22968CAF9DAFAEAFBFAF2297BC
:1025C00020E030E0A901C701B6010E9411B98823BB
:1025D00009F44EC5A30192016EA97FA988AD99ADFA
:1025E0000E9411B981110FC02AA93BA94CA95DA96C
:1025F00022966CAD7DAD8EAD9FAD22970E9411B934
:10260000882309F435C520E030E0A901C701B601EF
:102610000E9411B9881F8827881F18130BC020E05B
:1026200030E040E85FE32E962CAF3DAF4EAF5FAF9A
:102630002E970AC080E090E0A0E8BFEB2E968CAF0A
:102640009DAFAEAFBFAF2E97A30192016EA97FA938
:1026500088AD99AD0E94DFBF2A966CAF7DAF8EAF7B
:102660009FAF2A972AA93BA94CA95DA922966CADD8
:102670007DAD8EAD9FAD22970E94DFBF26966CAFD9
:102680007DAF8EAF9FAF26972A962CAD3DAD4EAD58
:102690005FAD2A97CA01B9010E9476B94B015C016E
:1026A00026962CAD3DAD4EAD5FAD2697CA01B90162
:1026B0000E9476B99B01AC01C501B4010E94E0BF44
:1026C0000E944DC26AAF7BAF8CAF9DAF20E030E07F
:1026D00040E05FE30E9476B94B015C01A7019601DF
:1026E000C701B6010E9476B96B017C01A501940176
:1026F000C501B4010E9476B99B01AC01C701B601C6
:102700000E94DFBF0E944DC29B01AC012E966CADB2
:102710007DAD8EAD9FAD2E970E9476B94B015C01C9
:102720002EA93FA948AD59ADC301B2010E94E0BF37
:1027300020E030E040E05FE30E9476B96B017C016D
:1027400026966CAD7DAD8EAD9FAD269790582AAD87
:102750003BAD4CAD5DAD0E94BCC09B01AC01C50161
:10276000B4010E9476B99B01AC01C701B6010E9479
:10277000E0BFA30192010E94DFBF6B017C012296A2
:102780002CAD3DAD4EAD5FAD22976AA97BA98CA95A
:102790009DA90E94E0BF20E030E040E05FE30E949E
:1027A00076B92B013C012AAD3BAD4CAD5DAD2A960F
:1027B0006CAD7DAD8EAD9FAD2A970E94BCC09B01D4
:1027C000AC01C501B4010E9476B99B01AC01C30103
:1027D000B2010E94E0BF2AA93BA94CA95DA90E94B1
:1027E000DFBF14C089E40E94E886882329F00E9494
:1027F0006A866B017C0103C0C12CD12C76018AE46E
:102800000E94E8868823F9F00E946A8622966CAFBF
:102810007DAF8EAF9FAF229720E030E0A901C701C6
:10282000B6010E9411B981111EC020E030E0A9015B
:1028300022966CAD7DAD8EAD9FAD22970E9411B9F1
:10284000811111C015C420E030E0A901C701B60113
:102850000E9411B9882309F40BC422961CAE1DAE48
:102860001EAE1FAE2297A701960150582AAB3BAB74
:102870004CAB5DAB22968CAD9DADAEADBFAD22979E
:10288000B0588EAB9FABA8AFB9AFCA01B9010E94D7
:1028900076B94B015C012EA93FA948AD59ADCA01DB
:1028A000B9010E9476B99B01AC01C501B4010E9437
:1028B000E0BF0E944DC26E966CAF7DAF8EAF9FAFF2
:1028C0006E972091B40F3091B50F4091B60F509193
:1028D000B70F2AAF3BAF4CAF5DAFA70196016AAD12
:1028E0007BAD8CAD9DAD0E94E0BF2E966CAF7DAFF1
:1028F0008EAF9FAF2E978091B80F9091B90FA09196
:10290000BA0FB091BB0F2A968CAF9DAFAEAFBFAFE1
:102910002A9722962CAD3DAD4EAD5FAD2297BC01FE
:10292000CD010E94E0BF6A966CAF7DAF8EAF9FAFC6
:102930006A972091460E3091470E4091480E509173
:10294000490E26962CAF3DAF4EAF5FAF26972E9621
:102950002CAD3DAD4EAD5FAD2E9726966CAD7DADE9
:102960008EAD9FAD26970E94DFBF6B017C018091E9
:102970004A0E90914B0EA0914C0EB0914D0E629666
:102980008CAF9DAFAEAFBFAF62976A962CAD3DAD39
:102990004EAD5FAD6A97BC01CD010E94DFBF4B0118
:1029A0005C012091BC0F3091BD0F4091BE0F509142
:1029B000BF0F66962CAF3DAF4EAF5FAF669760918D
:1029C0004E0E70914F0E8091500E9091510E0E94BC
:1029D000DFBF2B013C018091520E9091530EA091CC
:1029E000540EB091550EA2968CAF9DAFAEAFBFAF57
:1029F000A2972091C00F3091C10F4091C20F50910A
:102A0000C30FAA962CAF3DAF4EAF5FAFAA97A701F9
:102A100096016AA97BA98CA99DA90E9476B9A69660
:102A20006CAF7DAF8EAF9FAFA697A50194016EA945
:102A30007FA988AD99AD0E9476B99B01AC01A6969D
:102A40006CAD7DAD8EAD9FADA6970E94E0BFA69602
:102A50006CAF7DAF8EAF9FAFA697A50194016AA919
:102A60007BA98CA99DA90E9476B94B015C01A701A5
:102A700096016EA97FA988AD99AD0E9476B99B0198
:102A8000AC01C501B4010E94DFBFA6962CAD3DADDF
:102A90004EAD5FADA6970E9453C06B017C0120E054
:102AA00030E0A9010E9411B987FF0AC02BED3FE079
:102AB00049EC50E4C701B6010E94E0BF6B017C0104
:102AC000112351F02BED3FE049EC50E4C701B60172
:102AD0000E94DFBF6B017C0120E030E0A901C7014B
:102AE000B6010E9411B9811126C026962CAD3DADCC
:102AF0004EAD5FAD26976AAD7BAD8CAD9DAD0E94AE
:102B000011B9811118C062962CAD3DAD4EAD5FADCF
:102B100062972A966CAD7DAD8EAD9FAD2A970E94CF
:102B200011B9811108C03BEDC32E3FE0D32E39EC23
:102B3000E32E30E4F32EA70196016E966CAD7DADC9
:102B40008EAD9FAD6E970E9476B94B015C0120E07F
:102B500030E0A901C301B2010E9411B98823C9F074
:102B6000A5019401C501B4010E9476B94B015C0135
:102B7000A3019201C301B2010E9476B99B01AC018D
:102B8000C501B4010E94E0BF0E944DC24B015C012F
:102B90000DC020E030E0A901C501B4010E9407C2C8
:102BA00087FF04C0B7FAB094B7F8B0942FE632E1CB
:102BB00043E85AE3C501B4010E9411B987FF02C07E
:102BC0000C94C42AC501B4010E9455C10E9429C1B8
:102BD0001B01672B19F422242394312CB10180E0CE
:102BE00090E00E9415B94B015C019B01AC01C7014B
:102BF000B6010E94BCC06AAF7BAF8CAF9DAFA50190
:102C00009401C301B2010E94BCC06E966CAF7DAF4F
:102C10008EAF9FAF6E97AA962CAD3DAD4EAD5FAD1A
:102C2000AA97A2966CAD7DAD8EAD9FADA2970E9486
:102C3000DFBFA50194010E94BCC0A2966CAF7DAF1E
:102C40008EAF9FAFA2972AAD3BAD4CAD5DADCA0133
:102C5000B9010E9476B920E030E040E05FE30E94D5
:102C600076B99B01AC0160E070E080E89FE30E94D0
:102C7000DFBF62966CAF7DAF8EAF9FAF62976696F7
:102C80008CAD9DADAEADBFAD669789879A87AB879A
:102C9000BC87AA962CAD3DAD4EAD5FADAA972D87F2
:102CA0003E874F87588B6091000270910102072E7A
:102CB000000C880B990B0E9417B92091510230919A
:102CC000520240915302509154020E9476B92AE078
:102CD00037ED43E25CE30E9476B96AA77BA78CA735
:102CE0009DA70E94DF5B9B01AC0128533F4F4F4FD4
:102CF0005F4F66962CAF3DAF4EAF5FAF66974AA869
:102D00005BA86CA87DA841E050E024965FAF4EAF71
:102D1000249759E127965FAF279724962EAD3FADB4
:102D200024972215330509F448C10E94EA530E94F2
:102D3000DF5BDC01CB0166962CAD3DAD4EAD5FADEA
:102D40006697821B930BA40BB50BB7FD10C00E94B6
:102D5000DF5B9B01AC0128533F4F4F4F5F4F66969F
:102D60002CAF3DAF4EAF5FAF66970E94DCA02796B9
:102D70003FAD2797315027963FAF2797332309F46C
:102D800041C062962CAD3DAD4EAD5FAD62976EA970
:102D90007FA988AD99AD0E9476B96B017C012AADFF
:102DA0003BAD4CAD5DADB201C3010E9476B9A70148
:102DB00096010E94E0BF7B018C0162962CAD3DAD77
:102DC0004EAD5FAD6297B201C3010E9476B94B016F
:102DD0005C012AAD3BAD4CAD5DAD6EA97FA988AD60
:102DE00099AD0E9476B99B01AC01C501B4010E9466
:102DF000DFBF2B013C01C701D8018EAB9FABA8AF51
:102E0000B9AF59C024964EAD5FAD2497BA0180E0AA
:102E100090E00E9415B92AAD3BAD4CAD5DAD0E946E
:102E200076B94B015C010E94B9C06B017C01C50100
:102E3000B4010E9443C24B015C01A70196016AA93B
:102E40007BA98CA99DA90E9476B92B013C01A50103
:102E5000940122966CAD7DAD8EAD9FAD22970E9400
:102E600076B99B01AC01C301B2010E94E0BF2B0106
:102E70003C01A50194016AA97BA98CA99DA90E9486
:102E800076B94B015C01A701960122966CAD7DAD30
:102E90008EAD9FAD22970E9476B99B01AC01C50112
:102EA000B4010E94DFBF6EAB7FAB88AF99AF59E131
:102EB00027965FAF27979201A3012E966CAD7DAD4B
:102EC0008EAD9FAD2E970E94E0BF69837A838B837E
:102ED0009C832EA93FA948AD59AD6A966CAD7DADD6
:102EE0008EAD9FAD6A970E94E0BF6D837E838F8316
:102EF00098876E962CAD3DAD4EAD5FAD6E976985F2
:102F00007A858B859C850E94E0BF69877A878B874D
:102F10009C87A2962CAD3DAD4EAD5FADA2976D8561
:102F20007E858F8598890E94E0BF6D877E878F8719
:102F3000988B80910202882321F0CE0101960E9495
:102F4000DF83E0901C031AA21BA21CA21DA2898190
:102F50009A81AB81BC818E8B9F8BA88FB98F8D811D
:102F60009E81AF81B8858A8F9B8FAC8FBD8F8985FD
:102F70009A85AB85BC858E8F9F8FA8A3B9A3AE0120
:102F8000425E5F4FBE01665E7F4FCE0146960E9455
:102F9000399CCE0182966C018E01065D1F4F9E0109
:102FA000235F3F4FAE01425E5F4FBE01665E7F4FC3
:102FB0000C970E949B61811151C0E0901C031EA2DE
:102FC0001FA218A619A68091460E9091470EA091B7
:102FD000480EB091490E8E8B9F8BA88FB98F809130
:102FE0004A0E90914B0EA0914C0EB0914D0E8A8FCF
:102FF0009B8FAC8FBD8F80914E0E90914F0EA09104
:10300000500EB091510E8E8F9F8FA8A3B9A3AE0121
:10301000425E5F4FBE01665E7F4FCE0146960E94C4
:10302000399CDE0196966D018E01065D1F4F22E5EB
:103030003EE0AE01425E5F4FBE01665E7F4FCE0155
:1030400046960E949B6180E1E6E4FEE0A4EBBFE0CF
:1030500001900D928A95E1F70C94C42A2496EEAD66
:10306000FFAD249731962496FFAFEEAF249755CE4F
:10307000E4E0F5E184918F010F5F1F4F882321F079
:103080000E94B487F801F6CFE1E5F3E084918F0167
:103090000F5F1F4F882311F40C94C42A0E94B48739
:1030A000F801F4CF80E50E94E886882329F00E9489
:1030B0002A866B017C0103C0C12CD12C760183E5EB
:1030C0000E94E886882361F00E946A8620E030E052
:1030D0004AE754E40E9476B90E9429C16B017C0141
:1030E0000E943C6F0E94DF5BC60ED71EE81EF91ED1
:1030F0000E94DF5BDC01CB018C199D09AE09BF0981
:10310000B7FD02C00C94C42A0E94DCA0F1CF8091CC
:10311000A30F8770873071F48FE40E94E8868823BC
:1031200019F00E945B8603C08FE40E94A186811182
:103130000C94C42A0E943C6F80E00E94E92F80EA30
:1031400090E00E94343080E00E943F300E94C930FD
:1031500011E0109348030E946F9F88E50E94A186AA
:10316000A82E89E50E94A186082F8AE50E94A186E3
:10317000B82EA11004C0011104C0182705C0011108
:1031800002C010E001C0182F80E1E4EBFFE0A6E4EC
:10319000BEE001900D928A95E1F782E50E94E886F3
:1031A000882361F00E946A866B017C0120E030E098
:1031B000A9010E9411B9882371F106C0C12CD12C3C
:1031C00090E2E92E91E4F92E111104C0A11002C081
:1031D000002391F1C0924E0ED0924F0EE092500E0D
:1031E000F092510E2091BC0F3091BD0F4091BE0F57
:1031F0005091BF0FC701B6010E9407C218165CF4B8
:1032000019821A821B821C82BE016F5F7F4F8EE47F
:103210009EE00E94C831111105C0A11003C0011128
:1032200006C00AC080E00E948C821123C1F381E0B5
:103230000E948C82111103C0BB2009F472C08091DE
:10324000A30F83708330C9F0EFEFF3E284918F0115
:103250000F5F1F4F882321F00E94B487F801F6CF3B
:10326000E7E6F3E084918F010F5F1F4F882309F495
:1032700058C00E94B487F801F5CF0E94E385809181
:10328000BC0F9091BD0FA091BE0FB091BF0F809366
:103290004E0E90934F0EA093500EB093510E80E0BF
:1032A00090E0A5E3B3E48093460E9093470EA0937D
:1032B000480EB093490E80E090E0A8EAB2E4809313
:1032C0004A0E90934B0EA0934C0EB0934D0E64EFAC
:1032D00071E080E090E00E94796119821A821B827D
:1032E0001C82E090BC0FF090BD0F0091BE0F1091BA
:1032F000BF0F20914A0E30914B0E40914C0E5091D1
:103300004D0E6091460E7091470E8091480E90913F
:10331000490EDE0111966D010E94E83082E00E94A4
:103320008C820E94E38580914703809348030E942A
:103330006F9F0E94B0300E9465A50C94C42A0E9421
:10334000D5320C94C42AC090B40FD090B50FE09041
:10335000B60FF090B70F88E50E94E886811109C08A
:1033600020E030E040E851E4C701B6010E94DFBF31
:1033700002C00E946A866E8B7F8B888F998FC09067
:10338000B80FD090B90FE090BA0FF090BB0F89E55D
:103390000E94E886811109C020E030E042EA52E450
:1033A000C701B6010E94E0BF02C00E946A869B016D
:1033B000AC0169837A838B839C836E897F89888D36
:1033C000998D0E947184882311F40C94C42A80E0A2
:1033D0000E94E92F0E94C93085E40E94E886882374
:1033E00021F00E945B86182F04C085E40E94A1860C
:1033F00011E086E50E94E886882321F00E943A8643
:10340000262F01C021E0412FBE016F5F7F4FCE010B
:1034100046960E94B3A96B017C019B01AC010E94FE
:103420008FC281115FC08E889F88A88CB98C20E0E4
:1034300030E0A901C501B4010E9411B987FD05C0A2
:1034400027E137EB41E558E304C027E137EB41E5DD
:1034500058EBC501B4010E94E0BFAB01BC0180E89C
:1034600093E00E943B4989809A80AB80BC8020E039
:1034700030E0A901C501B4010E9411B987FD05C062
:1034800027E137EB41E558E304C027E137EB41E59D
:1034900058EBC501B4010E94E0BFAB01BC018BE752
:1034A00093E00E943B4920E030E0A901C701B6014A
:1034B0000E9411B987FD05C027E137EB41E558E3CC
:1034C00004C027E137EB41E558EBC701B6010E9484
:1034D000E0BFAB01BC0186E793E00E943B498AE074
:1034E0000E94B4870E94B0300E9465A50C94C42A43
:1034F000109221030C94C42A109321030C94C42A23
:103500000E94A2AB0C94C42A80917A0390917B0311
:103510008B39910509F4F1C30CF0A6C08A369105E8
:1035200009F465C60CF059C08035910509F467C6E9
:103530006CF58A32910509F47EC184F482319105DB
:1035400009F46AC68F31910509F471C1419711F0F0
:103550000C94752A0E94FAA40C94C42A8C34910508
:1035600009F4B1C14CF48B34910511F00C94752A17
:103570000E9499490C94C42A8D34910509F4B8C16C
:103580008E34910509F4B8C10C94752A84359105DF
:1035900009F442C654F48235910509F434C60CF09E
:1035A00036C60E94A6A60C94C42A8C35910509F44F
:1035B00037C64CF48535910511F00C94752A0E949C
:1035C00030A60C94C42A8836910509F496C289362F
:1035D000910509F477C30C94752A8337910509F492
:1035E000A9C6FCF48E36910509F4B4C23CF48C36BD
:1035F000910509F433C30CF4FEC5A6C380379105C9
:1036000009F430C30CF4B9C28137910509F42EC313
:103610008237910511F00C94752A0E94D17A0C948E
:10362000C42A8837910509F491C66CF48637910550
:1036300009F484C60CF086C68537910511F40C9404
:10364000C42A0C94752A8A37910511F40C949E288B
:103650000CF484C68C38910509F4AEC58639910501
:1036600009F484C60C94752A8039B1E09B0711F4E3
:103670000C948F270CF05EC08C3D910511F40C94D6
:103680002D253CF58B3C910509F442C774F4883C28
:10369000910509F4D3C6893C910509F417C78E3BFF
:1036A000910511F00C94752A8BC58D3C910509F498
:1036B000C2C70CF44BC78E3C910511F40C948623C1
:1036C000833D910511F00C94752AEFEFF3E20C9411
:1036D0004F248D32F1E09F0711F40C947D2694F471
:1036E000823E910511F40C94A825883131E09307AE
:1036F00011F40C94D3258D3D910511F00C94752A8D
:103700000C943A258F3241E0940711F40C947227FF
:1037100014F40C941E278033A1E09A0711F40C9442
:1037200075278336914011F00C94752AE4E0F5E199
:103730000C947827873FE1E09E0711F40C942D2824
:10374000ACF5843A21E0920711F40C949E2794F48E
:10375000823941E0940711F40C94982714F40C94E6
:1037600092278A39914011F00C94752A0E942C748A
:103770000C94C42A843FB1E09B0711F40C942728D1
:1037800034F48C3A914009F4E4C70C94752A853FCF
:1037900021E0920711F40C942A28863F914011F001
:1037A0000C94752A0E942E8F0C94C42A8F3843E003
:1037B000940711F40C941B29ECF48335A3E09A07C9
:1037C00011F40C9438284CF4883F914011F00C947B
:1037D000752A0E9408740C94C42A8A38F3E09F0763
:1037E00011F40C94BA288B38934011F40C94C42A29
:1037F0000C94752A823933E0930711F40C94A529AF
:103800003CF48039934011F40C9430290C94752ABF
:103810008339A3E09A0711F40C94F629873E93406C
:1038200011F00C94752A0E94F5730C94C42A0E941E
:1038300036A70C94C42A83E50E94E886882311F4F5
:103840000C94C42A0E944A86E82E80E50E94E886ED
:10385000882339F00E944A86182F87FF03C00C94F2
:10386000C42A1DE089E40E94E886882349F00E946A
:103870005B86811111C0E2E9F4E08DE28E0F07C092
:1038800089E40E94A186F5CF31968E1729F0949194
:103890001913FACF0C94F62D61E0812F0E947F5A04
:1038A0006E2D812F0E94505AF12CB701812F0E945A
:1038B000BB5A193011F00C94C42AF0921B0EE092FE
:1038C0001A0E0C94C42A80913503813011F00C94A7
:1038D000C42A82E0809335030E94DF5B60932D034E
:1038E00070932E0380932F03909330030C94C42A7B
:1038F0000E94F7490C94C42A83E50E94E88681114E
:1039000003C0E6EEF3E009C00E943A866E3471050A
:10391000C1F70E94674A0C94C42A84918F010F5FFB
:103920001F4F882321F00E94B487F801F6CFEDEDF8
:10393000F3E084918F010F5F1F4F882321F00E94D5
:10394000B487F801F6CF609137037091380380E0B7
:1039500090E04AE00E947689E0EDF3E084918F01E7
:103960000F5F1F4F882321F00E94B487F801F6CF24
:103970006091390370913A0380E090E04AE00E9440
:103980007689E5ECF3E084918F010F5F1F4F882368
:1039900021F00E94B487F801F6CF6091370370914F
:1039A00038038091390390913A03681B790B809119
:1039B0003503815021E030E0823010F020E030E02B
:1039C000621B730B80E090E04AE00E9476898AE0F7
:1039D0000E94B487EDEBF3E084918F010F5F1F4FDE
:1039E000882321F00E94B487F801F6CF80913B0331
:1039F00090913C03A0913D03B0913E038E8B9F8B31
:103A0000A88FB98FBE016F5F7F4FCE0146960E948F
:103A1000F486E0EBF3E084918F010F5F1F4F81117B
:103A200005C0FE0131967F018F0104C00E94B4875A
:103A3000F801F1CFD8018D918D01882319F00E94F2
:103A4000B487F8CF80913F0390914003A091410348
:103A5000B09142038E8B9F8BA88FB98FBE016F5F91
:103A60007F4FCE0146960E94F486E0EAF3E084910F
:103A70008F010F5F1F4F882321F00E94B487F80148
:103A8000F6CFF70181917F01882319F00E94B48756
:103A9000F8CF8AE00E94B487E8E9F3E084918F01CF
:103AA0000F5F1F4F882321F00E94B487F801F6CFE3
:103AB000E8E8F3E084918F010F5F1F4F882321F026
:103AC0000E94B487F801F6CF20E030E04AE754E4E2
:103AD00060914303709144038091450390914603A4
:103AE0000E94BCC042E00E94328A8DE60E94B487E8
:103AF0008AE00E94B4870C94C42A88E690E00E9471
:103B0000DC8981110C94C42A80917D0383FF02C05B
:103B10000C94C42A83E50E94E8868823B9F00E94A9
:103B20006A860E9424C17093A80A6093A70A80E065
:103B30000E942B500E946A8620E030E04AEA52E45C
:103B40000E9411B9181614F00E94F7490E943FB163
:103B50000C94C42A8EE40E94E886882311F40C9405
:103B6000C42A0E943A8660930F0B7093100B8093C7
:103B7000110B9093120B0C94C42A83E50E94A1862A
:103B8000882359F083E50E94E886882319F00E9473
:103B90004A8601C080E080937D03EFEFF3E28491D9
:103BA0008F010F5F1F4F882321F00E94B487F80117
:103BB000F6CFECEFF3E084918F010F5F1F4F882366
:103BC00021F00E94B487F801F6CF80917D0388230D
:103BD000A1F18EEEC82E83E0D82EE12CF12C20E04E
:103BE00080917D0390E00E2C02C0959587950A94F4
:103BF000E2F780FF17C0BB24B394B20E222319F062
:103C00008CE20E94B487F60125913491F9018491E8
:103C100089010F5F1F4F882321F00E94B48798010C
:103C2000F5CF2B2DFFEFEF1AFF0A32E0C30ED11CA8
:103C300045E0E416F104A1F60CC0E8EFF3E084914E
:103C40008F010F5F1F4F882321F00E94B487F80176
:103C5000F6CF8AE00E94B4870C94C42A1092030223
:103C60000C94C42A83E094E00E94A8A083E50E94FB
:103C7000E886882369F00E944A868D3320F4809379
:103C800048020C94C42A8CE3809348020C94C42A02
:103C9000EFEFF3E284918F010F5F1F4F882321F034
:103CA0000E94B487F801F6CF4091480250E060E0EE
:103CB00070E08CE094E00E941E498AE00E94B48784
:103CC0000C94C42A89E690E00E94DC89811111C01D
:103CD000E3E1F4E084918F010F5F1F4F882321F00F
:103CE0000E94B487F801F6CF0E94264F8AE00E9416
:103CF000B48710925C0F0C94392E83E50E94E886FD
:103D0000882311F40C94C42A0E944A86182F8D33FC
:103D100008F01CE31093690F0E94DF5B6B017C01CC
:103D2000212F30E0A8EEB3E00E94D0BFC60ED71E10
:103D3000E81EF91EC092650FD092660FE092670FE1
:103D4000F092680F0C94C42A8DE690E00E94DC8902
:103D500081110C94C42A80917D0383FF02C00C94CE
:103D6000C42A83E50E94E8862F968FAF2F97811192
:103D700005C082E50E94E8868823D1F00E946A8609
:103D80000E9424C17093A80A6093A70A80E00E9451
:103D90002B500E946A8620E030E04AEA52E40E94FA
:103DA00011B9181614F40C94E92B0E94F74981E01C
:103DB000AC968FAFAC970E943FB1AC968FADAC97ED
:103DC000882311F40C94C42A81E08093030280912B
:103DD000A30A9091A40AA091A50AB091A60A66969A
:103DE0008CAF9DAFAEAFBFAF66972B961FAE2B9734
:103DF0006A961CAE1DAE1EAE1FAE6A97AA961CAE8A
:103E00001DAE1EAE1FAEAA9727961FAE27976B96C4
:103E10001FAE6B979CE36F969FAF6F97ACE1A39635
:103E2000AFAFA397B6E4AB96BFAFAB97E12CF12C45
:103E300000E81FEB812C912C54016091A70A70912E
:103E4000A80A072E000C880B990B0E9417B91B01BA
:103E50008AAB9EAB9B01AC01B701C8010E9411B9AE
:103E6000882341F12091A30A3091A40A4091A50A28
:103E70005091A60AB1018AA99EA90E9411B9881F72
:103E80008827881F27968FAF27972F96FFAD2F97EC
:103E9000FF2399F0882389F080910302882311F48D
:103EA0000C94C42A6FEF7FEF8FEF90E00E94F59E95
:103EB0000C94C42A17010AAB1EAB0E94DF5B6B0196
:103EC0007C01DC01CB01AA962CAD3DAD4EAD5FADC2
:103ED000AA97821B930BA40BB50BB7FD3CC0D7016F
:103EE000C60188519C4FAF4FBF4FAA968CAF9DAF74
:103EF000AEAFBFAFAA970E94264FE6E1F4E08491EF
:103F00008F010F5F1F4F882321F00E94B487F801B3
:103F1000F6CF81149104A104B104B9F0D501C40114
:103F2000805F984DAF4FBF4FBC01CD016C197D092B
:103F30008E099F0928EE33E040E050E00E9482BFE6
:103F4000CA01B9010E94188A03C08FE30E94B48796
:103F50008AE00E94B4870E94DCA00E94DF5B60932D
:103F60005D0F70935E0F80935F0F9093600F909141
:103F7000A30A9EAFA091A40AAAAF0091A50A10912E
:103F8000A60A2796BFAD2797B1116DC0B1018AA9C6
:103F90009EA90E9424C126966CAF7DAF8EAF9FAFC5
:103FA000269766966CAD7DAD8EAD9FAD66970E94EF
:103FB00024C12B013C0166962CAD3DAD4EAD5FADED
:103FC00066976EAD7AADC8010E9411B987FD10C029
:103FD00091014AA95EA96EAD7AADC8010E9407C2DF
:103FE00018164CF06EAD7AADC8010E9424C109C00C
:103FF000C301B20106C026966CAD7DAD8EAD9FADFE
:1040000026979B01AC012419350946095709A1E0FF
:10401000BFEF0E94CCBF26962CAD3DAD4EAD5FAD3F
:10402000269724193509460957090E94A4BFBA01E9
:10403000A90141505F4F6F4F7F4F23964FAF23979A
:104040002B96FFAD2B974F17A1F080915A0D815001
:104050002FEF29831A824B831C828D83CE01019618
:104060000E944DA806C02B963FAD2B9723963FAFDD
:1040700023972EAD3AADA801B1018AA99EA90E944D
:10408000DFBF2B013C0120E030E0A9010E9407C204
:1040900087FF04C077FA709477F8709481149104C4
:1040A000A104B10459F420E030E040E85FE3C3012B
:1040B000B2010E9411B987FF0DC00AC020E030E0B4
:1040C00040E450E4C301B2010E9407C2181614F480
:1040D0004601570127964FAD2797442309F44BC05B
:1040E0006A968CAD9DADAEADBFAD6A97892B8A2B1C
:1040F0008B2B71F0D701C6016A962CAD3DAD4EAD4C
:104100005FAD6A97821B930BA40BB50BB7FD33C051
:104110002EAD3AADA8016B966FAD6B976F967FADE4
:104120006F97A3968FADA397AB969FADAB970E9469
:10413000DFBF20E030E040EC5FE30E9411B987FD73
:10414000ABCED701C601805A9541AF4FBF4F6A969B
:104150008CAF9DAFAEAFBFAF6A979EAD6B969FAF72
:104160006B97AAAD6F96AFAF6F97A3960FAFA3975C
:10417000AB961FAFAB9780910302882309F48CCED6
:1041800081149104A104B10451F42396EFAD239757
:104190002B96EFAF2B9771010AA91EA94ECEB0E165
:1041A000CB1AB7E2DB0AE108F108C818D908EA0817
:1041B000FB08F7FE71CEE9CF0E94F2A60C94C42A48
:1041C00080917D0383FF02C00C94C42A83E50E9482
:1041D000E8862F968FAF2F9781110C94ED2B82E5F7
:1041E0000E94E88681110C94ED2B0C94C42A0E9445
:1041F0001AA70C94C42A0E940BA70C94C42A0E94EC
:10420000B9A60C94C42A109220030C94C42A81E00D
:10421000809320030C94C42A0E9448A60C94C42ABC
:1042200011EFC12E12E0D12E0CEBE02E0EE0F02E9D
:1042300010E0F60181916F010E94A186882309F4A4
:104240006EC0133009F063C00E946A864B015C01A6
:1042500020E030E040EA51E40E9411B987FF4EC0EF
:10426000A50194016091C80E7091C90E8091CA0E8B
:104270009091CB0E0E94BCC02B013C019B01AC0174
:104280006091EE0D7091EF0D8091F00D9091F10D18
:104290000E9476B96093EE0D7093EF0D8093F00D50
:1042A0009093F10DA301920160910A0E70910B0E93
:1042B00080910C0E90910D0E0E9476B960930A0EBB
:1042C00070930B0E80930C0E90930D0E60911C0555
:1042D00070911D0580911E0590911F050E9415B9D2
:1042E000A30192010E9476B90E9429C160931C0526
:1042F00070931D0580931E0590931F058092C80E34
:104300009092C90EA092CA0EB092CB0E08C00E9425
:104310006A86D7016D937D938D939C9313971F5F4E
:10432000B4E0EB0EF11C143009F083CF0E94E14A97
:104330000C94C42A0E94827A0C94C42A0E94307A77
:104340000C94C42A0E94E89F0C94C42A109348033A
:10435000109347030E946F9F0C94C42A1092480345
:10436000109247030E946F9F0C94C42A80E50E941C
:10437000A186882351F08091180390911903892B0D
:1043800041F00E944A86182F05C010915A0D115015
:1043900001C01FEF87E50E94A186882351F080911C
:1043A000180390911903892B31F00E944A86082F37
:1043B00003C000E001C00FEF82E40E94A1868823C1
:1043C00051F08091180390911903892B31F00E94CC
:1043D0004A86F82E04C0F12C02C0FF24FA9485E529
:1043E0000E94A186882351F08091180390911903AF
:1043F000892B31F00E944A86E82E04C0E12C02C0CD
:10440000EE24EA9482E50E94A186882349F08091F7
:10441000180390911903892B29F00E944A8603C042
:1044200080E001C08FEF8983EA82FB820C831D83C9
:10443000CE0101960E944DA80C94C42A88EC90E00D
:104440000E94DC8981110C94C42A84E40E94A18614
:104450008823C1F10E946A8611E020E030E0A901C2
:104460000E9411B9811101C010E01093CF0E1123E9
:1044700049F10E946A86E0919C0A24E0E29FF001E3
:104480001124EC52F14F608371838283938320E087
:1044900030E0A9016091D40E7091D50E8091D60EB6
:1044A0009091D70E0E9411B981110CC080E090E06C
:1044B000A0EEBFE38093D40E9093D50EA093D60EBA
:1044C000B093D70E0E94BF9C0C94C42AA0E2EA2E9F
:1044D000A5E0FA2E01EF12E0B4E0DB2ED00ED801F9
:1044E0008D918D010E94A186882349F00E946A86E1
:1044F0000E9429C1F7016083718382839383F4E072
:10450000EF0EF11CD012EBCF0E94774A0C94C42A14
:10451000EEEFEE2EEDE0FE2E01EF12E0F4E0DF2EE6
:10452000D00ED8018D918D010E94A186882339F08B
:104530000E946A86F7016083718382839383F4E02B
:10454000EF0EF11CD012EDCF0C94C42A83E50E942B
:10455000E8868823A1F00E946A866093F60D709326
:10456000F70D8093F80D9093F90D6093F20D709311
:10457000F30D8093F40D9093F50D10E001C011E060
:1045800080E50E94E886882359F00E946A8660933D
:10459000F60D7093F70D8093F80D9093F90D10E0E0
:1045A00082E50E94E886882359F00E946A8660931B
:1045B000FA0D7093FB0D8093FC0D9093FD0D10E0B0
:1045C00084E50E94E886882359F00E946A866093F9
:1045D000F20D7093F30D8093F40D9093F50DD4C705
:1045E000112309F4D1C74091F60D5091F70D609158
:1045F000F80D7091F90D84E294E00E943B494091DE
:10460000FA0D5091FB0D6091FC0D7091FD0D81E252
:1046100094E00E943B494091F20D5091F30D60915E
:10462000F40D7091F50D8EE194E00E943B498AE013
:104630000E94B487A9C781E50E94A186882351F012
:104640000E942A8660930E0E70930F0E8093100EB8
:104650009093110E83E50E94A186882351F00E9459
:104660006A866093160E7093170E8093180E9093BF
:10467000190E84E50E94A186882351F00E946A8663
:104680006093120E7093130E8093140E9093150E78
:1046900088E50E94A186882351F00E946A86609373
:1046A000E20D7093E30D8093E40D9093E50D89E5A1
:1046B0000E94A186882351F00E946A866093E60DCD
:1046C0007093E70D8093E80D9093E90D8AE50E94C1
:1046D000A186882351F00E946A866093EA0D709348
:1046E000EB0D8093EC0D9093ED0D85E40E94A18677
:1046F000882309F449C70E946A866093EE0D70937F
:10470000EF0D8093F00D9093F10D3EC761EFC62E33
:1047100062E0D62E7AE4E72E73E0F72E10E0D601A1
:104720008D916D010E94A186882351F00E946A86B6
:10473000F7016083718382839383812F0E94A38515
:104740001F5FF4E0EF0EF11C133049F70E9465A5DE
:104750001BC70E94EEA8811117C75BE8852E5AE19E
:10476000952E24EB3FE03BAB2AABAE014F5F5F4F92
:104770005A0104EE1AE11A0153E0500F5EABF40146
:104780006591759185919491AAA9BBA9CD90DD9071
:10479000ED90FD90BBABAAABA70196010E94DFBFD5
:1047A0002B013C0120E030E040EA51EC0E9407C2BE
:1047B00087FD10C020E030E040EA51E4C301B201BF
:1047C0000E9411B9181634F0F101408251826282C0
:1047D00073820EC0F80184911816B4F7F7FAF094BA
:1047E000F7F8F094D101CD92DD92ED92FC921397FF
:1047F000D101CD90DD90ED90FD901D0120E030E0E5
:1048000040EA51ECC701B6010E9407C287FF03C00E
:10481000E4E0F5E10BC020E030E040EA51E4C701FC
:10482000B6010E9411B91816C4F4F2CF84918F0119
:104830000F5F1F4F882321F00E94B487F801F6CF45
:10484000E4E3F4E084918F010F5F1F4F882309F4A4
:104850009BC60E94B487F801F5CFB4E08B0E911C83
:104860000F5F1F4FEEA9E0138ACF4AE4E42E43E026
:10487000F42E10E0F50181919191A191B1915F0128
:10488000F70181939193A193B1937F01812F0E94AE
:10489000A3851F5F133071F70E9465A575C68491CB
:1048A0008F010F5F1F4F882321F00E94B487F8010A
:1048B000F6CF83E50E94A186882321F00E945B86C3
:1048C00080930202EAE7F4E084918F010F5F1F4FAB
:1048D000882321F00E94B487F801F6CF809102026C
:1048E000811103C0E6E7F4E002C0E2E7F4E084915E
:1048F0008F010F5F1F4F882321F00E94B487F801BA
:10490000F6CFEAE6F4E084918F010F5F1F4F882312
:1049100021F00E94B487F801F6CF2091A40F3091C6
:10492000A50F4091A60F5091A70F6091220E709194
:10493000230E8091240E9091250E0E94E0BFAB01C2
:10494000BC0188E694E00E943B492091A80F309179
:10495000A90F4091AA0F5091AB0F6091260E709154
:10496000270E8091280E9091290E0E94E0BFAB0186
:10497000BC0185E694E00E943B492091AC0F309148
:10498000AD0F4091AE0F5091AF0F60912A0E709114
:104990002B0E80912C0E90912D0E0E94E0BFAB014A
:1049A000BC0182E694E00E943B49EAE5F4E0849190
:1049B0008F010F5F1F4F882321F00E94B487F801F9
:1049C000F6CF2091A40F3091A50F4091A60F5091E2
:1049D000A70F60913A0270913B0280913C02909146
:1049E0003D020E94E0BFAB01BC0188E594E00E945B
:1049F0003B492091A80F3091A90F4091AA0F5091E7
:104A0000AB0F60913E0270913F0280914002909105
:104A100041020E94E0BFAB01BC0185E594E00E9429
:104A20003B492091AC0F3091AD0F4091AE0F5091AA
:104A3000AF0F6091420270914302809144029091C5
:104A400045020E94E0BFAB01BC0182E594E00E94F8
:104A50003B498AE00E94B48797C583E50E94E886B7
:104A6000882309F491C50E943A86709301026093ED
:104A700000028AC58DED90E00E94DC89811184C519
:104A800083E50E94E8868823D9F100919C0A10E012
:104A90000E943A86000F111FF801EA5BFD4F7183F7
:104AA000608380919C0A90E08C01000F111F000F21
:104AB000111F98012C5C3D4F7901880F991FFC0153
:104AC000EA5BFD4F60817181072E000C880B990B0A
:104AD0000E9417B92AE037ED43E25CE30E9476B901
:104AE000F801E053F14F20813181428153810E94CE
:104AF00076B9D7016D937D938D939C93139744C59D
:104B0000EFEFF3E284918F010F5F1F4F882321F0B5
:104B10000E94B487F801F6CF85E40E94B4878091A3
:104B20009C0A805D0E94B487E0919C0AF0E0EE0F41
:104B3000FF1FEA5BFD4F608171818AE894E00E946B
:104B4000584985E20E94B4878AE00E94B4871CC558
:104B500080E50E94A186882309F416C50E943A8642
:104B60006B017C0183E50E94E886882321F00E9486
:104B70003A868B0102C00FEF1FEFC8010196039721
:104B800008F002C5D7FC00C59C2DE2E9F4E08DE2F7
:104B90008E0F2491921711F40C94F62D31968E13EA
:104BA000F8CF0C94F92D80E50E94A186882309F4A2
:104BB000EBC40E943A866B017C018B01672B09F0E4
:104BC0007EC083E50E94A186882339F00E943A8640
:104BD00085ED9DE00E94F047D7C4EFEFF3E28491AA
:104BE0007F01BFEFEB1AFB0A882321F00E94B487F4
:104BF000F701F5CF60E070E088ED94E00E9458493D
:104C00008091D70D28E532E06901C81AD10887FDE7
:104C1000D394CC0CDD1CCC0CDD1C0D2C000CEE0850
:104C2000FF088091D60D28E830E04901881A9108E4
:104C300087FD9394880C991C880C991C092C000CF6
:104C4000AA08BB088091D50D8F3FB9F090E0FC0118
:104C5000EE0FFF1F8E0F9F1FFC01E859F24F0181DD
:104C6000128143E0000F111F4A95E1F754E01695B9
:104C700007955A95E1F70E5F1F4F98012F5F3F4F41
:104C8000C901330FAA0BBB0B9C01AD0128193909CF
:104C90004A095B09A4EBB0E00E94C0BFA7019601DE
:104CA000281939094A095B090E94A4BFB90185ED99
:104CB00094E00E9458498AE00E94B48765C4E4E009
:104CC000F5E184918F010F5F1F4F882321F00E942F
:104CD000B487F801F6CFB6018EEC94E00E945849F3
:104CE000EFEBF4E084918F010F5F1F4F882309F4ED
:104CF0004BC40E94B487F801F5CF85E40E94E88692
:104D0000811110C080E50E94A186882391F00E9445
:104D10006A866093820A7093830A8093840A9093D0
:104D2000850A07C00E944A86882361F3E4E0F5E122
:104D30006EC089E40E94A186882381F00E946A8661
:104D40002CEA35EC47E25EE30E9476B960937E0A76
:104D500070937F0A8093800A9093810A84E40E9472
:104D6000A186882381F00E946A862CEA35EC47E20E
:104D70005EE30E94BCC06093860A7093870A8093AA
:104D8000880A9093890AEFEFF3E284918F010F5F15
:104D90001F4F882321F00E94B487F801F6CF40917D
:104DA000820A5091830A6091840A7091850A88EE84
:104DB00094E00E943B492CEA35EC47E25EE36091C7
:104DC0007E0A70917F0A8091800A9091810A0E94E8
:104DD000BCC0AB01BC0184EE94E00E943B492CEACC
:104DE00035EC47E25EE36091860A7091870A809114
:104DF000880A9091890A0E9476B9AB01BC0180EEC5
:104E000094E00E943B498AE00E94B487BDC384912C
:104E10008F010F5F1F4F882321F00E94B487F80194
:104E2000F6CFECEEF4E084918F010F5F1F4F8823E3
:104E300009F4AAC30E94B487F801F5CF83E50E9464
:104E4000A186182F882371F00E946A860E9424C1CF
:104E5000709339026093380221E0672B09F020E05B
:104E600020931C0E80E50E94A186882359F0209192
:104E7000380230913902232B11F00E945B86809317
:104E80001C0E82C3111180C3EFEFF3E284918F01F6
:104E90000F5F1F4F882321F00E94B487F801F6CFDF
:104EA00080911C0E811103C068EF72E002C065EFB3
:104EB00072E083E195E00E9471496091380270913F
:104EC000390282E095E00E945849EEEFF4E08491C7
:104ED0008F010F5F1F4F882309F456C30E94B487C8
:104EE000F801F5CF0E945E744FC30E94B1794CC3A4
:104EF00084918F010F5F1F4F882321F00E94B48798
:104F0000F801F6CFE6E2F5E084918F010F5F1F4FC5
:104F1000882309F439C30E94B487F801F5CF0E94B1
:104F20003C6F32C381E00E9436320E9465A52CC3DB
:104F300080E00E9436320E9465A526C383E50E9468
:104F4000A186882349F00E945B86182F811106C034
:104F500080E00E94E92F02C01091D80E8091B40F1A
:104F60009091B50FA091B60FB091B70F89839A8336
:104F7000AB83BC838091B80F9091B90FA091BA0F09
:104F8000B091BB0F8D839E83AF83B8878091BC0F98
:104F90009091BD0FA091BE0FB091BF0F89879A87E6
:104FA000AB87BC8786E50E94A186882321F082E634
:104FB00095E00E9442B3812F0E94E92F111103C096
:104FC000EFEFF3E21CC08091D80E8111F9CFE4E03D
:104FD000F5E184918F010F5F1F4F882321F00E941C
:104FE000B487F801F6CFE3E4F5E084918F010F5F19
:104FF0001F4F882329F30E94B487F801F6CF8491CC
:105000008F010F5F1F4F882321F00E94B487F801A2
:10501000F6CF8091D80E811103C060E073E002C02A
:105020006CEF72E085E395E00E9471498AE00E948E
:10503000B4874CE050E064EB7FE0CE0101960E9423
:10504000D6C2892B09F4A0C20E9465A59DC20E9408
:105050004B7D9AC20E94A09A97C283E50E94A186C6
:10506000882319F00E945B8681270E94DC8A8CC20B
:105070008AE50E94E886882309F438C00E946A867F
:105080006B017C0120E030E040EA51EC0E9407C255
:1050900087FD13C020E030E040EA51E4C701B601CB
:1050A0000E9411B918164CF0C092B00FD092B10FF7
:1050B000E092B20FF092B30F67C2E4E0F5E18491A1
:1050C0008F010F5F1F4F81110DC0E1E9F5E0849161
:1050D0008F010F5F1F4F882309F456C20E94B487C7
:1050E000F801F5CF0E94B487F801E9CFEFEFF3E2C2
:1050F00084918F010F5F1F4F882321F00E94B48796
:10510000F801F6CFE2E8F5E084918F010F5F1F4FC1
:10511000882321F00E94B487F801F6CF4091B00FA8
:105120005091B10F6091B20F7091B30F8FE795E07E
:105130000E943B498AE00E94B48726C283E50E9410
:10514000A1868823A1F00E945B868093CC0E8823E1
:1051500009F41AC2EEEAF5E084918F010F5F1F4F48
:10516000882309F411C20E94B487F801F5CF0E9488
:1051700021910AC289E40E94E886882321F00E94D6
:105180004A86B82E01C0B12C21EF822E22E0922E49
:1051900011E000E0F40181914F010E94E88688232C
:1051A00079F10E943A866B017C016115710541F12C
:1051B000023081F00330A1F0013031F0F1E0FB1555
:1051C000F0F08DE89CE019C021E02B15C0F084E1DF
:1051D0009CE013C031E03B1590F08BE99BE00DC0E3
:1051E0008AE893E00E94DC898111CEC180919C0AFB
:1051F000811105C0B60182E29BE00E9416B310E067
:105200000F5F043039F6112309F4BEC160E08DE868
:105210009CE00E94F28461E084E19CE00E94F284C0
:1052200062E08BE99BE00E94F28466E082E29BE010
:105230000E94F284A9C16091920C80E00E94644EA9
:105240006091190C81E00E94644E6091A00B82E095
:105250000E94644E6091270B86E00E94644E94C1C8
:1052600088E50E94A186D82E89E50E94A186E82EB5
:105270008AE50E94A186F82E85E40E94A186082F67
:10528000D11007C0E11005C0F11003C011E01827CC
:1052900001C010E088E50E94E886882309F4D1C4A3
:1052A0000E944A86112331F01092920C80E00E94F5
:1052B000534E06C08130C1F3DD2011F08A30A1F3D6
:1052C00089E50E94E886882309F4BEC40E944A86C4
:1052D000112331F01092190C81E00E94534E06C048
:1052E0008130C1F3EE2011F08A30A1F38AE50E94EB
:1052F000E886882309F4ABC40E944A86112331F062
:105300001092A00B82E00E94534E06C08130C1F380
:10531000FF2011F08A30A1F385E40E94E8868823FB
:1053200009F498C40E944A86112331F01092270B89
:1053300086E00E94534E28C18823C1F3002309F45C
:1053400023C18A3009F020C1F1CF89E40E94E886A8
:10535000882321F00E944A86F82E01C0F12C91EF9B
:10536000C92E92E0D92E11E000E0D6018D916D0199
:105370000E94A186882319F10E943A86603C7F4FE3
:1053800044F00E943A86603471052CF40E943A86FB
:1053900003C060EC01C06FE3002319F0013039F065
:1053A0000DC0E1E0EF1550F08DE89CE005C0F1E0A4
:1053B000FF1520F084E19CE00E94B95E10E00F5FD1
:1053C000033099F6112309F4DFC08DE89CE00E94B8
:1053D0008D5D682F80E00E94334E84E19CE00E9446
:1053E0008D5D682F81E00E94334ECEC083E50E9420
:1053F000E886882321F00E943A866B0104C080E28F
:10540000C82E83E0D82E8AE50E94E886882331F0F2
:105410000E946A860E9429C18B0102C002E010E04E
:105420008091A30F82FD0DC0EBE0F6E084918F0127
:105430000F5F1F4F882309F4A7C00E94B487F801AB
:10544000F5CFE090110CF090120CB6018BE99BE0C7
:105450000E942C56B60183EF95E00E9458491092A5
:10546000020219821A821B821C82B8016E5C7E4F76
:1054700080E090E00E9415B96E8B7F8B888F998FAA
:10548000BE016F5F7F4FCE01469682D7B7018BE991
:105490009BE00E942C5619821A821B821C8280E09B
:1054A00090E0A9E9B3E48E8B9F8BA88FB98FBE01E2
:1054B0006F5F7F4FCE0146966BD781E080930202EB
:1054C000E6EDF5E084918F010F5F1F4F882321F0F7
:1054D0000E94B487F801F6CF80ED95E090931B030E
:1054E00080931A030E94BE874FC00E94A2AB4CC09B
:1054F000F0907A030E943C6F1091D80E80E069D53D
:10550000FF2029F1EFEFF3E284918F010F5F1F4F2E
:10551000882321F00E94B487F801F6CF84E50E9429
:10552000B4876F2D70E080E090E04AE00E947689B9
:1055300080E20E94B487E8E3F6E084918F010F5F78
:105540001F4F882309F10E94B487F801F6CF10920B
:105550001C03812F3ED5EFEFF3E284918F010F5FA3
:105560001F4F882321F00E94B487F801F6CF609185
:105570001C0370E086E296E00E9458498AE00E948F
:10558000B48702C00E94A2AB10925C0F0E941FA5BC
:1055900070C395D380910202882321F086E49EE0B7
:1055A0000E94DF8380917D0383FDA5C0C090520ED1
:1055B000D090530EE090540EF090550E2091C00FF5
:1055C0003091C10F4091C20F5091C30FC701B60176
:1055D0000E9411B9882309F48EC06091A30A7091CA
:1055E000A40A8091A50A9091A60A20911C0E21116F
:1055F00029C00E9424C120913802309139026217DB
:10560000730704F5C092C00FD092C10FE092C20F91
:10561000F092C30FEFEFF3E284918F010F5F1F4F02
:10562000882321F00E94B487F801F6CFE6E3F3E087
:1056300084918F010F5F1F4F882321F00E94B48750
:10564000F801F6CF8090520E9090530EA090540E19
:10565000B090550E2091C00F3091C10F4091C20FF4
:105660005091C30FC501B4010E94DFBF6B017C01E3
:1056700020E030E0A9010E9407C287FF04C0F7FACA
:10568000F094F7F8F094E0911C0324E0E29FF0011D
:105690001124EC5CFD4F2081318142815381C7018F
:1056A000B6010E9476B920E030E049E453E40E945C
:1056B00007C2181604F58092C00F9092C10FA092F5
:1056C000C20FB092C30FEFEFF3E284918F010F5F2F
:1056D0001F4F882321F00E94B487F801F6CFE7E13D
:1056E000F3E084918F010F5F1F4F882321F00E9408
:1056F000B487F801F6CF6091000270910102072E85
:10570000000C880B990B0E9417B92091510230911F
:10571000520240915302509154020E9476B92AE0FD
:1057200037ED43E25CE30E9476B96AA37BA38CA3C6
:105730009DA3E0901C0380914E0E90914F0EA0917E
:10574000500EB091510E40914A0E50914B0E609107
:105750004C0E70914D0E0091460E1091470E209107
:10576000480E3091490E09831A832B833C834E8B5C
:105770005F8B688F798F8AA79BA7ACA7BDA71EA652
:105780001FA618AA19AAAE01465D5F4FBE016A5E48
:105790007F4FCE0101960E94399CAE01425D5F4F62
:1057A0006A018E010E5D1F4F22E53EE04450510913
:1057B000BE016A5E7F4FCE0101960E949B6180E12F
:1057C000E6E4FEE0A4EBBFE001900D928A95E1F7DC
:1057D000DBCE0E9499490C94D71E0E946A860E94D3
:1057E00024C1683771050CF0FEC17093A20A609362
:1057F000A10A0E94E04F0E946A8620E030E040EA61
:1058000050E40E9407C2181614F40E94994920918E
:105810009D0A30919E0A40919F0A5091A00A669677
:105820002CAF3DAF4EAF5FAF669781E08093030230
:1058300080911C0380939C0A3FE72B963FAF2B97E8
:105840006A961CAE1DAE1EAE1FAE6A97AA961CAE1F
:105850001DAE1EAE1FAEAA9727961FAE27976B965A
:105860001FAE6B974CE36F964FAF6F975CE1A396BB
:105870005FAFA39786E4AB968FAFAB97E12CF12C8B
:1058800000E81FEB812C912C54016091A10A7091CA
:10589000A20A072E000C880B990B0E9417B91B0156
:1058A0008AAB9EAB9B01AC01B701C8010E9411B944
:1058B0008823E9F020919D0A30919E0A40919F0A29
:1058C0005091A00AB1018AA99EA90E9411B9881F0E
:1058D0008827881F27968FAF27972F96AFAD2F97D2
:1058E000AA2341F0882331F0809103024DCE1701A5
:1058F0000AAB1EAB0E94DF5B6B017C01DC01CB01BC
:10590000AA962CAD3DAD4EAD5FADAA97821B930B11
:10591000A40BB50BB7FD3CC0D701C60188519C4F05
:10592000AF4FBF4FAA968CAF9DAFAEAFBFAFAA9798
:105930000E94264FEAE1F4E084918F010F5F1F4F30
:10594000882321F00E94B487F801F6CF81149104D6
:10595000A104B104B9F0D501C401805F984DAF4FE7
:10596000BF4FBC01CD016C197D098E099F0928EE3E
:1059700033E040E050E00E9482BFCA01B9010E94BA
:10598000188A03C08FE30E94B4878AE00E94B4871C
:105990000E94DCA00E94DF5B60935D0F70935E0F3E
:1059A00080935F0F9093600F90919D0A9EAFA0919E
:1059B0009E0AAAAF00919F0A1091A00A2796BFAD38
:1059C0002797B11167C0B1018AA99EA90E9424C17D
:1059D00026966CAF7DAF8EAF9FAF269766966CAD67
:1059E0007DAD8EAD9FAD66970E9424C12B013C0119
:1059F00066962CAD3DAD4EAD5FAD66976EAD7AADA2
:105A0000C8010E9411B987FD10C091014AA95EA981
:105A10006EAD7AADC8010E9407C218164CF06EAD8B
:105A20007AADC8010E9424C109C0C301B20106C0F9
:105A300026966CAD7DAD8EAD9FAD26979B01AC01DA
:105A40002419350946095709AFEFB0E00E94C0BFDD
:105A500026962CAD3DAD4EAD5FAD26972419350988
:105A6000460957090E94A4BF23962FAF23972B9670
:105A7000EFAD2B972E17A1F080915A0D81502983FD
:105A80001A82FFEFFB831C828D83CE0101960E9458
:105A90004DA806C02B962FAD2B9723962FAF23979B
:105AA0002EAD3AADA801B1018AA99EA90E94DFBF1F
:105AB0002B013C0120E030E0A9010E9407C287FFD2
:105AC00004C077FA709477F8709481149104A1045B
:105AD000B10459F420E030E040E85FE3C301B201D3
