:100000000C94F1110C9422120C9422120C942212D2
:100010000C9422120C9422120C9422120C94221290
:100020000C9422120C9422120C9422120C94221280
:100030000C9422120C9422120C9422120C94221270
:100040000C9422120C9420130C9422120C94221261
:100050000C9422120C9422120C9462350C942E6D86
:100060000C9422120C940E660C9422120C94221200
:100070000C9422120C9422120C9422120C94221230
:100080000C944D1B0C9422120C9422120C942212EC
:100090000C9422120C9422120C9422120C94221210
:1000A0000C9422120C9422120C941F1B0C942212FA
:1000B0000C9422120C9422120C9422120C94F11A19
:1000C0000C9422120C9422120C9422120C942212E0
:1000D0000C9422120C9422120C9422120C942212D0
:1000E0000C9422126066736686668B66A066B066A4
:1000F000C966DB66EA67F466EA670767EA670B6763
:1001000010675B676D677E678B67AA67CB67CF6A8F
:10011000D26AC16AC56ACB6A096BD66ADA6AE06AD2
:10012000E46AE86AEE6AF26AF66A096BFC6A006BD6
:10013000046BE86BED6BF26BFC6B066C7F6C106C08
:10014000186C206C2A6C346C3E6C4D6C576C7F6C58
:10015000616C6B6C756C107E1B7E227E287E2E7E01
:10016000347E3A7E407EC47E467EC47EC47E5D7E02
:10017000084AD73B3BCE016E84BCBFFDC12F3D6C0E
:1001800074319ABD56833DDA3D00C77F11BED9E474
:10019000BB4C3E916BAAAABE000000803F05A84C54
:1001A000CDB2D44EB93836A9020C50B99186880820
:1001B0003CA6AAAA2ABE000000803F004E414E493C
:1001C0004E495459494E46CDCCCC3D0AD7233C1715
:1001D000B7D13877CC2B329595E6241FB14F0A0062
:1001E0000020410000C84200401C4620BCBE4CCA52
:1001F0001B0E5AAEC59D7400407A10F35A00A072CF
:100200004E18090010A5D4E80000E8764817000051
:10021000E40B54020000CA9A3B000000E1F505001F
:100220000080969800000040420F000000A0860168
:10023000000000102700000000E803000000006438
:1002400000000000000A00000000000100000000A3
:10025000002C76D888DC674F0823DFC1DFAE59E178
:10026000B1B796E5E3E453C63AE651997696E8E6E7
:10027000C28426EB898C9B62ED407C6FFCEFBC9CBA
:100280009F40F2BAA56FA5F490055A2AF75C936BCC
:100290006CF9676DC11BFCE0E40D47FEF520E6B587
:1002A00000D0ED902E0300943577050080841E0861
:1002B0000000204E0A000000C80C333333330F987F
:1002C0006E12831141EF8D2114893BE65516CFFE46
:1002D000E6DB18D1844B381BF77C1D901DA4BBE4D2
:1002E00024203284725E228100C9F124ECA1E53D14
:1002F00027434F4D4D554E49434154494F4E0044BD
:10030000525952554E004552524F525300494E4693
:100310004F004543484F0047322F47332062616406
:1003200020706172616D65746572730A00486F6D4B
:10033000652058592066697273740A00205A3A2061
:100340000020593A200042656420583A200050723B
:10035000696E742074696D653A200012030D0306FE
:1003600003FF02F1026F66660044454255473A00BA
:100370004B494C4C45442E20004D31313320530025
:100380006F6B0050533A310A0050533A300A002C38
:1003900020002C2000544845524D414C5F50524F94
:1003A00054454354494F4E004155544F5245504FC8
:1003B00052545F53445F53544154555300454D4587
:1003C0005247454E43595F504152534552004341B5
:1003D00053455F4C494748545F4252494748544E41
:1003E00045535300544F47474C455F4C4947485489
:1003F0005300534F4654574152455F504F57455253
:10040000004255494C445F50455243454E54004CC0
:100410004556454C494E475F44415441005A5F5050
:10042000524F4245004155544F4C4556454C0050A3
:1004300052494E545F4A4F420050524F4752455323
:1004400053004155544F5245504F52545F54454DFF
:100450005000564F4C554D45545249430045455068
:10046000524F4D0053455249414C5F584F4E5F58D3
:100470004F4646004649524D574152455F4E414D09
:10048000453A4D61726C696E20312E312E3920282B
:100490004769746875622920534F555243455F433D
:1004A0004F44455F55524C3A68747470733A2F2F1D
:1004B0006769746875622E636F6D2F4D61726C6928
:1004C0006E4669726D776172652F4D61726C696EEF
:1004D0002050524F544F434F4C5F56455253494F53
:1004E0004E3A312E30204D414348494E455F5459D4
:1004F00050453A52616D70735F312E362045585425
:1005000052554445525F434F554E543A312055554C
:1005100049443A64656433303464392D3438666153
:100520002D346130622D623533392D3432386664B2
:10053000326131376332330A002F2F2000205400FC
:10054000205200416363656C65726174696F6E3A35
:1005500020500000000000000050C10000000054C6
:100560006F6F206661722066726F6D2072656665BE
:1005700072656E636520706F696E740A00FFFFFF1D
:1005800020466C6F773A2000000136372603FFFFC4
:10059000FF353C3D380EFFFFFF312E303E12FFFF8E
:1005A000FFFF28FF0C0809FFFFFF1A1C18FFFF2A96
:1005B00008440AFF4324221E2C206F7574206F66A6
:1005C0002072616E67650A00536572766F20003A8B
:1005D000200020536572766F200043290A00616273
:1005E0006C656420286D696E2074656D7020004311
:1005F0006F6C6420657874727564657320617265D0
:10060000200020643A0020693A0020703A004E6FC2
:100610002063617365206C696768740A00426564D1
:10062000204C6576656C696E6720004661696C6573
:100630006420746F20656E61626C65204265642081
:100640004C6576656C696E670A00426564204C658E
:1006500076656C20436F7272656374696F6E204DAE
:1006600061747269783A00454550524F4D204F4BA6
:100670000A003F5A206F7574206F662072616E67A2
:100680006520282D323020746F203230290A003A3C
:10069000200050726F6265205A204F666673657441
:1006A00000617869733A70776D5F7363616C652080
:1006B0007C7374617475735F726573706F6E73654C
:1006C0007C0A0041637469766520457874727564AC
:1006D00065723A2000496E76616C696420657874B1
:1006E00072756465720A006F6B00205A3A002059D7
:1006F0003A0020583A00656E6473746F7073206816
:1007000069743A200024F4D43050C38E20C2A24031
:1007100017828B7011127A910D816CD90AA861E150
:1007200008C7586607615143061E4B5D05C145A7C2
:10073000041A411104093D9803713931034036DB35
:100740000265339102D4305402802E1D02632CEED8
:1007500001752AC501B028A001102781018F2564E9
:10076000012B244B01E0223401AC211F018D200D0F
:1007700001801FFC00841EED00971DDF00B81CD215
:1007800000E61BC600201BBC00641AB200B219A808
:10079000000A19A0006A189900D117910040178B20
:1007A00000B516840031167E00B31579003A157332
:1007B00000C7146F0058146A00EE136600881363B4
:1007C0000025135E00C7125B006C1257001512540F
:1007D00000C111510070114F0021114B00D610497A
:1007E000008D1047004610440002104200C00F4028
:1007F00000800F3E00420F3C00060F3B00CB0E383E
:1008000000930E37005C0E3500270E3400F30D32D6
:1008100000C10D3100900D3000600D2E00320D2D05
:1008200000050D2C00D90C2B00AE0C2900850C29DD
:10083000005C0C2700350C27000E0C2600E80B246A
:1008400000C40B2400A00B23007D0B23005A0B21B6
:1008500000390B2100180B2000F80A1F00D90A1ECE
:1008600000BB0A1E009D0A1D00800A1D00630A1CB1
:1008700000470A1B002C0A1B00110A1A00F7091A6C
:1008800000DD091900C4091900AB09190092091704
:10089000007B091800630917004C09160036091679
:1008A00000200916000A091500F5081500E00814D3
:1008B00000CC081400B8081400A408140090081311
:1008C000007D0812006B0813005808120046081239
:1008D000003408110023081100120811000108114A
:1008E00000F0071000E0071000D0071000C007104C
:1008F00000B0070F00A107100091070E0083070F3B
:100900000074070F0065070E0057070E0049070E19
:10091000003B070D002E070E0020070D0013070DEA
:100920000006070D00F9060C00ED060D00E0060CB0
:1009300000D4060C00C8060C00BC060C00B0060C67
:1009400000A4060B0099060C008D060B0082060B16
:100950000077060B006C060B0061060A0057060BB9
:10096000004C060A0042060A0038060A002E060A53
:100970000024060A001A060A001006090007060AE3
:1009800000FD050900F4050900EB050900E2050971
:1009900000D9050900D0050900C7050900BE0509F1
:1009A00000B5050800AD050800A50509009C05086F
:1009B00000940508008C050800840508007C0508E3
:1009C00000740508006C050700650508005D050753
:1009D00000560508004E05070047050700400508BA
:1009E0000038050700310507002A05070023050721
:1009F000001C050600160507000F05070008050680
:100A00000002050700FB040600F5040700EE0406DB
:100A100000E8040600E2040700DB040600D5040633
:100A200000CF040600C9040600C3040600BD040686
:100A300000B7040600B1040500AC040600A60406D5
:100A400000A00405009B0406009504050090040620
:100A5000008A04050085040500800406007A040568
:100A60000075040500700405006B040500660405AC
:100A700000610405005C04050057040500520405EC
:100A8000004D04050048040500430405003E04042D
:100A9000003A04050035040500300404002C040568
:100AA0000027040400230405001E0404001A0404A3
:100AB0000016040500110404000D040400090405D7
:100AC000000404040000040400FC030400F8030410
:100AD00000F4030400F0030400EC030400E8030442
:100AE00000E4030400E0030400DC030400D8030472
:100AF00000D4030400D0030400CC030400C80303A3
:100B000000C503030024F404D9201BC40C5C0E9818
:100B100004C4095F0265077101F405F900FB04B321
:100B20000048048700C103690058035500030345CA
:100B300000BE023A008402310053022A0029022535
:100B40000004022000E4011C00C8011900AF0117D5
:100B5000009801140084011300710110006101105C
:100B60000051010E0043010D0036010B002B010B5B
:100B70000020010B00150109000C01090003010808
:100B800000FB000800F3000800EB000700E400068B
:100B900000DE000600D8000600D2000600CC0005EA
:100BA00000C7000500C2000500BD000400B9000434
:100BB00000B5000400B1000400AD000400A9000469
:100BC00000A5000300A20003009F0004009B000397
:100BD00000980003009500020093000300900003BA
:100BE000008D0002008B00030088000200860002D6
:100BF0000084000300810002007F0002007D0002EB
:100C0000007B0002007900020077000100760002FC
:100C1000007400020072000100710002006F000207
:100C2000006D0001006C0002006A00010069000212
:100C30000067000100660001006500010064000219
:100C4000006200010061000100600001005F00021D
:100C5000005D0001005C0001005B0001005A000122
:100C60000059000100580001005700010056000122
:100C70000055000100540001005300000053000122
:100C8000005200010051000100500001004F00011E
:100C9000004E0000004E0001004D0001004C00011C
:100CA000004B0000004B0001004A00010049000118
:100CB0000048000000480001004700010046000015
:100CC000004600010045000000450001004400010D
:100CD0000043000000430001004200000042000108
:100CE000004100000041000100400001003F000001
:100CF000003F0001003E0000003E0001003D0000FA
:100D0000003D0001003C0000003C0000003C0001F0
:100D1000003B0000003B0001003A0000003A0001E7
:100D200000390000003900010038000000380000E0
:100D300000380001003700000037000100360000D5
:100D400000360000003600010035000000350000CC
:100D500000350001003400000034000000340001C0
:100D600000330000003300000033000100320000B7
:100D700000320000003200010031000000310000AC
:100D800000310001003000000030000000300001A0
:100D9000002F0000002F0000002F0000002F000196
:100DA000002E0000002E0000002E0001002D00008B
:100DB000002D0000002D0000002D0001002C00007F
:100DC000002C0000002C0000002C0001002B000073
:100DD000002B0000002B0000002B0001002A000067
:100DE000002A0000002A0000002A0001002900005B
:100DF000002900000029000000290000002900014E
:100E00000028000000280000002800000028000042
:100E10000028000100270000002700000027000034
:100E20000027000000270001002600000026000027
:100E3000002600000026000000260001002500001A
:100E4000002500000025000000250000002500000E
:100E50000025000100240000002400000024000000
:100E600000240000002400010023000000230000F3
:100E700000230000002300000023000000230000E6
:100E800000230001002200000022000000220000D8
:100E900000220000002200000022000100210000CA
:100EA00000210000002100000021000000210000BE
:100EB00000210000002100010020000000200000AF
:100EC00000200000002000000020000000200000A2
:100ED0000020000000200001001F0000001F000093
:100EE000001F0000001F0000001F0000001F000086
:100EF000001F0001001E0000001E0000001E000078
:100F0000001E000000043700001E290000511B00D5
:100F1000005810000010090000CC04000078020006
:100F20000041010000556E6B6E6F776E20636F6D30
:100F30006D616E643A20220050726F62696E6720A4
:100F40006661696C65640A00205A3A200020593AAB
:100F5000200042656420583A200000002000230051
:100F6000260029002C002F003200000100000301A0
:100F70000601090100002200250028002B002E0098
:100F80003100340002010000050108010B010505D4
:100F90000505070508080808020202020A0A0808EF
:100FA000040404040101010101010101030303031D
:100FB00003030303040707070C0C0C0C0C0C0C0CAC
:100FC0000202020206060606060606060B0B0B0BBD
:100FD0000B0B0B0B010210202008081020401020E2
:100FE00040800201020108040201010204081020ED
:100FF00040808040201008040201800402018040EB
:101000002010080402010804020101020408102053
:1010100040800102040810204080454550524F4D49
:10102000206461746173697A65206572726F722ED3
:101030000A00290A002062797465733B2063726399
:10104000200053657474696E67732053746F726502
:1010500064202800290A002062797465733B2063AC
:10106000726320002073746F7265642073657474FA
:10107000696E67732072657472696576656420288D
:1010800000202863616C63756C6174656429210AB2
:101090000020213D2000454550524F4D20435243F2
:1010A000206D69736D61746368202D202873746FDF
:1010B0007265642920002053697A653A2000496EE0
:1010C0006465783A2000204D61726C696E3D56353A
:1010D00035290A0028454550524F4D3D00454550A1
:1010E000524F4D2076657273696F6E206D69736D16
:1010F0006174636820004534004533004532004583
:1011000031004530005A32005932005832005A003E
:101110005900580070012C0190012701B0012201F3
:10112000C0011D01F00118011002130130020E016F
:101130006002090190020401C002FF000003FA00EE
:101140004003F5008003F000D003EB002004E6002C
:101150007004E100E004DC004005D700C005D200C7
:101160004006CD00D006C8008007C3003008BE008E
:10117000F008B900C009B400B00AAF00B00BAA0073
:10118000D00CA500000EA000500F9B00C0109600D0
:101190005012910000148C00C0158700B017820017
:1011A000B0197D00D01B7800001E730040206E0037
:1011B00090226900F024640040275F0090295A00C3
:1011C000E02B5500102E500020304B00103246000E
:1011D000E033410090353C00103737007038320062
:1011E000A0392D00B03A2800A03B2300603C1E002F
:1011F000103D1900903D1400103E0F00703E0A0093
:10120000C03E0500003F0000403FFBFF803FF6FF6F
:10121000C03FF1FF453120544845524D414C2052CA
:10122000554E415741590042454420544845524D7E
:10123000414C2052554E4157415900546865726DDA
:10124000616C2052756E617761790045312045727D
:10125000723A204D415854454D50004572723A2023
:101260004D415854454D5020424544004D4158543D
:10127000454D502074726967676572656400453139
:10128000204572723A204D494E54454D50004572EA
:10129000723A204D494E54454D5020424544004D30
:1012A000494E54454D502074726967676572656494
:1012B00000202F002042403A0020403A0012111036
:1012C000110E110B11081105110211FF10FC10F97C
:1012D00010F610747275650066616C736500207499
:1012E000656D706572617475726520707265776185
:1012F000726E207472696767657265643A200020B7
:101300007072657761726E20666C616720636C65D0
:10131000617265640A0020686F6D696E672073658D
:101320006E73697469766974793A200044726976DB
:101330006572207265676973746572733A006F74C1
:1013400009006F74707709007332676109007332A6
:10135000676209006F6C6109006F6C620900737449
:101360007374090066736163746976650900736755
:101370005F726573756C7409007374616C6C67756A
:1013800061726409004452565354415455530053FA
:1013900074616C6C67756172642074687273002D7F
:1013A0007374617274090068797374657265736926
:1013B000730A2D656E640900626C616E6B2074693E
:1013C0006D65006F66662074696D6509004F542075
:1013D0007072657761726E206861730A6265656E0E
:1013E00020747269676765726564004F542070727B
:1013F000657761726E005B6D6D2F735D09007077AC
:101400006D0A7468726573686F6C64090074737434
:10141000657009006D73746570730900737465619C
:101420006C746843686F70007673656E736509004D
:1014300050574D207363616C65090043532061630D
:101440007475616C0900486F6C6420637572726515
:101450006E740052756E2063757272656E74004D05
:1014600041582063757272656E7400524D5320634B
:10147000757272656E74005365742063757272655F
:101480006E7400456E61626C656409000900207429
:101490006F6F206C6F6E6720657874727573696FFB
:1014A0006E2070726576656E7465640A0020636FE5
:1014B0006C6420657874727573696F6E20707265E4
:1014C00076656E7465640A00486F6D696E672066A4
:1014D00061696C6564000A0A426564204C65766542
:1014E0006C20436F7272656374696F6E204D617416
:1014F0007269783A00202B000A436F727265637438
:101500006564204265642048656967687420767365
:101510002E2042656420546F706F6C6F67793A0AB1
:1015200000202B000A4265642048656967687420C2
:10153000546F706F6772617068793A0A2020202BAF
:101540002D2D2D204241434B202D2D2B0A202020D4
:101550007C20202020202020202020207C0A204CBD
:10156000207C20202020282B29202020207C205275
:101570000A2045207C202020202020202020202000
:101580007C20490A2046207C20282D29204E202816
:101590002B29207C20470A2054207C20202020203A
:1015A0002020202020207C20480A2020207C202071
:1015B0002020282D29202020207C20540A20202093
:1015C0007C20202020202020202020207C0A202079
:1015D000204F2D2D2046524F4E54202D2D2B0A20CA
:1015E00028302C30290A004D65616E206F6620730B
:1015F000616D706C656420706F696E74733A200061
:1016000020643A200020623A200045716E20636F0A
:10161000656666696369656E74733A20613A200095
:10162000202844525952554E2900473239204175DD
:10163000746F20426564204C6576656C696E670046
:101640003F20284C2C522C462C4229206F757420A8
:101650006F6620626F756E64732E0A003F50726F62
:10166000626520706F696E74732028592920697330
:1016700020696D706C61757369626C652028322D0C
:1016800032292E0A003F50726F626520706F696EBA
:1016900074732028582920697320696D706C6175F6
:1016A0007369626C652028322D32292E0A003F288A
:1016B00056296572626F7365206C6576656C20696A
:1016C0007320696D706C61757369626C6520283078
:1016D0002D34292E0A00205A0020590058002020BD
:1016E0004D61783A2000205A0020590058002020EF
:1016F0004D696E3A20004F6E20004F666600536FB2
:10170000667420656E6473746F70733A2000206491
:101710003A0020693A0020703A00496E76616C699F
:10172000642065787472756465720A0047323820E7
:101730005A000A486F6D696E67205A2064756520EB
:10174000746F206C6F73742073746570730A000A71
:1017500043616C6962726174696F6E206375727245
:10176000656E743A205A000A506C65617365206892
:101770006F6D65205A206178697320666972737491
:101780000A00526573656E643A200020746F6F2002
:101790006C6F6E6720657874727573696F6E2070F8
:1017A000726576656E7465640A0020636F6C6420F0
:1017B000657874727573696F6E2070726576656E88
:1017C0007465640A00627573793A20706175736597
:1017D0006420666F7220696E7075740A006275739A
:1017E000793A2070617573656420666F7220757335
:1017F00065720A00627573793A2070726F6365735F
:1018000073696E670A004B494C4C45442E20004BCF
:10181000494C4C2063617573656420627920746F54
:101820006F206D75636820696E61637469766520E9
:1018300074696D65202D2063757272656E74206306
:101840006F6D6D616E643A20002569730025696DC6
:1018500020256973002569682025696D2025697335
:1018600000256964202569682025696D2025697334
:101870000025697920256964202569682025696D1E
:101880002025697300656E7175657565696E6720E1
:1018900022004B494C4C45442E20005072696E7416
:1018A00065722073746F7070656420647565207450
:1018B0006F206572726F72732E204669782074688B
:1018C00065206572726F7220616E64207573652089
:1018D0004D39393920746F20726573746172742EBA
:1018E000202854656D706572617475726520697326
:1018F0002072657365742E205365742069742061AD
:10190000667465722072657374617274696E67299A
:101910000A004E6F20436865636B73756D207769AD
:101920007468206C696E65206E756D6265722C201E
:101930004C617374204C696E653A2000636865637E
:101940006B73756D206D69736D617463682C204CC9
:10195000617374204C696E653A20004C696E652095
:101960004E756D626572206973206E6F74204C61D4
:101970007374204C696E65204E756D6265722B31F3
:101980002C204C617374204C696E653A20004D31F7
:1019900031300020496E76616C696420657874721C
:1019A00075646572200000000000000050C1000056
:1019B00000000000AF430080A84300009B4350722A
:1019C000696E7465722073746F70706564206475DD
:1019D0006520746F206572726F72732E204669786D
:1019E00020746865206572726F7220616E64207564
:1019F0007365204D39393920746F207265737461B5
:101A000072742E202854656D7065726174757265EC
:101A10002069732072657365742E20536574206984
:101A20007420616674657220726573746172746982
:101A30006E67290A0053544F502063616C6C6564D3
:101A40002062656361757365206F6620424C546F38
:101A5000756368206572726F72202D2072657374D1
:101A60006172742077697468204D3939390A00250C
:101A7000753A2530327500253032753A2530327589
:101A80000025756420253032753A25303275007C8A
:101A90002000207C3062003A002063757272656E0F
:101AA000742064656372656173656420746F2000DF
:101AB0006D41290A0020647269766572206F76652F
:101AC0007274656D7065726174757265207761728C
:101AD0006E696E67212028003A200044726976659D
:101AE00072206572726F720073686F727420746F07
:101AF0002067726F756E642028636F696C204229BD
:101B00000A0073686F727420746F2067726F756E4D
:101B1000642028636F696C2041290A006F76657222
:101B200074656D70657261747572650A0020647207
:101B300069766572206572726F7220646574656380
:101B40007465643A0A00747275650066616C736549
:101B500000747275650066616C73650074727565FA
:101B60000066616C736500313D2E313800303D2ECA
:101B7000333235002F3331002F3331002F33310012
:101B8000747275650066616C736500000021002445
:101B90000027002A002D003000330001010000045E
:101BA0000107010A0100000A0B02090C0D0E0807CB
:101BB000030401000000000000000000000000001D
:101BC0000000000000000000000000000000000015
:101BD00000121110000000000000000000000000D2
:101BE000000000000000000000000050726F7465EB
:101BF000637465642050696E0A0020573A002057CC
:101C00003A00205A3A0020593A0020436F756E740A
:101C100020583A0020453A00205A3A0020593A000C
:101C2000583A004469666665723A200046726F6DE4
:101C30005374703A00537465707065723A00556E53
:101C40004C6576656C3A004C6576656C65643A0067
:101C50005261773A20202020000A4C6F6769636147
:101C60006C3A003A004361703A005072696E7465D4
:101C7000722068616C7465642E206B696C6C282915
:101C80002063616C6C6564210A002020506C616ED9
:101C90006E657242756666657242797465733A2044
:101CA000002046726565204D656D6F72793A20009F
:101CB000436F6D70696C65643A204F6374203137EF
:101CC00020323031380A00207C20417574686F72F0
:101CD0003A20284261757369323031322C206465B4
:101CE0006661756C7420636F6E666967290A0032DD
:101CF0003031382D30382D303100204C6173742054
:101D0000557064617465643A2000312E312E390AB1
:101D1000004D61726C696E0020536F66747761725A
:101D2000652052657365740A0020576174636864A6
:101D30006F672052657365740A002042726F776E78
:101D4000206F75742052657365740A00204578749D
:101D500065726E616C2052657365740A00506F770E
:101D6000657255700A0073746172740A00203D2018
:101D700030780048617264636F646564204465660E
:101D800061756C742053657474696E6773204C6F51
:101D9000616465640A00B80B0000B80B00006400C1
:101DA000000010270000000096430000964300004A
:101DB000A0400000C841856BA0425C8FA04200009B
:101DC000C844E19AE14320204D393036003A0A00F8
:101DD00020286D6D290020204D3931340020590014
:101DE00020580053656E736F726C65737320686F53
:101DF0006D696E67207468726573686F6C643A0A07
:101E000000205A0020493100205A00205900205853
:101E10000053746570706572206472697665722013
:101E200063757272656E743A0A0020204D38353140
:101E3000205A005A2D50726F6265204F6666736596
:101E4000740020440020490020204D3330342050BD
:101E50000020440020490020204D33303120500024
:101E60005049442073657474696E67733A0A0020A0
:101E7000204D3432302053004175746F2042656428
:101E8000204C6576656C696E673A0A00205A00201E
:101E9000590020204D323036205800486F6D6520A3
:101EA0006F66667365743A0A00204500205A002068
:101EB000590020580020540020530020204D32307B
:101EC0003520510020453C6D61785F655F6A657221
:101ED0006B3E0020583C6D61785F785F6A65726B7D
:101EE0003E20593C6D61785F795F6A65726B3E2078
:101EF0005A3C6D61785F7A5F6A65726B3E0041643F
:101F000076616E6365643A20513C6D696E5F7365FE
:101F1000676D656E745F74696D655F75733E2053A0
:101F20003C6D696E5F66656564726174653E2054E0
:101F30003C6D696E5F74726176656C5F6665656441
:101F4000726174653E0020540020520020204D3202
:101F50003034205000416363656C65726174696F51
:101F60006E2028756E6974732F7332293A20503CA5
:101F70007072696E745F616363656C3E20523C727F
:101F80006574726163745F616363656C3E20543C89
:101F900074726176656C5F616363656C3E0A0020F4
:101FA0004500205A0020590020204D323031205861
:101FB000004D6178696D756D20416363656C657274
:101FC0006174696F6E2028756E6974732F7332297E
:101FD0003A0A00204500205A0020590020204D32A6
:101FE00030332058004D6178696D756D20666565E8
:101FF0006472617465732028756E6974732F732918
:102000003A0A00204500205A0020590020204D396E
:102010003220580053746570732070657220756E9D
:1020200069743A0A0020204D3230302044300A00D2
:1020300020204D3230302044002044697361626CAE
:1020400065640A0046696C616D656E742073657421
:1020500074696E67733A00202047323120202020B7
:102060003B004B64200023646566696E652044452F
:102070004641554C545F004B6920002364656669F6
:102080006E652044454641554C545F004B7020001E
:1020900023646566696E652044454641554C545F2E
:1020A00000504944204175746F74756E65206669EF
:1020B0006E697368656421205075742074686520AA
:1020C0006C617374204B702C204B6920616E64200E
:1020D0004B6420636F6E7374616E74732066726FED
:1020E0006D2062656C6F7720696E746F20436F6E30
:1020F00066696775726174696F6E2E680A0050496F
:1021000044204175746F74756E65206661696C65F5
:1021100064212074696D656F75740A00453120541F
:102120004845524D414C2052554E4157415900426D
:10213000454420544845524D414C2052554E41573C
:10214000415900546865726D616C2052756E6177FB
:1021500061790045312048656174696E6720666168
:10216000696C6564004265642068656174696E67C6
:10217000206661696C65640048656174696E6720FA
:102180006661696C656400504944204175746F74E0
:10219000756E65206661696C6564212054656D709B
:1021A0006572617475726520746F6F206869676805
:1021B0000A00204B643A2000204B693A2000204B53
:1021C000703A20000A20436C6173736963205049A0
:1021D00044200A002054753A2000204B753A200014
:1021E000206D61783A2000206D696E3A20002064ED
:1021F0003A200020626961733A200050494420412E
:1022000075746F74756E65206661696C65642120F4
:10221000426164206578747275646572206E756DB4
:102220006265720A00504944204175746F74756E7E
:10223000652073746172740A006265640A002C2060
:1022400073797374656D2073746F70706564212089
:102250004865617465725F49443A200042656420B4
:1022600068656174696E67206661696C65640048C1
:10227000656174696E67206661696C6564004531EB
:102280002048656174696E67206661696C656400E9
:1022900048656174696E67206661696C65640020D9
:1022A00066697273740A005A0059005800486F6DCD
:1022B0006520006563686F3A004572726F723A007C
:1022C000545249474745524544006F70656E003A85
:1022D00020007A5F6D696E00795F6D696E00785FCE
:1022E0006D696E005265706F7274696E6720656EFD
:1022F0006473746F70207374617475730A00206462
:1023000072697665722063757272656E743A200028
:1023100000004842000048420000804000000000E9
:102320005761726E696E673A20486F6D696E6720FB
:1023300042756D702044697669736F72203C20315C
:102340000A0002020400000000000000000000007B
:10235000400000AF430000AF4300009B4345727252
:102360006F722077726974696E6720746F204545BB
:1023700050524F4D210A0046696C616D656E7420A4
:10238000757365643A200053746174733A20002CAD
:10239000204C6F6E67657374206A6F623A20005438
:1023A0006F74616C2074696D653A200053746174B8
:1023B000733A20002C204661696C65643A20002C39
:1023C0002046696E69736865643A20005072696ED0
:1023D00074733A200053746174733A200000FCB1A6
:1023E000BCB211241FBECFEFD1E2DEBFCDBF00E0F3
:1023F0000CBF13E0A0E0B2E0E2E3F4E801E00BBFC1
:1024000002C007900D92AE32B107D9F72FE0AEE2CD
:10241000B3E001C01D92A03DB207E1F711E1C0EFAA
:10242000D1E100E006C021970109802FFE010E9442
:10243000BFC1CF3ED10780E00807A9F70E94F09BFB
:102440000C9408C20C9400008091C10E9091C20EB1
:10245000891B8F7019F480E090E008959091BE0E72
:10246000992351F0833030F48FEF890F19F0809366
:10247000BE0EF1CF1092BE0EE091C20E8DE4E89F29
:10248000F0011124EE53FA4F808180FDE4CF80915A
:10249000C20E8F5F8F708093BF0E9091C20E80919D
:1024A000C00E981304C08091BF0E8093C00ECF0160
:1024B0000895CF92DF92EF92FF920F931F93CF93E5
:1024C000DF936C018B017A01EC01CC56D54F8881EA
:1024D00087FF04C0FB011182108224C02CE02C9DD8
:1024E000C0012D9D900D11242881AC01420F511D7A
:1024F00027FD5A952091A10F30E04217530794F41D
:102500002881AC01420F511D27FD5A959A01FA010D
:10251000EE0FFF1F2E0F3F1FF901EB5CF04F2081E4
:1025200026FD19C088818F5F88832CE02C9DC00117
:102530002D9D900D11242881AC01420F511D27FDC6
:102540005A952091A10F30E042175307BCF428811F
:102550002C3044F113C02881820F911D27FD9A95DC
:10256000FC01EE0FFF1F8E0F9F1FFC01EB5CF04F75
:10257000808160E08F730E94576BD4CFF801808117
:102580009181049680349C4918F480E49CE904C04D
:10259000F801808191810496F701918380838FEF08
:1025A000888345C0F801408151812881BC01620FB8
:1025B000711D27FD7A959B01FB01EE0FFF1F2E0F6A
:1025C0003F1FF901EB5CF04F21813281240F351F51
:1025D000F701318320832881AC01420F511D27FD73
:1025E0005A959A01FA01EE0FFF1F2E0F3F1FF901B6
:1025F000EB5CF04F208126FF1AC02881820F911DCD
:1026000027FD9A95FC01EE0FFF1F8E0F9F1FFC0107
:10261000EB5CF04F808161E08F73DF91CF911F9170
:102620000F91FF90EF90DF90CF900C94576BDF915C
:10263000CF911F910F91FF90EF90DF90CF90089571
:102640000F930FB70F9300916E000F930B7F0093C2
:102650006E0000916F000D7F00936F000F930BB71A
:102660000F930CB70F921F922F933F934F935F934B
:102670006F937F938F939F93AF93BF93EF93FF934A
:10268000112455D0FF91EF91BF91AF919F918F9100
:102690007F916F915F914F913F912F911F900F907C
:1026A0000CBF0F910BBF0F910260F89400936F0065
:1026B0000F9100936E000F910FBF0F9118958091AD
:1026C000920A80FF03C089988FEF02C0899A81E047
:1026D00080930C028091920A81FF03C08F988FEF44
:1026E00002C08F9A81E080930D028091920A82FF4E
:1026F00009C080910B018095827080930901439AF3
:102700008FEF07C080910B0182708093090143987D
:1027100081E080930E028091920A83FF03C0169A93
:102720008FEF02C0169881E080930F0208952F92D8
:102730003F924F925F926F927F928F929F92AF9251
:10274000BF92CF92DF92EF92FF921F93CF93DF93CE
:10275000F8948FEF9FEF90938900809388001AE0A0
:10276000C0E0D0E0B1E22B2EBFE03B2E7894809108
:10277000D80A9091D90AA091DA0AB091DB0A892B84
:102780008A2B8B2B09F0D3C180917D0C8823D1F04B
:1027900010927D0C80917B0C90917C0C892B91F098
:1027A0001092930A10927C0C10927B0C9091C10EA7
:1027B0008091C20E981731F08091C20E8F5F8F709A
:1027C0008093C20E80917B0C90917C0C892B09F434
:1027D000AEC18090D40A9090D50AA090D60AB0904D
:1027E000D70A4091D00A5091D10A6091D20A7091D3
:1027F000D30AC090C30AD12CE12CF12CDB01CA0111
:1028000088199909AA09BB09C816D906EA06FB0660
:1028100010F4D701C601482F880D991DAA1DBB1DB4
:102820008093D40A9093D50AA093D60AB093D70A7E
:102830002091840030918500245E3F4FC090AB0A08
:10284000D090AC0AE090AD0AF090AE0A80919B0A5D
:1028500090919C0AA0919D0AB0919E0A8C0D9D1D9D
:10286000AE1DBF1D8093AB0A9093AC0AA093AD0A36
:10287000B093AE0AB7FD1CC0889AC0904C03D090AC
:102880004D03E0904E03F0904F0380910C02082E10
:10289000000C990BAA0BBB0B8C0D9D1DAE1DBF1D13
:1028A00080934C0390934D03A0934E03B0934F033A
:1028B000C090AF0AD090B00AE090B10AF090B20A8E
:1028C00080919F0A9091A00AA091A10AB091A20ABA
:1028D0008C0D9D1DAE1DBF1D8093AF0A9093B00A55
:1028E000A093B10AB093B20AB7FD1CC08E9AC090F3
:1028F0005003D0905103E0905203F0905303809125
:102900000D02082E000C990BAA0BBB0B8C0D9D1D04
:10291000AE1DBF1D8093500390935103A0935203AB
:10292000B0935303C090B30AD090B40AE090B50AB4
:10293000F090B60A8091A30A9091A40AA091A50AEA
:10294000B091A60A8C0D9D1DAE1DBF1D8093B30ACC
:102950009093B40AA093B50AB093B60AB7FD22C00B
:1029600080910B018095887080930901419AC090F5
:102970005403D0905503E0905603F0905703809194
:102980000E02082E000C990BAA0BBB0B8C0D9D1D83
:10299000AE1DBF1D8093540390935503A09356031F
:1029A000B0935703C090B70AD090B80AE090B90A24
:1029B000F090BA0A8091A70A9091A80AA091A90A5A
:1029C000B091AA0A8C0D9D1DAE1DBF1D8093B70A44
:1029D0009093B80AA093B90AB093BA0AB7FD1CC085
:1029E000149AC0905803D0905903E0905A03F09085
:1029F0005B0380910F02082E000C990BAA0BBB0BF6
:102A00008C0D9D1DAE1DBF1D8093580390935903DF
:102A1000A0935A03B0935B038091AB0A9091AC0AE8
:102A2000A091AD0AB091AE0AB7FD15C0C090970A4B
:102A3000D090980AE090990AF0909A0A8C199D0912
:102A4000AE09BF098093AB0A9093AC0AA093AD0A7C
:102A5000B093AE0A88988091AF0A9091B00AA09185
:102A6000B10AB091B20AB7FD15C0C090970AD090D4
:102A7000980AE090990AF0909A0A8C199D09AE097B
:102A8000BF098093AF0A9093B00AA093B10AB093A4
:102A9000B20A8E988091B30A9091B40AA091B50AB7
:102AA000B091B60AB7FD1AC0C090970AD090980AA4
:102AB000E090990AF0909A0A8C199D09AE09BF0915
:102AC0008093B30A9093B40AA093B50AB093B60A60
:102AD00080910B0188708093090141988091B70A19
:102AE0009091B80AA091B90AB091BA0AB7FD15C081
:102AF000C090970AD090980AE090990AF0909A0AAC
:102B00008C199D09AE09BF098093B70A9093B80A42
:102B1000A093B90AB093BA0A1498415041F0809139
:102B200084009091850082179307C8F387CE809127
:102B3000D80A9091D90AA091DA0AB091DB0A892BC0
:102B40008A2B8B2B09F01CC3E0917B0CF0917C0C41
:102B5000309709F491C48091D40A9091D50AA0913C
:102B6000D60AB091D70A4091D00A5091D10A60910B
:102B7000D20A7091D30A84179507A607B707D0F039
:102B80001092930A10927C0C10927B0C9091C10EC3
:102B90008091C20E981709F46FC48091C20E8F5FA6
:102BA0008F708093C20EA0EDCA2EA7E0DA2EE12C22
:102BB000F12C4EC14091CC0A5091CD0A6091CE0AC1
:102BC0007091CF0A481759076A077B0708F467C056
:102BD0004091C80A5091C90A6091CA0A7091CB0A03
:102BE00082A993A9A4A9B5A9FF24499FE12C5A9FC2
:102BF00090016A9F300D699F200D311D4A9FE00CA6
:102C0000211D3F1D599FE00C211D3F1D689FE00CB9
:102C1000211D3F1D589FE10C2F1D3F1DE6942F1DC8
:102C20003F1DB49F200D311DB59F300D112483AD84
:102C300094ADA5ADB6AD820F931FA11DB11D8093BC
:102C4000C40A9093C50AA093C60AB093C70AC7A83E
:102C5000D0ACE1ACF2ACC816D906EA06FB0640F4EB
:102C6000C092C40AD092C50AE092C60AF092C70A7E
:102C70008090C40A9090C50AA090C60AB090C70A76
:102C800085E09FE021E0FC01C590D590E590F490AF
:102C9000C814D904EA04FB0408F4B8C2C2C24091C3
:102CA000BF0A5091C00A6091C10A7091C20A4817C8
:102CB00059076A077B0708F063C04091BB0A50912F
:102CC000BC0A6091BD0A7091BE0A82A993A9A4A909
:102CD000B5A9FF24499FE12C5A9F90016A9F300DAE
:102CE000699F200D311D4A9FE00C211D3F1D599FFA
:102CF000E00C211D3F1D689FE00C211D3F1D589FCA
:102D0000E10C2F1D3F1DE6942F1D3F1DB49F200D8C
:102D1000311DB59F300D1124C901A0E0B0E08090B5
:102D2000C40A9090C50AA090C60AB090C70AFF9640
:102D300088159905AA05BB0580F4C080D180E28082
:102D4000F380881A990AAA0ABB0A8C149D04AE045F
:102D5000BF0438F44601570104C080809180A280EE
:102D6000B38085E09FE021E0FC01C590D590E5901F
:102D7000F490C814D904EA04FB0408F4BAC2C4C22B
:102D80008091110290911202A0911302B09114024D
:102D9000B7FF56C087A990ADA1ADB2AD25E03FE029
:102DA00041E0F901C590D590E590F490C816D90698
:102DB000EA06FB0658F4B695A79597958795440FB4
:102DC0002C5F3F4FFFE021323F0759F74093C30A82
:102DD00080329105A105B10508F421C38097A109AE
:102DE000B109811528E09207A105B10508F4F4C2E4
:102DF00044E0949F900111242B5F344FF9013296E7
:102E000045915491EE27859FB001849F610D7E1FEF
:102E100006946E1F7E1F1124CB01A0E0B0E0F901E3
:102E20004591549160E070E0481B590B6A0B7B0B95
:102E30004093110250931202609313027093140294
:102E4000C0901102D0901202E0901302F090140290
:102E500080917B0C90917C0C892B09F089C1F4DA6C
:102E600090937C0C80937B0C892B09F481C1E091B9
:102E70007B0CF0917C0C808183FF3EC08589968914
:102E8000A789B08D80934C0390934D03A0934E037C
:102E9000B0934F03818D928DA38DB48D8093500399
:102EA00090935103A0935203B0935303858D968D55
:102EB000A78DB0A18093540390935503A09356031C
:102EC000B093570381A192A1A3A1B4A18093580309
:102ED00090935903A0935A03B0935B039091C10E52
:102EE0008091C20E981709F4BACF8091C20E8F5FFD
:102EF0008F708093C20EB3CF85889688A788B08CD8
:102F000081E081149104A104B10409F480E0C18C32
:102F1000D28CE38CF48CC114D104E104F10409F0E7
:102F20008260458D568D678D70A1411551056105F3
:102F3000710509F084608093930A1092BB0A109285
:102F4000BC0A1092BD0A1092BE0A1092C80A1092D2
:102F5000C90A1092CA0A1092CB0A85A196A1A7A10C
:102F6000B0A58093D00A9093D10AA093D20AB093CF
:102F7000D30A442455243201481A590A6A0A7B0AA2
:102F80004092B70A5092B80A6092B90A7092BA0A8F
:102F90004092B30A5092B40A6092B50A7092B60A8F
:102FA0004092AF0A5092B00A6092B10A7092B20A8F
:102FB0004092AB0A5092AC0A6092AD0A7092AE0A8F
:102FC000880C991CAA1CBB1C80929B0A90929C0A9C
:102FD000A0929D0AB0929E0ACC0CDD1CEE1CFF1C38
:102FE000C0929F0AD092A00AE092A10AF092A20A8F
:102FF000440F551F661F771F4093A30A5093A40ADE
:103000006093A50A7093A60A41A152A163A174A17D
:10301000440F551F661F771F4093A70A5093A80AB5
:103020006093A90A7093AA0A880F991FAA1FBB1F51
:103030008093970A9093980AA093990AB0939A0A5A
:103040001092D40A1092D50A1092D60A1092D70A7A
:1030500082A593A5A4A5B5A58093CC0A9093CD0A8B
:10306000A093CE0AB093CF0A86A597A5A0A9B1A92F
:103070008093BF0A9093C00AA093C10AB093C20A7A
:1030800041A556A98091920A58130AC08091100256
:1030900090E0242F042E000C330B2817390729F059
:1030A0005093920A409310020ADB0E940F948FEF14
:1030B0009FEFDC018093110290931202A093130200
:1030C000B0931402E0917B0CF0917C0C83AD94AD35
:1030D000A5ADB6AD8093C40A9093C50AA093C60A65
:1030E000B093C70A25E03FE041E0F901C590D590D3
:1030F000E590F490C816D906EA06FB0650F4B6959A
:10310000A79597958795440F2C5F3F4F221633065E
:1031100061F74093C30A80329105A105B10508F417
:10312000A6C18097A109B1098115F8E09F07A10503
:10313000B10508F479C144E0949F900111242B5FFC
:10314000344FF901329645915491EE27859FB00195
:10315000849F610D7E1F06946E1F7E1F1124F9014E
:10316000C590D490E12CF12CC61AD70AE108F108D9
:10317000C092D80AD092D90AE092DA0AF092DB0A19
:103180008091D80A9091D90AA091DA0AB091DB0A0D
:10319000AC01BD010097F1E0AF07B10520F04FEFA2
:1031A0005FEF60E070E0841B950BA60BB70B80937C
:1031B000D80A9093D90AA093DA0AB093DB0AF8945C
:1031C00080918400909185004096115039F0C40F91
:1031D000D51FC817D90708F4C9CA01C0EC01D0939C
:1031E0008900C09388007894DF91CF911F91FF9060
:1031F000EF90DF90CF90BF90AF909F908F907F9097
:103200006F905F904F903F902F900895B694A79441
:1032100097948794220F04963FE08132930709F038
:1032200032CD2093C30A80E288169104A104B10430
:1032300008F459C020E2821A9108A108B10881144B
:1032400038E09306A104B104F8F0A4E09A9EC0010E
:1032500011248B5F944FFC01329625913491F82D07
:10326000EE27F39FD001F29FA10DBE1F0694AE1F63
:10327000BE1F1124FC01C590D490E12CF12CCA1A78
:10328000DB0AE108F10822C0D501C401B695A79573
:1032900097958795FC01EC7FCF018B5F984FFC01E0
:1032A000C590D490FC01329625913491E82DE770B9
:1032B000E29FC001E39F900D1124F3E0969587955E
:1032C000FA95E1F7C81AD90AE12CF12C4C0D5D1DD5
:1032D0006E1D7F1D4093C80A5093C90A6093CA0AA5
:1032E0007093CB0AB5CDA0E28A2E912CA12CB12CE3
:1032F000A1CFB694A79497948794220F0496AFE039
:1033000081329A0709F030CD2093C30AB0E28B16C0
:103310009104A104B10408F459C020E2821A910872
:10332000A108B108811438E09306A104B104F8F0B3
:10333000A4E09A9EC00111248B5F944FFC01329649
:1033400025913491F82DEE27F39FD001F29FA10D26
:10335000BE1F0694AE1FBE1F1124FC01C590D49061
:10336000E12CF12CCA1ADB0AE108F10822C0D501D0
:10337000C401B695A79597958795FC01EC7FCF0181
:103380008B5F984FFC01C590D490FC01329625913B
:103390003491E82DE770E29FC001E39F900D112466
:1033A00033E0969587953A95E1F7C81AD90AE12C4A
:1033B000F12C4C0D5D1D6E1D7F1D4093BB0A50937B
:1033C000BC0A6093BD0A7093BE0A42CDE0E28E2E25
:1033D000912CA12CB12CA1CFAC01BD0176956795A4
:1033E00057954795FA01EC7F9F012B5F384FF90104
:1033F00045915491F9013296659174918770869F39
:103400009001879F300D1124C901F3E096958795AF
:10341000FA95E1F7481B590B60E070E009CD80E2B6
:1034200090E0A0E0B0E0DACCAC01BD017695679504
:1034300057954795FA01EC7F9F012B5F384FF901B3
:10344000C590D490F9013296459154918770849F2C
:103450009001859F300D1124C90123E09695879531
:103460002A95E1F7C81AD90AE12CF12C81CE80E225
:1034700090E0A0E0B0E055CE80EDC82E87E0D82ED9
:10348000E12CF12CECCC8F929F92AF92BF92CF9215
:10349000DF92EF92FF920F931F93CF93DF938C01F4
:1034A000EB0160E070E00E94C48F87FD8DC0C032E8
:1034B00082E0D8070CF042C0F801828128E532E0B2
:1034C000281B310987FD3395220F331F220F331F2D
:1034D0004901330FAA08BB08818128E830E069015F
:1034E000C81AD10887FDD394CC0CDD1CCC0CDD1C94
:1034F0000D2C000CEE08FF08D7FD0AC0C53BD10516
:1035000014F0C4EBD0E0BE01DD0F880B990B03C0B3
:1035100060E070E0CB01A50194012C193D094E0932
:103520005F090E9464BE24EB30E040E050E00E945E
:1035300095BEC20ED31EE41EF51EE601F8013081D1
:10354000343280F5218188E890E0821B910927FDC3
:103550009395880F991F880F991FC817D90784F072
:10356000F801228188E592E0821B910927FD93955D
:10357000880F991F880F991FC817D9070CF4CE011F
:1035800002974FB7F894232F30E0F901EE0FFF1F99
:103590002E0F3F1FF901EB5CF04F880F991F9283AC
:1035A00081834FBF62E370E080E090E0DF91CF91D4
:1035B0001F910F91FF90EF90DF90CF90BF90AF9051
:1035C0009F908F900C94CF7DDF91CF911F910F91A1
:1035D000FF90EF90DF90CF90BF90AF909F908F9033
:1035E00008951F920F920FB60F9211240BB60F92EF
:1035F0002F933F934F935F936F937F938F939F93FB
:10360000AF93BF93EF93FF9348E251E064E271E020
:1036100082E090E00E945912FF91EF91BF91AF912B
:103620009F918F917F916F915F914F913F912F91DA
:103630000F900BBE0F900FBE0F901F9018951F920A
:103640000F920FB60F9211240BB60F922F933F9348
:103650004F935F936F937F938F939F93AF93BF939A
:10366000EF93FF9348EA50E064EA70E081E090E075
:103670000E945912FF91EF91BF91AF919F918F914D
:103680007F916F915F914F913F912F910F900BBE62
:103690000F900FBE0F901F9018951F920F920FB6AC
:1036A0000F9211240BB60F922F933F934F935F937A
:1036B0006F937F938F939F93AF93BF93EF93FF93FA
:1036C00048E950E064E970E080E090E00E9459121F
:1036D000FF91EF91BF91AF919F918F917F916F91EA
:1036E0005F914F913F912F910F900BBE0F900FBEA6
:1036F0000F901F901895CF92DF92EF92FF92CF9389
:10370000DF936A017B01FC018491EF0121968823FC
:1037100021F00E948662FE01F7CF4AE0C701B601A0
:10372000DF91CF91FF90EF90DF90CF900C941865D0
:10373000CF92DF92EF92FF92CF93DF936A017B01EA
:10374000FC018491EF012196882321F00E9486627A
:10375000FE01F7CF42E0C701B601DF91CF91FF90A4
:10376000EF90DF90CF900C949D650F931F93CF93B4
:10377000DF938B01FC018491EF012196882321F0D6
:103780000E948662FE01F7CFB801110F880B990BDA
:10379000DF91CF911F910F910C9483650F931F932D
:1037A000CF93DF938B01FC018491EF012196882355
:1037B00021F00E948662FE01F7CFE80189918823FB
:1037C00019F00E948662FACFDF91CF911F910F917D
:1037D0000895CF92DF92EF92FF920F931F93809103
:1037E0006C038150823010F080E05DC010926C0359
:1037F0000E94226D609368037093690380936A034B
:1038000090936B038091B4059091B50501969093C8
:10381000B5058093B405C090AE05D090AF05E0909B
:10382000B005F090B1050E94838D6093AE05709352
:10383000AF058093B0059093B1050091B605109146
:10384000B7052091B8053091B9050C191D092E094D
:103850003F09DC01CB01800F911FA21FB31F809392
:10386000B6059093B705A093B805B093B9050E942B
:10387000838D0091BA051091BB052091BC05309154
:10388000BD05061717072807390750F40E94838DD6
:103890006093BA057093BB058093BC059093BD05FA
:1038A0000E94FD9981E01F910F91FF90EF90DF90B2
:1038B000CF900895CF93C0916C03C13081F1C23095
:1038C00059F40E94838D60938A0C70938B0C8093C3
:1038D0008C0C90938D0C02C00E94B78D81E0809378
:1038E0006C030E94226D60938E0C70938F0C8093FA
:1038F000900C9093910CC230A1F08091B205909100
:10390000B30501969093B3058093B2051092AE056E
:103910001092AF051092B0051092B10502C080E080
:1039200001C081E0CF9108950F931F93CF93DF9350
:10393000EC0168EC70E080E090E00E94EA6C8E811F
:103940009F818F3F2FEF920739F061E00E94856BD6
:1039500061E08E810E94576B8C859D858F3FEFEFD4
:103960009E0719F061E00E94856B888599858F3FDD
:10397000FFEF9F0739F061E00E94856B60E088856A
:103980000E94576B61E08A850E94856B61E08A85A1
:103990000E94576BFE01E858FF4F8081882309F48D
:1039A0005AC061E08091CB0C0E94856B61E08091F0
:1039B000CF0C0E94856B62E08091CD0C0E94856BDC
:1039C0004091CB0C5091CC0CFA01EC52F04FE491A9
:1039D000E093D10C2091CD0C3091CE0CF901EC523A
:1039E000F04FE491E093D20C8091CF0C9091D00CE9
:1039F000FC01EC52F04FE491E093D30CFA01E25752
:103A0000F04FE491F0E0EE0FFF1FEC58F04F4591BE
:103A100054915093D50C4093D40CF901E257F04FD8
:103A2000E491F0E0EE0FFF1FE65AF04F259134913C
:103A30003093D70C2093D60CFC01E257F04FE49161
:103A4000F0E0EE0FFF1FEC58F04F859194919093AA
:103A5000D90C8093D80CCE010E9406708E010E5AAC
:103A60001F4FF80180819181A281B381807F88609E
:103A700080839183A283B383A8016CEECE010E9460
:103A8000B87BF80180819181A281B3819F77AE7F5D
:103A9000906880839183A283B383A8016CEECE01EA
:103AA0000E94B87B60E273E0CE010E94BC8EF801F8
:103AB00080819181A281B381B07FB4608083918342
:103AC000A283B383A8016CEECE010E94B87BF801FB
:103AD00080819181A281B3819F77AE7F906880833E
:103AE0009183A283B383A8016CEECE010E94B87BC0
:103AF000F80180819181A281B381807F856080837C
:103B00009183A283B383A8016CEECE010E94B87B9F
:103B1000F80180819181A281B381B061808391831A
:103B2000A283B383A8016CEECE010E94B87BAE01E4
:103B30004A595F4F80E890E0A0E0B0E0FA0180834E
:103B40009183A283B38361E9CE010E94B87BF8011F
:103B500080819181A281B3818F78806280839183FB
:103B6000A283B383A8016CEECE010E94B87BF8015A
:103B700080819181A281B3818F77987F80689260E4
:103B800080839183A283B383A8016CEECE010E944F
:103B9000B87B045F1F4FF80180819181A281B381BE
:103BA000AC7FA16080839183A283B383A80160EF7F
:103BB000CE010E94B87BF80180819181A281B381FE
:103BC000A46080839183A283B383A80160EFCE01B8
:103BD0000E94B87BF80180819181A281B3819927ED
:103BE000956080839183A283B383A80160EFCE01A7
:103BF0000E94B87BF80180819181A281B3818F6F8F
:103C000080839183A283B383A80160EFCE010E94D9
:103C1000B87B8E859F85A889B98984608E879F87A8
:103C2000A88BB98BAE01425F5F4F60E8CE010E9466
:103C3000B87BAE014E595F4FFA0110821182128299
:103C4000138261E0CE01DF91CF911F910F910C940F
:103C5000B87B0F931F93CF93DF93009769F0FC011C
:103C60008491EF012196882321F00E948662FE0153
:103C7000F7CF8AE00E948662C0E0D3E0DC0F84E0E8
:103C8000C89F80011124F801ED53F14F20E030E08E
:103C9000A90160817181828193810E94F8C087FDB2
:103CA00003C08BE20E948662F801ED53F14F608100
:103CB00071818281938146E00E949D6580E20E942D
:103CC0008662CF5FDC13DBCF8AE00E948662CD2F55
:103CD000D93099F6DF91CF911F910F9108952F92CE
:103CE0003F924F925F926F927F928F929F92AF928C
:103CF000BF92CF92DF92EF92FF920F931F93CF93D9
:103D0000DF93CDB7DEB7C655D1090FB6F894DEBF45
:103D10000FBECDBF27969FAF8EAF2797362EDC0103
:103D20008D909D90AD90BC9013972401350177FA4A
:103D3000709477F870941496CD90DD90ED90FC908F
:103D40001797A7019601505829A73AA74BA75CA738
:103D5000A3019201C301B2010E946BB869AB7AABB7
:103D60008BAB9CAB29A53AA54BA55CA5CA01B901B3
:103D70000E946BB89B01AC0169A97AA98BA99CA987
:103D80000E94D1BE0E943EC12B966CAF7DAF8EAF1C
:103D90009FAF2B978091010B9091020BA091030B89
:103DA000B091040B89AB9AABABABBCAB9C01AD0142
:103DB000C501B4010E94D1BE2F966CAF7DAF8EAF0E
:103DC0009FAF2F972091050B3091060B4091070B69
:103DD0005091080B29AF3AAF4BAF5CAFC701B601AA
:103DE0000E94D1BE63966CAF7DAF8EAF9FAF6397DD
:103DF0008091F00A9091F10AA091F20AB091F30A31
:103E00008DAB9EABAFABB8AF2F962CAD3DAD4EADED
:103E10005FAD2F97BC01CD010E94D0BE6B017C012C
:103E20002091F40A3091F50A4091F60A5091F70A70
:103E300021962CAF3DAF4EAF5FAF219763962CAD6F
:103E40003DAD4EAD5FAD639721966CAD7DAD8EAD52
:103E50009FAD21970E94D0BE4B015C018091090B60
:103E600090910A0BA0910B0BB0910C0B67968CAF45
:103E70009DAFAEAFBFAF67979C01AD016091F80AEF
:103E80007091F90A8091FA0A9091FB0A0E94D0BEC3
:103E90006DA77EA78FA798ABA7019601C301B201BA
:103EA0000E946BB825966CAF7DAF8EAF9FAF259704
:103EB000A501940169A57AA58BA59CA50E946BB864
:103EC0009B01AC0125966CAD7DAD8EAD9FAD259768
:103ED0000E94D1BE25966CAF7DAF8EAF9FAF259768
:103EE000A5019401C301B2010E946BB84B015C01B2
:103EF000A701960169A57AA58BA59CA50E946BB820
:103F00009B01AC01C501B4010E94D0BE25962CAD29
:103F10003DAD4EAD5FAD25970E9444BF6B017C0166
:103F200020E030E0A9010E9406B887FF0AC02BED0F
:103F30003FE049EC50E4C701B6010E94D1BE6B01DD
:103F40007C01332051F02BED3FE049EC50E4C701F8
:103F5000B6010E94D0BE6B017C0120E030E0A901D7
:103F6000C701B6010E9406B8811122C02DA93EA941
:103F70004FA958AD69A97AA98BA99CA90E9406B836
:103F8000811116C021962CAD3DAD4EAD5FAD219790
:103F900069AD7AAD8BAD9CAD0E9406B8811108C0A9
:103FA0009BEDC92E9FE0D92E99ECE92E90E4F92ED5
:103FB000A70196012B966CAD7DAD8EAD9FAD2B9775
:103FC0000E946BB84B015C0120E030E0A9016DA5B7
:103FD0007EA58FA598A90E9406B88823D9F0A501CF
:103FE0009401C501B4010E946BB84B015C012DA581
:103FF0003EA54FA558A9CA01B9010E946BB89B0103
:10400000AC01C501B4010E94D1BE0E943EC14B016A
:104010005C010DC020E030E0A901C501B4010E949F
:10402000F8C087FF04C0B7FAB094B7F8B0942FE691
:1040300032E143E85AE3C501B4010E9406B887FDA6
:104040005BC2C501B4010E9446C00E941AC07AAF8B
:1040500069AFDB01AB2B21F4E1E0F0E0FAAFE9AFAF
:1040600020910D0B30910E0B40910F0B5091100BC6
:104070002DAB3EAB4FAB58AF49AD5AADBA0180E066
:1040800090E00E940AB84B015C019B01AC01C701A2
:10409000B6010E94ADBF69AB7AAB8BAB9CABA501FF
:1040A00094016DA57EA58FA598A90E94ADBF2B9602
:1040B0006CAF7DAF8EAF9FAF2B972DA93EA94FA9B7
:1040C00058AD6091FC0A7091FD0A8091FE0A9091B2
:1040D000FF0A0E94D0BEA50194010E94ADBF2596A3
:1040E0006CAF7DAF8EAF9FAF259729A93AA94BA999
:1040F0005CA9CA01B9010E946BB820E030E040E041
:104100005FE30E946BB89B01AC0160E070E080E867
:104110009FE30E94D0BE21966CAF7DAF8EAF9FAF64
:10412000219767968CAD9DADAEADBFAD6797898782
:104130009A87AB87BC872DA93EA94FA958AD2D877B
:104140003E874F87588B60911E0270911F02072E89
:10415000000C880B990B0E940CB820911A02309128
:104160001B0240911C0250911D020E946BB82AE074
:1041700037ED43E25CE30E946BB86DA37EA38FA38F
:1041800098A70E94226D9B01AC0128533F4F4F4FCF
:104190005F4F2DAB3EAB4FAB58AF22242394312C55
:1041A00039E13DA749AD5AAD4215530509F454C153
:1041B0000E942D850E94226DDC01CB012DA93EA914
:1041C0004FA958AD821B930BA40BB50BB7FD0EC0C6
:1041D0000E94226D9B01AC0128533F4F4F4F5F4F10
:1041E0002DAB3EAB4FAB58AF0E9478553DA531503B
:1041F0003DA7332309F441C029A53AA54BA55CA5E9
:1042000021966CAD7DAD8EAD9FAD21970E946BB8B0
:104210006B017C01A301920169A97AA98BA99CA9D0
:104220000E946BB8A70196010E94D1BE6B017C0170
:10423000A301920121966CAD7DAD8EAD9FAD21970E
:104240000E946BB84B015C0129A53AA54BA55CA562
:1042500069A97AA98BA99CA90E946BB89B01AC01A2
:10426000C501B4010E94D0BE2B013C01C601D7019B
:1042700089A79AA7ABA7BCA768C0B10180E090E06E
:104280000E940AB829A93AA94BA95CA90E946BB857
:104290006B017C010E94AABF69A77AA78BA79CA784
:1042A000C701B6010E9434C14B015C012796AEAD37
:1042B000BFAD2797CD90DD90ED90FC901397F7FA66
:1042C000F094F7F8F09414962D913D914D915C91F6
:1042D00017972DA73EA74FA758ABA701960169A531
:1042E0007AA58BA59CA50E946BB82B013C012DA53E
:1042F0003EA54FA558A9C501B4010E946BB89B010A
:10430000AC01C301B2010E94D1BE2B013C01A70147
:104310009601C501B4010E946BB86B017C012DA50B
:104320003EA54FA558A969A57AA58BA59CA50E9475
:104330006BB89B01AC01C701B6010E94D0BE69A752
:104340007AA78BA79CA7B9E1BDA7A30192012F96DD
:104350006CAD7DAD8EAD9FAD2F970E94D1BE6983B0
:104360007A838B839C8329A53AA54BA55CA563968C
:104370006CAD7DAD8EAD9FAD63970E94D1BE6D8358
:104380007E838F8398872B962CAD3DAD4EAD5FAD70
:104390002B9769857A858B859C850E94D1BE69871C
:1043A0007A878B879C8725962CAD3DAD4EAD5FAD52
:1043B00025976D857E858F8598890E94D1BE6D87F2
:1043C0007E878F87988B80911902882321F0CE01F8
:1043D00001960E94C197E090000B1D8E1E8E1F8ECD
:1043E00018A289819A81AB81BC81898B9A8BAB8B16
:1043F000BC8B8D819E81AF81B8858D8B9E8BAF8B61
:10440000B88F89859A85AB85BC85898F9A8FAB8F4C
:10441000BC8FAE01475E5F4FBE016B5E7F4FCE012A
:1044200041960E944F91FE017D966F018E010B5DBA
:104430001F4F9E01235F3F4FAE01475E5F4FBE019E
:104440006B5E7F4FCE0141960E94FB37882321F09F
:10445000FFEF2F1A3F0AA6CEE090000B19A21AA276
:104460001BA21CA28091F00A9091F10AA091F20A7D
:10447000B091F30A898B9A8BAB8BBC8B8091F40A39
:104480009091F50AA091F60AB091F70A8D8B9E8B58
:10449000AF8BB88F8091F80A9091F90AA091FA0A2F
:1044A000B091FB0A898F9A8FAB8FBC8FAE01475EAC
:1044B0005F4FBE016B5E7F4FCE0141960E944F91D0
:1044C0009E012F5D3F4F69018E010B5D1F4F2CEF49
:1044D0003AE0AE01475E5F4FBE016B5E7F4FCE019B
:1044E00041960E94FB3780E1E0EFFAE0A1E0BBE0FB
:1044F00001900D928A95E1F7CA5ADF4F0FB6F894F2
:10450000DEBF0FBECDBFDF91CF911F910F91FF9006
:10451000EF90DF90CF90BF90AF909F908F907F9063
:104520006F905F904F903F902F9008952F923F9201
:104530004F925F926F927F928F929F92AF92BF92B3
:10454000CF92DF92EF92FF920F931F93CF93DF935F
:10455000CDB7DEB760970FB6F894DEBF0FBECDBF04
:104560001C017B876A8749872C87DC01CD90DD9011
:10457000ED90FC90FB0180809180A280B380A5012A
:104580009401C701B6010E946598882309F490C17F
:104590008091090B90910A0BA0910B0BB0910C0B21
:1045A0008D879E87AF87B88B40901A0250901B0270
:1045B00060901C0270901D0280911502909116026D
:1045C000A0911702B091180280931A0290931B02D7
:1045D000A0931C02B0931D0219821A821B821C82B6
:1045E00020E030E042EA52E4C501B4010E94D0BEAE
:1045F0004B015C0120E030E040E851E4C701B60126
:104600000E94D1BEDE0111966D01ED84FE840F85FE
:104610001889A50194010E94A05E81E00E94AE5F0E
:104620008111C0C08091DF0A82FF11C02091EC0A85
:104630003091ED0A4091EE0A5091EF0A60E070E08F
:1046400080E090EC0E94D0BE4B015C0106C0812C42
:10465000912C80E2A82E81ECB82E20E030E040E8DA
:1046600050E4C501B4010E94EA62882329F060E0A9
:1046700070E080EC9FE74FC0C090090BD0900A0B10
:10468000E0900B0BF0900C0B80E090E0A0E8B0E421
:1046900089839A83AB83BC8320E030E040E251E41D
:1046A000C701B6010E94D1BE6D837E838F83988738
:1046B000BE016F5F7F4FCE0105960E94905F20E0A4
:1046C00030E040E050E4C501B4010E94EA6281118B
:1046D000CECF20E030E040E450E46091090B7091CF
:1046E0000A0B80910B0B90910C0B0E946BB84B0145
:1046F0005C01A7019601C701B6010E94D1BE9B01D2
:10470000AC01C501B4010E94D1BE2DEC3CEC4CE4DF
:104710005EE30E946BB82091EC0A3091ED0A409163
:10472000EE0A5091EF0A0E94D1BE6B018C0189857F
:104730008250823050F580E090E0A0E8B0E48983B8
:104740009A83AB83BC836091090B70910A0B8091B3
:104750000B0B90910C0BB985B33029F020E030E0C1
:1047600040E251E404C020E030E048EC51E40E9413
:10477000D1BE6D837E838F839887BE016F5F7F4F2D
:10478000CE0105960E94905F08C0E985E13029F4CA
:1047900080E00E94AE5F811105C0FC85F33008F413
:1047A0005DC008C0AC85A33008F487C0C12CD12CF3
:1047B00000EC1FE7E2E5FFE084917F012FEFE21AB2
:1047C000F20A882321F00E948662F701F5CF20913A
:1047D000E00A3091E10A4091E20A5091E30AD101E6
:1047E0006D917D918D919C910E94D1BE43E00E947C
:1047F0009D65EDE4FFE084917F01BFEFEB1AFB0ABA
:10480000882321F00E948662F701F5CF2091E40A07
:104810003091E50A4091E60A5091E70AEA85FB8566
:1048200060817181828193810E94D1BE43E00E94A8
:104830009D65E8E4FFE084917F012FEFE21AF20A20
:10484000882321F00E948662F701F5CF43E0B6018C
:10485000C8010E949D658AE00E94866240921A0209
:1048600050921B0260921C0270921D029601A801D8
:10487000B601C8010E9480C1882361F1E9EBF2E230
:1048800084917F013FEFE31AF30A882321F00E940D
:104890008662F701F5CFE8E3FFE084917F019FEFA7
:1048A000E91AF90A8823B1F00E948662F701F5CF70
:1048B000C12CD12C00EC1FE70DC040921A0250927F
:1048C0001B0260921C0270921D02C12CD12C00ECC4
:1048D0001FE7D4CFB601C80160960FB6F894DEBFCB
:1048E0000FBECDBFDF91CF911F910F91FF90EF9041
:1048F000DF90CF90BF90AF909F908F907F906F9000
:104900005F904F903F902F900895CF93DF93E3EB0C
:10491000F2E28491EF012196882321F00E948662C1
:10492000FE01F7CF6091DD0A7091DE0A85E29FE01B
:104930000E94CE1B82E20E9486628AE0DF91CF91C4
:104940000C9486622F923F924F925F926F927F9269
:104950008F929F92AF92BF92CF92DF92EF92FF928F
:104960000F931F93CF93DF93CDB7DEB7A2970FB608
:10497000F894DEBF0FBECDBF4C01762E672E60E0EF
:104980006F8F00E0802F819510E0AA24AA94B12CAB
:1049900022E0200F28A34DEF480F49A36EEF262EEB
:1049A000280E33243394300E81508AA388A1810FBE
:1049B00090E0A0E0B0E0DC019927882729A1211B25
:1049C000AC01BD01422B4E8B5F8B688F798F822D9E
:1049D000811B90E0A0E0B0E0BA2FA92F982F882784
:1049E000232D210FAC01BD01422B4A8F5B8F6C8FB1
:1049F0007D8FC02EC10ED12CE12CF12CFE2CED2C84
:104A0000DC2CCC248AA1811BE82A472C562C5A2D59
:104A10006F8D561B5E8F742C652CF20121913191A4
:104A20002F0137FD2CC0F4018281938128173907AB
:104A300030F525E1F401DE01119601900D922A95E1
:104A4000E1F72E8D253558F0FE8DFA3A28F42A8D9F
:104A50003B8D4C8D5D8D07C09601A70104C02E894A
:104A60003F89488D598D892B29F060E070E0C401A1
:104A70000E94786DCE0101960E94016FCCCFC401D7
:104A80000E94286E64E170E080E090E00E94CF7D9B
:104A900041E0A41AB1081D5F5FEFA516B50609F045
:104AA00085CFA2960FB6F894DEBF0FBECDBFDF91C3
:104AB000CF911F910F91FF90EF90DF90CF90BF901B
:104AC000AF909F908F907F906F905F904F903F90AE
:104AD0002F900895CF93DF938F389240B1F0E9EB98
:104AE000F2E28491EF012196882321F00E948662F0
:104AF000FE01F7CFEAE1F0E18491EF0121968823EE
:104B000031F00E948662FE01F7CF80E001C081E0B3
:104B1000DF91CF9108952F923F924F925F926F92C3
:104B20007F928F929F92AF92BF92CF92DF92EF923D
:104B3000FF920F931F93CF93DF93CDB7DEB7C55886
:104B4000D1090FB6F894DEBF0FBECDBF8DB69EB6AD
:104B5000E7961FAE1EAEE79784E690E0E9969FAF1A
:104B60008EAFE99701E09E012B583F4F44E050E0A3
:104B7000BE0163597F4FCE0189589F4F0E944D95CA
:104B80009E012B583F4F42E050E0BE0167587F4FD7
:104B9000CE0189589F4F0E944D9543E050E0BE01E1
:104BA00063597F4F89EE92E00E94EFC1892B09F48F
:104BB0003CC0E1968FADE197882339F08FE3AE9644
:104BC0008FAFAE97AF961FAEAF97E3EBF2E2849153
:104BD0008F010F5F1F4F811103C0EDEDF0E104C0A5
:104BE0000E948662F801F3CF84918F010F5F1F4FFF
:104BF000882321F00E948662F801F6CFBE01635936
:104C00007F4F84ED90E10E94CE1BE6ECF0E18491B1
:104C10008F010F5F1F4F882321F00E948662F801E9
:104C2000F6CF81E08093110B38C52DB63EB6AD9618
:104C30001CAE1DAE1EAE1FAEAD97E7961FAE1EAEEC
:104C4000E79701E09E012B583F4F41E050E0BE0145
:104C500060587F4FCE0189589F4F0E944D9580E14B
:104C6000E5E6F2E0DE01D79601900D928A95E1F734
:104C700080E1E5E7F2E0DE01979601900D928A95DA
:104C8000E1F780E1E5E8F2E0DE01579601900D9250
:104C90008A95E1F7C058DF4F4881C058D04050E0B6
:104CA0004D5F5F4F440F551F440F551F2DB73EB743
:104CB000241B350B0FB6F8943EBF0FBE2DBF8DB72A
:104CC0009EB701963C0100E09E012B583F4FBC016E
:104CD000CE0189589F4F0E944D959E012B583F4F02
:104CE00044E050E065EF73E0CE0189589F4F0E9489
:104CF0004D95C058DF4FA880C058D040B12C93E0EC
:104D0000A90EB11CAA0CBB1CAA0CBB1CEDB7FEB7AC
:104D1000EA19FB090FB6F894FEBF0FBEEDBF2DB721
:104D20003EB72F5F3F4F69018DB79EB78A199B0928
:104D30000FB6F8949EBF0FBE8DBFEDB7FEB731968C
:104D40007F019E012B583F4FA501B601CE01895826
:104D50009F4F0E944D959E012B583F4FA501B701D3
:104D6000CE0189589F4F0E944D958091170488234A
:104D700009F4A5C000E09E012B583F4F44E050E0ED
:104D800067ED73E0CE0189589F4F0E944D959E01BB
:104D90002B583F4F44E050E06FEC73E0CE01895850
:104DA0009F4F0E944D959E012B583F4F44E050E08D
:104DB00063ED73E0CE0189589F4F0E944D959E018F
:104DC0002B583F4F44E050E061EF73E0CE0189582B
:104DD0009F4F0E944D959E012B583F4F44E050E05D
:104DE0006DEE73E0CE0189589F4F0E944D959E0154
:104DF0002B583F4F40E150E06DED73E0CE018958F4
:104E00009F4F0E944D959E012B583F4F44E050E02C
:104E1000BE0167597F4FCE0189589F4F0E944D9523
:104E20009E012B583F4F4CE050E069EF73E0CE01FC
:104E300089589F4F0E944D959E012B583F4F44E04B
:104E400050E0BE0167597F4FCE0189589F4F0E94A5
:104E50004D959E012B583F4F44E050E0BE016759ED
:104E60007F4FCE0189589F4F0E944D9501E09E01D2
:104E70002B583F4F41E050E0BE0161587F4FCE01BB
:104E800089589F4F0E944D959E012B583F4F41E0FE
:104E900050E0BE0162587F4FCE0189589F4F0E945B
:104EA0004D95C158DF4F8881CF57D040EF96CFAC9A
:104EB000EF978C9D60011124E12CF12C8CC0C0581F
:104EC000DF4F8881C058D04090E002962FEB33E04E
:104ED000CE57DF4F39832883C258D040B7017E01B7
:104EE00037E1E30EF11C2CE8A22E23E0B22ED6010E
:104EF0008E01095D1F4F3FEAC32E33E0D32ECC57FE
:104F0000DF4F79826882C458D040AE01495C5F4F60
:104F100020E030E0821793073CF0CC57DF4FE88168
:104F2000F981C458D04001C0FA01408051806280AC
:104F30007380F60141925192619271926F018217D2
:104F4000930734F04D905D906D907C90139705C061
:104F5000F8014080518062807380F5014192519246
:104F6000619271925F018217930714F0FB0101C0F7
:104F7000F7014080518062807380CE57DF4FE88117
:104F8000F981C258D0404192519261927192CE57AC
:104F9000DF4FF983E883C258D0402F5F3F4F6C5FEB
:104FA0007F4FF4E0EF0EF11C14960C5F1F4FCC57AF
:104FB000DF4FE881F981C458D0403496CC57DF4F99
:104FC000F983E883C458D0404C5F5F4F24303105EB
:104FD00009F0A0CFCFCE00E09E012B583F4F44E018
:104FE00050E0EC14FD0461F0BE0167597F4FCE0123
:104FF00089589F4F0E944D95FFEFEF1AFF0AEBCFA4
:105000006CEE7AE0CE0189589F4F0E944D959E012B
:105010002B583F4F44E250E063EC7EE0CE018958CC
:105020009F4F0E944D9501E09E012B583F4F41E05C
:1050300050E0BE0163587F4FCE0189589F4F0E94B8
:105040004D959E012B583F4F41E050E0BE01645802
:105050007F4FCE0189589F4F0E944D9500E09E01E1
:105060002B583F4F44E050E0BE01695B7F4FCE01BB
:1050700089589F4F0E944D959E012B583F4F44E009
:1050800050E0BE016F5F7F4FCE0189589F4F0E9455
:105090004D95EE968FADEE97ED96CFACED978C9D3E
:1050A00060011124E12CF12C00E09E012B583F4FB0
:1050B000CE14DF0471F044E050E0BE0167597F4F29
:1050C000CE0189589F4F0E944D952FEFE21AF20AA8
:1050D000EBCF41E050E0BE016F577F4FCE018958C2
:1050E0009F4F0E944D959E012B583F4F41E050E04D
:1050F000BE0165587F4FCE0189589F4F0E944D9544
:105100009E012B583F4F44E050E0BE016B597F4F4A
:10511000CE0189589F4F0E944D959E012B583F4FBD
:1051200044E050E0BE016F597F4FCE0189589F4F38
:105130000E944D959E012B583F4F44E050E0BE0128
:10514000635A7F4FCE0189589F4F0E944D9510E0C2
:1051500000E09E012B583F4F44E050E0BE016759EC
:105160007F4FCE0189589F4F0E944D95111110C05D
:10517000AD96CCACDDACEEACFFACAD9720E030E84A
:105180004BE355E4C701B6010E9406B8811103C084
:1051900084E0F82E33C080911704811108C0C092BA
:1051A000960CD092970CE092980CF092990C00E03B
:1051B0009E012B583F4F44E050E062E97CE0CE0175
:1051C00089589F4F0E944D959E012B583F4F44E0B8
:1051D00050E06AE97CE0CE0189589F4F0E944D95CE
:1051E0009E012B583F4F44E050E0BE0167597F4F6E
:1051F000CE0189589F4F0E944D9512C0FA94FF200E
:1052000079F000E09E012B583F4F44E050E0BE0192
:1052100067597F4FCE0189589F4F0E944D95EECF21
:105220001F5F153009F094CF00E09E012B583F4FCF
:1052300042E050E0BE016D587F4FCE0189589F4F2C
:105240000E944D959E012B583F4F44E050E0BE0117
:1052500067597F4FCE0189589F4F0E944D95AD965B
:10526000CCACDDACEEACFFACAD9720E030E84BE36E
:1052700055E4C701B6010E9406B8882329F1809140
:105280001704811108C0C0921304D0921404E09254
:105290001504F092160400E09E012B583F4F44E0A5
:1052A00050E06FE074E0CE0189589F4F0E944D9509
:1052B0009E012B583F4F44E050E06BE074E0CE017C
:1052C00089589F4F0E944D9500E09E012B583F4FFB
:1052D00042E050E0BE016F587F4FCE0189589F4F8A
:1052E0000E944D959E012B583F4F41E050E0BE017A
:1052F0006F577F4FCE0189589F4F0E944D9519E0FF
:10530000115000E09E012B583F4F112359F044E00B
:1053100050E0BE0167597F4FCE0189589F4F0E94D0
:105320004D95EECF41E050E06EEA73E0CE01895832
:105330009F4F0E944D9510E000E09E012B583F4F7B
:1053400044E050E0BE0167597F4FCE0189589F4F1E
:105350000E944D9580911704811110C011110EC04B
:10536000AD964CAD5DAD6EAD7FADAD974093AA03EC
:105370005093AB036093AC037093AD031F5F153084
:10538000D9F681110AC064E670E080E090E00E94E6
:10539000EA6C0E94D28D0E945F1300E09E012B58A0
:1053A0003F4F46E150E0BE016F5F7F4FCE0189580D
:1053B0009F4F0E944D958091170481112CC06981E7
:1053C0007A816115710511F460E273E085E49EE075
:1053D0000E94BC8E6B817C816115710511F460E2C5
:1053E00073E08CEC9DE00E94BC8E6D817E81611526
:1053F000710511F460E273E083E59DE00E94BC8ECC
:105400006B857C856115710511F460E273E08AEDAE
:105410009CE00E94BC8E1CE0115000E09E012B58C5
:105420003F4F112359F044E050E0BE01675A7F4FCF
:10543000CE0189589F4F0E944D95EECF46E050E037
:10544000BE016D5A7F4FCE0189589F4F0E944D95E6
:105450008091170481110EC064966FAD649785E446
:105460009EE00E943A6F66966FAD66978CEC9DE069
:105470000E943A6F00E09E012B583F4F44E050E0FD
:10548000BE0167597F4FCE0189589F4F0E944D95AD
:105490009E012B583F4F4CE050E0BE01695B7F4FAF
:1054A000CE0189589F4F0E944D951CE1115011F477
:1054B00014E01DC000E09E012B583F4F44E050E037
:1054C000BE0167597F4FCE0189589F4F0E944D956D
:1054D000EDCF00E09E012B583F4F44E050E0BE016D
:1054E00067597F4FCE0189589F4F0E944D951150AB
:1054F00081F71BE0115079F000E09E012B583F4FDF
:1055000044E050E0BE0167597F4FCE0189589F4F5C
:105510000E944D95EFCFE9968EAD9FADE9978456E9
:105520009109D8DA8093110B882301F1E3EBF2E2C1
:1055300084918F010F5F1F4F882321F00E948662A4
:10554000F801F6CFE9966EAD7FADE9976456710923
:105550008EEB90E10E94B51B6FE872E086EB90E164
:105560000E94B51B8AE00E94866288C0E7962EAD35
:105570003FADE797EB968EAD9FADEB9728173907B8
:1055800009F441C081E08093110BE9EBF2E28491D0
:105590008F010F5F1F4F811103C0E6E9F0E104C0E6
:1055A0000E948662F801F3CF84918F010F5F1F4F35
:1055B000882321F00E948662F801F6CFEB968EAD2B
:1055C0009FADEB970E94458EE1E9F0E184918F0158
:1055D0000F5F1F4F882321F00E948662F801F6CFEB
:1055E000E7968EAD9FADE7970E94458EE1E8F0E12A
:1055F00084918F010F5F1F4F882309F43FC00E94E1
:105600008662F801F5CF80911704811141C0E3EB68
:10561000F2E284918F010F5F1F4F811103C009EEE9
:1056200012E004C00E948662F801F3CFF801819174
:105630008F01882319F00E948662F8CFE9966EAD3B
:105640007FADE9976456710984E690E10E94B51B2D
:10565000E7964EAD5FADE79760E070E087E590E1DB
:105660000E947B1BE4E5F0E184918F010F5F1F4FE7
:10567000882321F00E948662F801F6CF80911704FA
:10568000811106C08091110B811102C00E940C96FD
:105690000FB6F8943EBE0FBE2DBE80911704811147
:1056A00002C00E94FD7E9091110B81E089270FB608
:1056B000F8949EBE0FBE8DBECB57DF4F0FB6F89449
:1056C000DEBF0FBECDBFDF91CF911F910F91FF9035
:1056D000EF90DF90CF90BF90AF909F908F907F9092
:1056E0006F905F904F903F902F90089581E080934E
:1056F000170411DA1092170481110DCA0E949E83BB
:1057000081E008958F929F92AF92BF92CF92DF92E5
:10571000EF92FF920F931F93CF93DF93CDB7DEB736
:10572000C65AD1090FB6F894DEBF0FBECDBFE996B9
:105730001CAE1DAE1EAE1FAEE99780911603909170
:105740001703A0911803B0911903ED968CAF9DAF8C
:10575000AEAFBFAFED97C956DF4F19821882C75958
:10576000D04084E690E0C756DF4F99838883C959BB
:10577000D0401092110B9E0129563F4F44E050E05B
:10578000BE0167587F4FCE0187569F4F0E94999563
:10579000C756DF4F88819981C959D0400296C756B4
:1057A000DF4F99838883C959D040C956DF4F19828A
:1057B0001882C759D04081E0C156DF4F8883CF5946
:1057C000D0409E0129563F4F41E050E0BE01615656
:1057D0007F4FCE0187569F4F0E9499959E01295673
:1057E0003F4F40E150E06FEA73E0CE0187569F4F94
:1057F0000E9499959E0129563F4F44E050E065EF85
:1058000073E0CE0187569F4F0E9499959E012956BD
:105810003F4F40E150E06CE873E0CE0187569F4F68
:105820000E9499959E0129563F4F40E150E06FEB51
:1058300073E0CE0187569F4F0E9499959E0129568D
:105840003F4F44E050E067ED73E0CE0187569F4F35
:105850000E9499959E0129563F4F44E050E06FEC1D
:1058600073E0CE0187569F4F0E9499959E0129565D
:105870003F4F44E050E063ED73E0CE0187569F4F09
:105880000E9499959E0129563F4F44E050E061EFF8
:1058900073E0CE0187569F4F0E9499959E0129562D
:1058A0003F4F44E050E06DEE73E0CE0187569F4FCE
:1058B0000E9499959E0129563F4F40E150E06DEDC1
:1058C00073E0CE0187569F4F0E9499958AE097ED2D
:1058D000A3EABCE3E9968CAF9DAFAEAFBFAFE9974B
:1058E0009E0129563F4F44E050E0BE016B587F4F68
:1058F000CE0187569F4F0E9499959E0129563F4F92
:105900004CE050E069EF73E0CE0187569F4F0E9454
:10591000999580E090E0A0E2B1E4C358DF4F88831E
:105920009983AA83BB83CD57D0409E0129563F4F10
:1059300044E050E0BE0163587F4FCE0187569F4F31
:105940000E949995E9961CAE1DAE1EAE1FAEE9975A
:1059500083E0C056DF4F8883C05AD040CF55DF4F19
:105960008883C15AD0409E0129563F4F44E050E001
:10597000BE016B587F4FCE0187569F4F0E9499956D
:105980009E0129563F4F41E050E0BE0160567F4FD7
:10599000CE0187569F4F0E9499959E0129563F4FF1
:1059A00041E050E0BE016F557F4FCE0187569F4FBB
:1059B0000E9499951AE011509E0129563F4F44E0EC
:1059C00050E0112349F0BE016B587F4FCE0187563E
:1059D0009F4F0E949995EFCF6CEE7AE0CE018756EB
:1059E0009F4F0E9499959E0129563F4F44E250E0F7
:1059F00063EC7EE0CE0187569F4F0E94999583E02D
:105A0000CE55DF4F8883C25AD040CD55DF4F8883B3
:105A1000C35AD040CF57DF4F188219821A821B8297
:105A2000C158D040CB57DF4F188219821A821B828F
:105A3000C558D040E9961CAE1DAE1EAE1FAEE9970C
:105A40009E0129563F4F41E050E0BE016E557F4F09
:105A5000CE0187569F4F0E9499959E0129563F4F30
:105A600041E050E0BE016D557F4FCE0187569F4FFC
:105A70000E9499959E0129563F4F44E050E0BE0197
:105A80006B577F4FCE0187569F4F0E9499959E017D
:105A900029563F4F44E050E0BE016F577F4FCE0183
:105AA00087569F4F0E9499950AE010E00150110916
:105AB00071F09E0129563F4F44E050E0BE016B5803
:105AC0007F4FCE0187569F4F0E949995EFCFCC55BF
:105AD000DF4F1882C45AD0408FEFCB55DF4F8883F9
