:100000000C94F1110C94EE850C94C3850C94988596
:100010000C946D850C9442850C9417850C94EC849B
:100020000C94C1840C9414950C9462950C943B959B
:100030000C9422120C9422120C9422120C94221270
:100040000C9422120C9420130C9422120C94221261
:100050000C9422120C9422120C94852C0C9477840C
:100060000C9422120C94335D0C9422120C942212E4
:100070000C9422120C9422120C9422120C94221230
:100080000C944D1B0C9422120C9422120C942212EC
:100090000C9422120C9422120C9422120C94221210
:1000A0000C9422120C9422120C941F1B0C942212FA
:1000B0000C9422120C9422120C9422120C94F11A19
:1000C0000C9422120C9422120C9422120C942212E0
:1000D0000C9422120C9422120C9422120C942212D0
:1000E0000C942212855D985DAB5DB05DC55DD55DFC
:1000F000EE5D005E105F195E105F2C5E105F305E7B
:10010000355E805E935EA45EB15ED05EF15E3E7B46
:10011000497B507B567B5C7B627B687B6E7BF27B92
:10012000747BF27BF27B8B7B17821A8209820D82B1
:10013000138251821E82228228822C823082368251
:100140003A823E825182448248824C820C831183DF
:10015000168320832A83A38334833C8344834E8382
:100160005883628371837B83A38385838F83998381
:10017000084AD73B3BCE016E84BCBFFDC12F3D6C0E
:1001800074319ABD56833DDA3D00C77F11BED9E474
:10019000BB4C3E916BAAAABE000000803F05A84C54
:1001A000CDB2D44EB93836A9020C50B99186880820
:1001B0003CA6AAAA2ABE000000803F004E414E493C
:1001C0004E495459494E46CDCCCC3D0AD7233C1715
:1001D000B7D13877CC2B329595E6241FB14F0A0062
:1001E0000020410000C84200401C4620BCBE4CCA52
:1001F0001B0E5AAEC59D7400407A10F35A00A072CF
:100200004E18090010A5D4E80000E8764817000051
:10021000E40B54020000CA9A3B000000E1F505001F
:100220000080969800000040420F000000A0860168
:10023000000000102700000000E803000000006438
:1002400000000000000A00000000000100000000A3
:10025000002C76D888DC674F0823DFC1DFAE59E178
:10026000B1B796E5E3E453C63AE651997696E8E6E7
:10027000C28426EB898C9B62ED407C6FFCEFBC9CBA
:100280009F40F2BAA56FA5F490055A2AF75C936BCC
:100290006CF9676DC11BFCE0E40D47FEF520E6B587
:1002A00000D0ED902E0300943577050080841E0861
:1002B0000000204E0A000000C80C333333330F987F
:1002C0006E12831141EF8D2114893BE65516CFFE46
:1002D000E6DB18D1844B381BF77C1D901DA4BBE4D2
:1002E00024203284725E228100C9F124ECA1E53D14
:1002F00027434F4D4D554E49434154494F4E0044BD
:10030000525952554E004552524F525300494E4693
:100310004F004543484F0047322F47332062616406
:1003200020706172616D65746572730A00486F6D4B
:10033000652058592066697273740A00205A3A2061
:100340000020593A200042656420583A200050723B
:10035000696E742074696D653A200012030D0306FE
:1003600003FF02F1026F66660044454255473A00BA
:100370004B494C4C45442E20004D31313320530025
:100380006F6B0050533A310A0050533A300A005410
:100390004845524D414C5F50524F54454354494F8C
:1003A0004E004155544F5245504F52545F53445F95
:1003B00053544154555300454D455247454E4359BA
:1003C0005F50415253455200434153455F4C4947AA
:1003D00048545F4252494748544E45535300544F86
:1003E00047474C455F4C494748545300534F465488
:1003F000574152455F504F574552004255494C4472
:100400005F50455243454E54004C4556454C494E6D
:10041000475F44415441005A5F50524F42450041AA
:1004200055544F4C4556454C005052494E545F4A26
:100430004F420050524F4752455353004155544F7D
:100440005245504F52545F54454D5000564F4C55F5
:100450004D455452494300454550524F4D00534578
:100460005249414C5F584F4E5F584F4646004649EF
:10047000524D574152455F4E414D453A4D61726C68
:10048000696E20312E312E392028476974687562D3
:100490002920534F555243455F434F44455F5552C2
:1004A0004C3A68747470733A2F2F67697468756278
:1004B0002E636F6D2F4D61726C696E4669726D7738
:1004C0006172652F4D61726C696E2050524F544FAE
:1004D000434F4C5F56455253494F4E3A312E3020D0
:1004E0004D414348494E455F545950453A52616D1C
:1004F00070735F312E362045585452554445525F33
:10050000434F554E543A3120555549443A64656439
:1005100033303464392D343866612D346130622DC6
:10052000623533392D3432386664326131376332A3
:10053000330A002F2F200020540020520041636313
:10054000656C65726174696F6E3A2050000000003E
:1005500000000050C100000000546F6F20666172FF
:100560002066726F6D207265666572656E636520C8
:10057000706F696E740A00FFFFFF20466C6F773A58
:100580002000000136372603FFFFFF353C3D380EC3
:10059000FFFFFF312E303E12FFFFFFFF28FF0C0848
:1005A00009FFFFFF1A1C18FFFF2A08440AFF432413
:1005B000221E2C206F7574206F662072616E676535
:1005C0000A00536572766F20003A2000205365724E
:1005D000766F200043290A0061626C656420286DF3
:1005E000696E2074656D702000436F6C64206578BF
:1005F00074727564657320617265200020643A002E
:1006000020693A0020703A004E6F206361736520C4
:100610006C696768740A00426564204C6576656C95
:10062000696E6720004661696C656420746F20659F
:100630006E61626C6520426564204C6576656C690C
:100640006E670A00426564204C6576656C20436FD6
:100650007272656374696F6E204D61747269783A65
:1006600000454550524F4D204F4B0A003F5A206FD6
:100670007574206F662072616E676520282D323098
:1006800020746F203230290A003A200050726F62C5
:1006900065205A204F666673657400617869733A05
:1006A00070776D5F7363616C65207C7374617475C2
:1006B000735F726573706F6E73657C0A004163745B
:1006C0006976652045787472756465723A200049D0
:1006D0006E76616C69642065787472756465720AFF
:1006E000006F6B00205A3A0020593A0020583A0017
:1006F000656E6473746F7073206869743A200024A7
:10070000F4D43050C38E20C2A24017828B701112D5
:100710007A910D816CD90AA861E108C75866076112
:100720005143061E4B5D05C145A7041A411104093A
:100730003D9803713931034036DB0265339102D4B1
:10074000305402802E1D02632CEE01752AC501B0C3
:1007500028A001102781018F2564012B244B01E083
:10076000223401AC211F018D200D01801FFC00846B
:100770001EED00971DDF00B81CD200E61BC600204E
:100780001BBC00641AB200B219A8000A19A0006AC2
:10079000189900D117910040178B00B516840031CD
:1007A000167E00B31579003A157300C7146F005810
:1007B000146A00EE1366008813630025135E00C7F9
:1007C000125B006C12570015125400C111510070D9
:1007D000114F0021114B00D61049008D10470046E3
:1007E00010440002104200C00F4000800F3E004243
:1007F0000F3C00060F3B00CB0E3800930E37005C19
:100800000E3500270E3400F30D3200C10D3100907B
:100810000D3000600D2E00320D2D00050D2C00D97D
:100820000C2B00AE0C2900850C29005C0C27003530
:100830000C27000E0C2600E80B2400C40B2400A09B
:100840000B23007D0B23005A0B2100390B210018CC
:100850000B2000F80A1F00D90A1E00BB0A1E009DCB
:100860000A1D00800A1D00630A1C00470A1B002C99
:100870000A1B00110A1A00F7091A00DD091900C441
:10088000091900AB091900920917007B09180063C8
:100890000917004C09160036091600200916000A2F
:1008A000091500F5081500E0081400CC081400B87C
:1008B000081400A4081400900813007D0812006BAF
:1008C00008130058081200460812003408110023CB
:1008D0000811001208110001081100F0071000E0D3
:1008E000071000D0071000C0071000B0070F00A1CC
:1008F00007100091070E0083070F0074070F0065B3
:10090000070E0057070E0049070E003B070D002E8B
:10091000070E0020070D0013070D0006070D00F954
:10092000060C00ED060D00E0060C00D4060C00C815
:10093000060C00BC060C00B0060C00A4060B0099C7
:10094000060C008D060B0082060B0077060B006C70
:10095000060B0061060A0057060B004C060A00420F
:10096000060A0038060A002E060A0024060A001AA3
:10097000060A001006090007060A00FD050900F432
:10098000050900EB050900E2050900D9050900D0B9
:10099000050900C7050900BE050900B5050800AD39
:1009A000050800A50509009C050800940508008CB1
:1009B000050800840508007C050800740508006C23
:1009C000050700650508005D050700560508004E8F
:1009D00005070047050700400508003805070031F6
:1009E0000507002A050700230507001C0506001659
:1009F0000507000F0507000805060002050700FBB4
:100A0000040600F5040700EE040600E8040600E210
:100A1000040700DB040600D5040600CF040600C965
:100A2000040600C3040600BD040600B7040600B1B6
:100A3000040500AC040600A6040600A00405009B03
:100A400004060095040500900406008A040500854C
:100A5000040500800406007A040500750405007092
:100A60000405006B04050066040500610405005CD4
:100A700004050057040500520405004D0405004814
:100A8000040500430405003E0404003A0405003553
:100A9000040500300404002C04050027040400238E
:100AA0000405001E0404001A0404001604050011C5
:100AB0000404000D040400090405000404040000FB
:100AC000040400FC030400F8030400F4030400F031
:100AD000030400EC030400E8030400E4030400E062
:100AE000030400DC030400D8030400D4030400D092
:100AF000030400CC030400C8030300C5030300245F
:100B0000F404D9201BC40C5C0E9804C4095F026570
:100B1000077101F405F900FB04B30048048700C124
:100B20000369005803550003034500BE023A0084E0
:100B300002310053022A002902250004022000E4A9
:100B4000011C00C8011900AF0117009801140084AE
:100B5000011300710110006101100051010E0043EA
:100B6000010D0036010B002B010B0020010B0015BD
:100B70000109000C01090003010800FB000800F353
:100B8000000800EB000700E4000600DE000600D8C5
:100B9000000600D2000600CC000500C7000500C218
:100BA000000500BD000400B9000400B5000400B158
:100BB000000400AD000400A9000400A5000300A289
:100BC0000003009F0004009B0003009800030095B1
:100BD00000020093000300900003008D0002008BD0
:100BE00000030088000200860002008400030081E8
:100BF0000002007F0002007D0002007B00020079FD
:100C0000000200770001007600020074000200720A
:100C1000000100710002006F0002006D0001006C15
:100C20000002006A0001006900020067000100661E
:100C30000001006500010064000200620001006123
:100C4000000100600001005F0002005D0001005C27
:100C50000001005B0001005A00010059000100582A
:100C6000000100570001005600010055000100542A
:100C70000001005300000053000100520001005128
:100C8000000100500001004F0001004E0000004E26
:100C90000001004D0001004C0001004B0000004B22
:100CA0000001004A0001004900010048000000481E
:100CB0000001004700010046000000460001004519
:100CC0000000004500010044000100430000004313
:100CD000000100420000004200010041000000410C
:100CE000000100400001003F0000003F0001003E05
:100CF0000000003E0001003D0000003D0001003CFE
:100D00000000003C0000003C0001003B0000003BF4
:100D10000001003A0000003A0001003900000039EB
:100D200000010038000000380000003800010037E2
:100D300000000037000100360000003600000036D9
:100D400000010035000000350000003500010034CE
:100D500000000034000000340001003300000033C4
:100D600000000033000100320000003200000032B9
:100D700000010031000000310000003100010030AE
:100D800000000030000000300001002F0000002FA4
:100D90000000002F0000002F0001002E0000002E98
:100DA0000000002E0001002D0000002D0000002D8D
:100DB0000000002D0001002C0000002C0000002C81
:100DC0000000002C0001002B0000002B0000002B75
:100DD0000000002B0001002A0000002A0000002A69
:100DE0000000002A0001002900000029000000295D
:100DF0000000002900000029000100280000002850
:100E00000000002800000028000000280001002742
:100E10000000002700000027000000270000002736
:100E20000001002600000026000000260000002629
:100E3000000000260001002500000025000000251C
:100E4000000000250000002500000025000100240E
:100E50000000002400000024000000240000002402
:100E600000010023000000230000002300000023F5
:100E700000000023000000230000002300010022E6
:100E800000000022000000220000002200000022DA
:100E900000000022000100210000002100000021CC
:100EA00000000021000000210000002100000021BE
:100EB00000010020000000200000002000000020B1
:100EC00000000020000000200000002000000020A2
:100ED0000001001F0000001F0000001F0000001F95
:100EE0000000001F0000001F0000001F0001001E86
:100EF0000000001E0000001E0000001E0000000494
:100F00003700001E290000511B000058100000107F
:100F1000090000CC040000780200004101000045F7
:100F20004550524F4D206461746173697A65206544
:100F300072726F722E0A00290A002062797465733A
:100F40003B20637263200053657474696E6773207D
:100F500053746F726564202800290A002062797436
:100F600065733B2063726320002073746F72656445
:100F70002073657474696E67732072657472696535
:100F8000766564202800202863616C63756C617449
:100F9000656429210A0020213D2000454550524F1B
:100FA0004D20435243206D69736D61746368202D39
:100FB000202873746F7265642920002053697A6554
:100FC0003A2000496E6465783A2000204D61726CC9
:100FD000696E3D563535290A0028454550524F4D1A
:100FE0003D00454550524F4D2076657273696F6ED6
:100FF000206D69736D61746368200045340045336A
:10100000004532004531004530005A320059320067
:101010005832005A005900580070012C01900127E5
:1010200001B0012201C0011D01F0011801100213DD
:101030000130020E016002090190020401C002FFAA
:10104000000003FA004003F5008003F000D003EB3A
:10105000002004E6007004E100E004DC004005D755
:1010600000C005D2004006CD00D006C8008007C3EE
:10107000003008BE00F008B900C009B400B00AAFE3
:1010800000B00BAA00D00CA500000EA000500F9BD2
:1010900000C01096005012910000148C00C01587FB
:1010A00000B0178200B0197D00D01B7800001E73BD
:1010B0000040206E0090226900F024640040275F09
:1010C0000090295A00E02B5500102E500020304B84
:1010D0000010324600E033410090353C00103737B5
:1010E0000070383200A0392D00B03A2800A03B2310
:1010F00000603C1E00103D1900903D1400103E0F92
:1011000000703E0A00C03E0500003F0000403FFB6B
:10111000FF803FF6FFC03FF1FF4531205448455264
:101120004D414C2052554E415741590042454420B3
:10113000544845524D414C2052554E41574159005B
:10114000546865726D616C2052756E6177617900CB
:101150004531204572723A204D415854454D50005A
:101160004572723A204D415854454D5020424544F5
:10117000004D415854454D5020747269676765723F
:101180006564004531204572723A204D494E544500
:101190004D50004572723A204D494E54454D5020F5
:1011A000424544004D494E54454D50207472696784
:1011B000676572656400202F002042403A0020409D
:1011C0003A0017101510131010100D100A10071008
:1011D00004100110FE0FFB0F747275650066616CE0
:1011E0007365002074656D70657261747572652039
:1011F0007072657761726E20747269676765726577
:10120000643A2000207072657761726E20666C61AE
:101210006720636C65617265640A0020686F6D69A0
:101220006E672073656E73697469766974793A20A4
:1012300000447269766572207265676973746572BD
:10124000733A006F7409006F747077090073326726
:101250006109007332676209006F6C6109006F6C8D
:10126000620900737473740900667361637469764C
:1012700065090073675F726573756C740900737438
:10128000616C6C6775617264090044525653544135
:10129000545553005374616C6C67756172642074AB
:1012A000687273002D7374617274090068797374C5
:1012B0006572657369730A2D656E640900626C61FD
:1012C0006E6B2074696D65006F66662074696D656C
:1012D00009004F54207072657761726E20686173E7
:1012E0000A6265656E20747269676765726564007D
:1012F0004F54207072657761726E005B6D6D2F7355
:101300005D090070776D0A7468726573686F6C644C
:101310000900747374657009006D737465707309E6
:1013200000737465616C746843686F7000767365F0
:101330006E7365090050574D207363616C65090039
:1013400043532061637475616C0900486F6C6420BD
:1013500063757272656E740052756E206375727279
:10136000656E74004D41582063757272656E74002D
:10137000524D532063757272656E7400536574200C
:1013800063757272656E7400456E61626C656409A6
:1013900000090020746F6F206C6F6E672065787491
:1013A000727573696F6E2070726576656E746564B0
:1013B0000A0020636F6C6420657874727573696FBE
:1013C0006E2070726576656E7465640A00486F6D94
:1013D000696E67206661696C6564000A0A4265642B
:1013E000204C6576656C20436F7272656374696F1B
:1013F0006E204D61747269783A00202B000A436FA9
:10140000727265637465642042656420486569672B
:1014100068742076732E2042656420546F706F6C60
:101420006F67793A0A00202B000A426564204865FC
:101430006967687420546F706F6772617068793A79
:101440000A2020202B2D2D2D204241434B202D2DD5
:101450002B0A2020207C202020202020202020203B
:10146000207C0A204C207C20202020282B29202092
:1014700020207C20520A2045207C20202020202073
:1014800020202020207C20490A2046207C20282D56
:1014900029204E20282B29207C20470A2054207CFC
:1014A00020202020202020202020207C20480A20CE
:1014B00020207C20202020282D29202020207C2056
:1014C000540A2020207C20202020202020202020A2
:1014D000207C0A2020204F2D2D2046524F4E542094
:1014E0002D2D2B0A2028302C30290A004D65616EE5
:1014F000206F662073616D706C656420706F696E1B
:1015000074733A200020643A200020623A2000459B
:10151000716E20636F656666696369656E74733AA0
:1015200020613A2000202844525952554E29004744
:101530003239204175746F20426564204C657665B0
:101540006C696E67003F20284C2C522C462C422997
:10155000206F7574206F6620626F756E64732E0A3B
:10156000003F50726F626520706F696E747320283F
:10157000592920697320696D706C61757369626C9B
:10158000652028322D32292E0A003F50726F626585
:1015900020706F696E747320285829206973206940
:1015A0006D706C61757369626C652028322D32290B
:1015B0002E0A003F2856296572626F7365206C659C
:1015C00076656C20697320696D706C6175736962F2
:1015D0006C652028302D34292E0A00205A0020590D
:1015E00000580020204D61783A2000205A002059F0
:1015F00000580020204D696E3A20004F6E20004FA9
:10160000666600536F667420656E6473746F7073E2
:101610003A200020643A0020693A0020703A0049DC
:101620006E76616C69642065787472756465720A9F
:1016300000473238205A000A486F6D696E67205A99
:101640002064756520746F206C6F737420737465EB
:1016500070730A000A43616C6962726174696F6E2B
:101660002063757272656E743A205A000A506C6578
:1016700061736520686F6D65205A206178697320F9
:1016800066697273740A00526573656E643A20006D
:1016900020746F6F206C6F6E67206578747275733D
:1016A000696F6E2070726576656E7465640A0020DD
:1016B000636F6C6420657874727573696F6E2070E7
:1016C000726576656E7465640A00627573793A2096
:1016D00070617573656420666F7220696E707574D1
:1016E0000A00627573793A207061757365642066CB
:1016F0006F7220757365720A00627573793A207093
:10170000726F63657373696E670A004B494C4C4591
:10171000442E20004B494C4C206361757365642056
:10172000627920746F6F206D75636820696E6163E4
:10173000746976652074696D65202D2063757272F9
:10174000656E7420636F6D6D616E643A200025696B
:10175000730025696D202569730025696820256956
:101760006D20256973002569642025696820256935
:101770006D20256973002569792025696420256914
:10178000682025696D2025697300656E7175657522
:1017900065696E672022004B494C4C45442E200061
:1017A0005072696E7465722073746F707065642016
:1017B00064756520746F206572726F72732E204697
:1017C000697820746865206572726F7220616E643A
:1017D00020757365204D39393920746F2072657317
:1017E000746172742E202854656D70657261747511
:1017F00072652069732072657365742E2053657459
:1018000020697420616674657220726573746172F8
:1018100074696E67290A004E6F20436865636B73B5
:10182000756D2077697468206C696E65206E756DC2
:101830006265722C204C617374204C696E653A208D
:1018400000636865636B73756D206D69736D61749A
:1018500063682C204C617374204C696E653A2000DB
:101860004C696E65204E756D626572206973206EDD
:101870006F74204C617374204C696E65204E756DD9
:101880006265722B312C204C617374204C696E653B
:101890003A20004D3131300020496E76616C696428
:1018A0002065787472756465722000000000000085
:1018B0000050C1000000000000AF430080A84300BA
:1018C000009B435072696E7465722073746F707000
:1018D00065642064756520746F206572726F727321
:1018E0002E2046697820746865206572726F7220B8
:1018F000616E6420757365204D39393920746F200D
:10190000726573746172742E202854656D706572EF
:1019100061747572652069732072657365742E2019
:1019200053657420697420616674657220726573F2
:1019300074617274696E67290A0053544F502063B2
:10194000616C6C65642062656361757365206F66A8
:1019500020424C546F756368206572726F72202D3F
:1019600020726573746172742077697468204D39D0
:1019700039390A0025753A2530327500253032751F
:101980003A253032750025756420253032753A25A8
:10199000303275007C2000207C3062003A002063E9
:1019A000757272656E7420646563726561736564D7
:1019B00020746F20006D41290A00206472697665E9
:1019C00072206F76657274656D7065726174757280
:1019D00065207761726E696E67212028003A2000C9
:1019E000447269766572206572726F720073686FF7
:1019F000727420746F2067726F756E642028636F35
:101A0000696C2042290A0073686F727420746F2019
:101A100067726F756E642028636F696C2041290AB4
:101A2000006F76657274656D70657261747572654C
:101A30000A0020647269766572206572726F722086
:101A400064657465637465643A0A00747275650050
:101A500066616C736500747275650066616C7365B0
:101A600000747275650066616C736500313D2E31DE
:101A70003800303D2E333235002F3331002F3331D3
:101A8000002F333100747275650066616C736500F8
:101A9000556E6B6E6F776E20636F6D6D616E643A1D
:101AA00020220050726F62696E67206661696C6502
:101AB000640A00205A3A200020593A200042656406
:101AC00020583A2000000020002300260029002C86
:101AD000002F003200000100000301060109012C63
:101AE00020002C200050726F746563746564205070
:101AF000696E0A0020573A0020573A00205A3A00EF
:101B000020593A0020436F756E7420583A002045E2
:101B10003A00205A3A0020593A00583A004469667F
:101B20006665723A200046726F6D5374703A0053C6
:101B30007465707065723A00556E4C6576656C3AE6
:101B4000004C6576656C65643A005261773A2020F6
:101B50002020000A4C6F676963616C3A003A0043C9
:101B600061703A002066697273740A005A00590065
:101B70005800486F6D6520006563686F3A004572D4
:101B8000726F723A000102102020080810204010E5
:101B90002040800201020108040201010204081031
:101BA000204080804020100804020180040201804F
:101BB0004020100804020108040201010204081078
:101BC00020408001020408102040800000220025EF
:101BD0000028002B002E0031003400020100000517
:101BE0000108010B0105050505070508080808029D
:101BF0000202020A0A0808040404040101010101A6
:101C00000101010303030303030303040707070C94
:101C10000C0C0C0C0C0C0C0202020206060606064A
:101C20000606060B0B0B0B0B0B0B0B5072696E743D
:101C300065722068616C7465642E206B696C6C2819
:101C4000292063616C6C6564210A002020506C615E
:101C50006E6E657242756666657242797465733A36
:101C600020002046726565204D656D6F72793A20BF
:101C700000436F6D70696C65643A204F6374203166
:101C80003820323031380A00207C20417574686F6A
:101C9000723A20284261757369323031322C2064E7
:101CA000656661756C7420636F6E666967290A00EA
:101CB000323031382D30382D303100204C61737482
:101CC00020557064617465643A2000312E312E39DC
:101CD0000A004D61726C696E0020536F6674776103
:101CE00072652052657365740A00205761746368D9
:101CF000646F672052657365740A002042726F77C3
:101D00006E206F75742052657365740A00204578E3
:101D10007465726E616C2052657365740A00506F51
:101D200077657255700A0073746172740A00203D01
:101D30002030780048617264636F64656420446594
:101D40006661756C742053657474696E6773204C9A
:101D50006F616465640A00B80B0000B80B00006492
:101D6000000000102700000000964300009643008A
:101D700000A0400000C841856BA0425C8FA04200DB
:101D800000C8448FE2634420204D393036003A0ABF
:101D90000020286D6D290020204D39313400205954
:101DA0000020580053656E736F726C657373206802
:101DB0006F6D696E67207468726573686F6C643AE2
:101DC0000A00205A0020493100205A0020590020E2
:101DD000580053746570706572206472697665721C
:101DE0002063757272656E743A0A0020204D383592
:101DF00031205A005A2D50726F6265204F6666730B
:101E000065740020440020490020204D33303420E8
:101E1000500020440020490020204D333031205014
:101E2000005049442073657474696E67733A0A0000
:101E300020204D3432302053004175746F204265AC
:101E400064204C6576656C696E673A0A00205A001A
:101E500020590020204D323036205800486F6D65E3
:101E6000206F66667365743A0A00204500205A00A8
:101E700020590020580020540020530020204D32CB
:101E8000303520510020453C6D61785F655F6A65A3
:101E9000726B3E0020583C6D61785F785F6A6572B6
:101EA0006B3E20593C6D61785F795F6A65726B3E6D
:101EB000205A3C6D61785F7A5F6A65726B3E0041C3
:101EC0006476616E6365643A20513C6D696E5F7340
:101ED00065676D656E745F74696D655F75733E20CF
:101EE000533C6D696E5F66656564726174653E2022
:101EF000543C6D696E5F74726176656C5F66656592
:101F000064726174653E0020540020520020204D10
:101F1000323034205000416363656C6572617469CE
:101F20006F6E2028756E6974732F7332293A2050B2
:101F30003C7072696E745F616363656C3E20523CF5
:101F4000726574726163745F616363656C3E205493
:101F50003C74726176656C5F616363656C3E0A0018
:101F6000204500205A0020590020204D32303120D9
:101F700058004D6178696D756D20416363656C65CE
:101F8000726174696F6E2028756E6974732F733275
:101F9000293A0A00204500205A0020590020204DEF
:101FA0003230332058004D6178696D756D2066655B
:101FB000656472617465732028756E6974732F731C
:101FC000293A0A00204500205A0020590020204DBF
:101FD0003932205800537465707320706572207513
:101FE0006E69743A0A0020204D3230302044300AA5
:101FF0000020204D3230302044002044697361625B
:102000006C65640A0046696C616D656E7420736569
:102010007474696E67733A002020473231202020A3
:10202000203B0000002100240027002A002D003062
:1020300000330001010000040107010A0100000A49
:102040000B02090C0D0E080703040100000000003C
:102050000000000000000000000000000000000080
:10206000000000000000000000121110000000003D
:102070000000000000000000000000000000000060
:102080000000004B64200023646566696E6520448F
:10209000454641554C545F004B69200023646566FA
:1020A000696E652044454641554C545F004B702095
:1020B0000023646566696E652044454641554C546D
:1020C0005F00504944204175746F74756E652066D9
:1020D000696E697368656421205075742074686541
:1020E000206C617374204B702C204B6920616E64EE
:1020F000204B6420636F6E7374616E74732066721C
:102100006F6D2062656C6F7720696E746F20436F0E
:102110006E66696775726174696F6E2E680A005029
:102120004944204175746F74756E65206661696CF1
:102130006564212074696D656F75740A00453120EE
:10214000544845524D414C2052554E41574159003B
:1021500042454420544845524D414C2052554E4131
:1021600057415900546865726D616C2052756E61FB
:102170007761790045312048656174696E67206632
:1021800061696C6564004265642068656174696EAC
:1021900067206661696C65640048656174696E6793
:1021A000206661696C656400504944204175746F14
:1021B00074756E65206661696C6564212054656D77
:1021C000706572617475726520746F6F20686967DD
:1021D000680A00204B643A2000204B693A20002016
:1021E0004B703A20000A20436C617373696320507E
:1021F0004944200A002054753A2000204B753A20AB
:1022000000206D61783A2000206D696E3A20002030
:10221000643A200020626961733A200050494420EA
:102220004175746F74756E65206661696C656421B3
:1022300020426164206578747275646572206E75E1
:102240006D6265720A00504944204175746F74755F
:102250006E652073746172740A006265640A002CF2
:102260002073797374656D2073746F707065642169
:10227000204865617465725F49443A200042656494
:102280002068656174696E67206661696C656400C9
:1022900048656174696E67206661696C65640045B4
:1022A000312048656174696E67206661696C656498
:1022B0000048656174696E67206661696C656400D9
:1022C000545249474745524544006F70656E003A85
:1022D00020007A5F6D696E00795F6D696E00785FCE
:1022E0006D696E005265706F7274696E6720656EFD
:1022F0006473746F70207374617475730A00206462
:1023000072697665722063757272656E743A200028
:1023100000004842000048420000804000000000E9
:102320005761726E696E673A20486F6D696E6720FB
:1023300042756D702044697669736F72203C20315C
:102340000A0002020400000000000000000000007B
:10235000400000AF430000AF4300009B4345727252
:102360006F722077726974696E6720746F204545BB
:1023700050524F4D210A0046696C616D656E7420A4
:10238000757365643A200053746174733A20002CAD
:10239000204C6F6E67657374206A6F623A20005438
:1023A0006F74616C2074696D653A200053746174B8
:1023B000733A20002C204661696C65643A20002C39
:1023C0002046696E69736865643A20005072696ED0
:1023D00074733A200053746174733A2000006BB038
:1023E000DDB211241FBECFEFD1E2DEBFCDBF00E0D2
:1023F0000CBF13E0A0E0B2E0E2E8F4E801E00BBFBC
:1024000002C007900D92A432B107D9F72FE0A4E2E1
:10241000B3E001C01D92A13BB207E1F711E1C0EFAB
:10242000D1E100E006C021970109802FFE010E9442
:10243000E7C1CF3ED10780E00807A9F70E942E9C94
:102440000C9430C20C9400008091580E9091590E5B
:10245000891B8F7019F480E090E008959091550EDB
:10246000992351F0833030F48FEF890F19F0809366
:10247000550EF1CF1092550EE091590E8DE4E89F64
:10248000F0011124E455FA4F808180FDE4CF809162
:10249000590E8F5F8F708093560E9091590E8091D8
:1024A000570E981304C08091560E8093570ECF019B
:1024B0000895CF92DF92EF92FF920F931F93CF93E5
:1024C000DF936C018B017A01EC01C258D54F8881F2
:1024D00087FF04C0FB011182108224C02CE02C9DD8
:1024E000C0012D9D900D11242881AC01420F511D7A
:1024F00027FD5A952091230F30E04217530794F49B
:102500002881AC01420F511D27FD5A959A01FA010D
:10251000EE0FFF1F2E0F3F1FF901E954F14F2081ED
:1025200026FD19C088818F5F88832CE02C9DC00117
:102530002D9D900D11242881AC01420F511D27FDC6
:102540005A952091230F30E042175307BCF428819D
:102550002C3044F113C02881820F911D27FD9A95DC
:10256000FC01EE0FFF1F8E0F9F1FFC01E954F14F7E
:10257000808160E08F730E947B82D4CFF8018081DC
:102580009181049680349C4918F480E49CE904C04D
:10259000F801808191810496F701918380838FEF08
:1025A000888345C0F801408151812881BC01620FB8
:1025B000711D27FD7A959B01FB01EE0FFF1F2E0F6A
:1025C0003F1FF901E954F14F21813281240F351F5A
:1025D000F701318320832881AC01420F511D27FD73
:1025E0005A959A01FA01EE0FFF1F2E0F3F1FF901B6
:1025F000E954F14F208126FF1AC02881820F911DD6
:1026000027FD9A95FC01EE0FFF1F8E0F9F1FFC0107
:10261000E954F14F808161E08F73DF91CF911F9179
:102620000F91FF90EF90DF90CF900C947B82DF9121
:10263000CF911F910F91FF90EF90DF90CF90089571
:102640000F930FB70F9300916E000F930B7F0093C2
:102650006E0000916F000D7F00936F000F930BB71A
:102660000F930CB70F921F922F933F934F935F934B
:102670006F937F938F939F93AF93BF93EF93FF934A
:10268000112455D0FF91EF91BF91AF919F918F9100
:102690007F916F915F914F913F912F911F900F907C
:1026A0000CBF0F910BBF0F910260F89400936F0065
:1026B0000F9100936E000F910FBF0F9118958091AD
:1026C0007C0A80FF03C089988FEF02C0899A81E05D
:1026D00080930C0280917C0A81FF03C08F988FEF5A
:1026E00002C08F9A81E080930D0280917C0A82FF64
:1026F00009C080910B018095827080930901439AF3
:102700008FEF07C080910B0182708093090143987D
:1027100081E080930E0280917C0A83FF03C0169AA9
:102720008FEF02C0169881E080930F0208952F92D8
:102730003F924F925F926F927F928F929F92AF9251
:10274000BF92CF92DF92EF92FF921F93CF93DF93CE
:10275000F8948FEF9FEF90938900809388001AE0A0
:10276000C0E0D0E0BBE12B2EBFE03B2E78948091FF
:10277000C20A9091C30AA091C40AB091C50A892BDC
:102780008A2B8B2B09F0D3C18091330F8823D1F092
:102790001092330F8091310F9091320F892B91F06D
:1027A00010927D0A1092320F1092310F9091580EB4
:1027B0008091590E981731F08091590E8F5F8F706C
:1027C0008093590E8091310F9091320F892B09F42B
:1027D000AEC18090BE0A9090BF0AA090C00AB0908F
:1027E000C10A4091BA0A5091BB0A6091BC0A70912B
:1027F000BD0AC090AD0AD12CE12CF12CDB01CA013D
:1028000088199909AA09BB09C816D906EA06FB0660
:1028100010F4D701C601482F880D991DAA1DBB1DB4
:102820008093BE0A9093BF0AA093C00AB093C10AD6
:102830002091840030918500245E3F4FC090950A1E
:10284000D090960AE090970AF090980A8091850AB5
:102850009091860AA091870AB091880A8C0D9D1DDF
:10286000AE1DBF1D8093950A9093960AA093970A78
:10287000B093980AB7FD1CC0889AC0904203D090CC
:102880004303E0904403F090450380910C02082E2E
:10289000000C990BAA0BBB0B8C0D9D1DAE1DBF1D13
:1028A0008093420390934303A0934403B093450362
:1028B000C090990AD0909A0AE0909B0AF0909C0AE6
:1028C0008091890A90918A0AA0918B0AB0918C0A12
:1028D0008C0D9D1DAE1DBF1D8093990A90939A0A81
:1028E000A0939B0AB0939C0AB7FD1CC08E9AC0901F
:1028F0004603D0904703E0904803F090490380914D
:102900000D02082E000C990BAA0BBB0B8C0D9D1D04
:10291000AE1DBF1D8093460390934703A0934803C9
:10292000B0934903C0909D0AD0909E0AE0909F0A00
:10293000F090A00A80918D0A90918E0AA0918F0A42
:10294000B091900A8C0D9D1DAE1DBF1D80939D0AF8
:1029500090939E0AA0939F0AB093A00AB7FD22C04D
:1029600080910B018095887080930901419AC090F5
:102970004A03D0904B03E0904C03F0904D038091BC
:102980000E02082E000C990BAA0BBB0B8C0D9D1D83
:10299000AE1DBF1D80934A0390934B03A0934C033D
:1029A000B0934D03C090A10AD090A20AE090A30A70
:1029B000F090A40A8091910A9091920AA091930AB2
:1029C000B091940A8C0D9D1DAE1DBF1D8093A10A70
:1029D0009093A20AA093A30AB093A40AB7FD1CC0C7
:1029E000149AC0904E03D0904F03E0905003F090A3
:1029F000510380910F02082E000C990BAA0BBB0B00
:102A00008C0D9D1DAE1DBF1D80934E0390934F03F3
:102A1000A0935003B09351038091950A9091960A28
:102A2000A091970AB091980AB7FD15C0C090810A8D
:102A3000D090820AE090830AF090840A8C199D0954
:102A4000AE09BF098093950A9093960AA093970ABE
:102A5000B093980A88988091990A90919A0AA091C7
:102A60009B0AB0919C0AB7FD15C0C090810AD09016
:102A7000820AE090830AF090840A8C199D09AE09BD
:102A8000BF098093990A90939A0AA0939B0AB093E6
:102A90009C0A8E9880919D0A90919E0AA0919F0A0F
:102AA000B091A00AB7FD1AC0C090810AD090820AE6
:102AB000E090830AF090840A8C199D09AE09BF0941
:102AC00080939D0A90939E0AA0939F0AB093A00AB8
:102AD00080910B0188708093090141988091A10A2F
:102AE0009091A20AA091A30AB091A40AB7FD15C0C3
:102AF000C090810AD090820AE090830AF090840A04
:102B00008C199D09AE09BF098093A10A9093A20A6E
:102B1000A093A30AB093A40A1498415041F0809165
:102B200084009091850082179307C8F387CE809127
:102B3000C20A9091C30AA091C40AB091C50A892B18
:102B40008A2B8B2B09F01CC3E091310FF091320FCF
:102B5000309709F491C48091BE0A9091BF0AA09168
:102B6000C00AB091C10A4091BA0A5091BB0A609163
:102B7000BC0A7091BD0A84179507A607B707D0F065
:102B800010927D0A1092320F1092310F9091580ED0
:102B90008091590E981709F46FC48091590E8F5F78
:102BA0008F708093590EA0EDCA2EA7E0DA2EE12C8B
:102BB000F12C4EC14091B60A5091B70A6091B80A03
:102BC0007091B90A481759076A077B0708F467C06C
:102BD0004091B20A5091B30A6091B40A7091B50A5B
:102BE00082A993A9A4A9B5A9FF24499FE12C5A9FC2
:102BF00090016A9F300D699F200D311D4A9FE00CA6
:102C0000211D3F1D599FE00C211D3F1D689FE00CB9
:102C1000211D3F1D589FE10C2F1D3F1DE6942F1DC8
:102C20003F1DB49F200D311DB59F300D112483AD84
:102C300094ADA5ADB6AD820F931FA11DB11D8093BC
:102C4000AE0A9093AF0AA093B00AB093B10AC7A896
:102C5000D0ACE1ACF2ACC816D906EA06FB0640F4EB
:102C6000C092AE0AD092AF0AE092B00AF092B10AD6
:102C70008090AE0A9090AF0AA090B00AB090B10ACE
:102C80008FEF9EE021E0FC01C590D590E590F49097
:102C9000C814D904EA04FB0408F4B8C2C2C24091C3
:102CA000A90A5091AA0A6091AB0A7091AC0A481720
:102CB00059076A077B0708F063C04091A50A509145
:102CC000A60A6091A70A7091A80A82A993A9A4A94B
:102CD000B5A9FF24499FE12C5A9F90016A9F300DAE
:102CE000699F200D311D4A9FE00C211D3F1D599FFA
:102CF000E00C211D3F1D689FE00C211D3F1D589FCA
:102D0000E10C2F1D3F1DE6942F1D3F1DB49F200D8C
:102D1000311DB59F300D1124C901A0E0B0E08090B5
:102D2000AE0A9090AF0AA090B00AB090B10AFF9698
:102D300088159905AA05BB0580F4C080D180E28082
:102D4000F380881A990AAA0ABB0A8C149D04AE045F
:102D5000BF0438F44601570104C080809180A280EE
:102D6000B3808FEF9EE021E0FC01C590D590E59007
:102D7000F490C814D904EA04FB0408F4BAC2C4C22B
:102D80008091110290911202A0911302B09114024D
:102D9000B7FF56C087A990ADA1ADB2AD2FEF3EE011
:102DA00041E0F901C590D590E590F490C816D90698
:102DB000EA06FB0658F4B695A79597958795440FB4
:102DC0002C5F3F4FFFE02B313F0759F74093AD0A8F
:102DD00080329105A105B10508F421C38097A109AE
:102DE000B109811528E09207A105B10508F4F4C2E4
:102DF00044E0949F900111242150354FF9013296FF
:102E000045915491EE27859FB001849F610D7E1FEF
:102E100006946E1F7E1F1124CB01A0E0B0E0F901E3
:102E20004591549160E070E0481B590B6A0B7B0B95
:102E30004093110250931202609313027093140294
:102E4000C0901102D0901202E0901302F090140290
:102E50008091310F9091320F892B09F089C1F4DAFA
:102E60009093320F8093310F892B09F481C1E09147
:102E7000310FF091320F808183FF3EC085899689A2
:102E8000A789B08D8093420390934303A09344039A
:102E9000B0934503818D928DA38DB48D80934603AD
:102EA00090934703A0934803B0934903858D968D73
:102EB000A78DB0A180934A0390934B03A0934C033A
:102EC000B0934D0381A192A1A3A1B4A180934E031D
:102ED00090934F03A0935003B09351039091580ED9
:102EE0008091590E981709F4BACF8091590E8F5FCF
:102EF0008F708093590EB3CF85889688A788B08C41
:102F000081E081149104A104B10409F480E0C18C32
:102F1000D28CE38CF48CC114D104E104F10409F0E7
:102F20008260458D568D678D70A1411551056105F3
:102F3000710509F0846080937D0A1092A50A1092B1
:102F4000A60A1092A70A1092A80A1092B20A10922A
:102F5000B30A1092B40A1092B50A85A196A1A7A14E
:102F6000B0A58093BA0A9093BB0AA093BC0AB09311
:102F7000BD0A442455243201481A590A6A0A7B0AB8
:102F80004092A10A5092A20A6092A30A7092A40AE7
:102F900040929D0A50929E0A60929F0A7092A00AE7
:102FA0004092990A50929A0A60929B0A70929C0AE7
:102FB0004092950A5092960A6092970A7092980AE7
:102FC000880C991CAA1CBB1C8092850A9092860AC8
:102FD000A092870AB092880ACC0CDD1CEE1CFF1C64
:102FE000C092890AD0928A0AE0928B0AF0928C0AE7
:102FF000440F551F661F771F40938D0A50938E0A0A
:1030000060938F0A7093900A41A152A163A174A1A9
:10301000440F551F661F771F4093910A5093920AE1
:103020006093930A7093940A880F991FAA1FBB1F7D
:103030008093810A9093820AA093830AB093840AB2
:103040001092BE0A1092BF0A1092C00A1092C10AD2
:1030500082A593A5A4A5B5A58093B60A9093B70AB7
:10306000A093B80AB093B90A86A597A5A0A9B1A95B
:103070008093A90A9093AA0AA093AB0AB093AC0AD2
:1030800041A556A980917C0A58130AC0809110026C
:1030900090E0242F042E000C330B2817390729F059
:1030A00050937C0A409310020ADB0E9485948FEFB4
:1030B0009FEFDC018093110290931202A093130200
:1030C000B0931402E091310FF091320F83AD94ADC3
:1030D000A5ADB6AD8093AE0A9093AF0AA093B00AA7
:1030E000B093B10A2FEF3EE041E0F901C590D590D1
:1030F000E590F490C816D906EA06FB0650F4B6959A
:10310000A79597958795440F2C5F3F4F221633065E
:1031100061F74093AD0A80329105A105B10508F42D
:10312000A6C18097A109B1098115F8E09F07A10503
:10313000B10508F479C144E0949F90011124215015
:10314000354FF901329645915491EE27859FB00194
:10315000849F610D7E1F06946E1F7E1F1124F9014E
:10316000C590D490E12CF12CC61AD70AE108F108D9
:10317000C092C20AD092C30AE092C40AF092C50A71
:103180008091C20A9091C30AA091C40AB091C50A65
:10319000AC01BD010097F1E0AF07B10520F04FEFA2
:1031A0005FEF60E070E0841B950BA60BB70B80937C
:1031B000C20A9093C30AA093C40AB093C50AF894B4
:1031C00080918400909185004096115039F0C40F91
:1031D000D51FC817D90708F4C9CA01C0EC01D0939C
:1031E0008900C09388007894DF91CF911F91FF9060
:1031F000EF90DF90CF90BF90AF909F908F907F9097
:103200006F905F904F903F902F900895B694A79441
:1032100097948794220F04963FE08B31930709F02F
:1032200032CD2093AD0A80E288169104A104B10446
:1032300008F459C020E2821A9108A108B10881144B
:1032400038E09306A104B104F8F0A4E09A9EC0010E
:1032500011248150954FFC01329625913491F82D1F
:10326000EE27F39FD001F29FA10DBE1F0694AE1F63
:10327000BE1F1124FC01C590D490E12CF12CCA1A78
:10328000DB0AE108F10822C0D501C401B695A79573
:1032900097958795FC01EC7FCF018150994FFC01F8
:1032A000C590D490FC01329625913491E82DE770B9
:1032B000E29FC001E39F900D1124F3E0969587955E
:1032C000FA95E1F7C81AD90AE12CF12C4C0D5D1DD5
:1032D0006E1D7F1D4093B20A5093B30A6093B40AE7
:1032E0007093B50AB5CDA0E28A2E912CA12CB12CF9
:1032F000A1CFB694A79497948794220F0496AFE039
:103300008B319A0709F030CD2093AD0AB0E28B16CD
:103310009104A104B10408F459C020E2821A910872
:10332000A108B108811438E09306A104B104F8F0B3
:10333000A4E09A9EC00111248150954FFC01329661
:1033400025913491F82DEE27F39FD001F29FA10D26
:10335000BE1F0694AE1FBE1F1124FC01C590D49061
:10336000E12CF12CCA1ADB0AE108F10822C0D501D0
:10337000C401B695A79597958795FC01EC7FCF0181
:103380008150994FFC01C590D490FC013296259153
:103390003491E82DE770E29FC001E39F900D112466
:1033A00033E0969587953A95E1F7C81AD90AE12C4A
:1033B000F12C4C0D5D1D6E1D7F1D4093A50A509391
:1033C000A60A6093A70A7093A80A42CDE0E28E2E67
:1033D000912CA12CB12CA1CFAC01BD0176956795A4
:1033E00057954795FA01EC7F9F012150394FF9011C
:1033F00045915491F9013296659174918770869F39
:103400009001879F300D1124C901F3E096958795AF
:10341000FA95E1F7481B590B60E070E009CD80E2B6
:1034200090E0A0E0B0E0DACCAC01BD017695679504
:1034300057954795FA01EC7F9F012150394FF901CB
:10344000C590D490F9013296459154918770849F2C
:103450009001859F300D1124C90123E09695879531
:103460002A95E1F7C81AD90AE12CF12C81CE80E225
:1034700090E0A0E0B0E055CE80EDC82E87E0D82ED9
:10348000E12CF12CECCC8F929F92AF92BF92CF9215
:10349000DF92EF92FF920F931F93CF93DF938C01F4
:1034A000EB0160E070E00E94FA7287FD8DC0C032CF
:1034B00082E0D8070CF042C0F801828128E532E0B2
:1034C000281B310987FD3395220F331F220F331F2D
:1034D0004901330FAA08BB08818128E830E069015F
:1034E000C81AD10887FDD394CC0CDD1CCC0CDD1C94
:1034F0000D2C000CEE08FF08D7FD0AC0C53BD10516
:1035000014F0C4EBD0E0BE01DD0F880B990B03C0B3
:1035100060E070E0CB01A50194012C193D094E0932
:103520005F090E948CBE24EB30E040E050E00E9436
:10353000BDBEC20ED31EE41EF51EE601F8013081A9
:10354000343280F5218188E890E0821B910927FDC3
:103550009395880F991F880F991FC817D90784F072
:10356000F801228188E592E0821B910927FD93955D
:10357000880F991F880F991FC817D9070CF4CE011F
:1035800002974FB7F894232F30E0F901EE0FFF1F99
:103590002E0F3F1FF901E954F14F880F991F9283B5
:1035A00081834FBF62E370E080E090E0DF91CF91D4
:1035B0001F910F91FF90EF90DF90CF90BF90AF9051
:1035C0009F908F900C94FB7ADF91CF911F910F9178
:1035D000FF90EF90DF90CF90BF90AF909F908F9033
:1035E00008951F920F920FB60F9211240BB60F92EF
:1035F0002F933F934F935F936F937F938F939F93FB
:10360000AF93BF93EF93FF9348E251E064E271E020
:1036100082E090E00E945912FF91EF91BF91AF912B
:103620009F918F917F916F915F914F913F912F91DA
:103630000F900BBE0F900FBE0F901F9018951F920A
:103640000F920FB60F9211240BB60F922F933F9348
:103650004F935F936F937F938F939F93AF93BF939A
:10366000EF93FF9348EA50E064EA70E081E090E075
:103670000E945912FF91EF91BF91AF919F918F914D
:103680007F916F915F914F913F912F910F900BBE62
:103690000F900FBE0F901F9018951F920F920FB6AC
:1036A0000F9211240BB60F922F933F934F935F937A
:1036B0006F937F938F939F93AF93BF93EF93FF93FA
:1036C00048E950E064E970E080E090E00E9459121F
:1036D000FF91EF91BF91AF919F918F917F916F91EA
:1036E0005F914F913F912F910F900BBE0F900FBEA6
:1036F0000F901F901895CF92DF92EF92FF92CF9389
:10370000DF936A017B01FC018491EF0121968823FC
:1037100021F00E94AB59FE01F7CF4AE0C701B60184
:10372000DF91CF91FF90EF90DF90CF900C943D5CB4
:10373000CF92DF92EF92FF92CF93DF936A017B01EA
:10374000FC018491EF012196882321F00E94AB595E
:10375000FE01F7CF42E0C701B601DF91CF91FF90A4
:10376000EF90DF90CF900C94C25C0F931F93CF9398
:10377000DF938B01FC018491EF012196882321F0D6
:103780000E94AB59FE01F7CFB801110F880B990BBE
:10379000DF91CF911F910F910C94A85C0F931F9311
:1037A000CF93DF938B01FC018491EF012196882355
:1037B00021F00E94AB59FE01F7CFE80189918823DF
:1037C00019F00E94AB59FACFDF91CF911F910F9161
:1037D0000895CF92DF92EF92FF920F931F93809103
:1037E00062038150823010F080E05DC0109262036D
:1037F0000E946B8460935E0370935F038093600309
:103800009093610380919E0590919F0501969093FE
:103810009F0580939E05C0909805D0909905E090F3
:103820009A05F0909B050E945C90609398057093B8
:10383000990580939A0590939B050091A00510919E
:10384000A1052091A2053091A3050C191D092E098F
:103850003F09DC01CB01800F911FA21FB31F809392
:10386000A0059093A105A093A205B093A3050E9483
:103870005C900091A4051091A5052091A6053091BA
:10388000A705061717072807390750F40E945C9010
:103890006093A4057093A5058093A6059093A70552
:1038A0000E943B9A81E01F910F91FF90EF90DF9073
:1038B000CF900895CF93C0916203C13081F1C2309F
:1038C00059F40E945C906093400F7093410F809375
:1038D000420F9093430F02C00E94909081E080932A
:1038E00062030E946B846093440F7093450F809332
:1038F000460F9093470FC230A1F080919C059091A4
:103900009D05019690939D0580939C0510929805C6
:103910001092990510929A0510929B0502C080E0C2
:1039200001C081E0CF910895CF93DF938F3892400B
:10393000B1F0EEE7FBE18491EF012196882321F0BD
:103940000E94AB59FE01F7CFEFE1FFE08491EF0158
:103950002196882331F00E94AB59FE01F7CF80E019
:1039600001C081E0DF91CF9108952F923F924F9255
:103970005F926F927F928F929F92AF92BF92CF92FF
:10398000DF92EF92FF920F931F93CF93DF93CDB708
:10399000DEB7C558D1090FB6F894DEBF0FBECDBF54
:1039A0008DB69EB6E7961FAE1EAEE79784E690E012
:1039B000E9969FAF8EAFE99701E09E012B583F4FEC
:1039C00044E050E0BE0163597F4FCE0189589F4FBC
:1039D0000E9489959E012B583F4F42E050E0BE0166
:1039E00067587F4FCE0189589F4F0E94899543E0C9
:1039F00050E0BE0163597F4F8FED92E00E9417C2E5
:103A0000892B09F43BC0E1968FADE197882339F00B
:103A10008FE3AE968FAFAE97AF961FAEAF97E8E746
:103A2000FBE184918F010F5F1F4F811103C0E2EE14
:103A3000FFE004C00E94AB59F801F3CF84918F01DD
:103A40000F5F1F4F882321F00E94AB59F801F6CF7A
:103A5000BE0163597F4F89ED9FE0A0DEEBECFFE0F4
:103A600084918F010F5F1F4F882321F00E94AB5973
:103A7000F801F6CF81E08093C60A34C52DB63EB674
:103A8000AD961CAE1DAE1EAE1FAEAD97E7961FAE37
:103A90001EAEE79701E09E012B583F4F41E050E0FA
:103AA000BE0160587F4FCE0189589F4F0E94899573
:103AB00080E1EBE5F2E0DE01D79601900D928A9568
:103AC000E1F780E1EBE6F2E0DE01979601900D92DE
:103AD0008A95E1F780E1EBE7F2E0DE01579601908D
:103AE0000D928A95E1F7C058DF4F4881C058D04009
:103AF00050E04D5F5F4F440F551F440F551F2DB7CA
:103B00003EB7241B350B0FB6F8943EBF0FBE2DBF3A
:103B10008DB79EB701963C0100E09E012B583F4FA8
:103B2000BC01CE0189589F4F0E9489959E012B5858
:103B30003F4F44E050E06FED73E0CE0189589F4F56
:103B40000E948995C058DF4FA880C058D040B12C42
:103B500093E0A90EB11CAA0CBB1CAA0CBB1CEDB7B0
:103B6000FEB7EA19FB090FB6F894FEBF0FBEEDBF12
:103B70002DB73EB72F5F3F4F69018DB79EB78A19AA
:103B80009B090FB6F8949EBF0FBE8DBFEDB7FEB771
:103B900031967F019E012B583F4FA501B601CE0102
:103BA00089589F4F0E9489959E012B583F4FA50130
:103BB000B701CE0189589F4F0E94899580910104D9
:103BC000882309F4A5C000E09E012B583F4F44E034
:103BD00050E061EC73E0CE0189589F4F0E948995B7
:103BE0009E012B583F4F44E050E069EB73E0CE015B
:103BF00089589F4F0E9489959E012B583F4F44E062
:103C000050E06DEB73E0CE0189589F4F0E9489957B
:103C10009E012B583F4F44E050E06BED73E0CE0126
:103C200089589F4F0E9489959E012B583F4F44E031
:103C300050E067ED73E0CE0189589F4F0E9489954F
:103C40009E012B583F4F40E150E067EC73E0CE01FE
:103C500089589F4F0E9489959E012B583F4F44E001
:103C600050E0BE0167597F4FCE0189589F4F0E9497
:103C700089959E012B583F4F4CE050E063EE73E076
:103C8000CE0189589F4F0E9489959E012B583F4F26
:103C900044E050E0BE0167597F4FCE0189589F4FE5
:103CA0000E9489959E012B583F4F44E050E0BE0191
:103CB00067597F4FCE0189589F4F0E94899501E037
:103CC0009E012B583F4F41E050E0BE0161587F4FAD
:103CD000CE0189589F4F0E9489959E012B583F4FD6
:103CE00041E050E0BE0162587F4FCE0189589F4F9E
:103CF0000E948995C158DF4F8881CF57D040EF96F9
:103D0000CFACEF978C9D60011124E12CF12C8CC07D
:103D1000C058DF4F8881C058D04090E0029629EA11
:103D200033E0CE57DF4F39832883C258D040B701E4
:103D30007E0137E1E30EF11C22E8A22E23E0B22E31
:103D4000D6018E01095D1F4F39E9C32E33E0D32E12
:103D5000CC57DF4F79826882C458D040AE01495CAD
:103D60005F4F20E030E0821793073CF0CC57DF4FE5
:103D7000E881F981C458D04001C0FA0140805180E7
:103D800062807380F60141925192619271926F014B
:103D90008217930734F04D905D906D907C9013974F
:103DA00005C0F8014080518062807380F501419226
:103DB0005192619271925F018217930714F0FB0197
:103DC00001C0F7014080518062807380CE57DF4F81
:103DD000E881F981C258D04041925192619271922A
:103DE000CE57DF4FF983E883C258D0402F5F3F4F53
:103DF0006C5F7F4FF4E0EF0EF11C14960C5F1F4FC9
:103E0000CC57DF4FE881F981C458D0403496CC5765
:103E1000DF4FF983E883C458D0404C5F5F4F2430B4
:103E2000310509F0A0CFCFCE00E09E012B583F4FC7
:103E300044E050E0EC14FD0461F0BE0167597F4F8F
:103E4000CE0189589F4F0E948995FFEFEF1AFF0A14
:103E5000EBCF66E37CE0CE0189589F4F0E948995A5
:103E60009E012B583F4F44E250E06AE57EE0CE01D0
:103E700089589F4F0E94899501E09E012B583F4F22
:103E800041E050E0BE0163587F4FCE0189589F4FFB
:103E90000E9489959E012B583F4F41E050E0BE01A2
:103EA00064587F4FCE0189589F4F0E94899500E04A
:103EB0009E012B583F4F44E050E0BE01695B7F4FAD
:103EC000CE0189589F4F0E9489959E012B583F4FE4
:103ED00044E050E0BE016F5F7F4FCE0189589F4F95
:103EE0000E948995EE968FADEE97ED96CFACED974B
:103EF0008C9D60011124E12CF12C00E09E012B58D7
:103F00003F4FCE14DF0471F044E050E0BE0167592A
:103F10007F4FCE0189589F4F0E9489952FEFE21A5B
:103F2000F20AEBCF41E050E0BE016F577F4FCE0168
:103F300089589F4F0E9489959E012B583F4F41E021
:103F400050E0BE0165587F4FCE0189589F4F0E94B7
:103F500089959E012B583F4F44E050E0BE016B59BC
:103F60007F4FCE0189589F4F0E9489959E012B5803
:103F70003F4F44E050E0BE016F597F4FCE0189585A
:103F80009F4F0E9489959E012B583F4F44E050E07F
:103F9000BE01635A7F4FCE0189589F4F0E94899579
:103FA00010E000E09E012B583F4F44E050E0BE017E
:103FB00067597F4FCE0189589F4F0E9489951111F3
:103FC00010C0AD96CCACDDACEEACFFACAD9720E054
:103FD00030E84BE355E4C701B6010E942EB88111C9
:103FE00003C084E0F82E33C080910104811108C021
:103FF000C0924C0FD0924D0FE0924E0FF0924F0FA7
:1040000000E09E012B583F4F44E050E068E47FE021
:10401000CE0189589F4F0E9489959E012B583F4F92
:1040200044E050E060E57FE0CE0189589F4F0E9458
:1040300089959E012B583F4F44E050E0BE016759DF
:104040007F4FCE0189589F4F0E94899512C0FA94E4
:10405000FF2079F000E09E012B583F4F44E050E0F4
:10406000BE0167597F4FCE0189589F4F0E948995A5
:10407000EECF1F5F153009F094CF00E09E012B5862
:104080003F4F42E050E0BE016D587F4FCE0189584E
:104090009F4F0E9489959E012B583F4F44E050E06E
:1040A000BE0167597F4FCE0189589F4F0E94899565
:1040B000AD96CCACDDACEEACFFACAD9720E030E81B
:1040C0004BE355E4C701B6010E942EB8882329F1BD
:1040D00080910104811108C0C092FD03D092FE03BB
:1040E000E092FF03F092000400E09E012B583F4F46
:1040F00044E050E069EF73E0CE0189589F4F0E9481
:1041000089959E012B583F4F44E050E065EF73E0E6
:10411000CE0189589F4F0E94899500E09E012B583F
:104120003F4F42E050E0BE016F587F4FCE018958AB
:104130009F4F0E9489959E012B583F4F41E050E0D0
:10414000BE016F577F4FCE0189589F4F0E948995BE
:1041500019E0115000E09E012B583F4F112359F0F8
:1041600044E050E0BE0167597F4FCE0189589F4F10
:104170000E948995EECF41E050E068E973E0CE01FE
:1041800089589F4F0E94899510E000E09E012B58AE
:104190003F4F44E050E0BE0167597F4FCE01895840
:1041A0009F4F0E94899580910104811110C01111C7
:1041B0000EC0AD964CAD5DAD6EAD7FADAD9740938D
:1041C00094035093950360939603709397031F5F36
:1041D0001530D9F681110AC064E670E080E090E005
:1041E0000E9433840E94AB900E945F1300E09E0106
:1041F0002B583F4F46E150E0BE016F5F7F4FCE012D
:1042000089589F4F0E9489958091010481112CC08B
:1042100069817A816115710511F460E273E08CEDBA
:104220009DE00E94F6716B817C816115710511F42E
:1042300060E273E083E69DE00E94F6716D817E810D
:104240006115710511F460E273E08AEE9CE00E9452
:10425000F6716B857C856115710511F460E273E080
:1042600081E79CE00E94F6711CE0115000E09E0185
:104270002B583F4F112359F044E050E0BE01675ADC
:104280007F4FCE0189589F4F0E948995EECF46E01F
:1042900050E0BE016D5A7F4FCE0189589F4F0E945A
:1042A00089958091010481110EC064966FAD649769
:1042B0008CED9DE00E943F8666966FAD669783E623
:1042C0009DE00E943F8600E09E012B583F4F44E056
:1042D00050E0BE0167597F4FCE0189589F4F0E9421
:1042E00089959E012B583F4F4CE050E0BE01695B21
:1042F0007F4FCE0189589F4F0E9489951CE1115034
:1043000011F414E01DC000E09E012B583F4F44E023
:1043100050E0BE0167597F4FCE0189589F4F0E94E0
:104320008995EDCF00E09E012B583F4F44E050E0CF
:10433000BE0167597F4FCE0189589F4F0E948995D2
:10434000115081F71BE0115079F000E09E012B58CD
:104350003F4F44E050E0BE0167597F4FCE0189587E
:104360009F4F0E948995EFCFE9968EAD9FADE9975B
:1043700084569109D9DA8093C60A8823F1F0E8E7D8
:10438000FBE184918F010F5F1F4F882321F00E9472
:10439000AB59F801F6CFE9966EAD7FADE99764565B
:1043A000710983EC9FE0E1D96FE872E08BEB9FE04D
:1043B000DCD98AE00E94AB5986C0E7962EAD3FADAE
:1043C000E797EB968EAD9FADEB972817390709F469
:1043D00041C081E08093C60AEEE7FBE184918F0142
:1043E0000F5F1F4F811103C0EBE9FFE004C00E9483
:1043F000AB59F801F3CF84918F010F5F1F4F8823D2
:1044000021F00E94AB59F801F6CFEB968EAD9FAD2F
:10441000EB970E947F71E6E9FFE084918F010F5FC7
:104420001F4F882321F00E94AB59F801F6CFE79681
:104430008EAD9FADE7970E947F71E6E8FFE0849123
:104440008F010F5F1F4F882309F43DC00E94AB59B5
:10445000F801F5CF8091010481113FC0E8E7FBE14D
:1044600084918F010F5F1F4F811103C00FED12E088
:1044700004C00E94AB59F801F3CFF80181918F017C
:10448000882319F00E94AB59F8CFE9966EAD7FAD45
:10449000E9976456710989E69FE067D9E7964EADC2
:1044A0005FADE79760E070E08CE59FE024D9E9E537
:1044B000FFE084918F010F5F1F4F882321F00E943E
:1044C000AB59F801F6CF80910104811106C08091AB
:1044D000C60A811102C00E944A960FB6F8943EBEE9
:1044E0000FBE2DBE80910104811102C00E942B7C61
:1044F0009091C60A81E089270FB6F8949EBE0FBE40
:104500008DBECB57DF4F0FB6F894DEBF0FBECDBFC9
:10451000DF91CF911F910F91FF90EF90DF90CF909F
:10452000BF90AF909F908F907F906F905F904F90D3
:104530003F902F90089581E08093010416DA109245
:104540000104811112CA0E94CA8081E008958F92ED
:104550009F92AF92BF92CF92DF92EF92FF920F9312
:104560001F93CF93DF93CDB7DEB7C65AD1090FB6ED
:10457000F894DEBF0FBECDBFE9961CAE1DAE1EAED9
:104580001FAEE99780910C0390910D03A0910E034B
:10459000B0910F03ED968CAF9DAFAEAFBFAFED976F
:1045A000C956DF4F19821882C759D04084E690E07F
:1045B000C756DF4F99838883C959D0401092C60AE5
:1045C0009E0129563F4F44E050E0BE0167587F4F9F
:1045D000CE0187569F4F0E94D695C756DF4F8881E0
:1045E0009981C959D0400296C756DF4F9983888375
:1045F000C959D040C956DF4F19821882C759D040D7
:1046000081E0C156DF4F8883CF59D0409E012956A3
:104610003F4F41E050E0BE0161567F4FCE018756CB
:104620009F4F0E94D6959E0129563F4F40E150E092
:1046300069E973E0CE0187569F4F0E94D6959E018F
:1046400029563F4F44E050E06FED73E0CE018756AE
:104650009F4F0E94D6959E0129563F4F40E150E062
:1046600062E873E0CE0187569F4F0E94D6959E0167
:1046700029563F4F40E150E069EA73E0CE0187568A
:104680009F4F0E94D6959E0129563F4F44E050E02F
:1046900061EC73E0CE0187569F4F0E94D6959E0134
:1046A00029563F4F44E050E069EB73E0CE01875656
:1046B0009F4F0E94D6959E0129563F4F44E050E0FF
:1046C0006DEB73E0CE0187569F4F0E94D6959E01F9
:1046D00029563F4F44E050E06BED73E0CE01875622
:1046E0009F4F0E94D6959E0129563F4F44E050E0CF
:1046F00067ED73E0CE0187569F4F0E94D6959E01CD
:1047000029563F4F40E150E067EC73E0CE018756F9
:104710009F4F0E94D6958AE097EDA3EABCE3E99605
:104720008CAF9DAFAEAFBFAFE9979E0129563F4F0B
:1047300044E050E0BE016B587F4FCE0187569F4F3B
:104740000E94D6959E0129563F4F4CE050E063EE03
:1047500073E0CE0187569F4F0E94D69580E090E08F
:10476000A0E2B1E4C358DF4F88839983AA83BB8357
:10477000CD57D0409E0129563F4F44E050E0BE0146
:1047800063587F4FCE0187569F4F0E94D695E9967A
:104790001CAE1DAE1EAE1FAEE99783E0C056DF4FC4
:1047A0008883C05AD040CF55DF4F8883C15AD0404C
:1047B0009E0129563F4F44E050E0BE016B587F4FA9
:1047C000CE0187569F4F0E94D6959E0129563F4F96
:1047D00041E050E0BE0160567F4FCE0187569F4FAB
:1047E0000E94D6959E0129563F4F41E050E0BE0100
:1047F0006F557F4FCE0187569F4F0E94D6951AE086
:1048000011509E0129563F4F44E050E0112349F0DA
:10481000BE016B587F4FCE0187569F4F0E94D695A1
:10482000EFCF66E37CE0CE0187569F4F0E94D6957E
:104830009E0129563F4F44E250E06AE57EE0CE01FA
:1048400087569F4F0E94D69583E0CE55DF4F8883D1
:10485000C25AD040CD55DF4F8883C35AD040CF577E
:10486000DF4F188219821A821B82C158D040CB5761
:10487000DF4F188219821A821B82C558D040E996F0
:104880001CAE1DAE1EAE1FAEE9979E0129563F4FCE
:1048900041E050E0BE016E557F4FCE0187569F4FDD
:1048A0000E94D6959E0129563F4F41E050E0BE013F
:1048B0006D557F4FCE0187569F4F0E94D6959E0122
:1048C00029563F4F44E050E0BE016B577F4FCE0169
:1048D00087569F4F0E94D6959E0129563F4F44E030
:1048E00050E0BE016F577F4FCE0187569F4F0E9409
:1048F000D6950AE010E00150110971F09E01295689
:104900003F4F44E050E0BE016B587F4FCE018756C9
:104910009F4F0E94D695EFCFCC55DF4F1882C45AD7
:10492000D0408FEFCB55DF4F8883C55AD0409E01D2
:1049300029563F4F41E050E0BE016C557F4FCE01FC
:1049400087569F4F0E94D6959E0129563F4F41E0C2
:1049500050E0BE016B557F4FCE0187569F4F0E949E
:10496000D69580918B0290918C02A0918D02B0918E
:104970008E02C757DF4F88839983AA83BB83C958A8
:10498000D04080918F0290919002A0919102B091BD
:104990009202C357DF4F88839983AA83BB83CD5884
:1049A000D040CF56DF4F19821882C159D040CD5622
:1049B000DF4F19821882C359D0409E0129563F4FBC
:1049C00044E050E0BE0167577F4FCE0187569F4FAE
:1049D0000E94D6959E0129563F4F44E050E0BE010B
:1049E00063577F4FCE0187569F4F0E94D6959E01F9
:1049F00029563F4F44E050E0BE016F567F4FCE0135
:104A000087569F4F0E94D69510E0C12C80E8D82E83
:104A10008BE3E82E85E4F82E812C912C90E8A92ECA
:104A20009FE3B92E111138C09E0129563F4F44E033
:104A300050E06CE47FE0CE0187569F4F0E94D695F0
:104A40009E0129563F4F44E050E068E47FE0CE01EC
:104A500087569F4F0E94D6959E0129563F4F44E0AE
:104A600050E060E57FE0CE0187569F4F0E94D695CB
:104A7000E9968CAE9DAEAEAEBFAEE9979E012956CB
:104A80003F4F44E050E0BE016B587F4FCE01875648
:104A90009F4F0E94D6952AC0E996CCAEDDAEEEAE11
:104AA000FFAEE9979E0129563F4F44E050E0BE011A
:104AB0006B587F4FCE0187569F4F0E94D695E9963F
:104AC0001CAE1DAE1EAE1FAEE99704E0015071F0A2
:104AD0009E0129563F4F44E050E0BE016B587F4F86
:104AE000CE0187569F4F0E94D695F0CF1F5F15309D
:104AF00009F098CF84E190E0C556DF4F9983888311
:104B0000CB59D0409E0129563F4F42E050E0BE01B4
:104B100065567F4FCE0187569F4F0E94D6959E01C6
:104B200029563F4F44E050E06DEF73E0CE018756C9
:104B30009F4F0E94D6959E0129563F4F44E050E07A
:104B400069EF73E0CE0187569F4F0E94D6959E0174
:104B500029563F4F44E050E065EF73E0CE018756A1
:104B60009F4F0E94D69580E290E0C356DF4F998315
:104B70008883CD59D0409E0129563F4F42E050E0F6
:104B8000BE0163567F4FCE0187569F4F0E94D69538
:104B9000CA55DF4F1882C65AD04080E2E3E9F2E0FE
:104BA000DE019D9601900D928A95E1F79E012956AE
:104BB0003F4F41E050E0BE016A557F4FCE0187561E
:104BC0009F4F0E94D6959E0129563F4F40E250E0EC
:104BD000BE01635D7F4FCE0187569F4F0E94D695E1
:104BE0009E0129563F4F41E050E068E973E0CE0155
:104BF00087569F4F0E94D69510E011110EC08091EC
:104C0000940390919503A0919603B0919703E99630
:104C10008CAF9DAFAEAFBFAFE9979E0129563F4F16
:104C200044E050E0BE016B587F4FCE0187569F4F46
:104C30000E94D6951F5F153001F7FE01E35BFF4F21
:104C400086E1DF011D928A95E9F78091520E9091DD
:104C5000530E918380838091D90D9091DA0D9383C7
:104C600082838091600D9091610D95838483809102
:104C7000E70C9091E80C938782879E0129563F4F5D
:104C800046E150E0BF01CE0187569F4F0E94D69566
:104C90008CE2E3EBF2E0DE01119601900D928A9531
:104CA000E1F79E0129563F4F4CE250E0BE016F5F95
:104CB0007F4FCE0187569F4F0E94D6958E01015996
:104CC0001F4F86E0F80111928A95E9F78CED9DE07F
:104CD0000E942D86082E000C990BD8018D939C9371
:104CE00083E69DE00E942D86082E000C990BF801AA
:104CF000938382839E0129563F4F46E050E0B801DE
:104D0000CE0187569F4F0E94D695E9961CAE1DAEE8
:104D10001EAE1FAEE9979E0129563F4F44E050E07A
:104D2000BE016B587F4FCE0187569F4F0E94D6958C
:104D3000BE016D597F4F8CE0DB011D928A95E9F72A
:104D40009E0129563F4F4CE050E0CE0187569F4FC1
:104D50000E94D695E9961CAE1DAE1EAE1FAEE99719
:104D60001CE1115071F09E0129563F4F44E050E084
:104D7000BE016B587F4FCE0187569F4F0E94D6953C
:104D8000F0CFE9961CAE1DAE1EAE1FAEE99714E043
:104D9000115071F09E0129563F4F44E050E0BE0192
:104DA0006B587F4FCE0187569F4F0E94D695F0CF0C
:104DB000E9961CAE1DAE1EAE1FAEE9971BE011506A
:104DC00071F09E0129563F4F44E050E0BE016B5800
:104DD0007F4FCE0187569F4F0E94D695F0CF80918E
:104DE000C60A811167C0C756DF4FE880F980C959EC
:104DF000D040B4E6EB1AF108C956DF4F888199819B
:104E0000C759D040CB56DF4F99838883C559D040CE
:104E100084E690E0C756DF4F99838883C959D04014
:104E20009E0129563F4F44E050E06FED72E0CE0105
:104E300087569F4F0E94D6959E0129563F4F42E0CC
:104E400050E0BE016B567F4FCE0187569F4F0E94A8
:104E5000D695E8E7FBE184918F010F5F1F4F882310
:104E600021F00E94AB59F801F6CFB70187E49FE02B
:104E70000E94B51BCB56DF4F48815981C559D040A0
:104E800060E070E08AE39FE00E947B1BE7E3FFE0C5
:104E900084918F010F5F1F4F882321F00E94AB592F
:104EA000F801F6CFC7010E94941C9091C60A892B85
:104EB0008093C60A9091C60A81E08927CA55DF4FC0
:104EC0000FB6F894DEBF0FBECDBFDF91CF911F911B
:104ED0000F91FF90EF90DF90CF90BF90AF909F9099
:104EE0008F900895CF93C82F482F60E08CED9DE000
:104EF0000E941F7B4C2F61E083E69DE00E941F7B98
:104F00004C2F62E08AEE9CE00E941F7B4C2F65E0F4
:104F100081E79CE00E941F7B8AE0CF910C94AB5903
:104F2000EF92FF920F931F93CF93C82F82E8E82E42
:104F300083E0F82EF70100811181228133814C2F0B
:104F400060E08CED9DE00E945D5DF70104811581BC
:104F5000268137814C2F61E083E69DE00E945D5DF4
:104F6000F70100851185228533854C2F62E08AEE9A
:104F70009CE00E945D5DF7010085118522853385E7
:104F80004C2F65E081E79CE00E945D5D8AE0CF9157
:104F90001F910F91FF90EF900C94AB59FF920F93DC
:104FA0001F93CF93DF938C01EB01F42E80E20E94DC
:104FB000AB598FEFF81611F084E501C082E40E942E
:104FC000AB598AE30E94AB59F801608171818281FB
:104FD000938142E00E94C25C488159816A817B8151
:104FE00086EB91E10E94981B62E070E080E090E027
:104FF000DF91CF911F910F91FF900C943384CF9349
:10500000DF93E1E9F3E18491EF012196882321F018
:105010000E94AB59FE01F7CF80E082DFE8E8F3E1C0
:105020008491EF012196882321F00E94AB59FE0163
:10503000F7CF81E075DFECE7F3E18491EF01219692
:10504000882321F00E94AB59FE01F7CF82E068DF90
:10505000E0E7F3E18491EF012196882321F00E949B
:10506000AB59FE01F7CF83E05BDFE4E6F3E1849127
:10507000EF012196882321F00E94AB59FE01F7CF62
:1050800084E04EDFE8E5F3E18491EF012196882387
:1050900021F00E94AB59FE01F7CF85E041DFEBE440
:1050A000F3E18491EF012196882321F00E94AB590E
:1050B000FE01F7CF86E034DFE0E4F3E18491EF0115
:1050C0002196882321F00E94AB59FE01F7CF87E09B
:1050D00027DFE5E3F3E18491EF012196882321F0B6
:1050E0000E94AB59FE01F7CF88E01ADFEDE2F3E151
:1050F0008491EF012196882321F00E94AB59FE0193
:10510000F7CF89E00DDFE1E2F3E18491EF01219631
:10511000882321F00E94AB59FE01F7CF8AE000DF1F
:10512000E9E1F3E18491EF012196882321F00E94C7
:10513000AB59FE01F7CF8BE0F3DEE2E1F3E18491BE
:10514000EF012196882321F00E94AB59FE01F7CF91
:105150008CE0E6DEE3E0F3E18491EF012196882321
:1051600021F00E94AB59FE01F7CF8DE0D9DEEBEFC5
:10517000F2E18491EF012196882321F00E94AB593E
:10518000FE01F7CF8EE0CCDEE0EFF2E18491EF019B
:105190002196882321F00E94AB59FE01F7CF8FE0C2
:1051A000BFDEE2EDF2E18491EF012196882321F048
:1051B0000E94AB59FE01F7CF80E1B2DEE8ECF2E1EC
:1051C0008491EF012196882321F00E94AB59FE01C2
:1051D000F7CF81E1A5DEEDEBF2E18491EF012196BD
:1051E000882321F00E94AB59FE01F7CF82E198DEBF
:1051F000ECEAF2E18491EF012196882321F00E94EC
:10520000AB59FE01F7CF83E18BDEE4EAF2E1849152
:10521000EF012196882321F00E94AB59FE01F7CFC0
:1052200084E17EDEE4E9F2E18491EF0121968823B6
:1052300021F00E94AB59FE01F7CF85E171DEEAE86B
:10524000F2E18491EF012196882321F00E94AB596D
:10525000FE01F7CF80E046DEEEE7F2E18491EF0158
:105260002196882321F00E94AB59FE01F7CF88E0F8
:1052700039DEE3E7F2E18491EF012196882321F002
:105280000E94AB59FE01F7CF8BE02CDEE9E6F2E19C
:105290008491EF012196882321F00E94AB59FE01F1
:1052A000F7CF8AE01FDEE3E6F2E18491EF01219679
:1052B000882321F00E94AB59FE01F7CF81E012DE76
:1052C000EEE5F2E18491EF012196882321F00E941E
:1052D000AB59FE01F7CF82E005DEE9E5F2E184910A
:1052E000EF012196882321F00E94AB59FE01F7CFF0
:1052F00083E0F8DDE3E5F2E18491EF012196882374
:1053000021F00E94AB59FE01F7CF84E0EBDDEDE424
:10531000F2E18491EF012196882321F00E94AB599C
:10532000FE01F7CF85E0DEDDE7E4F2E18491EF01F5
:105330002196882321F00E94AB59FE01F7CF86E029
:10534000D1DDE3E4F2E18491EF012196882321F09D
:105350000E94AB59FE01F7CF87E0C4DDE1E3F2E143
:105360008491EF012196882321F00E94AB59FE0120
:10537000F7CF8CE0B7DD8AE0DF91CF910C94AB5989
:10538000CF93DF93880F990BFC01EE53FE4E2591CE
:105390003491F9018491EF012196882321F00E9434
:1053A000AB59FE01F7CFDF91CF9108951F93CF93B3
:1053B000DF93162FE5DFEBE1F2E18491EF01219617
:1053C000882321F00E94AB59FE01F7CF612F110F06
:1053D000770B880B990B0E94A85C8DE00E94AB595B
:1053E0008AE0DF91CF911F910C94AB59CF93DF935B
:1053F000C7DFE4E0F2E18491EF012196882321F0F8
:105400000E94AB59FE01F7CFDF91CF9108951F9312
:10541000CF93DF93162FB4DFE3EEF1E18491EF0138
:105420002196882321F00E94AB59FE01F7CF11117C
:1054300003C0EDEDF1E102C0E8EDF1E18491EF018F
:105440002196882321F00E94AB59FE01F7CF8AE014
:10545000DF91CF911F910C94AB598F929F92AF9295
:10546000BF92CF92DF92EF92FF920F931F93CF9351
:10547000DF93F0E4FF2EE12CAE2DB0E0BD016F0D07
:10548000711D759567956E1511F0F6120BC0E7E169
:10549000F1E165917491072E000C880B990B0E9425
:1054A00034B862C09B0121503109220F331F220FF3
:1054B000331FF901E75EFF4E05911491AB01440FD4
:1054C000551F440F551FFA01E75EFF4EC591D49159
:1054D0008017910714F4F62ED1CFC817D90714F40A
:1054E000E62ECACFF901E55EFF4EE590F490FA0191
:1054F000E55EFF4EC590D490BC01601B710B072E7A
:10550000000C880B990B0E9434B84B015C01B6016A
:105510006E197F09072E000C880B990B0E9434B876
:105520009B01AC01C501B4010E9493B84B015C0121
:10553000C01BD10BBE01DD0F880B990B0E9434B844
:105540009B01AC01C501B4010E94D5BF4B015C01B8
:10555000B701FF0C880B990B0E9434B89B01AC017A
:10556000C501B4010E94F9BEDF91CF911F910F9147
:10557000FF90EF90DF90CF90BF90AF909F908F9073
:1055800008950F931F93CF93DF93CDB7DEB728977E
:105590000FB6F894DEBF0FBECDBF6091630370916C
:1055A0006403072E000C880B990B0E9434B86D839E
:1055B0007E838F8398878091E10A9091E20AA0917F
:1055C000E30AB091E40A89839A83AB83BC834DEFED
:1055D000BE016B5F7F4FCE010196E0DC60916A03F4
:1055E00070916B03072E000C880B990B0E9434B846
:1055F0006D837E838F8398878091DD0A9091DE0A88
:10560000A091DF0AB091E00A89839A83AB83BC83BF
:105610004FEFBE016B5F7F4FCE010196BFDCEEEB1B
:10562000F1E184918F010F5F1F4F882321F00E94C9
:10563000AB59F801F6CFE091F403F0E0E552F54FF5
:10564000608170E080E090E00E94A85CE9EBF1E10D
:1056500084918F010F5F1F4F882321F00E94AB5967
:10566000F801F6CF6091DC0A70E080E090E00E94E3
:10567000A85C28960FB6F894DEBF0FBECDBFDF91B1
:10568000CF911F910F9108950F931F93CF93DF93A5
:1056900080911B028F37A0F08F579091DB0A909377
:1056A000000B992311F02C9A01C02C982091DC0A50
:1056B0002093FF0A90910201222369F090950BC07C
:1056C0009091000B891708F02C989091FF0A891788
:1056D00028F0909102019072909300018F5F809367
:1056E0001B029091FE0A81E089278093FE0A809137
:1056F0001A0285301CF4C1E0C80F01C0C0E082303E
:1057000009F4BCC054F4882301F1813009F0EBC0E6
:1057100088E080937B0085E4C8C0843009F4CDC064
:105720000CF4BFC0853009F0DEC09091FD0A9111E4
:1057300002C08093FD0A8091FD0A81508093FD0A8A
:10574000882309F4D0C0C5E0CEC0809119028F5FD4
:1057500080311CF480931902C6C010921902809106
:10576000D80A811113C08091F30A9091F40A9093A2
:10577000F00A8093EF0A8091F10A9091F20A9093D7
:10578000EE0A8093ED0A81E08093D80A8AE0E3EF85
:10579000FAE0DF011D928A95E9F71092F20A109261
:1057A000F10A0091EF0A1091F00A11950195110983
:1057B0008091630390916403D1E0181619062CF0D0
:1057C0008091DB0A811101C0D0E08091D60A9091CE
:1057D000D70A919581959109801791073CF440E58E
:1057E00051E161E771E180E00E94AB87809117028F
:1057F00090911802919581959109081719074CF419
:10580000DD2339F043E851E164EA71E180E00E9470
:10581000AB8780916A0390916B0311E0181619060B
:105820002CF08091DC0A811101C010E02091ED0A7A
:105830003091EE0A8091D40A9091D50A821793078D
:105840003CF040E651E161E771E18FEF0E94AB87E8
:1058500020911502309116028091ED0A9091EE0A86
:10586000821793070CF43FC01123E9F143E951E19A
:1058700064EA71E18FEF0E94AB8735C080917A00B6
:1058800086FD2EC080917800909179002091F30AD6
:105890003091F40A820F931F9093F40A8093F30AD5
:1058A00022C088E080937B0086E480937C00809116
:1058B0007A00806480937A0016C080917A0086FD19
:1058C00011C080917800909179002091F10A309177
:1058D000F20A820F931F9093F20A8093F10A03C099
:1058E000C2E001C0C4E0C0931A028091D90A90912D
:1058F000DA0A009729F001979093DA0A8093D90A7F
:10590000DF91CF911F910F9108950F930FB70F93D0
:1059100000916E000B7F00936E0078940F930BB78D
:105920000F930CB70F921F922F933F934F935F9358
:105930006F937F938F939F93AF93BF93EF93FF9357
:105940001124A2DEFF91EF91BF91AF919F918F91B2
:105950007F916F915F914F913F912F911F900F9089
:105960000CBF0F910BBF0F910460F89400936E0071
:105970000F910FBF0F9118952F923F924F925F9208
:105980006F927F928F929F92AF92BF92CF92DF924F
:10599000EF92FF920F931F93CF93DF9300D01F924C
:1059A000CDB7DEB75C017A8369834A01170107FD31
:1059B00007C0802F002E000C990B9C838B8304C0A2
:1059C000E1E0F0E0FC83EB83F901408051806280EC
:1059D00073808B819C81880F991F880F991F9C83EE
:1059E0008B838B51954F7C01A3019201FC01608157
:1059F0007181828193810E942EB8882391F0F701F2
:105A0000408251826282738211E020E030E0A9017D
:105A1000C301B2010E9420C118160CF010E0F5017C
:105A20001083F50180818230D1F0833009F45EC0AB
:105A3000813009F07DC0EB81FC81EB51F54F208175
:105A4000318142815381F40160817181828193812E
:105A50000E942EB887FD6CC082E0F50180838B81A7
:105A60009C818B51954F9C838B83B60180E090E0A5
:105A70000E9432B89B01AC01EB81FC816081718195
:105A8000828193810E94F8BE9B01AC01F401608188
:105A90007181828193810E9420C187FD14C00E9480
:105AA0006B846B017C019101A8EEB3E00E94E9BE1A
:105AB000C60ED71EE81EF91EE981FA81C082D18286
:105AC000E282F38235C00E946B84E981FA81C08052
:105AD000D180E280F380DC01CB018C199D09AE09F5
