:100000000C94F0110C9421120C9421120C942112D6
:100010000C9421120C9421120C9421120C94211294
:100020000C9421120C9421120C9421120C94211284
:100030000C9421120C9421120C9421120C94211274
:100040000C9421120C94561D0C9421120C94211224
:100050000C9421120C9421120C94DE2B0C94498FD9
:100060000C9421120C94301C0C9421120C9421122B
:100070000C9421120C9421120C9421120C94211234
:100080000C9483250C9421120C9421120C942112AF
:100090000C9421120C9421120C9421120C94211214
:1000A0000C9421120C9421120C9455250C942112BD
:1000B0000C9421120C9421120C9421120C942725DB
:1000C0000C9421120C9421120C9421120C942112E4
:1000D0000C9421120C9421120C9421120C942112D4
:1000E0000C9421120D642064346439644E645E649F
:1000F00079648D64A465A864A465BC64A465C064C7
:10010000C5641265266538654565646585655B7BF4
:10011000667B6D7B737B797B7F7B857B8B7B0F7CA9
:10012000917B0F7C0F7CA87BEA8CED8CDC8CE08CC7
:10013000E68C248DF18CF58CFB8CFF8C038D098D66
:100140000D8D118D248D178D1B8D1F8D038E088EA7
:100150000D8E178E218E9A8E2B8E338E3B8E458E72
:100160004F8E598E688E728E9A8E7C8E868E908E71
:10017000084AD73B3BCE016E84BCBFFDC12F3D6C0E
:1001800074319ABD56833DDA3D00C77F11BED9E474
:10019000BB4C3E916BAAAABE000000803F05A84C54
:1001A000CDB2D44EB93836A9020C50B99186880820
:1001B0003CA6AAAA2ABE000000803F004E414E493C
:1001C0004E495459494E46CDCCCC3D0AD7233C1715
:1001D000B7D13877CC2B329595E6241FB14F0A0062
:1001E0000020410000C84200401C4620BCBE4CCA52
:1001F0001B0E5AAEC59D7400407A10F35A00A072CF
:100200004E18090010A5D4E80000E8764817000051
:10021000E40B54020000CA9A3B000000E1F505001F
:100220000080969800000040420F000000A0860168
:10023000000000102700000000E803000000006438
:1002400000000000000A00000000000100000000A3
:10025000002C76D888DC674F0823DFC1DFAE59E178
:10026000B1B796E5E3E453C63AE651997696E8E6E7
:10027000C28426EB898C9B62ED407C6FFCEFBC9CBA
:100280009F40F2BAA56FA5F490055A2AF75C936BCC
:100290006CF9676DC11BFCE0E40D47FEF520E6B587
:1002A00000D0ED902E0300943577050080841E0861
:1002B0000000204E0A000000C80C333333330F987F
:1002C0006E12831141EF8D2114893BE65516CFFE46
:1002D000E6DB18D1844B381BF77C1D901DA4BBE4D2
:1002E00024203284725E228100C9F124ECA1E53D14
:1002F00027434F4D4D554E49434154494F4E0044BD
:10030000525952554E004552524F525300494E4693
:100310004F004543484F0047322F47332062616406
:1003200020706172616D65746572730A00486F6D4B
:10033000652058592066697273740A00205A3A2061
:100340000020593A200042656420583A200050723B
:10035000696E742074696D653A200012030D0306FE
:1003600003FF02F1026F66660044454255473A00BA
:100370004B494C4C45442E20004D31313320530025
:100380006F6B0050533A310A0050533A300A005410
:100390004845524D414C5F50524F54454354494F8C
:1003A0004E004155544F5245504F52545F53445F95
:1003B00053544154555300454D455247454E4359BA
:1003C0005F50415253455200434153455F4C4947AA
:1003D00048545F4252494748544E45535300544F86
:1003E00047474C455F4C494748545300534F465488
:1003F000574152455F504F574552004255494C4472
:100400005F50455243454E54004C4556454C494E6D
:10041000475F44415441005A5F50524F42450041AA
:1004200055544F4C4556454C005052494E545F4A26
:100430004F420050524F4752455353004155544F7D
:100440005245504F52545F54454D5000564F4C55F5
:100450004D455452494300454550524F4D00534578
:100460005249414C5F584F4E5F584F4646004649EF
:10047000524D574152455F4E414D453A4D61726C68
:10048000696E20312E312E392028476974687562D3
:100490002920534F555243455F434F44455F5552C2
:1004A0004C3A68747470733A2F2F67697468756278
:1004B0002E636F6D2F4D61726C696E4669726D7738
:1004C0006172652F4D61726C696E2050524F544FAE
:1004D000434F4C5F56455253494F4E3A312E3020D0
:1004E0004D414348494E455F545950453A52616D1C
:1004F00070735F312E362045585452554445525F33
:10050000434F554E543A3120555549443A64656439
:1005100033303464392D343866612D346130622DC6
:10052000623533392D3432386664326131376332A3
:10053000330A002F2F200020540020520041636313
:10054000656C65726174696F6E3A2050000000003E
:1005500000000050C100000000546F6F20666172FF
:100560002066726F6D207265666572656E636520C8
:10057000706F696E740A00FFFFFF20466C6F773A58
:100580002000000136372603FFFFFF353C3D380EC3
:10059000FFFFFF312E303E12FFFFFFFF28FF0C0848
:1005A00009FFFFFF1A1C18FFFF2A08440AFF432413
:1005B000221E2C206F7574206F662072616E676535
:1005C0000A00536572766F20003A2000205365724E
:1005D000766F200043290A0061626C656420286DF3
:1005E000696E2074656D702000436F6C64206578BF
:1005F00074727564657320617265200020643A002E
:1006000020693A0020703A004E6F206361736520C4
:100610006C696768740A00426564204C6576656C95
:10062000696E6720004661696C656420746F20659F
:100630006E61626C6520426564204C6576656C690C
:100640006E670A00426564204C6576656C20436FD6
:100650007272656374696F6E204D61747269783A65
:1006600000454550524F4D204F4B0A003F5A206FD6
:100670007574206F662072616E676520282D323098
:1006800020746F203230290A003A200050726F62C5
:1006900065205A204F666673657400617869733A05
:1006A00070776D5F7363616C65207C7374617475C2
:1006B000735F726573706F6E73657C0A004163745B
:1006C0006976652045787472756465723A200049D0
:1006D0006E76616C69642065787472756465720AFF
:1006E000006F6B00205A3A0020593A0020583A0017
:1006F000656E6473746F7073206869743A200025A6
:1007000069730025696D20256973002569682025B6
:10071000696D202569730025696420256968202595
:10072000696D202569730025697920256964202574
:1007300069682025696D2025697300656E7175658E
:100740007565696E672022004B494C4C45442E204C
:10075000005072696E7465722073746F7070656496
:100760002064756520746F206572726F72732E201D
:1007700046697820746865206572726F7220616EB8
:100780006420757365204D39393920746F20726586
:1007900073746172742E202854656D706572617473
:1007A0007572652069732072657365742E205365B8
:1007B0007420697420616674657220726573746157
:1007C0007274696E67290A004E6F20436865636B17
:1007D00073756D2077697468206C696E65206E751D
:1007E0006D6265722C204C617374204C696E653AA1
:1007F0002000636865636B73756D206D69736D614F
:100800007463682C204C617374204C696E653A20C7
:10081000004C696E65204E756D62657220697320AB
:100820006E6F74204C617374204C696E65204E7538
:100830006D6265722B312C204C617374204C696E93
:10084000653A20004D3131300020496E76616C6987
:100850006420657874727564657220000000000081
:10086000000050C1000000000000AF430080A8431A
:1008700000009B435072696E7465722073746F70D0
:100880007065642064756520746F206572726F7284
:10089000732E2046697820746865206572726F72C5
:1008A00020616E6420757365204D39393920746F6D
:1008B00020726573746172742E202854656D7065A2
:1008C0007261747572652069732072657365742E28
:1008D00020536574206974206166746572207265A6
:1008E0007374617274696E67290A0053544F502003
:1008F00063616C6C65642062656361757365206F0C
:100900006620424C546F756368206572726F722066
:100910002D20726573746172742077697468204D3C
:100920003939390A00486F6D696E67206661696CF4
:1009300065640024F4D43050C38E20C2A2401782D4
:100940008B7011127A910D816CD90AA861E108C7E8
:10095000586607615143061E4B5D05C145A7041A41
:10096000411104093D9803713931034036DB0265BA
:10097000339102D4305402802E1D02632CEE017597
:100980002AC501B028A001102781018F2564012B01
:10099000244B01E0223401AC211F018D200D018088
:1009A0001FFC00841EED00971DDF00B81CD200E67E
:1009B0001BC600201BBC00641AB200B219A8000AB2
:1009C00019A0006A189900D117910040178B00B543
:1009D00016840031167E00B31579003A157300C7EE
:1009E000146F0058146A00EE136600881363002524
:1009F000135E00C7125B006C12570015125400C141
:100A000011510070114F0021114B00D61049008D7B
:100A10001047004610440002104200C00F40008002
:100A20000F3E00420F3C00060F3B00CB0E380093F8
:100A30000E37005C0E3500270E3400F30D3200C176
:100A40000D3100900D3000600D2E00320D2D00058F
:100A50000D2C00D90C2B00AE0C2900850C29005C54
:100A60000C2700350C27000E0C2600E80B2400C4D0
:100A70000B2400A00B23007D0B23005A0B2100390F
:100A80000B2100180B2000F80A1F00D90A1E00BB1A
:100A90000A1E009D0A1D00800A1D00630A1C0047F3
:100AA0000A1B002C0A1B00110A1A00F7091A00DDA4
:100AB000091900C4091900AB091900920917007B34
:100AC000091800630917004C0916003609160020A2
:100AD0000916000A091500F5081500E0081400CCF5
:100AE000081400B8081400A4081400900813007D2E
:100AF0000812006B08130058081200460812003450
:100B0000081100230811001208110001081100F05B
:100B1000071000E0071000D0071000C0071000B059
:100B2000070F00A107100091070E0083070F007444
:100B3000070F0065070E0057070E0049070E003B20
:100B4000070D002E070E0020070D0013070D0006ED
:100B5000070D00F9060C00ED060D00E0060C00D4B0
:100B6000060C00C8060C00BC060C00B0060C00A465
:100B7000060B0099060C008D060B0082060B007711
:100B8000060B006C060B0061060A0057060B004CB2
:100B9000060A0042060A0038060A002E060A002449
:100BA000060A001A060A001006090007060A00FDD8
:100BB000050900F4050900EB050900E2050900D963
:100BC000050900D0050900C7050900BE050900B5E3
:100BD000050800AD050800A50509009C050800945E
:100BE0000508008C050800840508007C05080074D1
:100BF0000508006C050700650508005D050700563F
:100C00000508004E050700470507004005080038A5
:100C1000050700310507002A050700230507001C0A
:100C2000050600160507000F050700080506000267
:100C3000050700FB040600F5040700EE040600E8C3
:100C4000040600E2040700DB040600D5040600CF1A
:100C5000040600C9040600C3040600BD040600B76C
:100C6000040600B1040500AC040600A6040600A0BA
:100C70000405009B04060095040500900406008A04
:100C800004050085040500800406007A040500754B
:100C9000040500700405006B04050066040500618E
:100CA0000405005C04050057040500520405004DCE
:100CB00004050048040500430405003E0404003A0E
:100CC00004050035040500300404002C0405002749
:100CD000040400230405001E0404001A0404001682
:100CE000040500110404000D0404000904050004B7
:100CF00004040000040400FC030400F8030400F4EE
:100D0000030400F0030400EC030400E8030400E41F
:100D1000030400E0030400DC030400D8030400D44F
:100D2000030400D0030400CC030400C8030300C57F
:100D300003030024F404D9201BC40C5C0E9804C4E3
:100D4000095F0265077101F405F900FB04B300486F
:100D5000048700C10369005803550003034500BE22
:100D6000023A008402310053022A002902250004BD
:100D7000022000E4011C00C8011900AF011700980F
:100D80000114008401130071011000610110005171
:100D9000010E0043010D0036010B002B010B00205A
:100DA000010B00150109000C01090003010800FBFB
:100DB000000800F3000800EB000700E4000600DE76
:100DC000000600D8000600D2000600CC000500C7CF
:100DD000000500C2000500BD000400B9000400B514
:100DE000000400B1000400AD000400A9000400A547
:100DF000000300A20003009F0004009B0003009872
:100E00000003009500020093000300900003008D92
:100E10000002008B000300880002008600020084AC
:100E2000000300810002007F0002007D0002007BC1
:100E300000020079000200770001007600020074D1
:100E400000020072000100710002006F0002006DDC
:100E50000001006C0002006A0001006900020067E6
:100E600000010066000100650001006400020062EC
:100E700000010061000100600001005F0002005DF0
:100E80000001005C0001005B0001005A00010059F4
:100E900000010058000100570001005600010055F4
:100EA00000010054000100530000005300010052F3
:100EB00000010051000100500001004F0001004EF0
:100EC0000000004E0001004D0001004C0001004BED
:100ED0000000004B0001004A0001004900010048E9
:100EE00000000048000100470001004600000046E5
:100EF00000010045000000450001004400010043DE
:100F000000000043000100420000004200010041D7
:100F100000000041000100400001003F0000003FD0
:100F20000001003E0000003E0001003D0000003DC9
:100F30000001003C0000003C0000003C0001003BC0
:100F40000000003B0001003A0000003A00010039B7
:100F500000000039000100380000003800000038AF
:100F600000010037000000370001003600000036A5
:100F7000000000360001003500000035000000359B
:100F80000001003400000034000000340001003390
:100F90000000003300000033000100320000003286
:100FA000000000320001003100000031000000317B
:100FB0000001003000000030000000300001002F70
:100FC0000000002F0000002F0000002F0001002E65
:100FD0000000002E0000002E0001002D0000002D5A
:100FE0000000002D0000002D0001002C0000002C4E
:100FF0000000002C0000002C0001002B0000002B42
:101000000000002B0000002B0001002A0000002A35
:101010000000002A0000002A000100290000002929
:10102000000000290000002900000029000100281C
:101030000000002800000028000000280000002810
:101040000001002700000027000000270000002703
:1010500000000027000100260000002600000026F6
:1010600000000026000000260001002500000025E9
:1010700000000025000000250000002500000025DC
:1010800000010024000000240000002400000024CF
:1010900000000024000100230000002300000023C2
:1010A00000000023000000230000002300000023B4
:1010B00000010022000000220000002200000022A7
:1010C0000000002200000022000100210000002199
:1010D000000000210000002100000021000000218C
:1010E000000000210001002000000020000000207E
:1010F0000000002000000020000000200000002070
:10110000000000200001001F0000001F0000001F61
:101110000000001F0000001F0000001F0000001F53
:101120000001001E0000001E0000001E0000001E46
:10113000000000043700001E290000511B00005869
:1011400010000010090000CC0400007802000041EB
:10115000010000453400453300453200453100456B
:1011600030005A32005932005832005A00590058A3
:101170000070012C0190012701B0012201C0011D66
:1011800001F00118011002130130020E0160020982
:101190000190020401C002FF000003FA004003F5C1
:1011A000008003F000D003EB002004E6007004E1AF
:1011B00000E004DC004005D700C005D2004006CDA9
:1011C00000D006C8008007C3003008BE00F008B990
:1011D00000C009B400B00AAF00B00BAA00D00CA543
:1011E00000000EA000500F9B00C0109600501291FE
:1011F0000000148C00C0158700B0178200B0197D64
:1012000000D01B7800001E730040206E0090226901
:1012100000F024640040275F0090295A00E02B551D
:1012200000102E500020304B0010324600E03341B9
:101230000090353C001037370070383200A0392D4F
:1012400000B03A2800A03B2300603C1E00103D196E
:1012500000903D1400103E0F00703E0A00C03E0595
:1012600000003F0000403FFBFF803FF6FFC03FF122
:10127000FF453120544845524D414C2052554E4176
:101280005741590042454420544845524D414C2055
:1012900052554E4157415900546865726D616C203A
:1012A00052756E61776179004531204572723A203E
:1012B0004D415854454D50004572723A204D4158A9
:1012C00054454D5020424544004D415854454D50E1
:1012D00020747269676765726564004531204572E4
:1012E000723A204D494E54454D50004572723A2095
:1012F0004D494E54454D5020424544004D494E54B1
:10130000454D502074726967676572656400202FCF
:10131000002042403A0020403A006F116D116B11DD
:101320006811651162115F115C1159115611531149
:10133000747275650066616C7365002074656D700C
:1013400065726174757265207072657761726E2066
:101350007472696767657265643A2000207072650F
:101360007761726E20666C616720636C656172657F
:10137000640A0020686F6D696E672073656E73691B
:101380007469766974793A200044726976657220CE
:101390007265676973746572733A006F7409006FE0
:1013A00074707709007332676109007332676209EC
:1013B000006F6C6109006F6C6209007374737409CB
:1013C000006673616374697665090073675F7265AF
:1013D00073756C7409007374616C6C677561726409
:1013E0000900445256535441545553005374616C90
:1013F0006C67756172642074687273002D73746118
:1014000072740900687973746572657369730A2D63
:10141000656E640900626C616E6B2074696D6500B5
:101420006F66662074696D6509004F54207072659F
:101430007761726E206861730A6265656E207472EE
:1014400069676765726564004F54207072657761E3
:10145000726E005B6D6D2F735D090070776D0A749D
:1014600068726573686F6C640900747374657009E1
:10147000006D73746570730900737465616C7468D2
:1014800043686F70007673656E7365090050574D41
:10149000207363616C650900435320616374756157
:1014A0006C0900486F6C642063757272656E74001D
:1014B00052756E2063757272656E74004D415820CE
:1014C00063757272656E7400524D5320637572724B
:1014D000656E74005365742063757272656E740076
:1014E000456E61626C6564090009000A0A42656420
:1014F000204C6576656C20436F7272656374696F0A
:101500006E204D61747269783A00202B000A436F97
:10151000727265637465642042656420486569671A
:1015200068742076732E2042656420546F706F6C4F
:101530006F67793A0A00202B000A426564204865EB
:101540006967687420546F706F6772617068793A68
:101550000A2020202B2D2D2D204241434B202D2DC4
:101560002B0A2020207C202020202020202020202A
:10157000207C0A204C207C20202020282B29202081
:1015800020207C20520A2045207C20202020202062
:1015900020202020207C20490A2046207C20282D45
:1015A00029204E20282B29207C20470A2054207CEB
:1015B00020202020202020202020207C20480A20BD
:1015C00020207C20202020282D29202020207C2045
:1015D000540A2020207C2020202020202020202091
:1015E000207C0A2020204F2D2D2046524F4E542083
:1015F0002D2D2B0A2028302C30290A004D65616ED4
:10160000206F662073616D706C656420706F696E09
:1016100074733A200020643A200020623A2000458A
:10162000716E20636F656666696369656E74733A8F
:1016300020613A2000202844525952554E29004733
:101640003239204175746F20426564204C6576659F
:101650006C696E67003F20284C2C522C462C422986
:10166000206F7574206F6620626F756E64732E0A2A
:10167000003F50726F626520706F696E747320282E
:10168000592920697320696D706C61757369626C8A
:10169000652028322D32292E0A003F50726F626574
:1016A00020706F696E74732028582920697320692F
:1016B0006D706C61757369626C652028322D3229FA
:1016C0002E0A003F2856296572626F7365206C658B
:1016D00076656C20697320696D706C6175736962E1
:1016E0006C652028302D34292E0A002C20002C2057
:1016F0000050726F7465637465642050696E0A00EF
:1017000020573A0020746F6F206C6F6E67206578E9
:1017100074727573696F6E2070726576656E74652C
:10172000640A0020636F6C64206578747275736955
:101730006F6E2070726576656E7465640A00207441
:101740006F6F206C6F6E6720657874727573696F48
:101750006E2070726576656E7465640A0020636F32
:101760006C6420657874727573696F6E2070726531
:1017700076656E7465640A00627573793A207061EB
:101780007573656420666F7220696E7075740A00E7
:10179000627573793A2070617573656420666F7243
:1017A00020757365720A00627573793A2070726FE2
:1017B00063657373696E670A004B494C4C45442E50
:1017C00020004B494C4C206361757365642062793D
:1017D00020746F6F206D75636820696E6163746932
:1017E00076652074696D65202D2063757272656E53
:1017F0007420636F6D6D616E643A20005072696E83
:101800007465722068616C7465642E206B696C6C01
:1018100028292063616C6C6564210A002020506CCB
:10182000616E6E6572427566666572427974657343
:101830003A20002046726565204D656D6F72793AD9
:101840002000436F6D70696C65643A204F637420AB
:10185000313620323031380A00207C2041757468DE
:101860006F723A20284261757369323031322C2010
:1018700064656661756C7420636F6E666967290ABA
:1018800000323031382D30382D303100204C61732A
:101890007420557064617465643A2000312E312ED5
:1018A000390A004D61726C696E0020536F6674775F
:1018B0006172652052657365740A00205761746314
:1018C00068646F672052657365740A002042726F06
:1018D000776E206F75742052657365740A00204519
:1018E000787465726E616C2052657365740A00507D
:1018F0006F77657255700A0073746172740A002004
:10190000204D393036003A0A0020286D6D2900201C
:10191000204D3931340020590020580053656E7332
:101920006F726C65737320686F6D696E6720746881
:10193000726573686F6C643A0A00205A002049315E
:1019400000205A00205900205800537465707065BB
:1019500072206472697665722063757272656E7446
:101960003A0A0020204D383531205A005A2D507245
:101970006F6265204F6666736574002044002049DD
:101980000020204D333034205000204400204900F6
:1019900020204D333031205000504944207365746D
:1019A00074696E67733A0A0020204D343230205338
:1019B000004175746F20426564204C6576656C69E2
:1019C0006E673A0A00205A0020590020204D32301C
:1019D00036205800486F6D65206F66667365743AEF
:1019E0000A00204500205A002059002058002054A9
:1019F0000020530020204D32303520510020453C3E
:101A00006D61785F655F6A65726B3E0020583C6D62
:101A100061785F785F6A65726B3E20593C6D6178D2
:101A20005F795F6A65726B3E205A3C6D61785F7AC0
:101A30005F6A65726B3E00416476616E6365643A0D
:101A400020513C6D696E5F7365676D656E745F7480
:101A5000696D655F75733E20533C6D696E5F6665A9
:101A60006564726174653E20543C6D696E5F74728A
:101A70006176656C5F66656564726174653E0020C1
:101A8000540020520020204D323034205000416359
:101A900063656C65726174696F6E2028756E697418
:101AA000732F7332293A20503C7072696E745F61F3
:101AB0006363656C3E20523C726574726163745F4F
:101AC000616363656C3E20543C74726176656C5F43
:101AD000616363656C3E0A00204500205A0020596E
:101AE0000020204D3230312058004D6178696D75ED
:101AF0006D20416363656C65726174696F6E202847
:101B0000756E6974732F7332293A0A0020450020DC
:101B10005A0020590020204D3230332058004D61AA
:101B200078696D756D206665656472617465732092
:101B300028756E6974732F73293A0A0020450020B6
:101B40005A0020590020204D393220580053746526
:101B500070732070657220756E69743A0A002020D7
:101B60004D3230302044300A0020204D32303020B9
:101B700044002044697361626C65640A0046696CC4
:101B8000616D656E742073657474696E67733A0075
:101B90002020473231202020203B00545249474723
:101BA00045524544006F70656E003A20007A5F6DC3
:101BB000696E00795F6D696E00785F6D696E0052C5
:101BC00065706F7274696E6720656E6473746F7090
:101BD000207374617475730A0020573A00205A3AD2
:101BE0000020593A0020436F756E7420583A002047
:101BF000453A00205A3A0020593A00583A004469C0
:101C0000666665723A200046726F6D5374703A00D2
:101C1000537465707065723A00556E4C6576656CEC
:101C20003A004C6576656C65643A005261773A20FB
:101C3000202020000A4C6F676963616C3A003A000B
:101C40004361703A00205A00205900580020204D6E
:101C500061783A2000205A00205900580020204D79
:101C6000696E3A20004F6E20004F666600536F6623
:101C70007420656E6473746F70733A200020643A48
:101C80000020693A0020703A00496E76616C696400
:101C90002065787472756465720A00473238205A7C
:101CA000000A486F6D696E67205A2064756520745C
:101CB0006F206C6F73742073746570730A000A432D
:101CC000616C6962726174696F6E206375727265AE
:101CD0006E743A205A000A506C6561736520686F13
:101CE0006D65205A20617869732066697273740A81
:101CF00000526573656E643A200025753A253032CE
:101D00007500253032753A2530327500257564200E
:101D1000253032753A25303275007C2000207C3029
:101D200062003A002063757272656E7420646563A8
:101D300072656173656420746F20006D41290A002B
:101D400020647269766572206F76657274656D7055
:101D500065726174757265207761726E696E672154
:101D60002028003A200044726976657220657272FC
:101D70006F720073686F727420746F2067726F7572
:101D80006E642028636F696C2042290A0073686FB3
:101D9000727420746F2067726F756E642028636F91
:101DA000696C2041290A006F76657274656D7065F3
:101DB0007261747572650A002064726976657220BA
:101DC0006572726F722064657465637465643A0A43
:101DD00000747275650066616C7365007472756578
:101DE0000066616C736500747275650066616C7382
:101DF0006500313D2E313800303D2E333235002F15
:101E00003331002F3331002F333100747275650088
:101E100066616C736500556E6B6E6F776E20636FD5
:101E20006D6D616E643A20220050726F62696E6758
:101E3000206661696C65640A00205A3A20002059C6
:101E40003A200042656420583A2000000020002318
:101E500000260029002C002F0032000001000003A2
:101E6000010601090100002200250028002B002E98
:101E7000003100340002010000050108010B0105DA
:101E8000050505070508080808020202020A0A08F3
:101E90000804040404010101010101010103030319
:101EA0000303030303040707070C0C0C0C0C0C0CB6
:101EB0000C0202020206060606060606060B0B0BBD
:101EC0000B0B0B0B0B0102102020080810204010F8
:101ED00020408002010201080402010102040810EE
:101EE000204080804020100804020180040201800C
:101EF0004020100804020108040201010204081035
:101F0000204080010204081020408020647269761D
:101F100065722063757272656E743A200000004825
:101F200042000048420000804000000000576172FB
:101F30006E696E673A20486F6D696E672042756DF5
:101F4000702044697669736F72203C20310A000268
:101F5000020400000000000000000000004000003B
:101F6000AF430000AF4300009B434572726F722085
:101F700077726974696E6720746F20454550524FBF
:101F80004D210A00454550524F4D206461746173E4
:101F9000697A65206572726F722E0A00290A002024
:101FA00062797465733B20637263200053657474B7
:101FB000696E67732053746F726564202800203D3A
:101FC00020307800290A002062797465733B206311
:101FD000726320002073746F72656420736574747B
:101FE000696E67732072657472696576656420280E
:101FF00000202863616C63756C6174656429210A33
:102000000020213D2000454550524F4D2043524372
:10201000206D69736D61746368202D202873746F5F
:102020007265642920002053697A653A2000496E60
:102030006465783A2000204D61726C696E3D5635BA
:1020400035290A0028454550524F4D3D0045455021
:10205000524F4D2076657273696F6E206D69736D96
:1020600061746368200048617264636F6465642012
:1020700044656661756C742053657474696E67732A
:10208000204C6F616465640A00B80B0000B80B0057
:102090000064000000102700000000964300009636
:1020A000430000A0400000C841856BA0425C8FA0A7
:1020B000420000C844E19AE1434B64200023646578
:1020C00066696E652044454641554C545F004B6936
:1020D000200023646566696E652044454641554C81
:1020E000545F004B70200023646566696E65204470
:1020F000454641554C545F00504944204175746F2A
:1021000074756E652066696E697368656421205018
:10211000757420746865206C617374204B702C207A
:102120004B6920616E64204B6420636F6E73746131
:102130006E74732066726F6D2062656C6F772069B4
:102140006E746F20436F6E66696775726174696F34
:102150006E2E680A00504944204175746F74756E84
:1021600065206661696C6564212074696D656F75B1
:10217000740A00453120544845524D414C20525577
:102180004E415741590042454420544845524D4123
:102190004C2052554E4157415900546865726D614B
:1021A0006C2052756E617761790045312048656118
:1021B00074696E67206661696C65640042656420BD
:1021C00068656174696E67206661696C6564004862
:1021D000656174696E67206661696C656400504969
:1021E00044204175746F74756E65206661696C6515
:1021F00064212054656D7065726174757265207418
:102200006F6F20686967680A00204B643A200020DD
:102210004B693A2000204B703A20000A20436C6141
:102220007373696320504944200A002054753A2092
:1022300000204B753A2000206D61783A2000206D17
:10224000696E3A200020643A200020626961733A86
:102250002000504944204175746F74756E65206686
:1022600061696C65642120426164206578747275CF
:10227000646572206E756D6265720A005049442073
:102280004175746F74756E652073746172740A00A1
:102290006265640A002C2073797374656D20737411
:1022A0006F7070656421204865617465725F494490
:1022B0003A20004265642068656174696E67206633
:1022C00061696C65640048656174696E6720666168
:1022D000696C65640045312048656174696E6720EA
:1022E0006661696C65640048656174696E67206643
:1022F00061696C65640000002100240027002A0049
:102300002D003000330001010000040107010A0123
:1023100000000A0B02090C0D0E080703040100005F
:1023200000000000000000000000000000000000AD
:10233000000000000000000000000000121110006A
:10234000000000000000000000000000000000008D
:102350000000000000002066697273740A005A00D1
:1023600059005800486F6D6520006563686F3A003A
:102370004572726F723A0046696C616D656E7420C9
:10238000757365643A200053746174733A20002CAD
:10239000204C6F6E67657374206A6F623A20005438
:1023A0006F74616C2074696D653A200053746174B8
:1023B000733A20002C204661696C65643A20002C39
:1023C0002046696E69736865643A20005072696ED0
:1023D00074733A200053746174733A20000043AC64
:1023E00011241FBECFEFD1E2DEBFCDBF00E00CBF96
:1023F00013E0A0E0B2E0E4E3F6E701E00BBF02C0C7
:1024000007900D92AE30B107D9F72FE0AEE0B3E000
:1024100001C01D92A538B207E1F711E1C0EFD1E18B
:1024200000E006C021970109802FFE010E94CFBA6B
:10243000CF3ED10780E00807A9F70E94BB960C9415
:1024400018BB0C9400008091100C9091110C9817FF
:1024500059F0E92FF0E0E057F44F80819F5F9F77BC
:102460009093110C90E008958FEF9FEF0895CF9215
:10247000DF92EF920F931F93CF93DF93CDB7DEB729
:1024800060970FB6F894DEBF0FBECDBFE090360C5C
:10249000E7E3FCE080859185A285B3854481558181
:1024A00066817781008111812281338109831A83BA
:1024B0002B833C834D835E836F83788789879A87DC
:1024C000AB87BC871D861E861F86188AAE01475FB4
:1024D0005F4FBE016B5F7F4FCE0101960E9490540B
:1024E000CE010D966C0105E212E023E43CE0AE0162
:1024F000475F5F4FBE016B5F7F4F0C970E94E43CCC
:1025000060960FB6F894DEBF0FBECDBFDF91CF91BE
:102510001F910F91EF90DF90CF900895882319F0CD
:10252000813021F0089584E39EE002C08BEB9DE0B2
:102530000C941C68FF920F931F93CF93DF93FC01C1
:1025400020812B3319F1D0917B05D430F8F4F62E8D
:10255000BC01C09182050C2F10E0F0E6CF9FC001B6
:10256000112487509C4F0E94F8BAF801E251FC4FA9
:10257000F082CF5FC43018F4C093820502C010927D
:102580008205DF5FD0937B0581E001C080E0DF91B1
:10259000CF911F910F91FF900895BC0187E69FE0B6
:1025A0000E9479246CE271E080E090E00C94187B4A
:1025B0008091EA059091EB05A091EC05B091ED05B5
:1025C0008093250290932602A0932702B0932802BD
:1025D0008091E8059091E90590932A028093290261
:1025E00008958091250290912602A0912702B09132
:1025F00028028093EA059093EB05A093EC05B09335
:10260000ED058091290290912A029093E90580932B
:10261000E80584E690E090932A02809329020895C9
:102620002F923F924F925F926F927F928F929F92E2
:10263000AF92BF92CF92DF92EF92FF920F931F93D0
:10264000CF93DF93CDB7DEB72A970FB6F894DEBFEE
:102650000FBECDBF2B013C012D833E834F83588796
:1026600047015801DA86C986809125029091260299
:10267000A0912702B091280289839A83AB83BC83FF
:10268000D6011C9111960C91119712963C901297BD
:1026900013962C9020E030E0A901612F702F832D3C
:1026A000922D0E941CB181110AC0E5E2FFE18591E3
:1026B0009591A591B491182F092F3A2E2B2EA50193
:1026C000940160913F0C7091400C8091410C90916D
:1026D000420C0E941CB187FF15C0812F902FA32DA3
:1026E000B22D8093250290932602A0932702B093E7
:1026F000280280923F0C9092400CA092410CB09224
:10270000420CB5DEE985FA85C080D180E280F38095
:1027100020E030E0A901C701B6010E941CB181117F
:1027200008C0C0902002D0902102E0902202F090D8
:102730002302C0922502D0922602E0922702F09254
:1027400028024092370C5092380C6092390C7092EB
:102750003A0C8D819E81AF81B88580933B0C90931C
:102760003C0CA0933D0CB0933E0C81DE20913F0CBD
:102770003091400C4091410C5091420CC501B40184
:102780000E941CB187FF15C0812F902FA32DB22D61
:102790008093250290932602A0932702B0932802EB
:1027A00080923F0C9092400CA092410CB092420C4F
:1027B0005EDE0E949A4A89819A81AB81BC818093B6
:1027C000250290932602A0932702B09328022A960E
:1027D0000FB6F894DEBF0FBECDBFDF91CF911F9132
:1027E0000F91FF90EF90DF90CF90BF90AF909F90B0
:1027F0008F907F906F905F904F903F902F900895B3
:10280000CF92DF92EF92FF920F931F936B01FC0127
:10281000E080F18002811381E7E3FCE024813581CF
:10282000468157816081718182819381F9DE1F9198
:102830000F91FF90EF90DF90CF900895BF92CF92CD
:10284000DF92EF92FF920F931F93CF93DF93CDB759
:10285000DEB728970FB6F894DEBF0FBECDBF9091BC
:102860008C0B981709F476C0B82E80E090E0A0E7B2
:10287000B1E48D839E83AF83B887C090220CD09043
:10288000230CE090240CF090250C20E030E0A9010E
:10289000C701B6010E941CB187FF0CC0A7019601B9
:1028A00060E070E080E791E40E94E0B76D837E8392
:1028B0008F83988720E030E04BE953E46D817E817F
:1028C0008F8198850E9408BA181644F480E090E041
:1028D000ABE9B3E48D839E83AF83B8872D813E81BE
:1028E0004F81588560913F0C7091400C8091410C54
:1028F0009091420C0E941CB187FF0AC019821A8273
:102900001B821C82BE016F5F7F4FCE01059678DF70
:102910006091370C7091380C8091390C90913A0C81
:1029200020913B0C30913C0C40913D0C50913E0C61
:1029300019821A821B821C82E0903F0CF090400C9E
:102940000091410C1091420CFE0131966F0168DE3E
:10295000B0928C0B80E028960FB6F894DEBF0FBEC5
:10296000CDBFDF91CF911F910F91FF90EF90DF903E
:10297000CF90BF9008950F931F93CF93DF9394E070
:10298000899FE00111248E010A5E134FFE01E3537B
:10299000FC4FDE01A45CBC4F2D913D914D915C91AB
:1029A00060817181828193810E94E1B7F801608327
:1029B000718382839383FE01E45AF74F8591959149
:1029C000A591B491FE01E95BF34F80839183A283CB
:1029D000B383FE01E859F74F85919591A591B49184
:1029E000C55DDD4F88839983AA83BB83DF91CF9137
:1029F0001F910F9108950F931F93CF93DF93CDB73E
:102A0000DEB72C970FB6F894DEBF0FBECDBFE7E35D
:102A1000FCE080859185A285B385448155816681DE
:102A20007781008111812281338109831A832B836D
:102A30003C834D835E836F83788789879A87AB87D2
:102A4000BC87AE01475F5F4FBE016B5F7F4FCE011A
:102A500001960E94905423E43CE0AE01475F5F4F33
:102A6000BE016B5F7F4FCE0101960E9470952C9640
:102A70000FB6F894DEBF0FBECDBFDF91CF911F918F
:102A80000F9108952F923F924F925F926F927F9293
:102A90009F92AF92BF92CF92DF92EF92FF920F93ED
:102AA0001F93CF93DF93CDB7DEB764970FB6F8943B
:102AB000DEBF0FBECDBFA82E1A012B01922EB32E62
:102AC000C82ED12CF601E958FA4FE491EE24E39494
:102AD0001E160CF4E12CFF24F39420E030E0A90151
:102AE000C201B1010E9408BA18160CF0F12CFE24A4
:102AF00019F061E08A2D12DDCC0CDD1CCC0CDD1C44
:102B0000C601895C934F3C01FC0110821182128244
:102B1000138271DFF3012082318242825382E0907E
:102B2000360C20E030E0A901B801892D9B2D0E94D0
:102B30001CB181110AC0F601E35EF04E85919591BA
:102B4000A591B4918C019A2EBB2EC801A92DBB2D45
:102B5000898B9A8BAB8BBC8B80913F0C9091400CF6
:102B6000A091410CB091420C40913B0C50913C0C17
:102B700060913D0C70913E0C0091370C1091380C17
:102B80002091390C30913A0C09831A832B833C83B2
:102B90004D835E836F83788789879A87AB87BC87ED
:102BA0001D861E861F86188AAE01475F5F4FBE01D5
:102BB0006B5F7F4FCE0101960E949054CE010D961F
:102BC0006C018E010F5E1F4F23E43CE0AE01475FB6
:102BD0005F4FBE016B5F7F4F0C970E94E43C0E94E9
:102BE0009A4AFF2071F080917905882331F0109284
:102BF000790560E08A2D92DC04C085E299E00E94AC
:102C0000E74E64960FB6F894DEBF0FBECDBFDF91DE
:102C1000CF911F910F91FF90EF90DF90CF90BF90D9
:102C2000AF909F907F906F905F904F903F902F90CC
:102C30000895CF939091ED039817B1F0C82F0E949B
:102C40009A4AC093ED03C11109C00E94315483E533
:102C50009CE00E94FB4A0E94B57704C087E39CE099
:102C60000E94FB4ACF91C7CECF91089580E0E1DF6B
:102C7000E2EBFEE080E090E0A0E8BFE38083918398
:102C8000A283B3831482158216821782108611865E
:102C9000128613861486158616861786808B918B6E
:102CA000A28BB38B148A158A168A178A108E118EFE
:102CB000128E138E148E158E168E178E80A391A3EE
:102CC000A2A3B3A308958091AF039091B00300979E
:102CD00031F04AE050E060E070E00C946EAE60E0ED
:102CE00070E0CB010895EFDF97FD0AC0ECDF6F3F86
:102CF00071058105910509F02CF4E5DF862F089513
:102D000080E008958FEF08958091AF039091B00314
:102D1000892B31F0E8DF91E0811103C090E001C020
:102D200091E0892F08950F931F93CF938091AF0364
:102D30009091B003009711F1FC018F01C1912C2FEC
:102D40002F7DA9F0C53411F0C536B9F7F80110820E
:102D500060E070E08091AF039091B0030E941AADE3
:102D6000F801C083562F472F382F292F0BC060E062
:102D700070E0CF911F910F910C941AAD50E040E09C
:102D800030E020E0652F742F832F922FCF911F9179
:102D90000F91089581548A3108F042C0E82FF0E085
:102DA000409128035091290360912A0370912B03CD
:102DB00004C076956795579547958A95D2F7842FE5
:102DC000817040FF2FC0E25FFC4F9081992309F191
:102DD000E091130CF091140CE90FF11D908120ED9E
:102DE000290F2A3098F09E3211F491810CC09D3247
:102DF00011F09B3271F4918120ED290F2A3030F0CF
:102E00009E3239F4928190539A3018F42E2F9F2FCE
:102E100002C020E090E02093AF039093B0030895A8
:102E200080E008950895B6DF882341F081E0209185
:102E3000AF033091B003232B09F480E008959F92F3
:102E4000AF92BF92CF92DF92EF92FF920F931F93B8
:102E5000CF93DF9383EEA82E82E0B82E06E21CE02B
:102E6000C7E3DCE096E1C92E9CE0D92E22EFE22EEA
:102E700023E0F22E912CF50181915F018BDF8823F5
:102E800001F151DFF7012081211104C02091F603E7
:102E9000222339F0288139814A815B810E94E1B780
:102EA0000AC0F3E09F1639F0F6012081318142819A
:102EB00053810E94E0B7F80160837183828393831A
:102EC00009C088819981AA81BB81F801808391839F
:102ED000A283B38393940C5F1F4F2496F4E0CF0E2C
:102EE000D11C2FEFE21AF20A84E09812C4CF86E4D4
:102EF0009ADF8823B9F017DF20E030E0A9010E94B3
:102F000008BA18167CF40FDF20E030E040E752E406
:102F10000E94BDB860932502709326028093270219
:102F2000909328028091F80383FD28C080917E0F42
:102F3000882321F12091430C3091440C4091450CA1
:102F40005091460C6091320C7091330C8091340C8E
:102F50009091350C0E94E0B72091FE053091FF055D
:102F600040910006509101060E94E1B76093FE0572
:102F70007093FF058093000690930106DF91CF9137
:102F80001F910F91FF90EF90DF90CF90BF90AF9087
:102F90009F9008952F923F924F925F926F927F92EF
:102FA0008F929F92AF92BF92CF92DF92EF92FF9259
:102FB0000F931F93CF93DF93EB01FC0180809180EF
:102FC000A280B380C501B40120E831E541E050E0C2
:102FD0000E9489B7C9016DE671E00E94BBBA6B011E
:102FE0007C01C501B40120E13EE040E050E00E94D8
:102FF00089B7CA01B90128E130E040E050E00E9401
:1030000089B7362E272E062F172F8CE3482E512CEA
:10301000612C712CC501B401A30192010E9489B7F2
:10302000B62EA72ECA01B901A30192010E9489B749
:10303000CB01C114D104D9F0AF92BF927F936F93AB
:103040002F923F92FF92EF92DF92CF9287E297E02A
:103050009F938F93DF93CF930E94EEB08DB79EB76F
:103060000E960FB6F8949EBF0FBE8DBF5CC0E114E4
:10307000F104C9F0AF92BF927F936F932F923F926A
:10308000FF92EF9287E197E09F938F93DF93CF9327
:103090000E94EEB0EDB7FEB73C960FB6F894FEBFB7
:1030A0000FBEEDBF40C0012BB9F0AF92BF927F932E
:1030B0006F932F923F928BE097E09F938F93DF93D4
:1030C000CF930E94EEB08DB79EB70A960FB6F894D4
:1030D0009EBF0FBE8DBF27C0892BA9F0AF92BF92B4
:1030E0007F936F9383E097E09F938F93DF93CF93CA
:1030F0000E94EEB0EDB7FEB738960FB6F894FEBF5B
:103100000FBEEDBF10C0AF92BF928FEF96E09F93BE
:103110008F93DF93CF930E94EEB00F900F900F909C
:103120000F900F900F90DF91CF911F910F91FF9013
:10313000EF90DF90CF90BF90AF909F908F907F9057
:103140006F905F904F903F902F9008959091C000A6
:1031500095FFFCCF8093C60008951F93CF93DF9314
:10316000882329F04B9908C08AE090E002C08AE5E4
:1031700090E013DA10E049C080EA90E00EDA8AE0CD
:1031800090E00BDA8AE590E008DA6CED75E080E01B
:1031900090E00E94187B4B9BE7CFE0E7F3E284913D
:1031A000EF012196882319F0D1DFFE01F8CFEBEE75
:1031B000F8E08491EF012196882319F0C7DFFE0122
:1031C000F8CF0E94A02D10910E021123E9F0E0E744
:1031D000F3E28491EF012196882319F0B7DFFE0115
:1031E000F8CFE4E7F8E08491EF012196882319F005
:1031F000ADDFFE01F8CF6EE571E080E090E00E9467
:10320000187B10920E0201C011E0812FDF91CF9147
:103210001F9108951F93CF93DF93CDB7DEB7289703
:103220000FB6F894DEBF0FBECDBF69837A838B8360
:103230009C832D833E834F83588781E08EDF8823D4
:1032400011F081E02CC0BE016B5F7F4FCE01019673
:10325000D7DA80917905182F147082FF04C080E0BE
:103260007CDF8111EECF109279050E94315483E505
:103270009CE00E94FB4A80915B0C90915C0CA091B9
:103280005D0CB0915E0C80933F0C9093400CA0932A
:10329000410CB093420CAFDB81E0111180E0289625
:1032A0000FB6F894DEBF0FBECDBFDF91CF911F9157
:1032B0000895EF92FF920F931F93CF93DF937C01BA
:1032C00084E5B1DDD82F882311F10DDDC82F181644
:1032D000D4F4EAE6F3E284918F010F5F1F4F882355
:1032E00019F034DFF801F7CF8DE430DFC7010E9419
:1032F000F5906C2FCC0F770B89E498E00E94EB25BA
:103300008AE024DF08C08093DE03D0E004C080910F
:10331000360C8093DE038D2FDF91CF911F910F919B
:10332000FF90EF900895CF92DF92EF92FF920F936C
:103330001F93CF93DF9380917B05843008F01DC1EC
:1033400082D8AC0197FD19C1982F2091B40C30910F
:10335000B50C8A3019F09D3009F0DDC01092E705F8
:103360002115310519F40E94BB83E5CFF901E95716
:10337000FA4F10821092B50C1092B40CC7E8D5E049
:10338000FE018191803211F4EF01FACF8E3409F001
:103390007EC0209709F47BC064E478E0CE010E94EF
:1033A000D4B08C01892B41F06EE470E0CE0104961C
:1033B0000E94E4BA009709F4CE014AE050E060E0D0
:1033C00070E001960E946EAE609383057093840551
:1033D0008093850590938605C090B60CD090B70C6D
:1033E000E090B80CF090B90C2FEFC21AD20AE20AA2
:1033F000F20A6C157D058E059F0529F0012B19F445
:1034000081E198E02AC06AE270E0CE010E940DBB23
:103410009C01009701F1982F9C1B10E0992339F033
:103420009150FE01E90FF11D80811827F7CF4AE086
:1034300050E060E070E0C90101960E946EAE012F7D
:1034400010E020E030E0601771078207930779F001
:1034500082EF97E002C088EC97E0DF91CF911F9157
:103460000F91FF90EF90DF90CF900C94419280915C
:10347000830590918405A0918505B0918605809380
:10348000B60C9093B70CA093B80CB093B90C809184
:103490000E0281111EC067E470E0CE010E94E4BA02
:1034A0000097B9F04AE050E060E070E001960E94B9
:1034B0006EAE643071058105910558F4E1E5F7E0E1
:1034C00084918F010F5F1F4F882319F03FDEF801B1
:1034D000F7CF66EF72E0CE010E94EFBA892B11F4AC
:1034E00010920F026BEF72E0CE010E94EFBA892BAF
:1034F00021F488E497E00E94E74E60E073E0CE019B
:103500000E94EFBA892B11F40E94F55D61E087E813
:1035100095E010D810CF2F3531050CF00CCF9C352D
:10352000C1F40E94231297FD06CF2091E7052111D7
:1035300002CF2091B40C3091B50CA9014F5F5F4FC1
:103540005093B50C4093B40CF901E957FA4F8083BE
:10355000F2CE9B3319F481E08093E7058091E70573
:103560008111E9CEC90101969093B50C8093B40CFA
:10357000F901E957FA4F4083DECEDF91CF911F91D9
:103580000F91FF90EF90DF90CF900895BF92CF9270
:10359000DF92EF92FF920F931F93CF93DF93CDB7FC
:1035A000DEB76E970FB6F894DEBF0FBECDBF609149
:1035B0008E0B70918F0B6115710551F14DE150E04B
:1035C000CE0101967C010E94C5B01E8EF7018F01CD
:1035D0000E191F09B190BB2021F19AE0B912F7CF63
:1035E00020C0B7018BE397E00E94042682E2AEDDA3
:1035F0008AE0ACDDBB2059F10F5F1F4F80918E0B2D
:1036000090918F0B080F191F10938F0B00938E0B47
:1036100081E020918E0B30918F0B232BD9F480E029
:1036200019C0F701E00FF11F108260E0C7010E948E
:103630009A12882369F3EAE6F3E284916F019FEF1F
:10364000C91AD90A882369F281DDF601F6CF00E0B4
:1036500010E0DACF6E960FB6F894DEBF0FBECDBF86
:10366000DF91CF911F910F91FF90EF90DF90CF905E
:10367000BF9008958F929F92AF92BF92EF92FF9268
:103680000F931F93CF93DF93CDB7DEB7A0970FB6FD
:10369000F894DEBF0FBECDBF6115710581059105A0
:1036A00089F100E0842E912CA12CB12C102FEE2456
:1036B000E394F12CEC0EFD1EE00EF11C07FDFA94D4
:1036C000A50194010E9489B7F7016083B901CA017D
:1036D0000F5F611571058105910541F71F3F21F1CC
:1036E000E1E0F0E0EC0FFD1FE10FF11D17FDFA9591
:1036F00080818A3010F097E301C090E3890F26DDC6
:103700001150ECCF80E3A0960FB6F894DEBF0FBE49
:10371000CDBFDF91CF911F910F91FF90EF90BF90A0
:10372000AF909F908F9012CDA0960FB6F894DEBF09
:103730000FBECDBFDF91CF911F910F91FF90EF9002
:10374000BF90AF909F908F900895CF92DF92EF92AD
:10375000FF926B017C0197FF0AC08DE2F7DCF094C9
:10376000E094D094C094C11CD11CE11CF11C4AE02F
:10377000C701B601FF90EF90DF90CF907BCF8F9283
:103780009F92AF92BF92CF92DF92EF92FF92CF9330
:103790006B017C01B42E20E030E0A9010E941CB135
:1037A00087FF06C08DE2D2DCF7FAF094F7F8F094C8
:1037B000C0E060E070E080E09FE3CB1541F02DECCD
:1037C0003CEC4CEC5DE30E9481B1CF5FF6CF9B01F6
:1037D000AC01C701B6010E94E1B76B017C010E94F8
:1037E0002AB94B015C014AE045DFCC2379F1C501E0
:1037F000B4010E9420B19B01AC01C701B6010E9437
:10380000E0B76B017C018EE2A1DC20E030E040E219
:1038100051E4C701B6010E9481B14B015C010E94D5
:1038200025B96B01770FEE08FF08C701B6018DDFE0
:10383000C701B6010E9422B19B01AC01C501B401D0
:103840000E94E0B76B017C01C150F9F6CF91FF9067
:10385000EF90DF90CF90BF90AF909F908F900895A2
:103860001F920F920FB60F9211240BB60F922F9347
:103870008F939F93EF93FF932091110CE091100C85
:1038800081E08E0F8F779091C600281729F0F0E025
:10389000E057F44F9083E82FE093100CFF91EF91E5
:1038A0009F918F912F910F900BBE0F900FBE0F9095
:1038B0001F9018958091B00E9091B10E891B8F705A
:1038C00019F480E090E008959091AD0E992351F0A5
:1038D000833030F48FEF890F19F08093AD0EF1CF64
:1038E0001092AD0EE091B10E8DE4E89FF00111242D
:1038F000EE5FF94F808180FDE4CF8091B10E8F5F44
:103900008F708093AE0E9091B10E8091AF0E981390
:1039100004C08091AE0E8093AF0ECF010895CF9278
:10392000DF92EF92FF920F931F93CF93DF936C017F
:103930008B017A01EC01CC52D54F888187FF04C0FE
:10394000FB011182108224C02CE02C9DC0012D9D12
:10395000900D11242881AC01420F511D27FD5A956D
:103960002091660F30E04217530794F42881AC0190
:10397000420F511D27FD5A959A01FA01EE0FFF1FC4
:103980002E0F3F1FF901E650F14F208126FD19C08F
:1039900088818F5F88832CE02C9DC0012D9D900D28
:1039A00011242881AC01420F511D27FD5A95209109
:1039B000660F30E042175307BCF428812C3044F1E5
:1039C00013C02881820F911D27FD9A95FC01EE0FEF
:1039D000FF1F8E0F9F1FFC01E650F14F808160E0BA
:1039E0008F730E94728DD4CFF801808191810496EB
:1039F00080349C4918F480E49CE904C0F80180817B
:103A000091810496F701918380838FEF888345C06D
:103A1000F801408151812881BC01620F711D27FD91
:103A20007A959B01FB01EE0FFF1F2E0F3F1FF9013F
:103A3000E650F14F21813281240F351FF701318388
:103A400020832881AC01420F511D27FD5A959A0110
:103A5000FA01EE0FFF1F2E0F3F1FF901E650F14F45
:103A6000208126FF1AC02881820F911D27FD9A957B
:103A7000FC01EE0FFF1F8E0F9F1FFC01E650F14F60
:103A8000808161E08F73DF91CF911F910F91FF9043
:103A9000EF90DF90CF900C94728DDF91CF911F91BA
:103AA0000F91FF90EF90DF90CF9008950F930FB795
:103AB0000F9300916E000F930B7F00936E000091A7
:103AC0006F000D7F00936F000F930BB70F930CB730
:103AD0000F921F922F933F934F935F936F937F9318
:103AE0008F939F93AF93BF93EF93FF93112455D080
:103AF000FF91EF91BF91AF919F918F917F916F91C6
:103B00005F914F913F912F911F900F900CBF0F919C
:103B10000BBF0F910260F89400936F000F91009318
:103B20006E000F910FBF0F9118958091D20A80FF00
:103B300003C089988FEF02C0899A81E080931002B8
:103B40008091D20A81FF03C08F988FEF02C08F9AB5
:103B500081E0809311028091D20A82FF09C0809196
:103B60000B018095827080930901439A8FEF07C003
:103B700080910B01827080930901439881E08093CA
:103B800012028091D20A83FF03C0169A8FEF02C0FF
:103B9000169881E08093130208952F923F924F92DE
:103BA0005F926F927F928F929F92AF92BF92CF92CD
:103BB000DF92EF92FF921F93CF93DF93F8948FEFF2
:103BC0009FEF90938900809388001AE0C0E0D0E0D6
:103BD000BFE42B2EB1E13B2E78948091180B90918D
:103BE000190BA0911A0BB0911B0B892B8A2B8B2BD5
:103BF00009F0D3C18091630C8823D1F01092630C3B
:103C00008091610C9091620C892B91F01092D30AF3
:103C10001092620C1092610C9091B00E8091B10ED6
:103C2000981731F08091B10E8F5F8F708093B10E35
:103C30008091610C9091620C892B09F4AEC1809047
:103C4000140B9090150BA090160BB090170B409191
:103C5000100B5091110B6091120B7091130BC090CF
:103C6000030BD12CE12CF12CDB01CA018819990935
:103C7000AA09BB09C816D906EA06FB0610F4D70143
:103C8000C601482F880D991DAA1DBB1D8093140BDA
:103C90009093150BA093160BB093170B20918400F3
:103CA00030918500245E3F4FC090EB0AD090EC0A23
:103CB000E090ED0AF090EE0A8091DB0A9091DC0A28
:103CC000A091DD0AB091DE0A8C0D9D1DAE1DBF1DB9
:103CD0008093EB0A9093EC0AA093ED0AB093EE0A5E
:103CE000B7FD1CC0889AC0902C03D0902D03E090A3
:103CF0002E03F0902F0380911002082E000C990BD8
:103D0000AA0BBB0B8C0D9D1DAE1DBF1D80932C03FC
:103D100090932D03A0932E03B0932F03C090EF0A2E
:103D2000D090F00AE090F10AF090F20A8091DF0A58
:103D30009091E00AA091E10AB091E20A8C0D9D1DDC
:103D4000AE1DBF1D8093EF0A9093F00AA093F10A75
:103D5000B093F20AB7FD1CC08E9AC0903003D09089
:103D60003103E0903203F090330380911102082E6A
:103D7000000C990BAA0BBB0B8C0D9D1DAE1DBF1D1E
:103D80008093300390933103A0933203B0933303B5
:103D9000C090F30AD090F40AE090F50AF090F60A89
:103DA0008091E30A9091E40AA091E50AB091E60AB5
:103DB0008C0D9D1DAE1DBF1D8093F30A9093F40AD8
:103DC000A093F50AB093F60AB7FD22C080910B01CB
:103DD0008095887080930901419AC0903403D090F7
:103DE0003503E0903603F090370380911202082EDD
:103DF000000C990BAA0BBB0B8C0D9D1DAE1DBF1D9E
:103E00008093340390933503A0933603B093370324
:103E1000C090F70AD090F80AE090F90AF090FA0AF8
:103E20008091E70A9091E80AA091E90AB091EA0A24
:103E30008C0D9D1DAE1DBF1D8093F70A9093F80A4F
:103E4000A093F90AB093FA0AB7FD1CC0149AC09067
:103E50003803D0903903E0903A03F0903B0380910F
:103E60001302082E000C990BAA0BBB0B8C0D9D1D89
:103E7000AE1DBF1D8093380390933903A0933A037E
:103E8000B0933B038091EB0A9091EC0AA091ED0A6C
:103E9000B091EE0AB7FD15C0C090D70AD090D80AED
:103EA000E090D90AF090DA0A8C199D09AE09BF0991
:103EB0008093EB0A9093EC0AA093ED0AB093EE0A7C
:103EC00088988091EF0A9091F00AA091F10AB09140
:103ED000F20AB7FD15C0C090D70AD090D80AE0907A
:103EE000D90AF090DA0A8C199D09AE09BF098093AE
:103EF000EF0A9093F00AA093F10AB093F20A8E9819
:103F00008091F30A9091F40AA091F50AB091F60A13
:103F1000B7FD1AC0C090D70AD090D80AE090D90A4D
:103F2000F090DA0A8C199D09AE09BF098093F30A53
:103F30009093F40AA093F50AB093F60A80910B01CE
:103F400088708093090141988091F70A9091F80A4E
:103F5000A091F90AB091FA0AB7FD15C0C090D70A2E
:103F6000D090D80AE090D90AF090DA0A8C199D090D
:103F7000AE09BF098093F70A9093F80AA093F90A53
:103F8000B093FA0A1498415041F0809184009091C6
:103F9000850082179307C8F387CE8091180B909104
:103FA000190BA0911A0BB0911B0B892B8A2B8B2B11
:103FB00009F01CC3E091610CF091620C309709F498
:103FC00091C48091140B9091150BA091160BB09198
:103FD000170B4091100B5091110B6091120B7091C7
:103FE000130B84179507A607B707D0F01092D30AD2
:103FF0001092620C1092610C9091B00E8091B10EF3
:10400000981709F46FC48091B10E8F5F8F70809301
:10401000B10EA0EDCA2EA7E0DA2EE12CF12C4EC194
:1040200040910C0B50910D0B60910E0B70910F0B8A
:10403000481759076A077B0708F467C04091080BC7
:104040005091090B60910A0B70910B0B82A993A9F7
:10405000A4A9B5A9FF24499FE12C5A9F90016A9F0A
:10406000300D699F200D311D4A9FE00C211D3F1D21
:10407000599FE00C211D3F1D689FE00C211D3F1D35
:10408000589FE10C2F1D3F1DE6942F1D3F1DB49F2F
:10409000200D311DB59F300D112483AD94ADA5AD1C
:1040A000B6AD820F931FA11DB11D8093040B909399
:1040B000050BA093060BB093070BC7A8D0ACE1ACDF
:1040C000F2ACC816D906EA06FB0640F4C092040B0F
:1040D000D092050BE092060BF092070B8090040B38
:1040E0009090050BA090060BB090070B83E391E135
:1040F00021E0FC01C590D590E590F490C814D90456
:10410000EA04FB0408F4B8C2C2C24091FF0A50910D
:10411000000B6091010B7091020B481759076A0759
:104120007B0708F063C04091FB0A5091FC0A609144
:10413000FD0A7091FE0A82A993A9A4A9B5A9FF243A
:10414000499FE12C5A9F90016A9F300D699F200D75
:10415000311D4A9FE00C211D3F1D599FE00C211D80
:104160003F1D689FE00C211D3F1D589FE10C2F1D36
:104170003F1DE6942F1D3F1DB49F200D311DB59F9F
:10418000300D1124C901A0E0B0E08090040B9090A4
:10419000050BA090060BB090070BFF9688159905AC
:1041A000AA05BB0580F4C080D180E280F380881A24
:1041B000990AAA0ABB0A8C149D04AE04BF0438F401
:1041C0004601570104C080809180A280B38083E3C0
:1041D00091E121E0FC01C590D590E590F490C814E0
:1041E000D904EA04FB0408F4BAC2C4C280911502DF
:1041F00090911602A0911702B0911802B7FF56C015
:1042000087A990ADA1ADB2AD23E331E141E0F90161
:10421000C590D590E590F490C816D906EA06FB063D
:1042200058F4B695A79597958795440F2C5F3F4F07
:10423000F1E12F343F0759F74093030B803291058A
:10424000A105B10508F421C38097A109B109811521
:1042500028E09207A105B10508F4F4C244E0949F58
:10426000900111242D5C324FF90132964591549101
:10427000EE27859FB001849F610D7E1F06946E1FFF
:104280007E1F1124CB01A0E0B0E0F90145915491CB
:1042900060E070E0481B590B6A0B7B0B40931502E2
:1042A000509316026093170270931802C090150283
:1042B000D0901602E0901702F09018028091610CE5
:1042C0009091620C892B09F089C1F4DA9093620C09
:1042D0008093610C892B09F481C1E091610CF0910C
:1042E000620C808183FF3EC085899689A789B08D45
:1042F00080932C0390932D03A0932E03B0932F0350
:10430000818D928DA38DB48D809330039093310372
:10431000A0933203B0933303858D968DA78DB0A102
:104320008093340390933503A0933603B0933703FF
:1043300081A192A1A3A1B4A18093380390933903E2
:10434000A0933A03B0933B039091B00E8091B10ECD
:10435000981709F4BACF8091B10E8F5F8F70809358
:10436000B10EB3CF85889688A788B08C81E0811480
:104370009104A104B10409F480E0C18CD28CE38CD7
:10438000F48CC114D104E104F10409F08260458D7C
:10439000568D678D70A1411551056105710509F0B4
:1043A00084608093D30A1092FB0A1092FC0A109248
:1043B000FD0A1092FE0A1092080B1092090B10923F
:1043C0000A0B10920B0B85A196A1A7A1B0A5809313
:1043D000100B9093110BA093120BB093130B44246A
:1043E00055243201481A590A6A0A7B0A4092F70A90
:1043F0005092F80A6092F90A7092FA0A4092F30A0F
:104400005092F40A6092F50A7092F60A4092EF0A0E
:104410005092F00A6092F10A7092F20A4092EB0A0E
:104420005092EC0A6092ED0A7092EE0A880C991C88
:10443000AA1CBB1C8092DB0A9092DC0AA092DD0AC7
:10444000B092DE0ACC0CDD1CEE1CFF1CC092DF0A11
:10445000D092E00AE092E10AF092E20A440F551F7E
:10446000661F771F4093E30A5093E40A6093E50ABE
:104470007093E60A41A152A163A174A1440F551F94
:10448000661F771F4093E70A5093E80A6093E90A92
:104490007093EA0A880F991FAA1FBB1F8093D70A3F
:1044A0009093D80AA093D90AB093DA0A1092140B09
:1044B0001092150B1092160B1092170B82A593A554
:1044C000A4A5B5A580930C0B90930D0BA0930E0B98
:1044D000B0930F0B86A597A5A0A9B1A98093FF0A59
:1044E0009093000BA093010BB093020B41A556A92A
:1044F0008091D20A58130AC08091140290E0242FB0
:10450000042E000C330B2817390729F05093D20AD8
:10451000409314020ADB0E9450578FEF9FEFDC019B
:104520008093150290931602A0931702B09318027D
:10453000E091610CF091620C83AD94ADA5ADB6AD88
:104540008093040B9093050BA093060BB093070B7D
:1045500023E331E141E0F901C590D590E590F49075
:10456000C816D906EA06FB0650F4B695A7959795A6
:104570008795440F2C5F3F4F2216330661F7409317
:10458000030B80329105A105B10508F4A6C18097FF
:10459000A109B1098115F8E09F07A105B10508F44B
:1045A00079C144E0949F900111242D5C324FF901B0
:1045B000329645915491EE27859FB001849F610DFD
:1045C0007E1F06946E1F7E1F1124F901C590D490A2
:1045D000E12CF12CC61AD70AE108F108C092180B99
:1045E000D092190BE0921A0BF0921B0B8091180BD2
:1045F0009091190BA0911A0BB0911B0BAC01BD014E
:104600000097F1E0AF07B10520F04FEF5FEF60E0FA
:1046100070E0841B950BA60BB70B8093180B90933F
:10462000190BA0931A0BB0931B0BF8948091840084
:10463000909185004096115039F0C40FD51FC817CE
:10464000D90708F4C9CA01C0EC01D0938900C0930E
:1046500088007894DF91CF911F91FF90EF90DF90C9
:10466000CF90BF90AF909F908F907F906F905F9012
:104670004F903F902F900895B694A7949794879465
:10468000220F049631E18F34930709F032CD209345
:10469000030B80E288169104A104B10408F459C008
:1046A00020E2821A9108A108B108811438E093062B
:1046B000A104B104F8F0A4E09A9EC00111248D5C1D
:1046C000924FFC01329625913491F82DEE27F39FFD
:1046D000D001F29FA10DBE1F0694AE1FBE1F112474
:1046E000FC01C590D490E12CF12CCA1ADB0AE10838
:1046F000F10822C0D501C401B695A7959795879575
:10470000FC01EC7FCF018D5C964FFC01C590D490ED
:10471000FC01329625913491E82DE770E29FC001AB
:10472000E39F900D1124F3E096958795FA95E1F7B4
:10473000C81AD90AE12CF12C4C0D5D1D6E1D7F1D90
:104740004093080B5093090B60930A0B70930B0B6B
:10475000B5CDA0E28A2E912CA12CB12CA1CFB6947C
:10476000A79497948794220F0496A1E18F349A0717
:1047700009F030CD2093030BB0E28B169104A10415
:10478000B10408F459C020E2821A9108A108B108C6
:10479000811438E09306A104B104F8F0A4E09A9ED5
:1047A000C00111248D5C924FFC0132962591349109
:1047B000F82DEE27F39FD001F29FA10DBE1F0694A6
:1047C000AE1FBE1F1124FC01C590D490E12CF12C2A
:1047D000CA1ADB0AE108F10822C0D501C401B69566
:1047E000A79597958795FC01EC7FCF018D5C964F3F
:1047F000FC01C590D490FC01329625913491E82DAE
:10480000E770E29FC001E39F900D112433E096957D
:1048100087953A95E1F7C81AD90AE12CF12C4C0D8D
:104820005D1D6E1D7F1D4093FB0A5093FC0A609333
:10483000FD0A7093FE0A42CDE0E28E2E912CA12C4F
:10484000B12CA1CFAC01BD017695679557954795E1
:10485000FA01EC7F9F012D5C364FF901459154918F
:10486000F9013296659174918770869F9001879FB8
:10487000300D1124C901F3E096958795FA95E1F77B
:10488000481B590B60E070E009CD80E290E0A0E0A9
:10489000B0E0DACCAC01BD017695679557954795A8
:1048A000FA01EC7F9F012D5C364FF901C590D49041
:1048B000F9013296459154918770849F9001859FAC
:1048C000300D1124C90123E0969587952A95E1F7CB
:1048D000C81AD90AE12CF12C81CE80E290E0A0E048
:1048E000B0E055CE80EDC82E87E0D82EE12CF12C1B
:1048F000ECCC8F929F92AF92BF92CF92DF92EF92C9
:10490000FF920F931F93CF93DF938C01EB0160E035
:1049100070E00E94739287FD8DC0C03282E0D8079C
:104920000CF042C0F801828128E532E0281B3109F1
:1049300087FD3395220F331F220F331F4901330F99
:10494000AA08BB08818128E830E06901C81AD108AB
:1049500087FDD394CC0CDD1CCC0CDD1C0D2C000C85
:10496000EE08FF08D7FD0AC0C53BD10514F0C4EB23
:10497000D0E0BE01DD0F880B990B03C060E070E052
:10498000CB01A50194012C193D094E095F090E9434
:104990007AB724EB30E040E050E00E94ABB7C20EA3
:1049A000D31EE41EF51EE601F8013081343280F595
:1049B000218188E890E0821B910927FD9395880F5B
:1049C000991F880F991FC817D90784F0F801228111
:1049D00088E592E0821B910927FD9395880F991F26
:1049E000880F991FC817D9070CF4CE0102974FB74B
:1049F000F894232F30E0F901EE0FFF1F2E0F3F1F19
:104A0000F901E650F14F880F991F928381834FBFC0
:104A100062E370E080E090E0DF91CF911F910F9111
:104A2000FF90EF90DF90CF90BF90AF909F908F90CE
:104A30000C94187BDF91CF911F910F91FF90EF9015
:104A4000DF90CF90BF90AF909F908F9008951F926E
:104A50000F920FB60F9211240BB60F922F933F9324
:104A60004F935F936F937F938F939F93AF93BF9376
:104A7000EF93FF9348E251E064E271E082E090E05E
:104A80000E948F1CFF91EF91BF91AF919F918F91E9
:104A90007F916F915F914F913F912F910F900BBE3E
:104AA0000F900FBE0F901F9018951F920F920FB688
:104AB0000F9211240BB60F922F933F934F935F9356
:104AC0006F937F938F939F93AF93BF93EF93FF93D6
:104AD00048EA50E064EA70E081E090E00E948F1CB8
:104AE000FF91EF91BF91AF919F918F917F916F91C6
:104AF0005F914F913F912F910F900BBE0F900FBE82
:104B00000F901F9018951F920F920FB60F921124BD
:104B10000BB60F922F933F934F935F936F937F93B7
:104B20008F939F93AF93BF93EF93FF9348E950E028
:104B300064E970E080E090E00E948F1CFF91EF91AB
:104B4000BF91AF919F918F917F916F915F914F91A5
:104B50003F912F910F900BBE0F900FBE0F901F90A3
:104B60001895CF92DF92EF92FF92CF93DF936A0175
:104B70007B01FC018491EF012196882321F00E94A2
:104B8000A618FE01F7CF4AE0C701B601DF91CF9129
:104B9000FF90EF90DF90CF900C943A1BCF92DF9272
:104BA000EF92FF92CF93DF936A017B01FC01849126
:104BB000EF012196882321F00E94A618FE01F7CF6D
:104BC00042E0C701B601DF91CF91FF90EF90DF90F7
:104BD000CF900C94BF1B0F931F93CF93DF938B0148
:104BE000FC018491EF012196882321F00E94A618F0
:104BF000FE01F7CFB801110F880B990BDF91CF9110
:104C00001F910F910C94A51B0F931F93CF93DF93CC
:104C10008B01FC018491EF012196882321F00E94F1
:104C2000A618FE01F7CFE8018991882319F00E94A8
:104C3000A618FACFDF91CF911F910F910895CF92CF
:104C4000DF92EF92FF920F931F9380914C0381505C
:104C5000823010F080E05DC010924C030E943D8FC6
:104C6000609348037093490380934A0390934B03E6
:104C70008091F4059091F50501969093F505809348
:104C8000F405C090EE05D090EF05E090F005F090AF
:104C9000F1050E94108C6093EE057093EF058093F0
:104CA000F0059093F1050091F6051091F70520911C
:104CB000F8053091F9050C191D092E093F09DC0191
:104CC000CB01800F911FA21FB31F8093F605909315
:104CD000F705A093F805B093F9050E94108C009198
:104CE000FA051091FB052091FC053091FD05061792
:104CF00017072807390750F40E94108C6093FA05B3
:104D00007093FB058093FC059093FD050E94C89469
:104D100081E01F910F91FF90EF90DF90CF90089569
:104D2000CF93C0914C03C13081F1C23059F40E943D
:104D3000108C6093700C7093710C8093720C909334
:104D4000730C02C00E94438C81E080934C030E944C
:104D50003D8F6093740C7093750C8093760C9093D8
:104D6000770CC230A1F08091F2059091F305019685
:104D70009093F3058093F2051092EE051092EF05E3
:104D80001092F0051092F10502C080E001C081E0B0
:104D9000CF910895CF93C82F482F60E084E39EE021
:104DA0000E943C7B4C2F61E08BEB9DE00E943C7BA2
:104DB0004C2F62E082E49DE00E943C7B4C2F65E03A
:104DC00089EC9CE00E943C7B8AE0CF910C94A61871
:104DD000EF92FF920F931F93CF93C82F8CE6E82E8C
:104DE00083E0F82EF70100811181228133814C2F5D
:104DF00060E084E39EE00E94E463F7010481158192
:104E0000268137814C2F61E08BEB9DE00E94E463AB
:104E1000F70100851185228533854C2F62E082E4FD
:104E20009DE00E94E463F7010085118522853385AA
:104E30004C2F65E089EC9CE00E94E4638AE0CF910E
:104E40001F910F91FF90EF900C94A618FF920F9373
:104E50001F93CF93DF938C01EB01F42E80E20E942D
:104E6000A6188FEFF81611F084E501C082E40E94C5
:104E7000A6188AE30E94A618F801608171818281D8
:104E8000938142E00E94BF1B488159816A817B81E6
:104E90008EE093E183DE62E070E080E090E0DF91FD
:104EA000CF911F910F91FF900C94058FCF93DF93BB
:104EB000E9EEF4E18491EF012196882321F00E942C
:104EC000A618FE01F7CF80E083DFE0EEF4E18491E5
:104ED000EF012196882321F00E94A618FE01F7CF4A
:104EE00081E076DFE4EDF4E18491EF0121968823FF
:104EF00021F00E94A618FE01F7CF82E069DFE8ECFE
:104F0000F4E18491EF012196882321F00E94A618F4
:104F1000FE01F7CF83E05CDFECEBF4E18491EF017D
:104F20002196882321F00E94A618FE01F7CF84E085
:104F30004FDFE0EBF4E18491EF012196882321F02B
:104F40000E94A618FE01F7CF85E042DFE3EAF4E114
:104F50008491EF012196882321F00E94A618FE017A
:104F6000F7CF86E035DFE8E9F4E18491EF0121969F
:104F7000882321F00E94A618FE01F7CF87E028DFE2
:104F8000EDE8F4E18491EF012196882321F00E945D
:104F9000A618FE01F7CF88E01BDFE5E8F4E1849175
:104FA000EF012196882321F00E94A618FE01F7CF79
:104FB00089E00EDFE9E7F4E18491EF01219688238F
:104FC00021F00E94A618FE01F7CF8AE001DFE1E799
:104FD000F4E18491EF012196882321F00E94A61824
:104FE000FE01F7CF8BE0F4DEEAE6F4E18491EF0115
:104FF0002196882321F00E94A618FE01F7CF8CE0AD
:10500000E7DEEBE5F4E18491EF012196882321F0BE
:105010000E94A618FE01F7CF8DE0DADEE3E5F4E1A9
:105020008491EF012196882321F00E94A618FE01A9
:10503000F7CF8EE0CDDEE8E4F4E18491EF01219634
:10504000882321F00E94A618FE01F7CF8FE0C0DE72
:10505000EAE2F4E18491EF012196882321F00E9495
:10506000A618FE01F7CF80E1B3DEE0E2F4E184911F
:10507000EF012196882321F00E94A618FE01F7CFA8
:1050800081E1A6DEE5E1F4E18491EF012196882338
:1050900021F00E94A618FE01F7CF82E199DEE4E03C
:1050A000F4E18491EF012196882321F00E94A61853
:1050B000FE01F7CF83E18CDEECEFF3E18491EF01A9
:1050C0002196882321F00E94A618FE01F7CF84E1E3
:1050D0007FDEECEEF3E18491EF012196882321F04D
:1050E0000E94A618FE01F7CF85E172DEE2EEF3E141
:1050F0008491EF012196882321F00E94A618FE01D9
:10510000F7CF80E047DEE6EDF3E18491EF012196F1
:10511000882321F00E94A618FE01F7CF88E03ADE2E
:10512000EBECF3E18491EF012196882321F00E94BA
:10513000A618FE01F7CF8BE02DDEE1ECF3E18491C0
:10514000EF012196882321F00E94A618FE01F7CFD7
:105150008AE020DEEBEBF3E18491EF0121968823D6
:1051600021F00E94A618FE01F7CF81E013DEE6EBE6
:10517000F3E18491EF012196882321F00E94A61883
:10518000FE01F7CF82E006DEE1EBF3E18491EF016F
:105190002196882321F00E94A618FE01F7CF83E014
:1051A000F9DDEBEAF3E18491EF012196882321F008
:1051B0000E94A618FE01F7CF84E0ECDDE5EAF3E1FA
:1051C0008491EF012196882321F00E94A618FE0108
:1051D000F7CF85E0DFDDEFE9F3E18491EF01219680
:1051E000882321F00E94A618FE01F7CF86E0D2DDC9
:1051F000EBE9F3E18491EF012196882321F00E94ED
:10520000A618FE01F7CF87E0C5DDE9E8F3E1849158
:10521000EF012196882321F00E94A618FE01F7CF06
:105220008CE0B8DD8AE0DF91CF910C94A618CF9383
:10523000DF93880F990BFC01E65EFC4E25913491BB
:10524000F9018491EF012196882321F00E94A6188C
:10525000FE01F7CFDF91CF9108951F93CF93DF9396
:10526000162FE5DFE3E7F3E18491EF012196882330
:1052700021F00E94A618FE01F7CF612F110F770BC6
:10528000880B990B0E94A51B8DE00E94A6188AE04E
:10529000DF91CF911F910C94A618CF93DF93C7DFB6
:1052A000ECE5F3E18491EF012196882321F00E943F
:1052B000A618FE01F7CFDF91CF9108951F93CF93EA
:1052C000DF93162FB4DFEBE3F3E18491EF01219636
:1052D000882321F00E94A618FE01F7CF111103C008
:1052E000E5E3F3E102C0E0E3F3E18491EF0121960D
:1052F000882321F00E94A618FE01F7CF8AE0DF91F3
:10530000CF911F910C94A6188F929F92AF92BF924B
:10531000CF92DF92EF92FF920F931F93CF93DF9381
:10532000F0E4FF2EE12CAE2DB0E0BD016F0D711D3C
:10533000759567956E1511F0F6120BC0EFE6F2E168
:1053400065917491072E000C880B990B0E9422B175
:1053500062C09B0121503109220F331F220F331FDE
:10536000F901EF58FE4E05911491AB01440F551F02
:10537000440F551FFA01EF58FE4EC591D491801786
:10538000910714F4F62ED1CFC817D90714F4E62EDE
:10539000CACFF901ED58FE4EE590F490FA01ED58B0
:1053A000FE4EC590D490BC01601B710B072E000C03
:1053B000880B990B0E9422B14B015C01B6016E195A
:1053C0007F09072E000C880B990B0E9422B19B01CC
:1053D000AC01C501B4010E9481B14B015C01C01B4D
:1053E000D10BBE01DD0F880B990B0E9422B19B01EE
:1053F000AC01C501B4010E94BDB84B015C01B7010D
:10540000FF0C880B990B0E9422B19B01AC01C501D6
:10541000B4010E94E1B7DF91CF911F910F91FF90EE
:10542000EF90DF90CF90BF90AF909F908F900895B6
:105430000F931F93CF93DF93CDB7DEB728970FB6A7
:10544000F894DEBF0FBECDBF60914D0370914E0347
:10545000072E000C880B990B0E9422B16D837E836E
:105460008F8398878091360B9091370BA091380BE2
:10547000B091390B89839A83AB83BC834DEFBE0116
:105480006B5F7F4FCE010196E1DC60915403709118
:105490005503072E000C880B990B0E9422B16D83D7
:1054A0007E838F8398878091320B9091330BA091EC
:1054B000340BB091350B89839A83AB83BC834FEF58
:1054C000BE016B5F7F4FCE010196C0DCE6E1F3E1E8
:1054D00084918F010F5F1F4F882321F00E94A6182F
:1054E000F801F6CFE091DE03F0E0E05DF44F60817B
:1054F00070E080E090E00E94A51BE1E1F3E184917F
:105500008F010F5F1F4F882321F00E94A618F8011A
:10551000F6CF6091310B70E080E090E00E94A51B17
:1055200028960FB6F894DEBF0FBECDBFDF91CF91A6
:105530001F910F9108950F931F93CF93DF93809145
:105540001F028F37A0F08F579091300B9093550B1F
:10555000992311F02C9A01C02C982091310B2093A3
:10556000540B90910201222369F090950BC0909109
:10557000550B891708F02C989091540B891728F037
:10558000909102019072909300018F5F80931F02AF
:105590009091530B81E089278093530B80911E02D9
:1055A00085301CF4C1E0C80F01C0C0E0823009F4AE
:1055B000BCC054F4882301F1813009F0EBC088E0CD
:1055C00080937B0085E4C8C0843009F4CDC00CF41E
:1055D000BFC0853009F0DEC09091520B911102C01E
:1055E0008093520B8091520B81508093520B8823F1
:1055F00009F4D0C0C5E0CEC080911D028F5F80311C
:105600001CF480931D02C6C010921D0280912D0BC8
:10561000811113C08091480B9091490B9093450BD9
:105620008093440B8091460B9091470B9093430BD2
:105630008093420B81E080932D0B8AE0E8E4FBE04D
:10564000DF011D928A95E9F71092470B1092460BE5
:105650000091440B1091450B119501951109809112
:105660004D0390914E03D1E0181619062CF080914D
:10567000300B811101C0D0E080912B0B90912C0B4D
:10568000919581959109801791073CF448EA52E180
:1056900069EC72E180E00E945D8380911B02909131
:1056A0001C02919581959109081719074CF4DD2387
:1056B00039F04BED52E16CEF72E180E00E945D83C6
:1056C000809154039091550311E0181619062CF09F
:1056D0008091310B811101C010E02091420B30917B
:1056E000430B8091290B90912A0B821793073CF072
:1056F00048EB52E169EC72E18FEF0E945D832091EB
:10570000190230911A028091420B9091430B82173B
:1057100093070CF43FC01123E9F14BEE52E16CEF1B
:1057200072E18FEF0E945D8335C080917A0086FD23
:105730002EC080917800909179002091480B309193
:10574000490B820F931F9093490B8093480B22C003
:1057500088E080937B0086E480937C0080917A00CF
:10576000806480937A0016C080917A0086FD11C013
:1057700080917800909179002091460B3091470BF1
:10578000820F931F9093470B8093460B03C0C2E098
:1057900001C0C4E0C0931E020E94505780912E0B9E
:1057A00090912F0B009729F0019790932F0B8093E6
:1057B0002E0BDF91CF911F910F9108950F930FB78B
:1057C0000F9300916E000B7F00936E0078940F93FF
:1057D0000BB70F930CB70F921F922F933F934F93DA
:1057E0005F936F937F938F939F93AF93BF93EF9349
:1057F000FF931124A0DEFF91EF91BF91AF919F9194
:105800008F917F916F915F914F913F912F911F9059
:105810000F900CBF0F910BBF0F910460F894009391
:105820006E000F910FBF0F9118952F923F924F92DC
:105830005F926F927F928F929F92AF92BF92CF9220
:10584000DF92EF92FF920F931F93CF93DF9300D0DD
:105850001F92CDB7DEB75C017A8369834A011701D5
:1058600007FD07C0802F002E000C990B9C838B83B3
:1058700004C0E1E0F0E0FC83EB83F901408051805B
:10588000628073808B819C81880F991F880F991F7C
:105890009C838B83865C944F7C01A3019201FC0165
:1058A00060817181828193810E941CB1882391F073
:1058B000F701408251826282738211E020E030E081
:1058C000A901C301B2010E9408BA18160CF010E039
:1058D000F5011083F50180818230D1F0833009F425
:1058E0005EC0813009F07DC0EB81FC81E65CF44F45
:1058F0002081318142815381F401608171818281F3
:1059000093810E941CB187FD6CC082E0F501808309
:105910008B819C81865C944F9C838B83B60180E055
:1059200090E00E9420B19B01AC01EB81FC81608181
:105930007181828193810E94E0B79B01AC01F401E7
:1059400060817181828193810E9408BA87FD14C0B1
:105950000E943D8F6B017C019101A8EEB3E00E9493
:10596000D1B7C60ED71EE81EF91EE981FA81C082A2
:10597000D182E282F38235C00E943D8FE981FA81B3
:10598000C080D180E280F380DC01CB018C199D09BD
:10599000AE09BF09B7FD25C083E0F50180830F3F45
:1059A00019F041E752E102C044E852E168E972E1CE
:1059B000802F0F900F900F900F90DF91CF911F913C
:1059C0000F91FF90EF90DF90CF90BF90AF909F909E
:1059D0008F907F906F905F904F903F902F900C949E
:1059E0005D830F900F900F900F90DF91CF911F91DB
:1059F0000F91FF90EF90DF90CF90BF90AF909F906E
:105A00008F907F906F905F904F903F902F90089570
:105A1000CF92DF92EF92FF92C090320BD090330B77
:105A2000E090340BF090350B609154037091550366
:105A300065507109072E000C880B990B0E9422B14A
:105A40009B01AC01C701B6010E941CB187FF1FC0BA
:105A500020E030E040E85FE3C701B6010E94E1B713
:105A60000E942AB97093270B6093260B0E943D8FEA
:105A7000DC01CB01805A9541AF4FBF4F8093220B81
:105A80009093230BA093240BB093250B08C0109286
:105A9000220B1092230B1092240B1092250BFF90D7
:105AA000EF90DF90CF900895CF92DF92EF92FF9228
:105AB000C090360BD090370BE090380BF090390B3C
:105AC00060914D0370914E0366507109072E000CD2
:105AD000880B990B0E9422B19B01AC01C701B60152
