:100000000C9424110C9455110C9455110C94551109
:100010000C9455110C9455110C9455110C945511C8
:100020000C9455110C9455110C9455110C945511B8
:100030000C9455110C9455110C9455110C945511A8
:100040000C9455110C94A5200C9455110C94551139
:100050000C9455110C9455110C940C3A0C94CD88B9
:100060000C9455110C947F1F0C9455110C94551140
:100070000C9455110C9455110C9455110C94551168
:100080000C94D2280C9455110C9455110C945511C4
:100090000C9455110C9455110C9455110C94551148
:1000A0000C9455110C9455110C94A4280C945511D2
:1000B0000C9455110C9455110C9455110C947628F0
:1000C0000C9455110C9455110C9455110C94551118
:1000D0000C9455110C9455110C9455110C94551108
:1000E0000C9455112E5B415B555B5A5B6F5B7F5BDC
:1000F0009A5BAE5BC55CC95BC55CDD5BC55CE15B07
:10010000E65B335C475C595C665C855CA65C22768A
:100110002D7634763A76407646764C765276D6769A
:100120005876D676D6766F766E86718660866486C9
:100130006A86A886758679867F86838687868D8679
:1001400091869586A8869B869F86A3866287678709
:100150006C8776878087F9878A8792879A87A487B2
:10016000AE87B887C787D187F987DB87E587EF87B1
:10017000084AD73B3BCE016E84BCBFFDC12F3D6C0E
:1001800074319ABD56833DDA3D00C77F11BED9E474
:10019000BB4C3E916BAAAABE000000803F05A84C54
:1001A000CDB2D44EB93836A9020C50B99186880820
:1001B0003CA6AAAA2ABE000000803F004E414E493C
:1001C0004E495459494E46CDCCCC3D0AD7233C1715
:1001D000B7D13877CC2B329595E6241FB14F0A0062
:1001E0000020410000C84200401C4620BCBE4CCA52
:1001F0001B0E5AAEC59D7400407A10F35A00A072CF
:100200004E18090010A5D4E80000E8764817000051
:10021000E40B54020000CA9A3B000000E1F505001F
:100220000080969800000040420F000000A0860168
:10023000000000102700000000E803000000006438
:1002400000000000000A00000000000100000000A3
:10025000002C76D888DC674F0823DFC1DFAE59E178
:10026000B1B796E5E3E453C63AE651997696E8E6E7
:10027000C28426EB898C9B62ED407C6FFCEFBC9CBA
:100280009F40F2BAA56FA5F490055A2AF75C936BCC
:100290006CF9676DC11BFCE0E40D47FEF520E6B587
:1002A00000D0ED902E0300943577050080841E0861
:1002B0000000204E0A000000C80C333333330F987F
:1002C0006E12831141EF8D2114893BE65516CFFE46
:1002D000E6DB18D1844B381BF77C1D901DA4BBE4D2
:1002E00024203284725E228100C9F124ECA1E53D14
:1002F00027434F4D4D554E49434154494F4E0044BD
:10030000525952554E004552524F525300494E4693
:100310004F004543484F0047322F47332062616406
:1003200020706172616D65746572730A00486F6D4B
:10033000652058592066697273740A00205A3A2061
:100340000020593A200042656420583A200050723B
:10035000696E742074696D653A200012030D0306FE
:1003600003FF02F1026F66660044454255473A00BA
:100370004B494C4C45442E20004D31313320530025
:100380006F6B0050533A310A0050533A300A002C38
:1003900020002C2000544845524D414C5F50524F94
:1003A00054454354494F4E004155544F5245504FC8
:1003B00052545F53445F53544154555300454D4587
:1003C0005247454E43595F504152534552004341B5
:1003D00053455F4C494748545F4252494748544E41
:1003E00045535300544F47474C455F4C4947485489
:1003F0005300534F4654574152455F504F57455253
:10040000004255494C445F50455243454E54004CC0
:100410004556454C494E475F44415441005A5F5050
:10042000524F4245004155544F4C4556454C0050A3
:1004300052494E545F4A4F420050524F4752455323
:1004400053004155544F5245504F52545F54454DFF
:100450005000564F4C554D45545249430045455068
:10046000524F4D0053455249414C5F584F4E5F58D3
:100470004F4646004649524D574152455F4E414D09
:10048000453A4D61726C696E20312E312E3920282B
:100490004769746875622920534F555243455F433D
:1004A0004F44455F55524C3A68747470733A2F2F1D
:1004B0006769746875622E636F6D2F4D61726C6928
:1004C0006E4669726D776172652F4D61726C696EEF
:1004D0002050524F544F434F4C5F56455253494F53
:1004E0004E3A312E30204D414348494E455F5459D4
:1004F00050453A52616D70735F312E362045585425
:1005000052554445525F434F554E543A312055554C
:1005100049443A64656433303464392D3438666153
:100520002D346130622D623533392D3432386664B2
:10053000326131376332330A002F2F2000205400FC
:10054000205200416363656C65726174696F6E3A35
:1005500020500000000000000050C10000000054C6
:100560006F6F206661722066726F6D2072656665BE
:1005700072656E636520706F696E740A00FFFFFF1D
:1005800020466C6F773A2000000136372603FFFFC4
:10059000FF2A3C3D380EFFFFFF312E303E12FFFF99
:1005A000FFFF28FF0C0809FFFFFF1A1C18FFFF358B
:1005B00008440AFF4324221E2C206F7574206F66A6
:1005C0002072616E67650A00536572766F20003A8B
:1005D000200020536572766F200043290A00616273
:1005E0006C656420286D696E2074656D7020004311
:1005F0006F6C6420657874727564657320617265D0
:10060000200020643A0020693A0020703A004E6FC2
:100610002063617365206C696768740A00426564D1
:10062000204C6576656C696E6720004661696C6573
:100630006420746F20656E61626C65204265642081
:100640004C6576656C696E670A00426564204C658E
:1006500076656C20436F7272656374696F6E204DAE
:1006600061747269783A00454550524F4D204F4BA6
:100670000A003F5A206F7574206F662072616E67A2
:100680006520282D323020746F203230290A003A3C
:10069000200050726F6265205A204F666673657441
:1006A00000617869733A70776D5F7363616C652080
:1006B0007C7374617475735F726573706F6E73654C
:1006C0007C0A0041637469766520457874727564AC
:1006D00065723A2000496E76616C696420657874B1
:1006E00072756465720A006F6B00205A3A002059D7
:1006F0003A0020583A00656E6473746F7073206816
:1007000069743A20002569730025696D2025697395
:10071000002569682025696D2025697300256964B5
:10072000202569682025696D202569730025697970
:1007300020256964202569682025696D2025697355
:1007400000656E7175657565696E672022004B499D
:100750004C4C45442E20005072696E7465722073B3
:10076000746F707065642064756520746F206572A5
:10077000726F72732E2046697820746865206572E6
:10078000726F7220616E6420757365204D3939393E
:1007900020746F20726573746172742E2028546502
:1007A0006D7065726174757265206973207265730E
:1007B00065742E20536574206974206166746572B7
:1007C0002072657374617274696E67290A004E6FD6
:1007D00020436865636B73756D2077697468206C5E
:1007E000696E65206E756D6265722C204C61737444
:1007F000204C696E653A2000636865636B73756DA4
:10080000206D69736D617463682C204C6173742072
:100810004C696E653A20004C696E65204E756D62BC
:100820006572206973206E6F74204C617374204C64
:10083000696E65204E756D6265722B312C204C619E
:100840007374204C696E653A20004D3131300020C0
:10085000496E76616C69642065787472756465723E
:10086000200000000000000050C100000000000057
:10087000AF430080A84300009B435072696E7465CB
:10088000722073746F707065642064756520746F76
:10089000206572726F72732E2046697820746865C5
:1008A000206572726F7220616E6420757365204DD1
:1008B00039393920746F20726573746172742E2017
:1008C0002854656D70657261747572652069732056
:1008D00072657365742E2053657420697420616697
:1008E0007465722072657374617274696E67290A27
:1008F0000053544F502063616C6C656420626563E3
:1009000061757365206F6620424C546F7563682073
:100910006572726F72202D2072657374617274201B
:1009200077697468204D3939390A00486F6D696EEE
:1009300067206661696C6564000A0A426564204C40
:100940006576656C20436F7272656374696F6E20A3
:100950004D61747269783A00202844525952554EBC
:100960002900473239204175746F20426564204C5C
:100970006576656C696E67003F2856296572626FFF
:100980007365206C6576656C20697320696D706C89
:1009900061757369626C652028302D34292E0A0038
:1009A00024F4D43050C38E20C2A24017828B701121
:1009B000127A910D816CD90AA861E108C7586607BF
:1009C000615143061E4B5D05C145A7041A41110440
:1009D000093D9803713931034036DB0265339102DA
:1009E000D4305402802E1D02632CEE01752AC501FD
:1009F000B028A001102781018F2564012B244B0111
:100A0000E0223401AC211F018D200D01801FFC006C
:100A1000841EED00971DDF00B81CD200E61BC60047
:100A2000201BBC00641AB200B219A8000A19A00069
:100A30006A189900D117910040178B00B5168400F1
:100A400031167E00B31579003A157300C7146F0094
:100A500058146A00EE1366008813630025135E00C5
:100A6000C7125B006C12570015125400C1115100DF
:100A700070114F0021114B00D61049008D10470016
:100A80004610440002104200C00F4000800F3E009C
:100A9000420F3C00060F3B00CB0E3800930E370090
:100AA0005C0E3500270E3400F30D3200C10D31000D
:100AB000900D3000600D2E00320D2D00050D2C0024
:100AC000D90C2B00AE0C2900850C29005C0C2700EA
:100AD000350C27000E0C2600E80B2400C40B240064
:100AE000A00B23007D0B23005A0B2100390B2100A2
:100AF000180B2000F80A1F00D90A1E00BB0A1E00AE
:100B00009D0A1D00800A1D00630A1C00470A1B0085
:100B10002C0A1B00110A1A00F7091A00DD09190036
:100B2000C4091900AB091900920917007B091800C4
:100B3000630917004C091600360916002009160033
:100B40000A091500F5081500E0081400CC08140087
:100B5000B8081400A4081400900813007D081200BF
:100B60006B081300580812004608120034081100E0
:100B7000230811001208110001081100F0071000ED
:100B8000E0071000D0071000C0071000B0070F00EA
:100B9000A107100091070E0083070F0074070F00D4
:100BA00065070E0057070E0049070E003B070D00B2
:100BB0002E070E0020070D0013070D0006070D007D
:100BC000F9060C00ED060D00E0060C00D4060C0042
:100BD000C8060C00BC060C00B0060C00A4060B00F6
:100BE00099060C008D060B0082060B0077060B00A1
:100BF0006C060B0061060A0057060B004C060A0043
:100C000042060A0038060A002E060A0024060A00D8
:100C10001A060A001006090007060A00FD05090069
:100C2000F4050900EB050900E2050900D9050900F2
:100C3000D0050900C7050900BE050900B505080073
:100C4000AD050800A50509009C05080094050800ED
:100C50008C050800840508007C0508007405080060
:100C60006C050700650508005D05070056050800CE
:100C70004E05070047050700400508003805070036
:100C8000310507002A050700230507001C0506009B
:100C9000160507000F0507000805060002050700F6
:100CA000FB040600F5040700EE040600E804060055
:100CB000E2040700DB040600D5040600CF040600AA
:100CC000C9040600C3040600BD040600B7040600FC
:100CD000B1040500AC040600A6040600A00405004B
:100CE0009B04060095040500900406008A04050094
:100CF00085040500800406007A04050075040500DB
:100D0000700405006B04050066040500610405001D
:100D10005C04050057040500520405004D0405005D
:100D200048040500430405003E0404003A0405009D
:100D300035040500300404002C04050027040400D9
:100D4000230405001E0404001A0404001604050010
:100D5000110404000D040400090405000404040047
:100D600000040400FC030400F8030400F40304007E
:100D7000F0030400EC030400E8030400E4030400AF
:100D8000E0030400DC030400D8030400D4030400DF
:100D9000D0030400CC030400C8030300C503030010
:100DA00024F404D9201BC40C5C0E9804C4095F020F
:100DB00065077101F405F900FB04B30048048700DE
:100DC000C10369005803550003034500BE023A0001
:100DD0008402310053022A00290225000402200067
:100DE000E4011C00C8011900AF01170098011400AC
:100DF00084011300710110006101100051010E0007
:100E000043010D0036010B002B010B0020010B00EC
:100E1000150109000C01090003010800FB0008008E
:100E2000F3000800EB000700E4000600DE00060007
:100E3000D8000600D2000600CC000500C70005005F
:100E4000C2000500BD000400B9000400B5000400A4
:100E5000B1000400AD000400A9000400A5000300D7
:100E6000A20003009F0004009B0003009800030001
:100E70009500020093000300900003008D00020023
:100E80008B0003008800020086000200840003003B
:100E9000810002007F0002007D0002007B00020052
:100EA0007900020077000100760002007400020061
:100EB00072000100710002006F0002006D0001006D
:100EC0006C0002006A000100690002006700010076
:100ED000660001006500010064000200620001007C
:100EE00061000100600001005F0002005D00010080
:100EF0005C0001005B0001005A0001005900010084
:100F00005800010057000100560001005500010083
:100F10005400010053000000530001005200010082
:100F200051000100500001004F0001004E00000080
:100F30004E0001004D0001004C0001004B0000007C
:100F40004B0001004A000100490001004800000078
:100F50004800010047000100460000004600010073
:100F6000450000004500010044000100430000006E
:100F70004300010042000000420001004100000067
:100F800041000100400001003F0000003F0001005F
:100F90003E0000003E0001003D0000003D00010059
:100FA0003C0000003C0000003C0001003B00000051
:100FB0003B0001003A0000003A0001003900000047
:100FC000390001003800000038000000380001003E
:100FD0003700000037000100360000003600000036
:100FE000360001003500000035000000350001002A
:100FF0003400000034000000340001003300000021
:101000003300000033000100320000003200000015
:101010003200010031000000310000003100010009
:101020003000000030000000300001002F00000000
:101030002F0000002F0000002F0001002E000000F4
:101040002E0000002E0001002D0000002D000000E9
:101050002D0000002D0001002C0000002C000000DD
:101060002C0000002C0001002B0000002B000000D1
:101070002B0000002B0001002A0000002A000000C5
:101080002A0000002A0001002900000029000000B9
:1010900029000000290000002900010028000000AC
:1010A000280000002800000028000000280001009F
:1010B0002700000027000000270000002700000094
:1010C0002700010026000000260000002600000086
:1010D0002600000026000100250000002500000079
:1010E000250000002500000025000000250001006B
:1010F0002400000024000000240000002400000060
:101100002400010023000000230000002300000051
:101110002300000023000000230000002300010042
:101120002200000022000000220000002200000037
:101130002200000022000100210000002100000028
:10114000210000002100000021000000210000001B
:10115000210001002000000020000000200000000D
:1011600020000000200000002000000020000000FF
:10117000200001001F0000001F0000001F000000F1
:101180001F0000001F0000001F0000001F000100E2
:101190001E0000001E0000001E0000001E000000D7
:1011A000043700001E290000511B000058100000E9
:1011B00010090000CC04000078020000410100008A
:1011C000454550524F4D206461746173697A6520C2
:1011D0006572726F722E0A00290A002062797465A6
:1011E000733B20637263200053657474696E677388
:1011F0002053746F726564202800290A00206279E8
:101200007465733B2063726320002073746F726592
:10121000642073657474696E677320726574726993
:1012200065766564202800202863616C63756C61B5
:1012300074656429210A0020213D20004545505253
:101240004F4D20435243206D69736D617463682074
:101250002D202873746F7265642920002053697AE9
:10126000653A2000496E6465783A2000204D61722D
:101270006C696E3D563535290A0028454550524F58
:101280004D3D00454550524F4D2076657273696F54
:101290006E206D69736D617463682000453400458C
:1012A00033004532004531004530005A3200593292
:1012B000005832005A005900580070012C0190016A
:1012C0002701B0012201C0011D01F0011801100227
:1012D000130130020E016002090190020401C002F4
:1012E000FF000003FA004003F5008003F000D00384
:1012F000EB002004E6007004E100E004DC0040059F
:10130000D700C005D2004006CD00D006C800800737
:10131000C3003008BE00F008B900C009B400B00A2C
:10132000AF00B00BAA00D00CA500000EA000500F1B
:101330009B00C01096005012910000148C00C01544
:101340008700B0178200B0197D00D01B7800001E06
:10135000730040206E0090226900F0246400402752
:101360005F0090295A00E02B5500102E50002030CD
:101370004B0010324600E033410090353C001037FE
:10138000370070383200A0392D00B03A2800A03B59
:101390002300603C1E00103D1900903D1400103EDB
:1013A0000F00703E0A00C03E0500003F0000403FB5
:1013B000FBFF803FF6FFC03FF1FF45312054484519
:1013C000524D414C2052554E4157415900424544DF
:1013D00020544845524D414C2052554E4157415999
:1013E00000546865726D616C2052756E6177617929
:1013F000004531204572723A204D415854454D50B8
:10140000004572723A204D415854454D5020424596
:1014100044004D415854454D5020747269676765CA
:10142000726564004531204572723A204D494E5430
:10143000454D50004572723A204D494E54454D502D
:1014400020424544004D494E54454D502074726928
:1014500067676572656400202F002042403A0020D3
:10146000403A00B812B612B412B112AE12AB12A8C2
:1014700012A512A2129F129C127472756500666109
:101480006C7365002074656D70657261747572654A
:10149000207072657761726E207472696767657219
:1014A00065643A2000207072657761726E20666C08
:1014B000616720636C65617265640A0020686F6D06
:1014C000696E672073656E73697469766974793AB9
:1014D000200044726976657220726567697374656D
:1014E00072733A006F7409006F7470770900733279
:1014F000676109007332676209006F6C6109006FF0
:101500006C620900737473740900667361637469B3
:101510007665090073675F726573756C7409007393
:1015200074616C6C6775617264090044525653545F
:1015300041545553005374616C6C6775617264203B
:1015400074687273002D7374617274090068797322
:10155000746572657369730A2D656E640900626C47
:10156000616E6B2074696D65006F66662074696DCD
:101570006509004F54207072657761726E20686152
:10158000730A6265656E2074726967676572656467
:10159000004F54207072657761726E005B6D6D2F25
:1015A000735D090070776D0A7468726573686F6C9B
:1015B000640900747374657009006D7374657073E9
:1015C0000900737465616C746843686F70007673AA
:1015D000656E7365090050574D207363616C650932
:1015E0000043532061637475616C0900486F6C643B
:1015F0002063757272656E740052756E2063757229
:1016000072656E74004D41582063757272656E7418
:1016100000524D532063757272656E740053657489
:101620002063757272656E7400456E61626C6564EC
:101630000900090020746F6F206C6F6E6720657859
:1016400074727573696F6E2070726576656E7465FD
:10165000640A0020636F6C64206578747275736926
:101660006F6E2070726576656E7465640A00205A2C
:1016700000205900580020204D61783A2000205A5F
:1016800000205900580020204D696E3A20004F6E0E
:1016900020004F666600536F667420656E64737435
:1016A0006F70733A200020643A0020693A0020707D
:1016B0003A00496E76616C6964206578747275646D
:1016C00065720A00473238205A000A486F6D696E09
:1016D00067205A2064756520746F206C6F737420C6
:1016E00073746570730A000A43616C696272617495
:1016F000696F6E2063757272656E743A205A000AC3
:10170000506C6561736520686F6D65205A20617843
:1017100069732066697273740A00526573656E643A
:101720003A200020746F6F206C6F6E6720657874AC
:10173000727573696F6E2070726576656E7465641C
:101740000A0020636F6C6420657874727573696F2A
:101750006E2070726576656E7465640A00627573DA
:10176000793A2070617573656420666F7220696EC6
:101770007075740A00627573793A207061757365CB
:101780006420666F7220757365720A0062757379E2
:101790003A2070726F63657373696E670A004B4914
:1017A0004C4C45442E20004B494C4C2063617573D2
:1017B000656420627920746F6F206D75636820699D
:1017C0006E6163746976652074696D65202D206390
:1017D000757272656E7420636F6D6D616E643A2010
:1017E000005072696E7465722068616C7465642E55
:1017F000206B696C6C28292063616C6C6564210A1C
:10180000002020506C616E6E65724275666665726E
:1018100042797465733A20002046726565204D65F3
:101820006D6F72793A2000436F6D70696C65643A30
:10183000204F637420313920323031380A00207C47
:1018400020417574686F723A20284261757369325D
:101850003031322C2064656661756C7420636F6E64
:10186000666967290A00323031382D30382D303121
:1018700000204C61737420557064617465643A2073
:1018800000312E312E390A004D61726C696E0020D4
:10189000536F6674776172652052657365740A00D0
:1018A000205761746368646F672052657365740ABA
:1018B000002042726F776E206F75742052657365D9
:1018C000740A002045787465726E616C20526573ED
:1018D00065740A00506F77657255700A0073746101
:1018E00072740A0020647269766572206375727280
:1018F000656E743A20000000484200004842000033
:101900008040000000005761726E696E673A20489F
:101910006F6D696E672042756D70204469766973DA
:101920006F72203C20310A00020204000000000017
:10193000000000000000400000AF430000AF430083
:10194000009B434572726F722077726974696E678B
:1019500020746F20454550524F4D210A0025753A9D
:101960002530327500253032753A25303275002524
:10197000756420253032753A25303275007C2000A0
:10198000207C3062003A002063757272656E7420AC
:1019900064656372656173656420746F20006D41D6
:1019A000290A0020647269766572206F7665727408
:1019B000656D7065726174757265207761726E69AC
:1019C0006E67212028003A200044726976657220F3
:1019D0006572726F720073686F727420746F206723
:1019E000726F756E642028636F696C2042290A004B
:1019F00073686F727420746F2067726F756E6420E5
:101A000028636F696C2041290A006F7665727465DE
:101A10006D70657261747572650A00206472697612
:101A20006572206572726F72206465746563746597
:101A3000643A0A00747275650066616C73650074BF
:101A40007275650066616C73650074727565006619
:101A5000616C736500313D2E313800303D2E3332DC
:101A600035002F3331002F3331002F3331007472A2
:101A700075650066616C736500556E6B6E6F776E91
:101A800020636F6D6D616E643A20220050726F6248
:101A9000696E67206661696C65640A00205A3A20A5
:101AA0000020593A200042656420583A2000000086
:101AB00020002300260029002C002F003200000106
:101AC00000000301060109012066697273740A00AF
:101AD0005A0059005800486F6D6520006563686FB3
:101AE0003A004572726F723A000102102020080815
:101AF0001020401020408002010201080402010170
:101B00000204081020408080402010080402018058
:101B100004020180402010080402010804020101AF
:101B200002040810204080010204081020408000B8
:101B3000002200250028002B002E00310034000276
:101B4000010000050108010B010505050507050851
:101B5000080808020202020A0A0808040404040130
:101B60000101010101010103030303030303030452
:101B70000707070C0C0C0C0C0C0C0C0202020206E2
:101B8000060606060606060B0B0B0B0B0B0B0B5083
:101B9000726F7465637465642050696E0A00205723
:101BA0003A0020573A00205A3A0020593A00204380
:101BB0006F756E7420583A0020453A00205A3A005A
:101BC00020593A00583A004469666665723A200026
:101BD00046726F6D5374703A00537465707065721D
:101BE0003A00556E4C6576656C3A004C6576656CCE
:101BF00065643A005261773A20202020000A4C6F39
:101C0000676963616C3A003A004361703A00203DB5
:101C10002030780048617264636F646564204465B5
:101C20006661756C742053657474696E6773204CBB
:101C30006F616465640A00B80B0000B80B000064B3
:101C400000000010270000000096430000964300AB
:101C500000A0400000C841856BA0425C8FA04200FC
:101C600000C8430A77DF4320204D393036003A0A56
:101C70000020286D6D290020204D39313400205975
:101C80000020580053656E736F726C657373206823
:101C90006F6D696E67207468726573686F6C643A03
:101CA0000A00205A0020493100205A002059002003
:101CB000580053746570706572206472697665723D
:101CC0002063757272656E743A0A0020204D3835B3
:101CD00031205A005A2D50726F6265204F6666732C
:101CE00065740020440020490020204D333034200A
:101CF000500020440020490020204D333031205036
:101D0000005049442073657474696E67733A0A0021
:101D100020204D3432302053004175746F204265CD
:101D200064204C6576656C696E673A0A00205A003B
:101D300020590020204D323036205800486F6D6504
:101D4000206F66667365743A0A00204500205A00C9
:101D500020590020580020540020530020204D32EC
:101D6000303520510020453C6D61785F655F6A65C4
:101D7000726B3E0020583C6D61785F785F6A6572D7
:101D80006B3E20593C6D61785F795F6A65726B3E8E
:101D9000205A3C6D61785F7A5F6A65726B3E0041E4
:101DA0006476616E6365643A20513C6D696E5F7361
:101DB00065676D656E745F74696D655F75733E20F0
:101DC000533C6D696E5F66656564726174653E2043
:101DD000543C6D696E5F74726176656C5F666565B3
:101DE00064726174653E0020540020520020204D32
:101DF000323034205000416363656C6572617469F0
:101E00006F6E2028756E6974732F7332293A2050D3
:101E10003C7072696E745F616363656C3E20523C16
:101E2000726574726163745F616363656C3E2054B4
:101E30003C74726176656C5F616363656C3E0A0039
:101E4000204500205A0020590020204D32303120FA
:101E500058004D6178696D756D20416363656C65EF
:101E6000726174696F6E2028756E6974732F733296
:101E7000293A0A00204500205A0020590020204D10
:101E80003230332058004D6178696D756D2066657C
:101E9000656472617465732028756E6974732F733D
:101EA000293A0A00204500205A0020590020204DE0
:101EB0003932205800537465707320706572207534
:101EC0006E69743A0A0020204D3230302044300AC6
:101ED0000020204D3230302044002044697361627C
:101EE0006C65640A0046696C616D656E742073658B
:101EF0007474696E67733A002020473231202020C5
:101F0000203B004B64200023646566696E652044B5
:101F1000454641554C545F004B692000236465667B
:101F2000696E652044454641554C545F004B702016
:101F30000023646566696E652044454641554C54EE
:101F40005F00504944204175746F74756E6520665A
:101F5000696E6973686564212050757420746865C2
:101F6000206C617374204B702C204B6920616E646F
:101F7000204B6420636F6E7374616E74732066729D
:101F80006F6D2062656C6F7720696E746F20436F90
:101F90006E66696775726174696F6E2E680A0050AB
:101FA0004944204175746F74756E65206661696C73
:101FB0006564212074696D656F75740A0045312070
:101FC000544845524D414C2052554E4157415900BD
:101FD00042454420544845524D414C2052554E41B3
:101FE00057415900546865726D616C2052756E617D
:101FF0007761790045312048656174696E672066B4
:1020000061696C6564004265642068656174696E2D
:1020100067206661696C65640048656174696E6714
:10202000206661696C656400504944204175746F95
:1020300074756E65206661696C6564212054656DF8
:10204000706572617475726520746F6F206869675E
:10205000680A00204B643A2000204B693A20002097
:102060004B703A20000A20436C61737369632050FF
:102070004944200A002054753A2000204B753A202C
:1020800000206D61783A2000206D696E3A200020B2
:10209000643A200020626961733A2000504944206C
:1020A0004175746F74756E65206661696C65642135
:1020B00020426164206578747275646572206E7563
:1020C0006D6265720A00504944204175746F7475E1
:1020D0006E652073746172740A006265640A002C74
:1020E0002073797374656D2073746F7070656421EB
:1020F000204865617465725F49443A200042656416
:102100002068656174696E67206661696C6564004A
:1021100048656174696E67206661696C6564004535
:10212000312048656174696E67206661696C656419
:102130000048656174696E67206661696C6564005A
:1021400000002100240027002A002D003000330069
:1021500001010000040107010A0100000A0B020945
:102160000C0D0E0807030401000000000000000031
:10217000000000000000000000000000000000005F
:10218000000000000000121110000000000000001C
:10219000000000000000000000000000000000003F
:1021A000545249474745524544006F70656E003AA6
:1021B00020007A5F6D696E00795F6D696E00785FEF
:1021C0006D696E005265706F7274696E6720656E1E
:1021D0006473746F70207374617475730A00466958
:1021E0006C616D656E7420757365643A200053747C
:1021F0006174733A20002C204C6F6E6765737420F5
:102200006A6F623A2000546F74616C2074696D6566
:102210003A200053746174733A20002C204661699F
:102220006C65643A20002C2046696E6973686564A9
:102230003A20005072696E74733A200053746174CE
:10224000733A2000BDA59EA711241FBECFEFD1E297
:10225000DEBFCDBF00E00CBF13E0A0E0B2E0E4E0E1
:10226000FEE601E00BBF02C007900D92A031B1075E
:10227000D9F72FE0A0E1B3E001C01D92AE39B2075B
:10228000E1F711E1C3E2D1E100E006C021970109C5
:10229000802FFE010E94A8B6C232D10780E0080755
:1022A000A9F70E945C910C94F1B60C940000809107
:1022B000EC0B9091ED0B981759F0E92FF0E0E459F1
:1022C000F44F80819F5F9F779093ED0B90E008958E
:1022D0008FEF9FEF0895CF92DF92EF920F931F93AE
:1022E000CF93DF93CDB7DEB760970FB6F894DEBF1C
:1022F0000FBECDBFE0904F0CE0E5FCE080859185FE
:10230000A285B385448155816681778100811181E1
:102310002281338109831A832B833C834D835E831F
:102320006F83788789879A87AB87BC871D861E86CF
:102330001F86188AAE01475F5F4FBE016B5F7F4FFC
:10234000CE0101960E94AC8ACE010D966C010DE281
:1023500012E02CE53CE0AE01475F5F4FBE016B5FD2
:102360007F4F0C970E94A53C60960FB6F894DEBF95
:102370000FBECDBFDF91CF911F910F91EF90DF90F6
:10238000CF900895882319F0813021F0089581EECF
:102390009DE002C088E69DE00C943C5FFF920F93A5
:1023A0001F93CF93DF93FC0120812B3319F1D09140
:1023B0008905D430F8F4F62EBC01C09190050C2F9D
:1023C00010E0F0E6CF9FC0011124895F9B4F0E946F
:1023D000D1B6F801E450FC4FF082CF5FC43018F45E
:1023E000C093900502C010929005DF5FD0938905DD
:1023F00081E001C080E0DF91CF911F910F91FF90AC
:102400000895BC0189E29FE00E94C8276CE271E058
:1024100080E090E00C94E1758091F8059091F905C9
:10242000A091FA05B091FB0580932D0290932E02A6
:10243000A0932F02B09330028091F6059091F7059A
:102440009093320280933102089580912D029091F1
:102450002E02A0912F02B09130028093F805909344
:10246000F905A093FA05B093FB0580913102909194
:1024700032029093F7058093F60584E690E09093FE
:1024800032028093310208952F923F924F925F92D1
:102490006F927F928F929F92AF92BF92CF92DF9274
:1024A000EF92FF920F931F93CF93DF93CDB7DEB7D9
:1024B0002A970FB6F894DEBF0FBECDBF2B013C01AB
:1024C0002D833E834F83588747015801DA86C9869A
:1024D00080912D0290912E02A0912F02B091300296
:1024E00089839A83AB83BC83D6011C9111960C918E
:1024F000119712963C90129713962C9020E030E0A2
:10250000A901612F702F832D922D0E94EFAC8111B4
:102510000AC0EEEFF8E185919591A591B491182F3D
:10252000092F3A2E2B2EA50194016091580C709121
:10253000590C80915A0C90915B0C0E94EFAC87FF74
:1025400015C0812F902FA32DB22D80932D02909333
:102550002E02A0932F02B09330028092580C9092DA
:10256000590CA0925A0CB0925B0CB5DEE985FA8545
:10257000C080D180E280F38020E030E0A901C70173
:10258000B6010E94EFAC811107C085E5C82EDC2C96
:1025900085E0E82E83E4F82EC0922D02D0922E0220
:1025A000E0922F02F09230024092500C5092510C67
:1025B0006092520C7092530C8D819E81AF81B885D0
:1025C0008093540C9093550CA093560CB093570CD9
:1025D00082DE2091580C3091590C40915A0C509148
:1025E0005B0CC501B4010E94EFAC87FF15C0812FC1
:1025F000902FA32DB22D80932D0290932E02A093A5
:102600002F02B09330028092580C9092590CA092F5
:102610005A0CB0925B0C5FDE0E945B4A89819A8102
:10262000AB81BC8180932D0290932E02A0932F0248
:10263000B09330022A960FB6F894DEBF0FBECDBF1E
:10264000DF91CF911F910F91FF90EF90DF90CF908E
:10265000BF90AF909F908F907F906F905F904F90C2
:102660003F902F900895CF92DF92EF92FF920F93B9
:102670001F936B01FC01E080F18002811381E0E592
:10268000FCE024813581468157816081718182819E
:102690009381FADE1F910F91FF90EF90DF90CF9022
:1026A0000895BF92CF92DF92EF92FF920F931F9304
:1026B000CF93DF93CDB7DEB728970FB6F894DEBF80
:1026C0000FBECDBF90917F0F981709F476C0B82E3A
:1026D00080E090E0A0E7B1E48D839E83AF83B8876C
:1026E000C0903B0CD0903C0CE0903D0CF0903E0C28
:1026F00020E030E0A901C701B6010E94EFAC87FFDE
:102700000CC0A701960160E070E080E791E40E94B0
:10271000B9B36D837E838F83988720E030E04BE9E7
:1027200053E46D817E818F8198850E94E1B51816F2
:1027300044F480E090E0ABE9B3E48D839E83AF8303
:10274000B8872D813E814F8158856091580C7091DA
:10275000590C80915A0C90915B0C0E94EFAC87FF52
:102760000AC019821A821B821C82BE016F5F7F4FD2
:10277000CE01059678DF6091500C7091510C8091DC
:10278000520C9091530C2091540C3091550C409167
:10279000560C5091570C19821A821B821C82E090B1
:1027A000580CF090590C00915A0C10915B0CFE01E2
:1027B00031966F0169DEB0927F0F80E028960FB6E8
:1027C000F894DEBF0FBECDBFDF91CF911F910F9167
:1027D000FF90EF90DF90CF90BF9008950F931F93DD
:1027E000CF93DF9394E0899FE00111248E01015D76
:1027F000134FFE01E552FC4FDE01A25CBC4F2D9150
:102800003D914D915C9160817181828193810E94A3
:10281000BAB3F8016083718382839383FE01EE591A
:10282000F74F85919591A591B491FE01E15EF34F2B
:1028300080839183A283B383FE01E259F74F859190
:102840009591A591B491C05EDD4F88839983AA8349
:10285000BB83DF91CF911F910F9108950F931F9329
:10286000CF93DF93CDB7DEB72C970FB6F894DEBFCA
:102870000FBECDBFE0E5FCE080859185A285B385E4
:102880004481558166817781008111812281338164
:1028900009831A832B833C834D835E836F83788700
:1028A00089879A87AB87BC87AE01475F5F4FBE01C0
:1028B0006B5F7F4FCE0101960E94AC8A2CE53CE015
:1028C000AE01475F5F4FBE016B5F7F4FCE01019648
:1028D0000E9412902C960FB6F894DEBF0FBECDBFAB
:1028E000DF91CF911F910F9108952F923F924F92B8
:1028F0005F926F927F929F92AF92BF92CF92DF9240
:10290000EF92FF920F931F93CF93DF93CDB7DEB774
:1029100064970FB6F894DEBF0FBECDBFA82E1A0184
:102920002B01922EB32EC82ED12CF601E358FA4F6C
:10293000E491EE24E3941E160CF4E12CFF24F394AE
:1029400020E030E0A901C201B1010E94E1B51816F2
:102950000CF0F12CFE2419F061E08A2D13DDCC0C73
:10296000DD1CCC0CDD1CC601805B934F3C01FC01DF
:10297000108211821282138271DFF3012082318270
:1029800042825382E0904F0C20E030E0A901B80170
:10299000892D9B2D0E94EFAC81110AC0F601EA50EF
:1029A000F74E85919591A591B4918C019A2EBB2EED
:1029B000C801A92DBB2D898B9A8BAB8BBC8B8091C9
:1029C000580C9091590CA0915A0CB0915B0C40910D
:1029D000540C5091550C6091560C7091570C00910D
:1029E000500C1091510C2091520C3091530C0983D2
:1029F0001A832B833C834D835E836F83788789871B
:102A00009A87AB87BC871D861E861F86188AAE01F3
:102A1000475F5F4FBE016B5F7F4FCE0101960E9403
:102A2000AC8ACE010D966C018E010F5E1F4F2CE516
:102A30003CE0AE01475F5F4FBE016B5F7F4F0C977D
:102A40000E94A53C0E945B4AFF2071F0809187059F
:102A5000882331F01092870560E08A2D93DC04C052
:102A60008BE299E00E94D05A64960FB6F894DEBFCC
:102A70000FBECDBFDF91CF911F910F91FF90EF90CF
:102A8000DF90CF90BF90AF909F907F906F905F90BE
:102A90004F903F902F900895CF939091FB039817FC
:102AA000B1F0C82F0E945B4AC093FB03C11109C05B
:102AB0000E940B518EE793E00E94BC4A0E94B356DD
:102AC00004C080E59CE00E94BC4ACF91C7CECF9164
:102AD000089580E0E1DFEFE5FEE080E090E0A0E82F
:102AE000BFE380839183A283B3831482158216820D
:102AF000178210861186128613861486158616860E
:102B00001786808B918BA28BB38B148A158A168AB9
:102B1000178A108E118E128E138E148E158E168EAD
:102B2000178E80A391A3A2A3B3A308958091BD03A0
:102B30009091BE03009731F04AE050E060E070E011
:102B40000C9441AA60E070E0CB010895EFDF97FD9F
:102B50000AC0ECDF6F3F71058105910509F02CF487
:102B6000E5DF862F089580E008958FEF0895809126
:102B7000BD039091BE03892B31F0E8DF91E0811114
:102B800003C090E001C091E0892F08950F931F9337
:102B9000CF938091BD039091BE03009711F1FC018A
:102BA0008F01C1912C2F2F7DA9F0C53411F0C536AE
:102BB000B9F7F801108260E070E08091BD03909158
:102BC000BE030E94EDA8F801C083562F472F382F6F
:102BD000292F0BC060E070E0CF911F910F910C94F2
:102BE000EDA850E040E030E020E0652F742F832F07
:102BF000922FCF911F910F91089581548A3108F03F
:102C000042C0E82FF0E040912A0350912B036091DD
:102C10002C0370912D0304C07695679557954795C1
:102C20008A95D2F7842F817040FF2FC0E05FFC4F60
:102C30009081992309F1E0912C0CF0912D0CE90F72
:102C4000F11D908120ED290F2A3098F09E3211F469
:102C500091810CC09D3211F09B3271F4918120ED75
:102C6000290F2A3030F09E3239F4928190539A30F5
:102C700018F42E2F9F2F02C020E090E02093BD0378
:102C80009093BE03089580E008950895B6DF8823E9
:102C900041F081E02091BD033091BE03232B09F464
:102CA00080E008959F92AF92BF92CF92DF92EF9211
:102CB000FF920F931F93CF93DF9383EDA82E82E0B3
:102CC000B82E0FE31CE0C0E5DCE09FE2C92E9CE0DB
:102CD000D92E20E0E22E24E0F22E912CF5018191F4
:102CE0005F018BDF882301F151DFF7012081211182
:102CF00004C020910404222339F0288139814A81BB
:102D00005B810E94BAB30AC0F3E09F1639F0F60166
:102D100020813181428153810E94B9B3F8016083DF
:102D200071838283938309C088819981AA81BB8141
:102D3000F80180839183A283B38393940C5F1F4F28
:102D40002496F4E0CF0ED11C2FEFE21AF20A84E0B1
:102D50009812C4CF86E49ADF8823B9F017DF20E009
:102D600030E0A9010E94E1B518167CF40FDF20E0E5
:102D700030E040E752E40E9496B460932D027093D5
:102D80002E0280932F02909330028091060483FDDF
:102D900028C08091970F882321F120915C0C3091FD
:102DA0005D0C40915E0C50915F0C60914B0C7091EA
:102DB0004C0C80914D0C90914E0C0E94B9B3209117
:102DC0000C0630910D0640910E0650910F060E94A0
:102DD000BAB360930C0670930D0680930E06909321
:102DE0000F06DF91CF911F910F91FF90EF90DF9031
:102DF000CF90BF90AF909F9008952F923F924F92A7
:102E00005F926F927F928F929F92AF92BF92CF927A
:102E1000DF92EF92FF920F931F93CF93DF93EB011B
:102E2000FC0180809180A280B380C501B40120E8BC
:102E300031E541E050E00E945CB3C9016DE671E00C
:102E40000E9494B66B017C01C501B40120E13EE013
:102E500040E050E00E945CB3CA01B90128E130E0D3
:102E600040E050E00E945CB3362E272E062F172F2D
:102E70008CE3482E512C612C712CC501B401A301A7
:102E800092010E945CB3B62EA72ECA01B901A3011C
:102E900092010E945CB3CB01C114D104D9F0AF926E
:102EA000BF927F936F932F923F92FF92EF92DF92A8
:102EB000CF928DE297E09F938F93DF93CF930E9401
:102EC000C1AC8DB79EB70E960FB6F8949EBF0FBEDD
:102ED0008DBF5CC0E114F104C9F0AF92BF927F9343
:102EE0006F932F923F92FF92EF928DE197E09F9325
:102EF0008F93DF93CF930E94C1ACEDB7FEB73C96A2
:102F00000FB6F894FEBF0FBEEDBF40C0012BB9F065
:102F1000AF92BF927F936F932F923F9281E197E0A0
:102F20009F938F93DF93CF930E94C1AC8DB79EB7D1
:102F30000A960FB6F8949EBF0FBE8DBF27C0892B8F
:102F4000A9F0AF92BF927F936F9389E097E09F9330
:102F50008F93DF93CF930E94C1ACEDB7FEB7389645
:102F60000FB6F894FEBF0FBEEDBF10C0AF92BF9278
:102F700085E097E09F938F93DF93CF930E94C1AC3E
:102F80000F900F900F900F900F900F90DF91CF91B7
:102F90001F910F91FF90EF90DF90CF90BF90AF9077
:102FA0009F908F907F906F905F904F903F902F9069
:102FB00008959091C00095FFFCCF8093C6000895BE
:102FC0002F923F924F925F926F927F928F929F9239
:102FD000AF92BF92CF92DF92EF92FF920F931F9327
:102FE000CF93DF93CDB7DEB7C057D1090FB6F894B2
:102FF000DEBF0FBECDBF0E94B1698111DBC38091DE
:10300000FB03882351F08FE441DE882311F0AFDD0C
:1030100002C08FE4F2DD8111CDC380E090E0A0E238
:10302000B2E489839A83AB83BC8380E090E0A2EA18
:10303000B2E48D839E83AF83B88719861A861B8678
:103040001C8680E090E8AEE8B3E48D879E87AF876A
:10305000B88B40E050E062E073E4498B5A8B6B8B95
:103060007C8B1D8A1E8A1F8A188E498F5A8F6B8F00
:103070007C8F8D8F9E8FAF8FB8A319A21AA21BA22F
:103080001CA2B090FB038AE4B8DD882311F021DD97
:1030900091C386E5FBDD882319F048DD1B0102C0E2
:1030A000212C312C85E02816310468F0E8E7F9E09E
:1030B00084917F019FEFE91AF90A882309F47AC302
:1030C00078DFF701F5CF84E4E1DD882311F04FDDEF
:1030D00002C084E492DD182F21143104E1F0E2E60D
:1030E000F9E084917F01AFEFEA1AFA0A882319F018
:1030F00060DFF701F6CF112361F0E8E5F9E0849194
:103100007F01BFEFEB1AFB0A882319F052DFF701AA
:10311000F6CF8AE04EDF0E945B4A80E0BDDC81E0B2
:10312000C0DA882319F08B2DB7DC44C38ED985E42F
:10313000ADDD882329F01BDD882329F001E004C0E0
:1031400085E45BDDF9CF02E0FE0131967F016E017F
:10315000F5E2CF0ED11CF70180819181A281B3816C
:1031600069968CAF9DAFAEAFBFAF699784819581F3
:10317000A681B7816D968CAF9DAFAEAFBFAF6D9797
:10318000222D402FBE01675A7F4FCE018B5A9F4F91
:103190000E94A665A1966CAF7DAF8EAF9FAFA19741
:1031A0009B01AC010E9469B6882319F08B2D74DC59
:1031B00050C2A1968CAD9DADAEADBFADA197F7014C
:1031C00080879187A287B387FCE0EF0EF11CEC1497
:1031D000FD0409F0C0CF11113CC2CD84DE84EF8420
:1031E000F88849885A886B887C888D889E88AF8843
:1031F000B88CA501940169A17AA18BA19CA10E9420
:10320000B9B3A5966CAF7DAF8EAF9FAFA597A30165
:1032100092016D8D7E8D8F8D98A10E94B9B3A99674
:103220006CAF7DAF8EAF9FAFA997A7019601698D57
:103230007A8D8B8D9C8D0E94B9B3AD966CAF7DAFAE
:103240008EAF9FAFAD97A501940169857A858B8577
:103250009C850E94B9B34B015C01A301920160E01F
:1032600070E082EA92E40E94B9B32B013C01A7010D
:10327000960160E070E080E292E40E94B9B36B01D5
:103280007C01A5962CAD3DAD4EAD5FADA597C301BC
:10329000B2010E9454ADE1966CAF7DAF8EAF9FAF8F
:1032A000E197A9962CAD3DAD4EAD5FADA997C50197
:1032B000B4010E9454AD9B01AC01E1966CAD7DADB3
:1032C0008EAD9FADE1970E94B9B32D966CAF7DAFE7
:1032D0008EAF9FAF2D97AD962CAD3DAD4EAD5FAD92
:1032E000AD97C501B4010E9454AD4B015C01A59698
:1032F0002CAD3DAD4EAD5FADA597C701B6010E94A7
:1033000054AD9B01AC01C501B4010E94B9B36196F3
:103310006CAF7DAF8EAF9FAF6197A9962CAD3DADE1
:103320004EAD5FADA997C701B6010E9454AD6B01C8
:103330007C01AD962CAD3DAD4EAD5FADAD97C301FB
:10334000B2010E9454AD9B01AC01C701B6010E94BD
:10335000B9B365966CAF7DAF8EAF9FAF6597CE0169
:10336000875B9F4F0E944A752D96CCACDDACEEACCE
:10337000FFAC2D9761964CAC5DAC6EAC7FAC6197A9
:1033800065968CAC9DACAEACBFAC659720E030E0F0
:10339000A901C501B4010E94EFAC87FF0CC0F7FA88
:1033A000F094F7F8F09477FA709477F87094B7FA8D
:1033B000B094B7F8B0942D96CCAEDDAEEEAEFFAEC5
:1033C0002D9761964CAE5DAE6EAE7FAE6197659601
:1033D0008CAE9DAEAEAEBFAE65972196CCAEDDAEE7
:1033E000EEAEFFAE219725964CAE5DAE6EAE7FAED3
:1033F000259729968CAE9DAEAEAEBFAE2997CE0175
:10340000CD960E944A7580E090E0A0E8BFE389ABCA
:103410009AABABABBCAB1DAA1EAA1FAA18AEC701C4
:10342000B6019058A50194010E9496B469AF7AAF95
:103430008BAF9CAFCE01C1960E944A752196CCAC51
:10344000DDACEEACFFAC2197A596CCAEDDAEEEAE1A
:10345000FFAEA5972596CCACDDACEEACFFAC2597C6
:10346000A996CCAEDDAEEEAEFFAEA9972996CCAC58
:10347000DDACEEACFFAC2997AD96CCAEDDAEEEAEDA
:10348000FFAEAD97C9A8DAA8EBA8FCA84DA85EA826
:103490006FA878AC89AD9AADABADBCADE1968CAF01
:1034A0009DAFAEAFBFAFE1979C01AD01A9966CADEA
:1034B0007DAD8EAD9FADA9970E9454AD4B015C01CF
:1034C000A3019201AD966CAD7DAD8EAD9FADAD9774
:1034D0000E9454AD9B01AC01C501B4010E94B9B377
:1034E0006DA37EA38FA398A7A7019601AD966CAD9F
:1034F0007DAD8EAD9FADAD970E9454AD4B015C018B
:10350000E1962CAD3DAD4EAD5FADE197A5966CADAE
:103510007DAD8EAD9FADA5970E9454AD9B01AC01D2
:10352000C501B4010E94B9B369A77AA78BA79CA76C
:10353000A3019201A5966CAD7DAD8EAD9FADA59713
:103540000E9454AD4B015C01A7019601A9966CAD98
:103550007DAD8EAD9FADA9970E9454AD9B01AC018E
:10356000C501B4010E94B9B36DA77EA78FA798AB20
:10357000CE0185960E944A758DA09EA0AFA0B8A4EA
:1035800049A55AA56BA57CA58DA59EA5AFA5B8A9F3
:10359000C0925F0ED092600EE092610EF092620EC9
:1035A0004092630E5092640E6092650E7092660EA9
:1035B000E196CCACDDACEEACFFACE197C092670E0F
:1035C000D092680EE092690EF0926A0E80926B0EB5
:1035D00090926C0EA0926D0EB0926E0E40936F0E94
:1035E0005093700E6093710E7093720E8093730EF1
:1035F0009093740EA093750EB093760EA596CCACF6
:10360000DDACEEACFFACA597C092770ED092780EF1
:10361000E092790EF0927A0EA996CCACDDACEEACCD
:10362000FFACA997C0927B0ED0927C0EE0927D0EEB
:10363000F0927E0EAD96CCACDDACEEACFFACAD97AF
:10364000C0927F0ED092800EE092810EF092820E98
:10365000B12C80E026D8882319F08B2D1DDA9FC06D
:10366000A1962CAD3DAD4EAD5FADA197CA01B9019C
:103670000E9469B6811193C0232821F089E399E063
:103680000E943961111188C08CE0E0E5FCE0DE01A8
:10369000959601900D928A95E1F781E08093FB0366
:1036A000CE0185960E94BC4A20E030E040E851E41B
:1036B00069966CAD7DAD8EAD9FAD69970E94BAB332
:1036C0009B01AC016091500C7091510C8091520C97
:1036D0009091530C0E94B9B36B017C012DEB37E341
:1036E00046E855EB0E94E1B587FD4BC02DEB37E373
:1036F00046E855E3C701B6010E94EFAC18160CF47A
:1037000040C020E030E042EA52E46D966CAD7DAD01
:103710008EAD9FAD6D970E94B9B39B01AC016091D6
:10372000540C7091550C8091560C9091570C0E943E
:10373000B9B36B017C012DEB37E346E855EB0E94F2
:10374000E1B587FD1EC02DEB37E346E855E3C70121
:10375000B6010E94EFAC1816A4F0A1962CAD3DADB9
:103760004EAD5FADA1976091580C7091590C80914E
:103770005A0C90915B0C0E94B9B36DA77EA78FA7DE
:1037800098AB8CE0FE01B596A0E5BCE001900D92EF
:103790008A95E1F781E001C08B2D8093FB030E94A5
:1037A0000C1281E0809305048091FB03811156D8AF
:1037B0000E94C66DC059DF4F0FB6F894DEBF0FBE32
:1037C000CDBFDF91CF911F910F91FF90EF90DF90D0
:1037D000CF90BF90AF909F908F907F906F905F90B1
:1037E0004F903F902F9008951F93CF93DF9388239E
:1037F00029F04B9909C08AE090E002C08AE590E088
:103800000E94011210E04CC080EA90E00E94011278
:103810008AE090E00E9401128AE590E00E94011285
:103820006CED75E080E090E00E94E1754B9BE3CF8A
:10383000E2EEFAE18491EF012196882319F0B9DBD9
:10384000FE01F8CFE1EFF8E08491EF0121968823A3
:1038500019F0AFDBFE01F8CF0E94CE3B10910A02B7
:103860001123E9F0E2EEFAE18491EF012196882339
:1038700019F09FDBFE01F8CFEAE7F8E08491EF0151
:103880002196882319F095DBFE01F8CF6EE571E0F3
:1038900080E090E00E94E17510920A0201C011E000
:1038A000812FDF91CF911F9108951F93CF93DF93C5
:1038B000CDB7DEB728970FB6F894DEBF0FBECDBFE9
:1038C00069837A838B839C832D833E834F835887C0
:1038D00081E08ADF882311F081E02EC0BE016B5F9A
:1038E0007F4FCE0101960E94331380918705182FD8
:1038F000147082FF04C080E077DF8111EDCF109259
:1039000087050E940B518EE793E00E94BC4A80918C
:10391000860390918703A0918803B09189038093D7
:10392000580C9093590CA0935A0CB0935B0C0E94C6
:103930002E1481E0111180E028960FB6F894DEBFB6
:103940000FBECDBFDF91CF911F910895EF92FF92EF
:103950000F931F93CF93DF937C0184E597D9D82FE2
:10396000882311F1F3D8C82F1816D4F4ECEDFAE13E
:1039700084918F010F5F1F4F882319F01ADBF80124
:10398000F7CF8DE416DBC7010E94AE676C2FCC0F1A
:10399000770B8FE498E00E943A298AE00ADB08C09E
:1039A0008093EC03D0E004C080914F0C8093EC0333
:1039B0008D2FDF91CF911F910F91FF90EF90089580
:1039C000CF92DF92EF92FF920F931F93CF93DF93EB
:1039D00080918905843008F01FC10E945711AC0105
:1039E00097FD1AC1982F2091610C3091620C8A309A
:1039F00019F09D3009F0DEC01092F5052115310552
:103A000019F40E943F7DE4CFF901EB56FA4F108282
:103A10001092620C1092610CC5E9D5E0FE01819113
:103A2000803211F4EF01FACF8E3409F07EC0209776
:103A300009F47BC06AE478E0CE010E94A7AC8C0157
:103A4000892B41F06EE470E0CE0104960E94BDB671
:103A5000009709F4CE014AE050E060E070E0019682
:103A60000E9441AA609391057093920580939305FB
:103A700090939405C090630CD090640CE090650C1A
:103A8000F090660C2FEFC21AD20AE20AF20A6C1505
:103A90007D058E059F0529F0012B19F487E198E03B
:103AA0002AC06AE270E0CE010E94E6B69C0100974F
:103AB00001F1982F9C1B10E0992339F09150FE01E1
:103AC000E90FF11D80811827F7CF4AE050E060E050
:103AD00070E0C90101960E9441AA012F10E020E088
:103AE00030E0601771078207930779F088EF97E05D
:103AF00002C08EEC97E0DF91CF911F910F91FF9064
:103B0000EF90DF90CF900C94FB688091910590919D
:103B10009205A0919305B09194058093630C9093C6
:103B2000640CA093650CB093660C80910A0281111D
:103B30001EC067E470E0CE010E94BDB60097B9F0E8
:103B40004AE050E060E070E001960E9441AA6430D3
:103B500071058105910558F4E7E5F7E084918F013F
:103B60000F5F1F4F882319F024DAF801F7CF68EFB1
:103B700072E0CE010E94C8B6892B11F410920B029C
:103B80006DEF72E0CE010E94C8B6892B21F48EE45D
:103B900097E00E94D05A62E073E0CE010E94C8B65E
:103BA000892B11F40E94935261E085E995E00E940F
:103BB000CE110ECF2F3531050CF00ACF9C35C1F454
:103BC0000E94571197FD04CF2091F505211100CFD8
:103BD0002091610C3091620CA9014F5F5F4F5093AF
:103BE000620C4093610CF901EB56FA4F8083F0CEE2
:103BF0009B3319F481E08093F5058091F5058111DF
:103C0000E7CEC90101969093620C8093610CF90193
:103C1000EB56FA4F4083DCCEDF91CF911F910F918D
:103C2000FF90EF90DF90CF900895BF92CF92DF92F8
:103C3000EF92FF920F931F93CF93DF93CDB7DEB731
:103C40006E970FB6F894DEBF0FBECDBF60916A0BC2
:103C500070916B0B6115710551F14DE150E0CE0192
:103C600001967C010E9498AC1E8EF7018F010E19FF
:103C70001F09B190BB2021F19AE0B912F7CF20C003
:103C8000B70181E497E00E94532982E292D98AE049
:103C900090D9BB2059F10F5F1F4F80916A0B909113
:103CA0006B0B080F191F10936B0B00936A0B81E0CD
:103CB00020916A0B30916B0B232BD9F480E019C053
:103CC000F701E00FF11F108260E0C7010E94CE11E2
:103CD000882369F3ECEDFAE184916F019FEFC91A33
:103CE000D90A882369F265D9F601F6CF00E010E021
:103CF000DACF6E960FB6F894DEBF0FBECDBFDF9160
:103D0000CF911F910F91FF90EF90DF90CF90BF90D8
:103D100008958F929F92AF92BF92EF92FF920F936E
:103D20001F93CF93DF93CDB7DEB7A0970FB6F8946C
:103D3000DEBF0FBECDBF611571058105910589F10B
:103D400000E0842E912CA12CB12C102FEE24E394B2
:103D5000F12CEC0EFD1EE00EF11C07FDFA94A501FE
:103D600094010E945CB3F7016083B901CA010F5F3F
:103D7000611571058105910541F71F3F21F1E1E0D2
:103D8000F0E0EC0FFD1FE10FF11D17FDFA958081AA
:103D90008A3010F097E301C090E3890F0AD91150DF
:103DA000ECCF80E3A0960FB6F894DEBF0FBECDBF78
:103DB000DF91CF911F910F91FF90EF90BF90AF9047
:103DC0009F908F90F6C8A0960FB6F894DEBF0FBEF6
:103DD000CDBFDF91CF911F910F91FF90EF90BF90DA
:103DE000AF909F908F900895CF92DF92EF92FF92C5
:103DF0006B017C0197FF0AC08DE2DBD8F094E09460
:103E0000D094C094C11CD11CE11CF11C4AE0C70134
:103E1000B601FF90EF90DF90CF907BCF8F929F9273
:103E2000AF92BF92CF92DF92EF92FF92CF936B014E
:103E30007C01B42E20E030E0A9010E94EFAC87FFA6
:103E400006C08DE2B6D8F7FAF094F7F8F094C0E027
:103E500060E070E080E09FE3CB1541F02DEC3CEC9E
:103E60004CEC5DE30E9454ADCF5FF6CF9B01AC01FB
:103E7000C701B6010E94BAB36B017C010E9403B571
:103E80004B015C014AE045DFCC2379F1C501B40167
:103E90000E94F3AC9B01AC01C701B6010E94B9B30B
:103EA0006B017C018EE285D820E030E040E251E4F5
:103EB000C701B6010E9454AD4B015C010E94FEB4E3
:103EC0006B01770FEE08FF08C701B6018DDFC70150
:103ED000B6010E94F5AC9B01AC01C501B4010E9482
:103EE000B9B36B017C01C150F9F6CF91FF90EF900F
:103EF000DF90CF90BF90AF909F908F9008951F92CA
:103F00000F920FB60F9211240BB60F922F938F932F
:103F10009F93EF93FF932091ED0BE091EC0B81E0E9
:103F20008E0F8F779091C600281729F0F0E0E459A2
:103F3000F44F9083E82FE093EC0BFF91EF919F916A
:103F40008F912F910F900BBE0F900FBE0F901F906F
:103F5000189580915D0E90915E0E891B8F7019F4FB
:103F600080E090E0089590915A0E992351F08330AB
:103F700030F48FEF890F19F080935A0EF1CF109221
:103F80005A0EE0915E0E8DE4E89FF0011124E05F8F
:103F9000F94F808180FDE4CF80915E0E8F5F8F703E
:103FA00080935B0E90915E0E80915C0E981304C01E
:103FB00080915B0E80935C0ECF010895CF92DF92CB
:103FC000EF92FF920F931F93CF93DF936C018B01BE
:103FD0007A01EC01CE51D54F888187FF04C0FB01E7
:103FE0001182108224C02CE02C9DC0012D9D900DCB
:103FF00011242881AC01420F511D27FD5A952091B3
:10400000280F30E04217530794F42881AC01420F87
:10401000511D27FD5A959A01FA01EE0FFF1F2E0F31
:104020003F1FF901E454F14F208126FD19C088811A
:104030008F5F88832CE02C9DC0012D9D900D112455
:104040002881AC01420F511D27FD5A952091280F60
:1040500030E042175307BCF428812C3044F113C0E0
:104060002881820F911D27FD9A95FC01EE0FFF1FFD
:104070008E0F9F1FFC01E454F14F808160E08F732D
:104080000E94D186D4CFF80180819181049680343A
:104090009C4918F480E49CE904C0F8018081918176
:1040A0000496F701918380838FEF888345C0F801E0
:1040B000408151812881BC01620F711D27FD7A95D5
:1040C0009B01FB01EE0FFF1F2E0F3F1FF901E45470
:1040D000F14F21813281240F351FF7013183208375
:1040E0002881AC01420F511D27FD5A959A01FA0112
:1040F000EE0FFF1F2E0F3F1FF901E454F14F2081F7
:1041000026FF1AC02881820F911D27FD9A95FC0178
:10411000EE0FFF1F8E0F9F1FFC01E454F14F8081B3
:1041200061E08F73DF91CF911F910F91FF90EF901E
:10413000DF90CF900C94D186DF91CF911F910F919A
:10414000FF90EF90DF90CF9008950F930FB70F93EC
:1041500000916E000F930B7F00936E0000916F0033
:104160000D7F00936F000F930BB70F930CB70F9257
:104170001F922F933F934F935F936F937F938F93F0
:104180009F93AF93BF93EF93FF93112455D0FF916B
:10419000EF91BF91AF919F918F917F916F915F91BF
:1041A0004F913F912F911F900F900CBF0F910BBF1C
:1041B0000F910260F89400936F000F9100936E00CE
:1041C0000F910FBF0F9118958091E00A80FF03C0F7
:1041D00089988FEF02C0899A81E080930C028091C8
:1041E000E00A81FF03C08F988FEF02C08F9A81E0B1
:1041F00080930D028091E00A82FF09C080910B013B
:104200008095827080930901439A8FEF07C0809157
:104210000B01827080930901439881E080930E0224
:104220008091E00A83FF03C016988FEF02C0169AB0
:1042300081E080930F0208952F923F924F925F92F8
:104240006F927F928F929F92AF92BF92CF92DF92A6
:10425000EF92FF921F93CF93DF93F8948FEF9FEF2E
:1042600090938900809388001AE0C0E0D0E0BCEB16
:104270002B2EB1E13B2E78948091260B9091270B49
:10428000A091280BB091290B892B8A2B8B2B09F03D
:10429000D3C180912F0F8823D1F010922F0F8091DE
:1042A0002D0F90912E0F892B91F01092E10A109210
:1042B0002E0F10922D0F90915D0E80915E0E98172B
:1042C00031F080915E0E8F5F8F7080935E0E8091D3
:1042D0002D0F90912E0F892B09F4AEC18090220BE7
:1042E0009090230BA090240BB090250B40911E0BB7
:1042F00050911F0B6091200B7091210BC090110BFE
:10430000D12CE12CF12CDB01CA0188199909AA09E9
:10431000BB09C816D906EA06FB0610F4D701C60188
:10432000482F880D991DAA1DBB1D8093220B9093C9
:10433000230BA093240BB093250B20918400309184
:104340008500245E3F4FC090F90AD090FA0AE090B1
:10435000FB0AF090FC0A8091E90A9091EA0AA09188
:10436000EB0AB091EC0A8C0D9D1DAE1DBF1D809314
:10437000F90A9093FA0AA093FB0AB093FC0AB7FDDE
:104380001CC0889AC0902E03D0902F03E090300379
:10439000F090310380910C02082E000C990BAA0BAF
:1043A000BB0B8C0D9D1DAE1DBF1D80932E039093E6
:1043B0002F03A0933003B0933103C090FD0AD09037
:1043C000FE0AE090FF0AF090000B8091ED0A9091B8
:1043D000EE0AA091EF0AB091F00A8C0D9D1DAE1D62
:1043E000BF1D8093FD0A9093FE0AA093FF0AB0932D
:1043F000000BB7FD1CC08E9AC0903203D0903303DF
:10440000E0903403F090350380910D02082E000CEB
:10441000990BAA0BBB0B8C0D9D1DAE1DBF1D809370
:10442000320390933303A0933403B0933503C090C9
:10443000010BD090020BE090030BF090040B8091E5
:10444000F10A9091F20AA091F30AB091F40A8C0D4E
:104450009D1DAE1DBF1D8093010B9093020BA09379
:10446000030BB093040BB7FD22C080910B01809524
:10447000887080930901419AC0903603D090370329
:10448000E0903803F090390380910E02082E000C62
:10449000990BAA0BBB0B8C0D9D1DAE1DBF1D8093F0
:1044A000360390933703A0933803B0933903C09039
:1044B000050BD090060BE090070BF090080B809155
:1044C000F50A9091F60AA091F70AB091F80A8C0DBE
:1044D0009D1DAE1DBF1D8093050B9093060BA093F1
:1044E000070BB093080BB7FD1CC0149AC0903A0399
:1044F000D0903B03E0903C03F0903D0380910F028D
:10450000082E000C990BAA0BBB0B8C0D9D1DAE1D2C
:10451000BF1D80933A0390933B03A0933C03B09359
:104520003D038091F90A9091FA0AA091FB0AB0919B
:10453000FC0AB7FD15C0C090E50AD090E60AE090ED
:10454000E70AF090E80A8C199D09AE09BF0980932B
:10455000F90A9093FA0AA093FB0AB093FC0A889890
:104560008091FD0A9091FE0AA091FF0AB091000B84
:10457000B7FD15C0C090E50AD090E60AE090E70AC2
:10458000F090E80A8C199D09AE09BF098093FD0AD5
:104590009093FE0AA093FF0AB093000B8E9880912F
:1045A000010B9091020BA091030BB091040BB7FD8E
:1045B0001AC0C090E50AD090E60AE090E70AF090B1
:1045C000E80A8C199D09AE09BF098093010B9093ED
:1045D000020BA093030BB093040B80910B01887026
:1045E0008093090141988091050B9091060BA09151
:1045F000070BB091080BB7FD15C0C090E50AD0902D
:10460000E60AE090E70AF090E80A8C199D09AE09E5
:10461000BF098093050B9093060BA093070BB093F3
:10462000080B1498415041F08091840090918500CE
:1046300082179307C8F387CE8091260B9091270BA2
:10464000A091280BB091290B892B8A2B8B2B09F079
:104650001CC3E0912D0FF0912E0F309709F491C4F7
:104660008091220B9091230BA091240BB091250BEC
:1046700040911E0B50911F0B6091200B7091210BEC
:1046800084179507A607B707D0F01092E10A109299
:104690002E0F10922D0F90915D0E80915E0E981747
:1046A00009F46FC480915E0E8F5F8F7080935E0EF1
:1046B000A0EDCA2EA7E0DA2EE12CF12C4EC14091DC
:1046C0001A0B50911B0B60911C0B70911D0B48171E
:1046D00059076A077B0708F467C04091160B509191
:1046E000170B6091180B7091190B82A993A9A4A9BB
:1046F000B5A9FF24499FE12C5A9F90016A9F300D74
:10470000699F200D311D4A9FE00C211D3F1D599FBF
:10471000E00C211D3F1D689FE00C211D3F1D589F8F
:10472000E10C2F1D3F1DE6942F1D3F1DB49F200D52
:10473000311DB59F300D112483AD94ADA5ADB6AD3F
:10474000820F931FA11DB11D8093120B9093130B29
:10475000A093140BB093150BC7A8D0ACE1ACF2AC8E
:10476000C816D906EA06FB0640F4C092120BD09296
:10477000130BE092140BF092150B8090120B90909B
:10478000130BA090140BB090150B80EA91E121E07F
:10479000FC01C590D590E590F490C814D904EA04C2
:1047A000FB0408F4B8C2C2C240910D0B50910E0B2D
:1047B00060910F0B7091100B481759076A077B0720
:1047C00008F063C04091090B50910A0B60910B0BEC
:1047D00070910C0B82A993A9A4A9B5A9FF24499FA4
:1047E000E12C5A9F90016A9F300D699F200D311D69
:1047F0004A9FE00C211D3F1D599FE00C211D3F1DCC
:10480000689FE00C211D3F1D589FE10C2F1D3F1D8F
:10481000E6942F1D3F1DB49F200D311DB59F300D17
:104820001124C901A0E0B0E08090120B9090130B0E
:10483000A090140BB090150BFF9688159905AA054A
:10484000BB0580F4C080D180E280F380881A990A89
:10485000AA0ABB0A8C149D04AE04BF0438F44601B6
:10486000570104C080809180A280B38080EA91E1EA
:1048700021E0FC01C590D590E590F490C814D904CE
:10488000EA04FB0408F4BAC2C4C2809111029091F8
:104890001202A0911302B0911402B7FF56C087A96B
:1048A00090ADA1ADB2AD20EA31E141E0F901C59092
:1048B000D590E590F490C816D906EA06FB0658F4A0
:1048C000B695A79597958795440F2C5F3F4FF1E1DB
:1048D0002C3B3F0759F74093110B80329105A105FE
:1048E000B10508F421C38097A109B109811528E019
:1048F0009207A105B10508F4F4C244E0949F900129
:1049000011242056324FF901329645915491EE27E9
:10491000859FB001849F610D7E1F06946E1F7E1FD0
:104920001124CB01A0E0B0E0F9014591549160E081
:1049300070E0481B590B6A0B7B0B4093110250939C
:1049400012026093130270931402C0901102D0906F
:104950001202E0901302F090140280912D0F9091BA
:104960002E0F892B09F089C1F4DA90932E0F8093D2
:104970002D0F892B09F481C1E0912D0FF0912E0F9D
:10498000808183FF3EC085899689A789B08D8093F9
:104990002E0390932F03A0933003B0933103818DA6
:1049A000928DA38DB48D8093320390933303A093A3
:1049B0003403B0933503858D968DA78DB0A1809378
:1049C000360390933703A0933803B093390381A142
:1049D00092A1A3A1B4A180933A0390933B03A09327
:1049E0003C03B0933D0390915D0E80915E0E98174D
:1049F00009F4BACF80915E0E8F5F8F7080935E0E48
:104A0000B3CF85889688A788B08C81E08114910403
:104A1000A104B10409F480E0C18CD28CE38CF48C45
:104A2000C114D104E104F10409F08260458D568D72
:104A3000678D70A1411551056105710509F084600C
:104A40008093E10A1092090B10920A0B10920B0B43
:104A500010920C0B1092160B1092170B1092180B51
:104A60001092190B85A196A1A7A1B0A580931E0B4A
:104A700090931F0BA093200BB093210B442455243B
:104A80003201481A590A6A0A7B0A4092050B509271
:104A9000060B6092070B7092080B4092010B50922C
:104AA000020B6092030B7092040B4092FD0A50922D
:104AB000FE0A6092FF0A7092000B4092F90A50922F
:104AC000FA0A6092FB0A7092FC0A880C991CAA1CD4
:104AD000BB1C8092E90A9092EA0AA092EB0AB0927B
:104AE000EC0ACC0CDD1CEE1CFF1CC092ED0AD0922F
:104AF000EE0AE092EF0AF092F00A440F551F661F8B
:104B0000771F4093F10A5093F20A6093F30A70936F
:104B1000F40A41A152A163A174A1440F551F661F5D
:104B2000771F4093F50A5093F60A6093F70A709343
:104B3000F80A880F991FAA1FBB1F8093E50A90935C
:104B4000E60AA093E70AB093E80A1092220B1092AB
:104B5000230B1092240B1092250B82A593A5A4A5DC
:104B6000B5A580931A0B90931B0BA0931C0BB093CD
:104B70001D0B86A597A5A0A9B1A980930D0B9093B5
:104B80000E0BA0930F0BB093100B41A556A980916B
:104B9000E00A58130AC08091100290E0242F042EDE
:104BA000000C330B2817390729F05093E00A409383
:104BB00010020ADB0E94D88D8FEF9FEFDC018093FB
:104BC000110290931202A0931302B0931402E09189
:104BD0002D0FF0912E0F83AD94ADA5ADB6AD8093A2
:104BE000120B9093130BA093140BB093150B20EAA8
:104BF00031E141E0F901C590D590E590F490C816F7
:104C0000D906EA06FB0650F4B695A79597958795C1
:104C1000440F2C5F3F4F2216330661F74093110B70
:104C200080329105A105B10508F4A6C18097A109BC
:104C3000B1098115F8E09F07A105B10508F479C114
:104C400044E0949F900111242056324FF90132968E
:104C500045915491EE27859FB001849F610D7E1F81
:104C600006946E1F7E1F1124F901C590D490E12C8B
:104C7000F12CC61AD70AE108F108C092260BD0928F
:104C8000270BE092280BF092290B8091260B909134
:104C9000270BA091280BB091290BAC01BD01009707
:104CA000F1E0AF07B10520F04FEF5FEF60E070E09B
:104CB000841B950BA60BB70B8093260B9093270BA9
:104CC000A093280BB093290BF894809184009091C5
:104CD00085004096115039F0C40FD51FC817D90769
:104CE00008F4C9CA01C0EC01D0938900C0938800C0
:104CF0007894DF91CF911F91FF90EF90DF90CF904C
:104D0000BF90AF909F908F907F906F905F904F90EB
:104D10003F902F900895B694A79497948794220F6C
:104D2000049631E18C3B930709F032CD2093110BAF
:104D300080E288169104A104B10408F459C020E26D
:104D4000821A9108A108B108811438E09306A104E1
:104D5000B104F8F0A4E09A9EC00111248056924F4D
:104D6000FC01329625913491F82DEE27F39FD00166
:104D7000F29FA10DBE1F0694AE1FBE1F1124FC01A1
:104D8000C590D490E12CF12CCA1ADB0AE108F10895
:104D900022C0D501C401B695A79597958795FC01CA
:104DA000EC7FCF018056964FFC01C590D490FC015A
:104DB000329625913491E82DE770E29FC001E39F80
:104DC000900D1124F3E096958795FA95E1F7C81AAE
:104DD000D90AE12CF12C4C0D5D1D6E1D7F1D4093F9
:104DE000160B5093170B6093180B7093190BB5CDDE
:104DF000A0E28A2E912CA12CB12CA1CFB694A7941D
:104E000097948794220F0496A1E18C3B9A0709F0AE
:104E100030CD2093110BB0E28B169104A104B104A4
:104E200008F459C020E2821A9108A108B10881143F
:104E300038E09306A104B104F8F0A4E09A9EC00102
:104E400011248056924FFC01329625913491F82D11
:104E5000EE27F39FD001F29FA10DBE1F0694AE1F57
:104E6000BE1F1124FC01C590D490E12CF12CCA1A6C
:104E7000DB0AE108F10822C0D501C401B695A79567
:104E800097958795FC01EC7FCF018056964FFC01EA
:104E9000C590D490FC01329625913491E82DE770AD
:104EA000E29FC001E39F900D112433E09695879512
:104EB0003A95E1F7C81AD90AE12CF12C4C0D5D1D89
:104EC0006E1D7F1D4093090B50930A0B60930B0BD3
:104ED00070930C0B42CDE0E28E2E912CA12CB12CC4
:104EE000A1CFAC01BD017695679557954795FA011D
:104EF000EC7F9F012056364FF90145915491F901FD
:104F00003296659174918770869F9001879F300DCE
:104F10001124C901F3E096958795FA95E1F7481BAE
:104F2000590B60E070E009CD80E290E0A0E0B0E0D5
:104F3000DACCAC01BD017695679557954795FA0196
:104F4000EC7F9F012056364FF901C590D490F901AE
:104F50003296459154918770849F9001859F300DC2
:104F60001124C90123E0969587952A95E1F7C81A7F
:104F7000D90AE12CF12C81CE80E290E0A0E0B0E0F3
:104F800055CE80EDC82E87E0D82EE12CF12CECCC4C
:104F90008F929F92AF92BF92CF92DF92EF92FF9249
:104FA0000F931F93CF93DF938C01EB0160E070E0D0
:104FB0000E942D6987FD8DC0C03282E0D8070CF0B9
:104FC00042C0F801828128E532E0281B310987FDC3
:104FD0003395220F331F220F331F4901330FAA08C5
:104FE000BB08818128E830E06901C81AD10887FD33
:104FF000D394CC0CDD1CCC0CDD1C0D2C000CEE086D
:10500000FF08D7FD0AC0C53BD10514F0C4EBD0E0C2
:10501000BE01DD0F880B990B03C060E070E0CB018F
:10502000A50194012C193D094E095F090E944DB359
:1050300024EB30E040E050E00E947EB3C20ED31E6D
:10504000E41EF51EE601F8013081343280F521813D
:1050500088E890E0821B910927FD9395880F991F9E
:10506000880F991FC817D90784F0F801228188E5B5
:1050700092E0821B910927FD9395880F991F880F55
:10508000991FC817D9070CF4CE0102974FB7F894AF
:10509000232F30E0F901EE0FFF1F2E0F3F1FF90104
:1050A000E454F14F880F991F928381834FBF62E3CD
:1050B00070E080E090E0DF91CF911F910F91FF9021
:1050C000EF90DF90CF90BF90AF909F908F900C9417
:1050D000E175DF91CF911F910F91FF90EF90DF90DD
:1050E000CF90BF90AF909F908F9008951F920F9296
:1050F0000FB60F9211240BB60F922F933F934F933D
:105100005F936F937F938F939F93AF93BF93EF932F
:10511000FF9348E251E064E271E082E090E00E9497
:10512000DE1FFF91EF91BF91AF919F918F917F9182
:105130006F915F914F913F912F910F900BBE0F9008
:105140000FBE0F901F9018951F920F920FB60F92DF
:1051500011240BB60F922F933F934F935F936F934E
:105160007F938F939F93AF93BF93EF93FF9348EAFF
:1051700050E064EA70E081E090E00E94DE1FFF9161
:10518000EF91BF91AF919F918F917F916F915F91BF
:105190004F913F912F910F900BBE0F900FBE0F902C
:1051A0001F9018951F920F920FB60F9211240BB6F5
:1051B0000F922F933F934F935F936F937F938F93B0
:1051C0009F93AF93BF93EF93FF9348E950E064E957
:1051D00070E080E090E00E94DE1FFF91EF91BF91B0
:1051E000AF919F918F917F916F915F914F913F917F
:1051F0002F910F900BBE0F900FBE0F901F90189520
:10520000CF92DF92EF92FF92CF93DF936A017B01FF
:10521000FC018491EF012196882321F00E94D91787
:10522000FE01F7CF4AE0C701B601DF91CF91FF90B1
:10523000EF90DF90CF900C94891ECF92DF92EF9287
:10524000FF92CF93DF936A017B01FC018491EF0110
:105250002196882321F00E94D917FE01F7CF42E062
:10526000C701B601DF91CF91FF90EF90DF90CF9013
:105270000C940E1F0F931F93CF93DF938B01FC01B0
:105280008491EF012196882321F00E94D917FE0115
:10529000F7CFB801110F880B990BDF91CF911F91B8
:1052A0000F910C94F41E0F931F93CF93DF938B01F8
:1052B000FC018491EF012196882321F00E94D917E7
:1052C000FE01F7CFE8018991882319F00E94D917D0
:1052D000FACFDF91CF911F910F910895CF92DF9276
:1052E000EF92FF920F931F9380914E038150823073
:1052F00010F080E05DC010924E030E94C188609360
:105300004A0370934B0380934C0390934D03809119
:10531000020690910306019690930306809302067D
:10532000C090FC05D090FD05E090FE05F090FF05D3
:105330000E9494856093FC057093FD058093FE05A3
:105340009093FF0500910406109105062091060632
:10535000309107060C191D092E093F09DC01CB010C
:10536000800F911FA21FB31F809304069093050620
:10537000A0930606B09307060E9494850091080644
:105380001091090620910A0630910B06061717079F
:105390002807390750F40E9494856093080670939B
:1053A000090680930A0690930B060E946A8F81E09B
:1053B0001F910F91FF90EF90DF90CF900895CF93C2
:1053C000C0914E03C13081F1C23059F40E949485DE
:1053D00060933C0F70933D0F80933E0F90933F0F6F
:1053E00002C00E94C78581E080934E030E94C1885D
:1053F0006093400F7093410F8093420F9093430F3F
:10540000C230A1F080910006909101060196909320
:105410000106809300061092FC051092FD05109283
:10542000FE051092FF0502C080E001C081E0CF912F
:105430000895CF93DF938F389240B1F0E2EEFAE116
:105440008491EF012196882321F00E94D917FE0153
:10545000F7CFE0ECF1E18491EF012196882331F060
:105460000E94D917FE01F7CF80E001C081E0DF91F3
:10547000CF9108952F923F924F925F926F927F92B9
:105480008F929F92AF92BF92CF92DF92EF92FF9254
:105490000F931F93CF93DF93CDB7DEB7C558D109D4
:1054A0000FB6F894DEBF0FBECDBF8DB69EB6E796A1
:1054B0001FAE1EAEE79784E690E0E9969FAF8EAFF1
:1054C000E99701E09E012B583F4F44E050E0BE01B8
:1054D00063597F4FCE0189589F4F0E9444549E01CB
:1054E0002B583F4F42E050E0BE0167587F4FCE013E
:1054F00089589F4F0E94445443E050E0BE016359D5
:105500007F4F8BEC92E00E94D8B6892B09F43BC008
:10551000E1968FADE197882339F08FE3AE968FAF98
:10552000AE97AF961FAEAF97ECEDFAE184918F0185
:105530000F5F1F4F811103C0E3E8F2E104C00E9436
:10554000D917F801F3CF84918F010F5F1F4F882384
:1055500021F00E94D917F801F6CFBE0163597F4FA1
:105560008AE792E1A0DEECE6F2E184918F010F5F21
:105570001F4F882321F00E94D917F801F6CF81E050
:1055800080932A0B34C52DB63EB6AD961CAE1DAE2B
:105590001EAE1FAEAD97E7961FAE1EAEE79701E0B9
:1055A0009E012B583F4F41E050E0BE0160587F4FB5
:1055B000CE0189589F4F0E94445480E1E7E4F2E015
:1055C000DE01D79601900D928A95E1F780E1E7E53B
:1055D000F2E0DE01979601900D928A95E1F780E165
:1055E000E7E6F2E0DE01579601900D928A95E1F729
:1055F000C058DF4F4881C058D04050E04D5F5F4FEA
:10560000440F551F440F551F2DB73EB7241B350BB4
:105610000FB6F8943EBF0FBE2DBF8DB79EB7019653
:105620003C0100E09E012B583F4FBC01CE01895840
:105630009F4F0E9444549E012B583F4F44E050E03E
:1056400067ED73E0CE0189589F4F0E944454C058C3
:10565000DF4FA880C058D040B12C93E0A90EB11CF8
:10566000AA0CBB1CAA0CBB1CEDB7FEB7EA19FB09C0
:105670000FB6F894FEBF0FBEEDBF2DB73EB72F5F3C
:105680003F4F69018DB79EB78A199B090FB6F894F1
:105690009EBF0FBE8DBFEDB7FEB731967F019E0155
:1056A0002B583F4FA501B601CE0189589F4F0E944C
:1056B00044549E012B583F4FA501B701CE01895894
:1056C0009F4F0E9444548091F903882309F4A5C098
:1056D00000E09E012B583F4F44E050E069EB73E03F
:1056E000CE0189589F4F0E9444549E012B583F4F32
:1056F00044E050E061EB73E0CE0189589F4F0E9477
:1057000044549E012B583F4F44E050E065EB73E05A
:10571000CE0189589F4F0E9444549E012B583F4F01
:1057200044E050E063ED73E0CE0189589F4F0E9442
:1057300044549E012B583F4F44E050E06FEC73E01F
:10574000CE0189589F4F0E9444549E012B583F4FD1
:1057500040E150E06FEB73E0CE0189589F4F0E940B
:1057600044549E012B583F4F44E050E0BE0167591E
:105770007F4FCE0189589F4F0E9444549E012B5861
:105780003F4F4CE050E06BED73E0CE0189589F4FE6
:105790000E9444549E012B583F4F44E050E0BE010C
:1057A00067597F4FCE0189589F4F0E9444549E01F4
:1057B0002B583F4F44E050E0BE0167597F4FCE0168
:1057C00089589F4F0E94445401E09E012B583F4F3F
:1057D00041E050E0BE0161587F4FCE0189589F4F94
:1057E0000E9444549E012B583F4F41E050E0BE01BF
:1057F00062587F4FCE0189589F4F0E944454C15830
:10580000DF4F8881CF57D040EF96CFACEF978C9D7C
:1058100060011124E12CF12C8CC0C058DF4F88812D
:10582000C058D04090E0029621EA33E0CE57DF4FD7
:1058300039832883C258D040B7017E0137E1E30E97
:10584000F11C2EE6A22E23E0B22ED6018E01095DB8
:105850001F4F31E9C32E33E0D32ECC57DF4F79826F
:105860006882C458D040AE01495C5F4F20E030E010
:10587000821793073CF0CC57DF4FE881F981C45879
:10588000D04001C0FA014080518062807380F601EF
:1058900041925192619271926F018217930734F095
:1058A0004D905D906D907C90139705C0F8014080FD
:1058B000518062807380F5014192519261927192A0
:1058C0005F018217930714F0FB0101C0F7014080CC
:1058D000518062807380CE57DF4FE881F981C258D2
:1058E000D0404192519261927192CE57DF4FF9832D
:1058F000E883C258D0402F5F3F4F6C5F7F4FF4E08A
:10590000EF0EF11C14960C5F1F4FCC57DF4FE88150
:10591000F981C458D0403496CC57DF4FF983E883DF
:10592000C458D0404C5F5F4F2430310509F0A0CF00
:10593000CFCE00E09E012B583F4F44E050E0EC14E6
:10594000FD0461F0BE0167597F4FCE0189589F4F1A
:105950000E944454FFEFEF1AFF0AEBCF6BE37CE0A9
:10596000CE0189589F4F0E9444549E012B583F4FAF
:1059700044E250E06FE57EE0CE0189589F4F0E94DF
:10598000445401E09E012B583F4F41E050E0BE01DE
:1059900063587F4FCE0189589F4F0E9444549E0107
:1059A0002B583F4F41E050E0BE0164587F4FCE017D
:1059B00089589F4F0E94445400E09E012B583F4F4E
:1059C00044E050E0BE01695B7F4FCE0189589F4F94
:1059D0000E9444549E012B583F4F44E050E0BE01CA
:1059E0006F5F7F4FCE0189589F4F0E944454EE96BF
:1059F0008FADEE97ED96CFACED978C9D60011124A5
:105A0000E12CF12C00E09E012B583F4FCE14DF0417
:105A100071F044E050E0BE0167597F4FCE018958D4
:105A20009F4F0E9444542FEFE21AF20AEBCF41E05D
:105A300050E0BE016F577F4FCE0189589F4F0E94A3
:105A400044549E012B583F4F41E050E0BE01655841
:105A50007F4FCE0189589F4F0E9444549E012B587E
:105A60003F4F44E050E0BE016B597F4FCE01895853
:105A70009F4F0E9444549E012B583F4F44E050E0FA
:105A8000BE016F597F4FCE0189589F4F0E944454E9
:105A90009E012B583F4F44E050E0BE01635A7F4FB8
:105AA000CE0189589F4F0E94445410E000E09E01AF
:105AB0002B583F4F44E050E0BE0167597F4FCE0165
:105AC00089589F4F0E944454111110C0AD96CCAC20
:105AD000DDACEEACFFACAD9720E030E84BE355E435
